{
  "_format": "hh-sol-artifact-1",
  "contractName": "BadgeV1",
  "sourceName": "contracts/BadgeV1.sol",
  "abi": [
    {
      "inputs": [],
      "stateMutability": "nonpayable",
      "type": "constructor"
    },
    {
      "inputs": [],
      "name": "basicUserToken",
      "outputs": [
        {
          "internalType": "contract BasicUserToken",
          "name": "",
          "type": "address"
        }
      ],
      "stateMutability": "view",
      "type": "function"
    },
    {
      "inputs": [
        {
          "internalType": "string",
          "name": "entityName",
          "type": "string"
        }
      ],
      "name": "deployEntity",
      "outputs": [
        {
          "internalType": "contract Entity",
          "name": "",
          "type": "address"
        }
      ],
      "stateMutability": "payable",
      "type": "function"
    },
    {
      "inputs": [
        {
          "internalType": "uint256",
          "name": "",
          "type": "uint256"
        }
      ],
      "name": "entities",
      "outputs": [
        {
          "internalType": "address",
          "name": "",
          "type": "address"
        }
      ],
      "stateMutability": "view",
      "type": "function"
    },
    {
      "inputs": [],
      "name": "genesisToken",
      "outputs": [
        {
          "internalType": "contract GenesisToken",
          "name": "",
          "type": "address"
        }
      ],
      "stateMutability": "view",
      "type": "function"
    },
    {
      "inputs": [],
      "name": "superUserToken",
      "outputs": [
        {
          "internalType": "contract SuperUserToken",
          "name": "",
          "type": "address"
        }
      ],
      "stateMutability": "view",
      "type": "function"
    }
  ],
  "bytecode": "0x60806040523480156200001157600080fd5b50604051620000209062000273565b604051809103906000f0801580156200003d573d6000803e3d6000fd5b50600160006101000a81548173ffffffffffffffffffffffffffffffffffffffff021916908373ffffffffffffffffffffffffffffffffffffffff1602179055506040516200008c9062000281565b604051809103906000f080158015620000a9573d6000803e3d6000fd5b50600260006101000a81548173ffffffffffffffffffffffffffffffffffffffff021916908373ffffffffffffffffffffffffffffffffffffffff160217905550604051620000f8906200028f565b604051809103906000f08015801562000115573d6000803e3d6000fd5b50600360006101000a81548173ffffffffffffffffffffffffffffffffffffffff021916908373ffffffffffffffffffffffffffffffffffffffff160217905550620001a16040518060400160405280601481526020017f53756363657366756c6c79206465706c6f796564000000000000000000000000815250620001a760201b6200034f1760201c565b62000365565b6200024781604051602401620001be9190620002de565b6040516020818303038152906040527f41304fac000000000000000000000000000000000000000000000000000000007bffffffffffffffffffffffffffffffffffffffffffffffffffffffff19166020820180517bffffffffffffffffffffffffffffffffffffffffffffffffffffffff83818316178352505050506200024a60201b60201c565b50565b60008151905060006a636f6e736f6c652e6c6f679050602083016000808483855afa5050505050565b6133e3806200216b83390190565b613530806200554e83390190565b6136ad8062008a7e83390190565b6000620002aa8262000302565b620002b681856200030d565b9350620002c88185602086016200031e565b620002d38162000354565b840191505092915050565b60006020820190508181036000830152620002fa81846200029d565b905092915050565b600081519050919050565b600082825260208201905092915050565b60005b838110156200033e57808201518184015260208101905062000321565b838111156200034e576000848401525b50505050565b6000601f19601f8301169050919050565b611df680620003756000396000f3fe608060405260043610620000505760003560e01c806356a9894114620000555780636331883b14620000855780637369307514620000c9578063b789e03a14620000ff578063fda237f8146200012f575b600080fd5b3480156200006257600080fd5b506200006d6200015f565b6040516200007c9190620005f7565b60405180910390f35b3480156200009257600080fd5b50620000b16004803603810190620000ab9190620004f1565b62000185565b604051620000c09190620005da565b60405180910390f35b620000e76004803603810190620000e19190620004ac565b620001c5565b604051620000f6919062000614565b60405180910390f35b3480156200010c57600080fd5b506200011762000303565b6040516200012691906200064e565b60405180910390f35b3480156200013c57600080fd5b506200014762000329565b60405162000156919062000631565b60405180910390f35b600360009054906101000a900473ffffffffffffffffffffffffffffffffffffffff1681565b600081815481106200019657600080fd5b906000526020600020016000915054906101000a900473ffffffffffffffffffffffffffffffffffffffff1681565b6000600160009054906101000a900473ffffffffffffffffffffffffffffffffffffffff1673ffffffffffffffffffffffffffffffffffffffff163373ffffffffffffffffffffffffffffffffffffffff16146200025a576040517f08c379a000000000000000000000000000000000000000000000000000000000815260040162000251906200068f565b60405180910390fd5b6000826040516200026b9062000415565b6200027791906200066b565b604051809103906000f08015801562000294573d6000803e3d6000fd5b5090506000819080600181540180825580915050600190039060005260206000200160009091909190916101000a81548173ffffffffffffffffffffffffffffffffffffffff021916908373ffffffffffffffffffffffffffffffffffffffff16021790555080915050919050565b600260009054906101000a900473ffffffffffffffffffffffffffffffffffffffff1681565b600160009054906101000a900473ffffffffffffffffffffffffffffffffffffffff1681565b620003e9816040516024016200036691906200066b565b6040516020818303038152906040527f41304fac000000000000000000000000000000000000000000000000000000007bffffffffffffffffffffffffffffffffffffffffffffffffffffffff19166020820180517bffffffffffffffffffffffffffffffffffffffffffffffffffffffff8381831617835250505050620003ec565b50565b60008151905060006a636f6e736f6c652e6c6f679050602083016000808483855afa5050505050565b611492806200092f83390190565b60006200043a6200043484620006da565b620006b1565b9050828152602081018484840111156200045357600080fd5b620004608482856200080a565b509392505050565b600082601f8301126200047a57600080fd5b81356200048c84826020860162000423565b91505092915050565b600081359050620004a68162000914565b92915050565b600060208284031215620004bf57600080fd5b600082013567ffffffffffffffff811115620004da57600080fd5b620004e88482850162000468565b91505092915050565b6000602082840312156200050457600080fd5b6000620005148482850162000495565b91505092915050565b62000528816200072c565b82525050565b62000539816200076a565b82525050565b6200054a8162000792565b82525050565b6200055b81620007ba565b82525050565b6200056c81620007e2565b82525050565b60006200057f8262000710565b6200058b81856200071b565b93506200059d81856020860162000819565b620005a881620008b4565b840191505092915050565b6000620005c26025836200071b565b9150620005cf82620008c5565b604082019050919050565b6000602082019050620005f160008301846200051d565b92915050565b60006020820190506200060e60008301846200052e565b92915050565b60006020820190506200062b60008301846200053f565b92915050565b600060208201905062000648600083018462000550565b92915050565b600060208201905062000665600083018462000561565b92915050565b6000602082019050818103600083015262000687818462000572565b905092915050565b60006020820190508181036000830152620006aa81620005b3565b9050919050565b6000620006bd620006d0565b9050620006cb82826200084f565b919050565b6000604051905090565b600067ffffffffffffffff821115620006f857620006f762000885565b5b6200070382620008b4565b9050602081019050919050565b600081519050919050565b600082825260208201905092915050565b6000620007398262000740565b9050919050565b600073ffffffffffffffffffffffffffffffffffffffff82169050919050565b6000819050919050565b600062000777826200077e565b9050919050565b60006200078b8262000740565b9050919050565b60006200079f82620007a6565b9050919050565b6000620007b38262000740565b9050919050565b6000620007c782620007ce565b9050919050565b6000620007db8262000740565b9050919050565b6000620007ef82620007f6565b9050919050565b6000620008038262000740565b9050919050565b82818337600083830152505050565b60005b83811015620008395780820151818401526020810190506200081c565b8381111562000849576000848401525b50505050565b6200085a82620008b4565b810181811067ffffffffffffffff821117156200087c576200087b62000885565b5b80604052505050565b7f4e487b7100000000000000000000000000000000000000000000000000000000600052604160045260246000fd5b6000601f19601f8301169050919050565b7f43616e206f6e6c792062652063616c6c65642066726f6d2067656e657369732060008201527f746f6b656e000000000000000000000000000000000000000000000000000000602082015250565b6200091f8162000760565b81146200092b57600080fd5b5056fe60806040523480156200001157600080fd5b5060405162001492380380620014928339818101604052810190620000379190620002dd565b60016000819055506200008b6040518060400160405280601481526020017f4465706c6f796564206e657720656e746974793a00000000000000000000000081525082620000ec60201b620009a41760201c565b8060019080519060200190620000a3929190620001bb565b5033600260006101000a81548173ffffffffffffffffffffffffffffffffffffffff021916908373ffffffffffffffffffffffffffffffffffffffff160217905550506200052a565b6200018e82826040516024016200010592919062000363565b6040516020818303038152906040527f4b5c4277000000000000000000000000000000000000000000000000000000007bffffffffffffffffffffffffffffffffffffffffffffffffffffffff19166020820180517bffffffffffffffffffffffffffffffffffffffffffffffffffffffff83818316178352505050506200019260201b60201c565b5050565b60008151905060006a636f6e736f6c652e6c6f679050602083016000808483855afa5050505050565b828054620001c9906200044f565b90600052602060002090601f016020900481019282620001ed576000855562000239565b82601f106200020857805160ff191683800117855562000239565b8280016001018555821562000239579182015b82811115620002385782518255916020019190600101906200021b565b5b5090506200024891906200024c565b5090565b5b80821115620002675760008160009055506001016200024d565b5090565b6000620002826200027c84620003c7565b6200039e565b9050828152602081018484840111156200029b57600080fd5b620002a884828562000419565b509392505050565b600082601f830112620002c257600080fd5b8151620002d48482602086016200026b565b91505092915050565b600060208284031215620002f057600080fd5b600082015167ffffffffffffffff8111156200030b57600080fd5b6200031984828501620002b0565b91505092915050565b60006200032f82620003fd565b6200033b818562000408565b93506200034d81856020860162000419565b620003588162000519565b840191505092915050565b600060408201905081810360008301526200037f818562000322565b9050818103602083015262000395818462000322565b90509392505050565b6000620003aa620003bd565b9050620003b8828262000485565b919050565b6000604051905090565b600067ffffffffffffffff821115620003e557620003e4620004ea565b5b620003f08262000519565b9050602081019050919050565b600081519050919050565b600082825260208201905092915050565b60005b83811015620004395780820151818401526020810190506200041c565b8381111562000449576000848401525b50505050565b600060028204905060018216806200046857607f821691505b602082108114156200047f576200047e620004bb565b5b50919050565b620004908262000519565b810181811067ffffffffffffffff82111715620004b257620004b1620004ea565b5b80604052505050565b7f4e487b7100000000000000000000000000000000000000000000000000000000600052602260045260246000fd5b7f4e487b7100000000000000000000000000000000000000000000000000000000600052604160045260246000fd5b6000601f19601f8301169050919050565b610f58806200053a6000396000f3fe608060405234801561001057600080fd5b506004361061007d5760003560e01c8063a2d29be01161005b578063a2d29be0146100ef578063a73430331461010b578063a781cf331461013c578063b27ba6431461016c5761007d565b8063131af50014610082578063654dcefa146100a05780636701d6cd146100d1575b600080fd5b61008a610188565b6040516100979190610cbf565b60405180910390f35b6100ba60048036038101906100b59190610abd565b610216565b6040516100c8929190610c7b565b60405180910390f35b6100d9610267565b6040516100e69190610c60565b60405180910390f35b61010960048036038101906101049190610ae6565b61028d565b005b61012560048036038101906101209190610abd565b6104b2565b604051610133929190610c7b565b60405180910390f35b61015660048036038101906101519190610b35565b610503565b6040516101639190610ca4565b60405180910390f35b61018660048036038101906101819190610ae6565b61077f565b005b6001805461019590610e09565b80601f01602080910402602001604051908101604052809291908181526020018280546101c190610e09565b801561020e5780601f106101e35761010080835404028352916020019161020e565b820191906000526020600020905b8154815290600101906020018083116101f157829003601f168201915b505050505081565b60036020528060005260406000206000915090508060000160009054906101000a900473ffffffffffffffffffffffffffffffffffffffff16908060000160149054906101000a900460ff16905082565b600260009054906101000a900473ffffffffffffffffffffffffffffffffffffffff1681565b600260005414156102d3576040517f08c379a00000000000000000000000000000000000000000000000000000000081526004016102ca90610d38565b60405180910390fd5b60026000819055508060008190503373ffffffffffffffffffffffffffffffffffffffff168173ffffffffffffffffffffffffffffffffffffffff1663b789e03a6040518163ffffffff1660e01b815260040160206040518083038186803b15801561033e57600080fd5b505afa158015610352573d6000803e3d6000fd5b505050506040513d601f19601f820116820180604052508101906103769190610b9a565b73ffffffffffffffffffffffffffffffffffffffff16146103cc576040517f08c379a00000000000000000000000000000000000000000000000000000000081526004016103c390610d18565b60405180910390fd5b60405180604001604052808573ffffffffffffffffffffffffffffffffffffffff16815260200160011515815250600360008773ffffffffffffffffffffffffffffffffffffffff1673ffffffffffffffffffffffffffffffffffffffff16815260200190815260200160002060008201518160000160006101000a81548173ffffffffffffffffffffffffffffffffffffffff021916908373ffffffffffffffffffffffffffffffffffffffff16021790555060208201518160000160146101000a81548160ff02191690831515021790555090505050506001600081905550505050565b60046020528060005260406000206000915090508060000160009054906101000a900473ffffffffffffffffffffffffffffffffffffffff16908060000160149054906101000a900460ff16905082565b600080600281111561053e577f4e487b7100000000000000000000000000000000000000000000000000000000600052602160045260246000fd5b826002811115610577577f4e487b7100000000000000000000000000000000000000000000000000000000600052602160045260246000fd5b14156105d5578273ffffffffffffffffffffffffffffffffffffffff16600260009054906101000a900473ffffffffffffffffffffffffffffffffffffffff1673ffffffffffffffffffffffffffffffffffffffff16149050610779565b6001600281111561060f577f4e487b7100000000000000000000000000000000000000000000000000000000600052602160045260246000fd5b826002811115610648577f4e487b7100000000000000000000000000000000000000000000000000000000600052602160045260246000fd5b14156106a557600360008473ffffffffffffffffffffffffffffffffffffffff1673ffffffffffffffffffffffffffffffffffffffff16815260200190815260200160002060000160149054906101000a900460ff169050610779565b6002808111156106de577f4e487b7100000000000000000000000000000000000000000000000000000000600052602160045260246000fd5b826002811115610717577f4e487b7100000000000000000000000000000000000000000000000000000000600052602160045260246000fd5b141561077457600460008473ffffffffffffffffffffffffffffffffffffffff1673ffffffffffffffffffffffffffffffffffffffff16815260200190815260200160002060000160149054906101000a900460ff169050610779565b600090505b92915050565b600260005414156107c5576040517f08c379a00000000000000000000000000000000000000000000000000000000081526004016107bc90610d38565b60405180910390fd5b60026000819055508060008190503373ffffffffffffffffffffffffffffffffffffffff168173ffffffffffffffffffffffffffffffffffffffff166356a989416040518163ffffffff1660e01b815260040160206040518083038186803b15801561083057600080fd5b505afa158015610844573d6000803e3d6000fd5b505050506040513d601f19601f820116820180604052508101906108689190610b71565b73ffffffffffffffffffffffffffffffffffffffff16146108be576040517f08c379a00000000000000000000000000000000000000000000000000000000081526004016108b590610d18565b60405180910390fd5b60405180604001604052808573ffffffffffffffffffffffffffffffffffffffff16815260200160011515815250600460008773ffffffffffffffffffffffffffffffffffffffff1673ffffffffffffffffffffffffffffffffffffffff16815260200190815260200160002060008201518160000160006101000a81548173ffffffffffffffffffffffffffffffffffffffff021916908373ffffffffffffffffffffffffffffffffffffffff16021790555060208201518160000160146101000a81548160ff02191690831515021790555090505050506001600081905550505050565b610a3c82826040516024016109ba929190610ce1565b6040516020818303038152906040527f4b5c4277000000000000000000000000000000000000000000000000000000007bffffffffffffffffffffffffffffffffffffffffffffffffffffffff19166020820180517bffffffffffffffffffffffffffffffffffffffffffffffffffffffff8381831617835250505050610a40565b5050565b60008151905060006a636f6e736f6c652e6c6f679050602083016000808483855afa5050505050565b600081359050610a7881610ecd565b92915050565b600081519050610a8d81610ee4565b92915050565b600081519050610aa281610efb565b92915050565b600081359050610ab781610f12565b92915050565b600060208284031215610acf57600080fd5b6000610add84828501610a69565b91505092915050565b600080600060608486031215610afb57600080fd5b6000610b0986828701610a69565b9350506020610b1a86828701610a69565b9250506040610b2b86828701610a69565b9150509250925092565b60008060408385031215610b4857600080fd5b6000610b5685828601610a69565b9250506020610b6785828601610aa8565b9150509250929050565b600060208284031215610b8357600080fd5b6000610b9184828501610a7e565b91505092915050565b600060208284031215610bac57600080fd5b6000610bba84828501610a93565b91505092915050565b610bcc81610d74565b82525050565b610bdb81610d86565b82525050565b6000610bec82610d58565b610bf68185610d63565b9350610c06818560208601610dd6565b610c0f81610e6a565b840191505092915050565b6000610c27601e83610d63565b9150610c3282610e7b565b602082019050919050565b6000610c4a601f83610d63565b9150610c5582610ea4565b602082019050919050565b6000602082019050610c756000830184610bc3565b92915050565b6000604082019050610c906000830185610bc3565b610c9d6020830184610bd2565b9392505050565b6000602082019050610cb96000830184610bd2565b92915050565b60006020820190508181036000830152610cd98184610be1565b905092915050565b60006040820190508181036000830152610cfb8185610be1565b90508181036020830152610d0f8184610be1565b90509392505050565b60006020820190508181036000830152610d3181610c1a565b9050919050565b60006020820190508181036000830152610d5181610c3d565b9050919050565b600081519050919050565b600082825260208201905092915050565b6000610d7f82610db6565b9050919050565b60008115159050919050565b6000610d9d82610d74565b9050919050565b6000610daf82610d74565b9050919050565b600073ffffffffffffffffffffffffffffffffffffffff82169050919050565b60005b83811015610df4578082015181840152602081019050610dd9565b83811115610e03576000848401525b50505050565b60006002820490506001821680610e2157607f821691505b60208210811415610e3557610e34610e3b565b5b50919050565b7f4e487b7100000000000000000000000000000000000000000000000000000000600052602260045260246000fd5b6000601f19601f8301169050919050565b7f53656e646572206973206e6f74207375706572207573657220746f6b656e0000600082015250565b7f5265656e7472616e637947756172643a207265656e7472616e742063616c6c00600082015250565b610ed681610d74565b8114610ee157600080fd5b50565b610eed81610d92565b8114610ef857600080fd5b50565b610f0481610da4565b8114610f0f57600080fd5b50565b60038110610f1f57600080fd5b5056fea264697066735822122059b58bc6e6672b048661a0e7b3ac4b9e3b552eacb9f8b206439564d7d511be8864736f6c63430008040033a2646970667358221220a7e9d0727e4dbbf3e2fa54d58507ebdca2b6ebda8e2eb04a54b65b05ef12e79e64736f6c6343000804003360806040523480156200001157600080fd5b506040518060400160405280601581526020017f4261646765202d2047656e6573697320746f6b656e00000000000000000000008152506040518060400160405280600d81526020017f42414447455f47454e4553495300000000000000000000000000000000000000815250816000908051906020019062000096929190620000b8565b508060019080519060200190620000af929190620000b8565b505050620001cd565b828054620000c69062000168565b90600052602060002090601f016020900481019282620000ea576000855562000136565b82601f106200010557805160ff191683800117855562000136565b8280016001018555821562000136579182015b828111156200013557825182559160200191906001019062000118565b5b50905062000145919062000149565b5090565b5b80821115620001645760008160009055506001016200014a565b5090565b600060028204905060018216806200018157607f821691505b602082108114156200019857620001976200019e565b5b50919050565b7f4e487b7100000000000000000000000000000000000000000000000000000000600052602260045260246000fd5b61320680620001dd6000396000f3fe6080604052600436106100e85760003560e01c80636352211e1161008a578063af43344a11610059578063af43344a1461030b578063b88d4fde14610349578063c87b56dd14610372578063e985e9c5146103af576100e8565b80636352211e1461023d57806370a082311461027a57806395d89b41146102b7578063a22cb465146102e2576100e8565b8063095ea7b3116100c6578063095ea7b314610192578063215a2e78146101bb57806323b872dd146101eb57806342842e0e14610214576100e8565b806301ffc9a7146100ed57806306fdde031461012a578063081812fc14610155575b600080fd5b3480156100f957600080fd5b50610114600480360381019061010f919061214b565b6103ec565b6040516101219190612660565b60405180910390f35b34801561013657600080fd5b5061013f6104ce565b60405161014c919061267b565b60405180910390f35b34801561016157600080fd5b5061017c60048036038101906101779190612245565b610560565b6040516101899190612592565b60405180910390f35b34801561019e57600080fd5b506101b960048036038101906101b4919061210f565b6105e5565b005b6101d560048036038101906101d091906121c6565b6106fd565b6040516101e29190612592565b60405180910390f35b3480156101f757600080fd5b50610212600480360381019061020d9190612009565b6108fa565b005b34801561022057600080fd5b5061023b60048036038101906102369190612009565b61095a565b005b34801561024957600080fd5b50610264600480360381019061025f9190612245565b61097a565b6040516102719190612592565b60405180910390f35b34801561028657600080fd5b506102a1600480360381019061029c9190611fa4565b610a2c565b6040516102ae91906128cd565b60405180910390f35b3480156102c357600080fd5b506102cc610ae4565b6040516102d9919061267b565b60405180910390f35b3480156102ee57600080fd5b50610309600480360381019061030491906120d3565b610b76565b005b34801561031757600080fd5b50610332600480360381019061032d9190611fa4565b610cf7565b6040516103409291906125f9565b60405180910390f35b34801561035557600080fd5b50610370600480360381019061036b9190612058565b610d48565b005b34801561037e57600080fd5b5061039960048036038101906103949190612245565b610daa565b6040516103a6919061267b565b60405180910390f35b3480156103bb57600080fd5b506103d660048036038101906103d19190611fcd565b610efc565b6040516103e39190612660565b60405180910390f35b60007f80ac58cd000000000000000000000000000000000000000000000000000000007bffffffffffffffffffffffffffffffffffffffffffffffffffffffff1916827bffffffffffffffffffffffffffffffffffffffffffffffffffffffff191614806104b757507f5b5e139f000000000000000000000000000000000000000000000000000000007bffffffffffffffffffffffffffffffffffffffffffffffffffffffff1916827bffffffffffffffffffffffffffffffffffffffffffffffffffffffff1916145b806104c757506104c682610f90565b5b9050919050565b6060600080546104dd90612b35565b80601f016020809104026020016040519081016040528092919081815260200182805461050990612b35565b80156105565780601f1061052b57610100808354040283529160200191610556565b820191906000526020600020905b81548152906001019060200180831161053957829003601f168201915b5050505050905090565b600061056b82610ffa565b6105aa576040517f08c379a00000000000000000000000000000000000000000000000000000000081526004016105a19061282d565b60405180910390fd5b6004600083815260200190815260200160002060009054906101000a900473ffffffffffffffffffffffffffffffffffffffff169050919050565b60006105f08261097a565b90508073ffffffffffffffffffffffffffffffffffffffff168373ffffffffffffffffffffffffffffffffffffffff161415610661576040517f08c379a00000000000000000000000000000000000000000000000000000000081526004016106589061288d565b60405180910390fd5b8073ffffffffffffffffffffffffffffffffffffffff16610680611066565b73ffffffffffffffffffffffffffffffffffffffff1614806106af57506106ae816106a9611066565b610efc565b5b6106ee576040517f08c379a00000000000000000000000000000000000000000000000000000000081526004016106e59061276d565b60405180910390fd5b6106f8838361106e565b505050565b60008082905060008173ffffffffffffffffffffffffffffffffffffffff166373693075866040518263ffffffff1660e01b815260040161073e919061267b565b602060405180830381600087803b15801561075857600080fd5b505af115801561076c573d6000803e3d6000fd5b505050506040513d601f19601f82011682018060405250810190610790919061219d565b905060405180604001604052803373ffffffffffffffffffffffffffffffffffffffff16815260200160011515815250600860008373ffffffffffffffffffffffffffffffffffffffff1673ffffffffffffffffffffffffffffffffffffffff16815260200190815260200160002060008201518160000160006101000a81548173ffffffffffffffffffffffffffffffffffffffff021916908373ffffffffffffffffffffffffffffffffffffffff16021790555060208201518160000160146101000a81548160ff0219169083151502179055509050506108738633611127565b506108b36040518060400160405280601081526020017f456e7469747920616464726573733a2000000000000000000000000000000000815250826111a6565b7fcf2cb25dfc1dfff1e34e799b424a6b365a57020ef199ebb3ad06a7c7779e461b8186336040516108e693929190612622565b60405180910390a180925050509392505050565b61090b610905611066565b82611242565b61094a576040517f08c379a0000000000000000000000000000000000000000000000000000000008152600401610941906128ad565b60405180910390fd5b610955838383611320565b505050565b61097583838360405180602001604052806000815250610d48565b505050565b6000806002600084815260200190815260200160002060009054906101000a900473ffffffffffffffffffffffffffffffffffffffff169050600073ffffffffffffffffffffffffffffffffffffffff168173ffffffffffffffffffffffffffffffffffffffff161415610a23576040517f08c379a0000000000000000000000000000000000000000000000000000000008152600401610a1a906127ad565b60405180910390fd5b80915050919050565b60008073ffffffffffffffffffffffffffffffffffffffff168273ffffffffffffffffffffffffffffffffffffffff161415610a9d576040517f08c379a0000000000000000000000000000000000000000000000000000000008152600401610a949061278d565b60405180910390fd5b600360008373ffffffffffffffffffffffffffffffffffffffff1673ffffffffffffffffffffffffffffffffffffffff168152602001908152602001600020549050919050565b606060018054610af390612b35565b80601f0160208091040260200160405190810160405280929190818152602001828054610b1f90612b35565b8015610b6c5780601f10610b4157610100808354040283529160200191610b6c565b820191906000526020600020905b815481529060010190602001808311610b4f57829003601f168201915b5050505050905090565b610b7e611066565b73ffffffffffffffffffffffffffffffffffffffff168273ffffffffffffffffffffffffffffffffffffffff161415610bec576040517f08c379a0000000000000000000000000000000000000000000000000000000008152600401610be39061272d565b60405180910390fd5b8060056000610bf9611066565b73ffffffffffffffffffffffffffffffffffffffff1673ffffffffffffffffffffffffffffffffffffffff16815260200190815260200160002060008473ffffffffffffffffffffffffffffffffffffffff1673ffffffffffffffffffffffffffffffffffffffff16815260200190815260200160002060006101000a81548160ff0219169083151502179055508173ffffffffffffffffffffffffffffffffffffffff16610ca6611066565b73ffffffffffffffffffffffffffffffffffffffff167f17307eab39ab6107e8899845ad3d59bd9653f200f220920489ca2b5937696c3183604051610ceb9190612660565b60405180910390a35050565b60086020528060005260406000206000915090508060000160009054906101000a900473ffffffffffffffffffffffffffffffffffffffff16908060000160149054906101000a900460ff16905082565b610d59610d53611066565b83611242565b610d98576040517f08c379a0000000000000000000000000000000000000000000000000000000008152600401610d8f906128ad565b60405180910390fd5b610da48484848461157c565b50505050565b6060610db582610ffa565b610df4576040517f08c379a0000000000000000000000000000000000000000000000000000000008152600401610deb9061280d565b60405180910390fd5b6000600660008481526020019081526020016000208054610e1490612b35565b80601f0160208091040260200160405190810160405280929190818152602001828054610e4090612b35565b8015610e8d5780601f10610e6257610100808354040283529160200191610e8d565b820191906000526020600020905b815481529060010190602001808311610e7057829003601f168201915b505050505090506000610e9e6115d8565b9050600081511415610eb4578192505050610ef7565b600082511115610ee9578082604051602001610ed192919061256e565b60405160208183030381529060405292505050610ef7565b610ef2846115ef565b925050505b919050565b6000600560008473ffffffffffffffffffffffffffffffffffffffff1673ffffffffffffffffffffffffffffffffffffffff16815260200190815260200160002060008373ffffffffffffffffffffffffffffffffffffffff1673ffffffffffffffffffffffffffffffffffffffff16815260200190815260200160002060009054906101000a900460ff16905092915050565b60007f01ffc9a7000000000000000000000000000000000000000000000000000000007bffffffffffffffffffffffffffffffffffffffffffffffffffffffff1916827bffffffffffffffffffffffffffffffffffffffffffffffffffffffff1916149050919050565b60008073ffffffffffffffffffffffffffffffffffffffff166002600084815260200190815260200160002060009054906101000a900473ffffffffffffffffffffffffffffffffffffffff1673ffffffffffffffffffffffffffffffffffffffff1614159050919050565b600033905090565b816004600083815260200190815260200160002060006101000a81548173ffffffffffffffffffffffffffffffffffffffff021916908373ffffffffffffffffffffffffffffffffffffffff160217905550808273ffffffffffffffffffffffffffffffffffffffff166110e18361097a565b73ffffffffffffffffffffffffffffffffffffffff167f8c5be1e5ebec7d5bd14f71427d1e84f3dd0314c0f7b2291e5b200ac8c7c3b92560405160405180910390a45050565b60006111336007611696565b600061113f60076116ac565b905061114b83826116ba565b6111558185611888565b6111936040518060400160405280600981526020017f53656e64657249443a00000000000000000000000000000000000000000000008152506118fc565b61119c33611995565b8091505092915050565b61123e82826040516024016111bc92919061269d565b6040516020818303038152906040527f319af333000000000000000000000000000000000000000000000000000000007bffffffffffffffffffffffffffffffffffffffffffffffffffffffff19166020820180517bffffffffffffffffffffffffffffffffffffffffffffffffffffffff8381831617835250505050611a2e565b5050565b600061124d82610ffa565b61128c576040517f08c379a00000000000000000000000000000000000000000000000000000000081526004016112839061274d565b60405180910390fd5b60006112978361097a565b90508073ffffffffffffffffffffffffffffffffffffffff168473ffffffffffffffffffffffffffffffffffffffff16148061130657508373ffffffffffffffffffffffffffffffffffffffff166112ee84610560565b73ffffffffffffffffffffffffffffffffffffffff16145b8061131757506113168185610efc565b5b91505092915050565b8273ffffffffffffffffffffffffffffffffffffffff166113408261097a565b73ffffffffffffffffffffffffffffffffffffffff1614611396576040517f08c379a000000000000000000000000000000000000000000000000000000000815260040161138d9061284d565b60405180910390fd5b600073ffffffffffffffffffffffffffffffffffffffff168273ffffffffffffffffffffffffffffffffffffffff161415611406576040517f08c379a00000000000000000000000000000000000000000000000000000000081526004016113fd9061270d565b60405180910390fd5b611411838383611a57565b61141c60008261106e565b6001600360008573ffffffffffffffffffffffffffffffffffffffff1673ffffffffffffffffffffffffffffffffffffffff168152602001908152602001600020600082825461146c9190612a39565b925050819055506001600360008473ffffffffffffffffffffffffffffffffffffffff1673ffffffffffffffffffffffffffffffffffffffff16815260200190815260200160002060008282546114c391906129b2565b92505081905550816002600083815260200190815260200160002060006101000a81548173ffffffffffffffffffffffffffffffffffffffff021916908373ffffffffffffffffffffffffffffffffffffffff160217905550808273ffffffffffffffffffffffffffffffffffffffff168473ffffffffffffffffffffffffffffffffffffffff167fddf252ad1be2c89b69c2b068fc378daa952ba7f163c4a11628f55a4df523b3ef60405160405180910390a4505050565b611587848484611320565b61159384848484611a5c565b6115d2576040517f08c379a00000000000000000000000000000000000000000000000000000000081526004016115c9906126cd565b60405180910390fd5b50505050565b606060405180602001604052806000815250905090565b60606115fa82610ffa565b611639576040517f08c379a00000000000000000000000000000000000000000000000000000000081526004016116309061286d565b60405180910390fd5b60006116436115d8565b90506000815111611663576040518060200160405280600081525061168e565b8061166d84611bf3565b60405160200161167e92919061256e565b6040516020818303038152906040525b915050919050565b6001816000016000828254019250508190555050565b600081600001549050919050565b600073ffffffffffffffffffffffffffffffffffffffff168273ffffffffffffffffffffffffffffffffffffffff16141561172a576040517f08c379a0000000000000000000000000000000000000000000000000000000008152600401611721906127ed565b60405180910390fd5b61173381610ffa565b15611773576040517f08c379a000000000000000000000000000000000000000000000000000000000815260040161176a906126ed565b60405180910390fd5b61177f60008383611a57565b6001600360008473ffffffffffffffffffffffffffffffffffffffff1673ffffffffffffffffffffffffffffffffffffffff16815260200190815260200160002060008282546117cf91906129b2565b92505081905550816002600083815260200190815260200160002060006101000a81548173ffffffffffffffffffffffffffffffffffffffff021916908373ffffffffffffffffffffffffffffffffffffffff160217905550808273ffffffffffffffffffffffffffffffffffffffff16600073ffffffffffffffffffffffffffffffffffffffff167fddf252ad1be2c89b69c2b068fc378daa952ba7f163c4a11628f55a4df523b3ef60405160405180910390a45050565b61189182610ffa565b6118d0576040517f08c379a00000000000000000000000000000000000000000000000000000000081526004016118c7906127cd565b60405180910390fd5b806006600084815260200190815260200160002090805190602001906118f7929190611db3565b505050565b61199281604051602401611910919061267b565b6040516020818303038152906040527f41304fac000000000000000000000000000000000000000000000000000000007bffffffffffffffffffffffffffffffffffffffffffffffffffffffff19166020820180517bffffffffffffffffffffffffffffffffffffffffffffffffffffffff8381831617835250505050611a2e565b50565b611a2b816040516024016119a99190612592565b6040516020818303038152906040527f2c2ecbc2000000000000000000000000000000000000000000000000000000007bffffffffffffffffffffffffffffffffffffffffffffffffffffffff19166020820180517bffffffffffffffffffffffffffffffffffffffffffffffffffffffff8381831617835250505050611a2e565b50565b60008151905060006a636f6e736f6c652e6c6f679050602083016000808483855afa5050505050565b505050565b6000611a7d8473ffffffffffffffffffffffffffffffffffffffff16611da0565b15611be6578373ffffffffffffffffffffffffffffffffffffffff1663150b7a02611aa6611066565b8786866040518563ffffffff1660e01b8152600401611ac894939291906125ad565b602060405180830381600087803b158015611ae257600080fd5b505af1925050508015611b1357506040513d601f19601f82011682018060405250810190611b109190612174565b60015b611b96573d8060008114611b43576040519150601f19603f3d011682016040523d82523d6000602084013e611b48565b606091505b50600081511415611b8e576040517f08c379a0000000000000000000000000000000000000000000000000000000008152600401611b85906126cd565b60405180910390fd5b805181602001fd5b63150b7a0260e01b7bffffffffffffffffffffffffffffffffffffffffffffffffffffffff1916817bffffffffffffffffffffffffffffffffffffffffffffffffffffffff191614915050611beb565b600190505b949350505050565b60606000821415611c3b576040518060400160405280600181526020017f30000000000000000000000000000000000000000000000000000000000000008152509050611d9b565b600082905060005b60008214611c6d578080611c5690612b98565b915050600a82611c669190612a08565b9150611c43565b60008167ffffffffffffffff811115611caf577f4e487b7100000000000000000000000000000000000000000000000000000000600052604160045260246000fd5b6040519080825280601f01601f191660200182016040528015611ce15781602001600182028036833780820191505090505b5090505b60008514611d9457600182611cfa9190612a39565b9150600a85611d099190612be1565b6030611d1591906129b2565b60f81b818381518110611d51577f4e487b7100000000000000000000000000000000000000000000000000000000600052603260045260246000fd5b60200101907effffffffffffffffffffffffffffffffffffffffffffffffffffffffffffff1916908160001a905350600a85611d8d9190612a08565b9450611ce5565b8093505050505b919050565b600080823b905060008111915050919050565b828054611dbf90612b35565b90600052602060002090601f016020900481019282611de15760008555611e28565b82601f10611dfa57805160ff1916838001178555611e28565b82800160010185558215611e28579182015b82811115611e27578251825591602001919060010190611e0c565b5b509050611e359190611e39565b5090565b5b80821115611e52576000816000905550600101611e3a565b5090565b6000611e69611e648461290d565b6128e8565b905082815260208101848484011115611e8157600080fd5b611e8c848285612af3565b509392505050565b6000611ea7611ea28461293e565b6128e8565b905082815260208101848484011115611ebf57600080fd5b611eca848285612af3565b509392505050565b600081359050611ee18161315d565b92915050565b600081359050611ef681613174565b92915050565b600081359050611f0b8161318b565b92915050565b600081519050611f208161318b565b92915050565b600082601f830112611f3757600080fd5b8135611f47848260208601611e56565b91505092915050565b600081519050611f5f816131a2565b92915050565b600082601f830112611f7657600080fd5b8135611f86848260208601611e94565b91505092915050565b600081359050611f9e816131b9565b92915050565b600060208284031215611fb657600080fd5b6000611fc484828501611ed2565b91505092915050565b60008060408385031215611fe057600080fd5b6000611fee85828601611ed2565b9250506020611fff85828601611ed2565b9150509250929050565b60008060006060848603121561201e57600080fd5b600061202c86828701611ed2565b935050602061203d86828701611ed2565b925050604061204e86828701611f8f565b9150509250925092565b6000806000806080858703121561206e57600080fd5b600061207c87828801611ed2565b945050602061208d87828801611ed2565b935050604061209e87828801611f8f565b925050606085013567ffffffffffffffff8111156120bb57600080fd5b6120c787828801611f26565b91505092959194509250565b600080604083850312156120e657600080fd5b60006120f485828601611ed2565b925050602061210585828601611ee7565b9150509250929050565b6000806040838503121561212257600080fd5b600061213085828601611ed2565b925050602061214185828601611f8f565b9150509250929050565b60006020828403121561215d57600080fd5b600061216b84828501611efc565b91505092915050565b60006020828403121561218657600080fd5b600061219484828501611f11565b91505092915050565b6000602082840312156121af57600080fd5b60006121bd84828501611f50565b91505092915050565b6000806000606084860312156121db57600080fd5b600084013567ffffffffffffffff8111156121f557600080fd5b61220186828701611f65565b935050602084013567ffffffffffffffff81111561221e57600080fd5b61222a86828701611f65565b925050604061223b86828701611ed2565b9150509250925092565b60006020828403121561225757600080fd5b600061226584828501611f8f565b91505092915050565b61227781612a6d565b82525050565b61228681612a7f565b82525050565b60006122978261296f565b6122a18185612985565b93506122b1818560208601612b02565b6122ba81612cce565b840191505092915050565b60006122d08261297a565b6122da8185612996565b93506122ea818560208601612b02565b6122f381612cce565b840191505092915050565b60006123098261297a565b61231381856129a7565b9350612323818560208601612b02565b80840191505092915050565b600061233c603283612996565b915061234782612cdf565b604082019050919050565b600061235f601c83612996565b915061236a82612d2e565b602082019050919050565b6000612382602483612996565b915061238d82612d57565b604082019050919050565b60006123a5601983612996565b91506123b082612da6565b602082019050919050565b60006123c8602c83612996565b91506123d382612dcf565b604082019050919050565b60006123eb603883612996565b91506123f682612e1e565b604082019050919050565b600061240e602a83612996565b915061241982612e6d565b604082019050919050565b6000612431602983612996565b915061243c82612ebc565b604082019050919050565b6000612454602e83612996565b915061245f82612f0b565b604082019050919050565b6000612477602083612996565b915061248282612f5a565b602082019050919050565b600061249a603183612996565b91506124a582612f83565b604082019050919050565b60006124bd602c83612996565b91506124c882612fd2565b604082019050919050565b60006124e0602983612996565b91506124eb82613021565b604082019050919050565b6000612503602f83612996565b915061250e82613070565b604082019050919050565b6000612526602183612996565b9150612531826130bf565b604082019050919050565b6000612549603183612996565b91506125548261310e565b604082019050919050565b61256881612ae9565b82525050565b600061257a82856122fe565b915061258682846122fe565b91508190509392505050565b60006020820190506125a7600083018461226e565b92915050565b60006080820190506125c2600083018761226e565b6125cf602083018661226e565b6125dc604083018561255f565b81810360608301526125ee818461228c565b905095945050505050565b600060408201905061260e600083018561226e565b61261b602083018461227d565b9392505050565b6000606082019050612637600083018661226e565b818103602083015261264981856122c5565b9050612658604083018461226e565b949350505050565b6000602082019050612675600083018461227d565b92915050565b6000602082019050818103600083015261269581846122c5565b905092915050565b600060408201905081810360008301526126b781856122c5565b90506126c6602083018461226e565b9392505050565b600060208201905081810360008301526126e68161232f565b9050919050565b6000602082019050818103600083015261270681612352565b9050919050565b6000602082019050818103600083015261272681612375565b9050919050565b6000602082019050818103600083015261274681612398565b9050919050565b60006020820190508181036000830152612766816123bb565b9050919050565b60006020820190508181036000830152612786816123de565b9050919050565b600060208201905081810360008301526127a681612401565b9050919050565b600060208201905081810360008301526127c681612424565b9050919050565b600060208201905081810360008301526127e681612447565b9050919050565b600060208201905081810360008301526128068161246a565b9050919050565b600060208201905081810360008301526128268161248d565b9050919050565b60006020820190508181036000830152612846816124b0565b9050919050565b60006020820190508181036000830152612866816124d3565b9050919050565b60006020820190508181036000830152612886816124f6565b9050919050565b600060208201905081810360008301526128a681612519565b9050919050565b600060208201905081810360008301526128c68161253c565b9050919050565b60006020820190506128e2600083018461255f565b92915050565b60006128f2612903565b90506128fe8282612b67565b919050565b6000604051905090565b600067ffffffffffffffff82111561292857612927612c9f565b5b61293182612cce565b9050602081019050919050565b600067ffffffffffffffff82111561295957612958612c9f565b5b61296282612cce565b9050602081019050919050565b600081519050919050565b600081519050919050565b600082825260208201905092915050565b600082825260208201905092915050565b600081905092915050565b60006129bd82612ae9565b91506129c883612ae9565b9250827fffffffffffffffffffffffffffffffffffffffffffffffffffffffffffffffff038211156129fd576129fc612c12565b5b828201905092915050565b6000612a1382612ae9565b9150612a1e83612ae9565b925082612a2e57612a2d612c41565b5b828204905092915050565b6000612a4482612ae9565b9150612a4f83612ae9565b925082821015612a6257612a61612c12565b5b828203905092915050565b6000612a7882612ac9565b9050919050565b60008115159050919050565b60007fffffffff0000000000000000000000000000000000000000000000000000000082169050919050565b6000612ac282612a6d565b9050919050565b600073ffffffffffffffffffffffffffffffffffffffff82169050919050565b6000819050919050565b82818337600083830152505050565b60005b83811015612b20578082015181840152602081019050612b05565b83811115612b2f576000848401525b50505050565b60006002820490506001821680612b4d57607f821691505b60208210811415612b6157612b60612c70565b5b50919050565b612b7082612cce565b810181811067ffffffffffffffff82111715612b8f57612b8e612c9f565b5b80604052505050565b6000612ba382612ae9565b91507fffffffffffffffffffffffffffffffffffffffffffffffffffffffffffffffff821415612bd657612bd5612c12565b5b600182019050919050565b6000612bec82612ae9565b9150612bf783612ae9565b925082612c0757612c06612c41565b5b828206905092915050565b7f4e487b7100000000000000000000000000000000000000000000000000000000600052601160045260246000fd5b7f4e487b7100000000000000000000000000000000000000000000000000000000600052601260045260246000fd5b7f4e487b7100000000000000000000000000000000000000000000000000000000600052602260045260246000fd5b7f4e487b7100000000000000000000000000000000000000000000000000000000600052604160045260246000fd5b6000601f19601f8301169050919050565b7f4552433732313a207472616e7366657220746f206e6f6e20455243373231526560008201527f63656976657220696d706c656d656e7465720000000000000000000000000000602082015250565b7f4552433732313a20746f6b656e20616c7265616479206d696e74656400000000600082015250565b7f4552433732313a207472616e7366657220746f20746865207a65726f2061646460008201527f7265737300000000000000000000000000000000000000000000000000000000602082015250565b7f4552433732313a20617070726f766520746f2063616c6c657200000000000000600082015250565b7f4552433732313a206f70657261746f7220717565727920666f72206e6f6e657860008201527f697374656e7420746f6b656e0000000000000000000000000000000000000000602082015250565b7f4552433732313a20617070726f76652063616c6c6572206973206e6f74206f7760008201527f6e6572206e6f7220617070726f76656420666f7220616c6c0000000000000000602082015250565b7f4552433732313a2062616c616e636520717565727920666f7220746865207a6560008201527f726f206164647265737300000000000000000000000000000000000000000000602082015250565b7f4552433732313a206f776e657220717565727920666f72206e6f6e657869737460008201527f656e7420746f6b656e0000000000000000000000000000000000000000000000602082015250565b7f45524337323155524953746f726167653a2055524920736574206f66206e6f6e60008201527f6578697374656e7420746f6b656e000000000000000000000000000000000000602082015250565b7f4552433732313a206d696e7420746f20746865207a65726f2061646472657373600082015250565b7f45524337323155524953746f726167653a2055524920717565727920666f722060008201527f6e6f6e6578697374656e7420746f6b656e000000000000000000000000000000602082015250565b7f4552433732313a20617070726f76656420717565727920666f72206e6f6e657860008201527f697374656e7420746f6b656e0000000000000000000000000000000000000000602082015250565b7f4552433732313a207472616e73666572206f6620746f6b656e2074686174206960008201527f73206e6f74206f776e0000000000000000000000000000000000000000000000602082015250565b7f4552433732314d657461646174613a2055524920717565727920666f72206e6f60008201527f6e6578697374656e7420746f6b656e0000000000000000000000000000000000602082015250565b7f4552433732313a20617070726f76616c20746f2063757272656e74206f776e6560008201527f7200000000000000000000000000000000000000000000000000000000000000602082015250565b7f4552433732313a207472616e736665722063616c6c6572206973206e6f74206f60008201527f776e6572206e6f7220617070726f766564000000000000000000000000000000602082015250565b61316681612a6d565b811461317157600080fd5b50565b61317d81612a7f565b811461318857600080fd5b50565b61319481612a8b565b811461319f57600080fd5b50565b6131ab81612ab7565b81146131b657600080fd5b50565b6131c281612ae9565b81146131cd57600080fd5b5056fea2646970667358221220381795c1c82c8a2f705997ade12da91a8bcec5ef25a4fc162f24146778750dfe64736f6c6343000804003360806040523480156200001157600080fd5b506040518060400160405280601881526020017f4261646765202d205375706572207573657220746f6b656e00000000000000008152506040518060400160405280600b81526020017f42414447455f5355504552000000000000000000000000000000000000000000815250816000908051906020019062000096929190620000b8565b508060019080519060200190620000af929190620000b8565b505050620001cd565b828054620000c69062000168565b90600052602060002090601f016020900481019282620000ea576000855562000136565b82601f106200010557805160ff191683800117855562000136565b8280016001018555821562000136579182015b828111156200013557825182559160200191906001019062000118565b5b50905062000145919062000149565b5090565b5b80821115620001645760008160009055506001016200014a565b5090565b600060028204905060018216806200018157607f821691505b602082108114156200019857620001976200019e565b5b50919050565b7f4e487b7100000000000000000000000000000000000000000000000000000000600052602260045260246000fd5b61335380620001dd6000396000f3fe6080604052600436106100e85760003560e01c8063540dd6941161008a578063a22cb46511610059578063a22cb46514610320578063b88d4fde14610349578063c87b56dd14610372578063e985e9c5146103af576100e8565b8063540dd6941461023d5780636352211e1461027b57806370a08231146102b857806395d89b41146102f5576100e8565b8063095ea7b3116100c6578063095ea7b31461019257806323b872dd146101bb57806334a53027146101e457806342842e0e14610214576100e8565b806301ffc9a7146100ed57806306fdde031461012a578063081812fc14610155575b600080fd5b3480156100f957600080fd5b50610114600480360381019061010f919061224d565b6103ec565b6040516101219190612774565b60405180910390f35b34801561013657600080fd5b5061013f6104ce565b60405161014c919061278f565b60405180910390f35b34801561016157600080fd5b5061017c6004803603810190610177919061231a565b610560565b60405161018991906126ad565b60405180910390f35b34801561019e57600080fd5b506101b960048036038101906101b49190612211565b6105e5565b005b3480156101c757600080fd5b506101e260048036038101906101dd919061210b565b6106fd565b005b6101fe60048036038101906101f9919061229f565b61075d565b60405161020b91906129f1565b60405180910390f35b34801561022057600080fd5b5061023b6004803603810190610236919061210b565b610ac2565b005b34801561024957600080fd5b50610264600480360381019061025f91906120cf565b610ae2565b60405161027292919061274b565b60405180910390f35b34801561028757600080fd5b506102a2600480360381019061029d919061231a565b610b40565b6040516102af91906126ad565b60405180910390f35b3480156102c457600080fd5b506102df60048036038101906102da919061207d565b610bf2565b6040516102ec91906129f1565b60405180910390f35b34801561030157600080fd5b5061030a610caa565b604051610317919061278f565b60405180910390f35b34801561032c57600080fd5b50610347600480360381019061034291906121d5565b610d3c565b005b34801561035557600080fd5b50610370600480360381019061036b919061215a565b610ebd565b005b34801561037e57600080fd5b506103996004803603810190610394919061231a565b610f1f565b6040516103a6919061278f565b60405180910390f35b3480156103bb57600080fd5b506103d660048036038101906103d191906120cf565b611071565b6040516103e39190612774565b60405180910390f35b60007f80ac58cd000000000000000000000000000000000000000000000000000000007bffffffffffffffffffffffffffffffffffffffffffffffffffffffff1916827bffffffffffffffffffffffffffffffffffffffffffffffffffffffff191614806104b757507f5b5e139f000000000000000000000000000000000000000000000000000000007bffffffffffffffffffffffffffffffffffffffffffffffffffffffff1916827bffffffffffffffffffffffffffffffffffffffffffffffffffffffff1916145b806104c757506104c682611105565b5b9050919050565b6060600080546104dd90612c47565b80601f016020809104026020016040519081016040528092919081815260200182805461050990612c47565b80156105565780601f1061052b57610100808354040283529160200191610556565b820191906000526020600020905b81548152906001019060200180831161053957829003601f168201915b5050505050905090565b600061056b8261116f565b6105aa576040517f08c379a00000000000000000000000000000000000000000000000000000000081526004016105a190612931565b60405180910390fd5b6004600083815260200190815260200160002060009054906101000a900473ffffffffffffffffffffffffffffffffffffffff169050919050565b60006105f082610b40565b90508073ffffffffffffffffffffffffffffffffffffffff168373ffffffffffffffffffffffffffffffffffffffff161415610661576040517f08c379a0000000000000000000000000000000000000000000000000000000008152600401610658906129b1565b60405180910390fd5b8073ffffffffffffffffffffffffffffffffffffffff166106806111db565b73ffffffffffffffffffffffffffffffffffffffff1614806106af57506106ae816106a96111db565b611071565b5b6106ee576040517f08c379a00000000000000000000000000000000000000000000000000000000081526004016106e590612851565b60405180910390fd5b6106f883836111e3565b505050565b61070e6107086111db565b8261129c565b61074d576040517f08c379a0000000000000000000000000000000000000000000000000000000008152600401610744906129d1565b60405180910390fd5b61075883838361137a565b505050565b60008260008190503373ffffffffffffffffffffffffffffffffffffffff168173ffffffffffffffffffffffffffffffffffffffff16636701d6cd6040518163ffffffff1660e01b815260040160206040518083038186803b1580156107c257600080fd5b505afa1580156107d6573d6000803e3d6000fd5b505050506040513d601f19601f820116820180604052508101906107fa91906120a6565b73ffffffffffffffffffffffffffffffffffffffff1614610850576040517f08c379a0000000000000000000000000000000000000000000000000000000008152600401610847906128f1565b60405180910390fd5b600860008673ffffffffffffffffffffffffffffffffffffffff1673ffffffffffffffffffffffffffffffffffffffff16815260200190815260200160002060008773ffffffffffffffffffffffffffffffffffffffff1673ffffffffffffffffffffffffffffffffffffffff16815260200190815260200160002060000160149054906101000a900460ff161561091d576040517f08c379a000000000000000000000000000000000000000000000000000000000815260040161091490612991565b60405180910390fd5b600061092988886115d6565b905060405180604001604052808873ffffffffffffffffffffffffffffffffffffffff16815260200160011515815250600860008873ffffffffffffffffffffffffffffffffffffffff1673ffffffffffffffffffffffffffffffffffffffff16815260200190815260200160002060008973ffffffffffffffffffffffffffffffffffffffff1673ffffffffffffffffffffffffffffffffffffffff16815260200190815260200160002060008201518160000160006101000a81548173ffffffffffffffffffffffffffffffffffffffff021916908373ffffffffffffffffffffffffffffffffffffffff16021790555060208201518160000160146101000a81548160ff02191690831515021790555090505060008690508073ffffffffffffffffffffffffffffffffffffffff1663a2d29be08933896040518463ffffffff1660e01b8152600401610a81939291906126c8565b600060405180830381600087803b158015610a9b57600080fd5b505af1158015610aaf573d6000803e3d6000fd5b5050505081945050505050949350505050565b610add83838360405180602001604052806000815250610ebd565b505050565b6008602052816000526040600020602052806000526040600020600091509150508060000160009054906101000a900473ffffffffffffffffffffffffffffffffffffffff16908060000160149054906101000a900460ff16905082565b6000806002600084815260200190815260200160002060009054906101000a900473ffffffffffffffffffffffffffffffffffffffff169050600073ffffffffffffffffffffffffffffffffffffffff168173ffffffffffffffffffffffffffffffffffffffff161415610be9576040517f08c379a0000000000000000000000000000000000000000000000000000000008152600401610be090612891565b60405180910390fd5b80915050919050565b60008073ffffffffffffffffffffffffffffffffffffffff168273ffffffffffffffffffffffffffffffffffffffff161415610c63576040517f08c379a0000000000000000000000000000000000000000000000000000000008152600401610c5a90612871565b60405180910390fd5b600360008373ffffffffffffffffffffffffffffffffffffffff1673ffffffffffffffffffffffffffffffffffffffff168152602001908152602001600020549050919050565b606060018054610cb990612c47565b80601f0160208091040260200160405190810160405280929190818152602001828054610ce590612c47565b8015610d325780601f10610d0757610100808354040283529160200191610d32565b820191906000526020600020905b815481529060010190602001808311610d1557829003601f168201915b5050505050905090565b610d446111db565b73ffffffffffffffffffffffffffffffffffffffff168273ffffffffffffffffffffffffffffffffffffffff161415610db2576040517f08c379a0000000000000000000000000000000000000000000000000000000008152600401610da990612811565b60405180910390fd5b8060056000610dbf6111db565b73ffffffffffffffffffffffffffffffffffffffff1673ffffffffffffffffffffffffffffffffffffffff16815260200190815260200160002060008473ffffffffffffffffffffffffffffffffffffffff1673ffffffffffffffffffffffffffffffffffffffff16815260200190815260200160002060006101000a81548160ff0219169083151502179055508173ffffffffffffffffffffffffffffffffffffffff16610e6c6111db565b73ffffffffffffffffffffffffffffffffffffffff167f17307eab39ab6107e8899845ad3d59bd9653f200f220920489ca2b5937696c3183604051610eb19190612774565b60405180910390a35050565b610ece610ec86111db565b8361129c565b610f0d576040517f08c379a0000000000000000000000000000000000000000000000000000000008152600401610f04906129d1565b60405180910390fd5b610f1984848484611655565b50505050565b6060610f2a8261116f565b610f69576040517f08c379a0000000000000000000000000000000000000000000000000000000008152600401610f6090612911565b60405180910390fd5b6000600660008481526020019081526020016000208054610f8990612c47565b80601f0160208091040260200160405190810160405280929190818152602001828054610fb590612c47565b80156110025780601f10610fd757610100808354040283529160200191611002565b820191906000526020600020905b815481529060010190602001808311610fe557829003601f168201915b5050505050905060006110136116b1565b905060008151141561102957819250505061106c565b60008251111561105e578082604051602001611046929190612689565b6040516020818303038152906040529250505061106c565b611067846116c8565b925050505b919050565b6000600560008473ffffffffffffffffffffffffffffffffffffffff1673ffffffffffffffffffffffffffffffffffffffff16815260200190815260200160002060008373ffffffffffffffffffffffffffffffffffffffff1673ffffffffffffffffffffffffffffffffffffffff16815260200190815260200160002060009054906101000a900460ff16905092915050565b60007f01ffc9a7000000000000000000000000000000000000000000000000000000007bffffffffffffffffffffffffffffffffffffffffffffffffffffffff1916827bffffffffffffffffffffffffffffffffffffffffffffffffffffffff1916149050919050565b60008073ffffffffffffffffffffffffffffffffffffffff166002600084815260200190815260200160002060009054906101000a900473ffffffffffffffffffffffffffffffffffffffff1673ffffffffffffffffffffffffffffffffffffffff1614159050919050565b600033905090565b816004600083815260200190815260200160002060006101000a81548173ffffffffffffffffffffffffffffffffffffffff021916908373ffffffffffffffffffffffffffffffffffffffff160217905550808273ffffffffffffffffffffffffffffffffffffffff1661125683610b40565b73ffffffffffffffffffffffffffffffffffffffff167f8c5be1e5ebec7d5bd14f71427d1e84f3dd0314c0f7b2291e5b200ac8c7c3b92560405160405180910390a45050565b60006112a78261116f565b6112e6576040517f08c379a00000000000000000000000000000000000000000000000000000000081526004016112dd90612831565b60405180910390fd5b60006112f183610b40565b90508073ffffffffffffffffffffffffffffffffffffffff168473ffffffffffffffffffffffffffffffffffffffff16148061136057508373ffffffffffffffffffffffffffffffffffffffff1661134884610560565b73ffffffffffffffffffffffffffffffffffffffff16145b8061137157506113708185611071565b5b91505092915050565b8273ffffffffffffffffffffffffffffffffffffffff1661139a82610b40565b73ffffffffffffffffffffffffffffffffffffffff16146113f0576040517f08c379a00000000000000000000000000000000000000000000000000000000081526004016113e790612951565b60405180910390fd5b600073ffffffffffffffffffffffffffffffffffffffff168273ffffffffffffffffffffffffffffffffffffffff161415611460576040517f08c379a0000000000000000000000000000000000000000000000000000000008152600401611457906127f1565b60405180910390fd5b61146b83838361176f565b6114766000826111e3565b6001600360008573ffffffffffffffffffffffffffffffffffffffff1673ffffffffffffffffffffffffffffffffffffffff16815260200190815260200160002060008282546114c69190612b5d565b925050819055506001600360008473ffffffffffffffffffffffffffffffffffffffff1673ffffffffffffffffffffffffffffffffffffffff168152602001908152602001600020600082825461151d9190612ad6565b92505081905550816002600083815260200190815260200160002060006101000a81548173ffffffffffffffffffffffffffffffffffffffff021916908373ffffffffffffffffffffffffffffffffffffffff160217905550808273ffffffffffffffffffffffffffffffffffffffff168473ffffffffffffffffffffffffffffffffffffffff167fddf252ad1be2c89b69c2b068fc378daa952ba7f163c4a11628f55a4df523b3ef60405160405180910390a4505050565b60006115e26007611774565b60006115ee600761178a565b90506115fa8382611798565b6116048185611966565b6116426040518060400160405280600981526020017f53656e64657249443a00000000000000000000000000000000000000000000008152506119da565b61164b33611a73565b8091505092915050565b61166084848461137a565b61166c84848484611b0c565b6116ab576040517f08c379a00000000000000000000000000000000000000000000000000000000081526004016116a2906127b1565b60405180910390fd5b50505050565b606060405180602001604052806000815250905090565b60606116d38261116f565b611712576040517f08c379a000000000000000000000000000000000000000000000000000000000815260040161170990612971565b60405180910390fd5b600061171c6116b1565b9050600081511161173c5760405180602001604052806000815250611767565b8061174684611ca3565b604051602001611757929190612689565b6040516020818303038152906040525b915050919050565b505050565b6001816000016000828254019250508190555050565b600081600001549050919050565b600073ffffffffffffffffffffffffffffffffffffffff168273ffffffffffffffffffffffffffffffffffffffff161415611808576040517f08c379a00000000000000000000000000000000000000000000000000000000081526004016117ff906128d1565b60405180910390fd5b6118118161116f565b15611851576040517f08c379a0000000000000000000000000000000000000000000000000000000008152600401611848906127d1565b60405180910390fd5b61185d6000838361176f565b6001600360008473ffffffffffffffffffffffffffffffffffffffff1673ffffffffffffffffffffffffffffffffffffffff16815260200190815260200160002060008282546118ad9190612ad6565b92505081905550816002600083815260200190815260200160002060006101000a81548173ffffffffffffffffffffffffffffffffffffffff021916908373ffffffffffffffffffffffffffffffffffffffff160217905550808273ffffffffffffffffffffffffffffffffffffffff16600073ffffffffffffffffffffffffffffffffffffffff167fddf252ad1be2c89b69c2b068fc378daa952ba7f163c4a11628f55a4df523b3ef60405160405180910390a45050565b61196f8261116f565b6119ae576040517f08c379a00000000000000000000000000000000000000000000000000000000081526004016119a5906128b1565b60405180910390fd5b806006600084815260200190815260200160002090805190602001906119d5929190611e8c565b505050565b611a70816040516024016119ee919061278f565b6040516020818303038152906040527f41304fac000000000000000000000000000000000000000000000000000000007bffffffffffffffffffffffffffffffffffffffffffffffffffffffff19166020820180517bffffffffffffffffffffffffffffffffffffffffffffffffffffffff8381831617835250505050611e50565b50565b611b0981604051602401611a8791906126ad565b6040516020818303038152906040527f2c2ecbc2000000000000000000000000000000000000000000000000000000007bffffffffffffffffffffffffffffffffffffffffffffffffffffffff19166020820180517bffffffffffffffffffffffffffffffffffffffffffffffffffffffff8381831617835250505050611e50565b50565b6000611b2d8473ffffffffffffffffffffffffffffffffffffffff16611e79565b15611c96578373ffffffffffffffffffffffffffffffffffffffff1663150b7a02611b566111db565b8786866040518563ffffffff1660e01b8152600401611b7894939291906126ff565b602060405180830381600087803b158015611b9257600080fd5b505af1925050508015611bc357506040513d601f19601f82011682018060405250810190611bc09190612276565b60015b611c46573d8060008114611bf3576040519150601f19603f3d011682016040523d82523d6000602084013e611bf8565b606091505b50600081511415611c3e576040517f08c379a0000000000000000000000000000000000000000000000000000000008152600401611c35906127b1565b60405180910390fd5b805181602001fd5b63150b7a0260e01b7bffffffffffffffffffffffffffffffffffffffffffffffffffffffff1916817bffffffffffffffffffffffffffffffffffffffffffffffffffffffff191614915050611c9b565b600190505b949350505050565b60606000821415611ceb576040518060400160405280600181526020017f30000000000000000000000000000000000000000000000000000000000000008152509050611e4b565b600082905060005b60008214611d1d578080611d0690612caa565b915050600a82611d169190612b2c565b9150611cf3565b60008167ffffffffffffffff811115611d5f577f4e487b7100000000000000000000000000000000000000000000000000000000600052604160045260246000fd5b6040519080825280601f01601f191660200182016040528015611d915781602001600182028036833780820191505090505b5090505b60008514611e4457600182611daa9190612b5d565b9150600a85611db99190612cf3565b6030611dc59190612ad6565b60f81b818381518110611e01577f4e487b7100000000000000000000000000000000000000000000000000000000600052603260045260246000fd5b60200101907effffffffffffffffffffffffffffffffffffffffffffffffffffffffffffff1916908160001a905350600a85611e3d9190612b2c565b9450611d95565b8093505050505b919050565b60008151905060006a636f6e736f6c652e6c6f679050602083016000808483855afa5050505050565b600080823b905060008111915050919050565b828054611e9890612c47565b90600052602060002090601f016020900481019282611eba5760008555611f01565b82601f10611ed357805160ff1916838001178555611f01565b82800160010185558215611f01579182015b82811115611f00578251825591602001919060010190611ee5565b5b509050611f0e9190611f12565b5090565b5b80821115611f2b576000816000905550600101611f13565b5090565b6000611f42611f3d84612a31565b612a0c565b905082815260208101848484011115611f5a57600080fd5b611f65848285612c05565b509392505050565b6000611f80611f7b84612a62565b612a0c565b905082815260208101848484011115611f9857600080fd5b611fa3848285612c05565b509392505050565b600081359050611fba816132c1565b92915050565b600081519050611fcf816132c1565b92915050565b600081359050611fe4816132d8565b92915050565b600081359050611ff9816132ef565b92915050565b60008151905061200e816132ef565b92915050565b600082601f83011261202557600080fd5b8135612035848260208601611f2f565b91505092915050565b600082601f83011261204f57600080fd5b813561205f848260208601611f6d565b91505092915050565b60008135905061207781613306565b92915050565b60006020828403121561208f57600080fd5b600061209d84828501611fab565b91505092915050565b6000602082840312156120b857600080fd5b60006120c684828501611fc0565b91505092915050565b600080604083850312156120e257600080fd5b60006120f085828601611fab565b925050602061210185828601611fab565b9150509250929050565b60008060006060848603121561212057600080fd5b600061212e86828701611fab565b935050602061213f86828701611fab565b925050604061215086828701612068565b9150509250925092565b6000806000806080858703121561217057600080fd5b600061217e87828801611fab565b945050602061218f87828801611fab565b93505060406121a087828801612068565b925050606085013567ffffffffffffffff8111156121bd57600080fd5b6121c987828801612014565b91505092959194509250565b600080604083850312156121e857600080fd5b60006121f685828601611fab565b925050602061220785828601611fd5565b9150509250929050565b6000806040838503121561222457600080fd5b600061223285828601611fab565b925050602061224385828601612068565b9150509250929050565b60006020828403121561225f57600080fd5b600061226d84828501611fea565b91505092915050565b60006020828403121561228857600080fd5b600061229684828501611fff565b91505092915050565b600080600080608085870312156122b557600080fd5b600085013567ffffffffffffffff8111156122cf57600080fd5b6122db8782880161203e565b94505060206122ec87828801611fab565b93505060406122fd87828801611fab565b925050606061230e87828801611fab565b91505092959194509250565b60006020828403121561232c57600080fd5b600061233a84828501612068565b91505092915050565b61234c81612b91565b82525050565b61235b81612ba3565b82525050565b600061236c82612a93565b6123768185612aa9565b9350612386818560208601612c14565b61238f81612de0565b840191505092915050565b60006123a582612a9e565b6123af8185612aba565b93506123bf818560208601612c14565b6123c881612de0565b840191505092915050565b60006123de82612a9e565b6123e88185612acb565b93506123f8818560208601612c14565b80840191505092915050565b6000612411603283612aba565b915061241c82612df1565b604082019050919050565b6000612434601c83612aba565b915061243f82612e40565b602082019050919050565b6000612457602483612aba565b915061246282612e69565b604082019050919050565b600061247a601983612aba565b915061248582612eb8565b602082019050919050565b600061249d602c83612aba565b91506124a882612ee1565b604082019050919050565b60006124c0603883612aba565b91506124cb82612f30565b604082019050919050565b60006124e3602a83612aba565b91506124ee82612f7f565b604082019050919050565b6000612506602983612aba565b915061251182612fce565b604082019050919050565b6000612529602e83612aba565b91506125348261301d565b604082019050919050565b600061254c602083612aba565b91506125578261306c565b602082019050919050565b600061256f601c83612aba565b915061257a82613095565b602082019050919050565b6000612592603183612aba565b915061259d826130be565b604082019050919050565b60006125b5602c83612aba565b91506125c08261310d565b604082019050919050565b60006125d8602983612aba565b91506125e38261315c565b604082019050919050565b60006125fb602f83612aba565b9150612606826131ab565b604082019050919050565b600061261e601a83612aba565b9150612629826131fa565b602082019050919050565b6000612641602183612aba565b915061264c82613223565b604082019050919050565b6000612664603183612aba565b915061266f82613272565b604082019050919050565b61268381612bfb565b82525050565b600061269582856123d3565b91506126a182846123d3565b91508190509392505050565b60006020820190506126c26000830184612343565b92915050565b60006060820190506126dd6000830186612343565b6126ea6020830185612343565b6126f76040830184612343565b949350505050565b60006080820190506127146000830187612343565b6127216020830186612343565b61272e604083018561267a565b81810360608301526127408184612361565b905095945050505050565b60006040820190506127606000830185612343565b61276d6020830184612352565b9392505050565b60006020820190506127896000830184612352565b92915050565b600060208201905081810360008301526127a9818461239a565b905092915050565b600060208201905081810360008301526127ca81612404565b9050919050565b600060208201905081810360008301526127ea81612427565b9050919050565b6000602082019050818103600083015261280a8161244a565b9050919050565b6000602082019050818103600083015261282a8161246d565b9050919050565b6000602082019050818103600083015261284a81612490565b9050919050565b6000602082019050818103600083015261286a816124b3565b9050919050565b6000602082019050818103600083015261288a816124d6565b9050919050565b600060208201905081810360008301526128aa816124f9565b9050919050565b600060208201905081810360008301526128ca8161251c565b9050919050565b600060208201905081810360008301526128ea8161253f565b9050919050565b6000602082019050818103600083015261290a81612562565b9050919050565b6000602082019050818103600083015261292a81612585565b9050919050565b6000602082019050818103600083015261294a816125a8565b9050919050565b6000602082019050818103600083015261296a816125cb565b9050919050565b6000602082019050818103600083015261298a816125ee565b9050919050565b600060208201905081810360008301526129aa81612611565b9050919050565b600060208201905081810360008301526129ca81612634565b9050919050565b600060208201905081810360008301526129ea81612657565b9050919050565b6000602082019050612a06600083018461267a565b92915050565b6000612a16612a27565b9050612a228282612c79565b919050565b6000604051905090565b600067ffffffffffffffff821115612a4c57612a4b612db1565b5b612a5582612de0565b9050602081019050919050565b600067ffffffffffffffff821115612a7d57612a7c612db1565b5b612a8682612de0565b9050602081019050919050565b600081519050919050565b600081519050919050565b600082825260208201905092915050565b600082825260208201905092915050565b600081905092915050565b6000612ae182612bfb565b9150612aec83612bfb565b9250827fffffffffffffffffffffffffffffffffffffffffffffffffffffffffffffffff03821115612b2157612b20612d24565b5b828201905092915050565b6000612b3782612bfb565b9150612b4283612bfb565b925082612b5257612b51612d53565b5b828204905092915050565b6000612b6882612bfb565b9150612b7383612bfb565b925082821015612b8657612b85612d24565b5b828203905092915050565b6000612b9c82612bdb565b9050919050565b60008115159050919050565b60007fffffffff0000000000000000000000000000000000000000000000000000000082169050919050565b600073ffffffffffffffffffffffffffffffffffffffff82169050919050565b6000819050919050565b82818337600083830152505050565b60005b83811015612c32578082015181840152602081019050612c17565b83811115612c41576000848401525b50505050565b60006002820490506001821680612c5f57607f821691505b60208210811415612c7357612c72612d82565b5b50919050565b612c8282612de0565b810181811067ffffffffffffffff82111715612ca157612ca0612db1565b5b80604052505050565b6000612cb582612bfb565b91507fffffffffffffffffffffffffffffffffffffffffffffffffffffffffffffffff821415612ce857612ce7612d24565b5b600182019050919050565b6000612cfe82612bfb565b9150612d0983612bfb565b925082612d1957612d18612d53565b5b828206905092915050565b7f4e487b7100000000000000000000000000000000000000000000000000000000600052601160045260246000fd5b7f4e487b7100000000000000000000000000000000000000000000000000000000600052601260045260246000fd5b7f4e487b7100000000000000000000000000000000000000000000000000000000600052602260045260246000fd5b7f4e487b7100000000000000000000000000000000000000000000000000000000600052604160045260246000fd5b6000601f19601f8301169050919050565b7f4552433732313a207472616e7366657220746f206e6f6e20455243373231526560008201527f63656976657220696d706c656d656e7465720000000000000000000000000000602082015250565b7f4552433732313a20746f6b656e20616c7265616479206d696e74656400000000600082015250565b7f4552433732313a207472616e7366657220746f20746865207a65726f2061646460008201527f7265737300000000000000000000000000000000000000000000000000000000602082015250565b7f4552433732313a20617070726f766520746f2063616c6c657200000000000000600082015250565b7f4552433732313a206f70657261746f7220717565727920666f72206e6f6e657860008201527f697374656e7420746f6b656e0000000000000000000000000000000000000000602082015250565b7f4552433732313a20617070726f76652063616c6c6572206973206e6f74206f7760008201527f6e6572206e6f7220617070726f76656420666f7220616c6c0000000000000000602082015250565b7f4552433732313a2062616c616e636520717565727920666f7220746865207a6560008201527f726f206164647265737300000000000000000000000000000000000000000000602082015250565b7f4552433732313a206f776e657220717565727920666f72206e6f6e657869737460008201527f656e7420746f6b656e0000000000000000000000000000000000000000000000602082015250565b7f45524337323155524953746f726167653a2055524920736574206f66206e6f6e60008201527f6578697374656e7420746f6b656e000000000000000000000000000000000000602082015250565b7f4552433732313a206d696e7420746f20746865207a65726f2061646472657373600082015250565b7f53656e646572206973206e6f7420612067656e65736973207573657200000000600082015250565b7f45524337323155524953746f726167653a2055524920717565727920666f722060008201527f6e6f6e6578697374656e7420746f6b656e000000000000000000000000000000602082015250565b7f4552433732313a20617070726f76656420717565727920666f72206e6f6e657860008201527f697374656e7420746f6b656e0000000000000000000000000000000000000000602082015250565b7f4552433732313a207472616e73666572206f6620746f6b656e2074686174206960008201527f73206e6f74206f776e0000000000000000000000000000000000000000000000602082015250565b7f4552433732314d657461646174613a2055524920717565727920666f72206e6f60008201527f6e6578697374656e7420746f6b656e0000000000000000000000000000000000602082015250565b7f5573657220616c72656164792065786973747320696e206f7267000000000000600082015250565b7f4552433732313a20617070726f76616c20746f2063757272656e74206f776e6560008201527f7200000000000000000000000000000000000000000000000000000000000000602082015250565b7f4552433732313a207472616e736665722063616c6c6572206973206e6f74206f60008201527f776e6572206e6f7220617070726f766564000000000000000000000000000000602082015250565b6132ca81612b91565b81146132d557600080fd5b50565b6132e181612ba3565b81146132ec57600080fd5b50565b6132f881612baf565b811461330357600080fd5b50565b61330f81612bfb565b811461331a57600080fd5b5056fea2646970667358221220cc90f6d2d15f9862164e340afb6cc739d0762cac80fe60711f1e282505fa592964736f6c6343000804003360806040523480156200001157600080fd5b506040518060400160405280601881526020017f4261646765202d204261736963207573657220746f6b656e00000000000000008152506040518060400160405280600b81526020017f42414447455f4241534943000000000000000000000000000000000000000000815250816000908051906020019062000096929190620000b8565b508060019080519060200190620000af929190620000b8565b505050620001cd565b828054620000c69062000168565b90600052602060002090601f016020900481019282620000ea576000855562000136565b82601f106200010557805160ff191683800117855562000136565b8280016001018555821562000136579182015b828111156200013557825182559160200191906001019062000118565b5b50905062000145919062000149565b5090565b5b80821115620001645760008160009055506001016200014a565b5090565b600060028204905060018216806200018157607f821691505b602082108114156200019857620001976200019e565b5b50919050565b7f4e487b7100000000000000000000000000000000000000000000000000000000600052602260045260246000fd5b6134d080620001dd6000396000f3fe6080604052600436106100e85760003560e01c80636352211e1161008a578063b88d4fde11610059578063b88d4fde14610319578063c87b56dd14610342578063e985e9c51461037f578063fb747fc1146103bc576100e8565b80636352211e1461024b57806370a082311461028857806395d89b41146102c5578063a22cb465146102f0576100e8565b8063095ea7b3116100c6578063095ea7b31461019257806323b872dd146101bb57806342842e0e146101e4578063540dd6941461020d576100e8565b806301ffc9a7146100ed57806306fdde031461012a578063081812fc14610155575b600080fd5b3480156100f957600080fd5b50610114600480360381019061010f919061232a565b6103ec565b6040516101219190612889565b60405180910390f35b34801561013657600080fd5b5061013f6104ce565b60405161014c91906128a4565b60405180910390f35b34801561016157600080fd5b5061017c600480360381019061017791906123f7565b610560565b6040516101899190612799565b60405180910390f35b34801561019e57600080fd5b506101b960048036038101906101b491906122c5565b6105e5565b005b3480156101c757600080fd5b506101e260048036038101906101dd91906121bf565b6106fd565b005b3480156101f057600080fd5b5061020b600480360381019061020691906121bf565b61075d565b005b34801561021957600080fd5b50610234600480360381019061022f9190612183565b61077d565b604051610242929190612837565b60405180910390f35b34801561025757600080fd5b50610272600480360381019061026d91906123f7565b6107db565b60405161027f9190612799565b60405180910390f35b34801561029457600080fd5b506102af60048036038101906102aa9190612131565b61088d565b6040516102bc9190612b06565b60405180910390f35b3480156102d157600080fd5b506102da610945565b6040516102e791906128a4565b60405180910390f35b3480156102fc57600080fd5b5061031760048036038101906103129190612289565b6109d7565b005b34801561032557600080fd5b50610340600480360381019061033b919061220e565b610b58565b005b34801561034e57600080fd5b50610369600480360381019061036491906123f7565b610bba565b60405161037691906128a4565b60405180910390f35b34801561038b57600080fd5b506103a660048036038101906103a19190612183565b610d0c565b6040516103b39190612889565b60405180910390f35b6103d660048036038101906103d1919061237c565b610da0565b6040516103e39190612b06565b60405180910390f35b60007f80ac58cd000000000000000000000000000000000000000000000000000000007bffffffffffffffffffffffffffffffffffffffffffffffffffffffff1916827bffffffffffffffffffffffffffffffffffffffffffffffffffffffff191614806104b757507f5b5e139f000000000000000000000000000000000000000000000000000000007bffffffffffffffffffffffffffffffffffffffffffffffffffffffff1916827bffffffffffffffffffffffffffffffffffffffffffffffffffffffff1916145b806104c757506104c6826111a4565b5b9050919050565b6060600080546104dd90612d81565b80601f016020809104026020016040519081016040528092919081815260200182805461050990612d81565b80156105565780601f1061052b57610100808354040283529160200191610556565b820191906000526020600020905b81548152906001019060200180831161053957829003601f168201915b5050505050905090565b600061056b8261120e565b6105aa576040517f08c379a00000000000000000000000000000000000000000000000000000000081526004016105a190612a26565b60405180910390fd5b6004600083815260200190815260200160002060009054906101000a900473ffffffffffffffffffffffffffffffffffffffff169050919050565b60006105f0826107db565b90508073ffffffffffffffffffffffffffffffffffffffff168373ffffffffffffffffffffffffffffffffffffffff161415610661576040517f08c379a000000000000000000000000000000000000000000000000000000000815260040161065890612aa6565b60405180910390fd5b8073ffffffffffffffffffffffffffffffffffffffff1661068061127a565b73ffffffffffffffffffffffffffffffffffffffff1614806106af57506106ae816106a961127a565b610d0c565b5b6106ee576040517f08c379a00000000000000000000000000000000000000000000000000000000081526004016106e590612966565b60405180910390fd5b6106f88383611282565b505050565b61070e61070861127a565b8261133b565b61074d576040517f08c379a000000000000000000000000000000000000000000000000000000000815260040161074490612ac6565b60405180910390fd5b610758838383611419565b505050565b61077883838360405180602001604052806000815250610b58565b505050565b6008602052816000526040600020602052806000526040600020600091509150508060000160009054906101000a900473ffffffffffffffffffffffffffffffffffffffff16908060000160149054906101000a900460ff16905082565b6000806002600084815260200190815260200160002060009054906101000a900473ffffffffffffffffffffffffffffffffffffffff169050600073ffffffffffffffffffffffffffffffffffffffff168173ffffffffffffffffffffffffffffffffffffffff161415610884576040517f08c379a000000000000000000000000000000000000000000000000000000000815260040161087b906129a6565b60405180910390fd5b80915050919050565b60008073ffffffffffffffffffffffffffffffffffffffff168273ffffffffffffffffffffffffffffffffffffffff1614156108fe576040517f08c379a00000000000000000000000000000000000000000000000000000000081526004016108f590612986565b60405180910390fd5b600360008373ffffffffffffffffffffffffffffffffffffffff1673ffffffffffffffffffffffffffffffffffffffff168152602001908152602001600020549050919050565b60606001805461095490612d81565b80601f016020809104026020016040519081016040528092919081815260200182805461098090612d81565b80156109cd5780601f106109a2576101008083540402835291602001916109cd565b820191906000526020600020905b8154815290600101906020018083116109b057829003601f168201915b5050505050905090565b6109df61127a565b73ffffffffffffffffffffffffffffffffffffffff168273ffffffffffffffffffffffffffffffffffffffff161415610a4d576040517f08c379a0000000000000000000000000000000000000000000000000000000008152600401610a4490612926565b60405180910390fd5b8060056000610a5a61127a565b73ffffffffffffffffffffffffffffffffffffffff1673ffffffffffffffffffffffffffffffffffffffff16815260200190815260200160002060008473ffffffffffffffffffffffffffffffffffffffff1673ffffffffffffffffffffffffffffffffffffffff16815260200190815260200160002060006101000a81548160ff0219169083151502179055508173ffffffffffffffffffffffffffffffffffffffff16610b0761127a565b73ffffffffffffffffffffffffffffffffffffffff167f17307eab39ab6107e8899845ad3d59bd9653f200f220920489ca2b5937696c3183604051610b4c9190612889565b60405180910390a35050565b610b69610b6361127a565b8361133b565b610ba8576040517f08c379a0000000000000000000000000000000000000000000000000000000008152600401610b9f90612ac6565b60405180910390fd5b610bb484848484611675565b50505050565b6060610bc58261120e565b610c04576040517f08c379a0000000000000000000000000000000000000000000000000000000008152600401610bfb90612a06565b60405180910390fd5b6000600660008481526020019081526020016000208054610c2490612d81565b80601f0160208091040260200160405190810160405280929190818152602001828054610c5090612d81565b8015610c9d5780601f10610c7257610100808354040283529160200191610c9d565b820191906000526020600020905b815481529060010190602001808311610c8057829003601f168201915b505050505090506000610cae6116d1565b9050600081511415610cc4578192505050610d07565b600082511115610cf9578082604051602001610ce1929190612775565b60405160208183030381529060405292505050610d07565b610d02846116e8565b925050505b919050565b6000600560008473ffffffffffffffffffffffffffffffffffffffff1673ffffffffffffffffffffffffffffffffffffffff16815260200190815260200160002060008373ffffffffffffffffffffffffffffffffffffffff1673ffffffffffffffffffffffffffffffffffffffff16815260200190815260200160002060009054906101000a900460ff16905092915050565b600082600081905060003373ffffffffffffffffffffffffffffffffffffffff168273ffffffffffffffffffffffffffffffffffffffff16636701d6cd6040518163ffffffff1660e01b815260040160206040518083038186803b158015610e0757600080fd5b505afa158015610e1b573d6000803e3d6000fd5b505050506040513d601f19601f82011682018060405250810190610e3f919061215a565b73ffffffffffffffffffffffffffffffffffffffff1614905060008273ffffffffffffffffffffffffffffffffffffffff1663a781cf333360016040518363ffffffff1660e01b8152600401610e96929190612860565b60206040518083038186803b158015610eae57600080fd5b505afa158015610ec2573d6000803e3d6000fd5b505050506040513d601f19601f82011682018060405250810190610ee69190612301565b90508180610ef15750805b610f30576040517f08c379a0000000000000000000000000000000000000000000000000000000008152600401610f2790612ae6565b60405180910390fd5b600860008873ffffffffffffffffffffffffffffffffffffffff1673ffffffffffffffffffffffffffffffffffffffff16815260200190815260200160002060008973ffffffffffffffffffffffffffffffffffffffff1673ffffffffffffffffffffffffffffffffffffffff16815260200190815260200160002060000160149054906101000a900460ff1615610ffd576040517f08c379a0000000000000000000000000000000000000000000000000000000008152600401610ff490612a86565b60405180910390fd5b60006110098a8a61178f565b905060405180604001604052808a73ffffffffffffffffffffffffffffffffffffffff16815260200160011515815250600860008a73ffffffffffffffffffffffffffffffffffffffff1673ffffffffffffffffffffffffffffffffffffffff16815260200190815260200160002060008b73ffffffffffffffffffffffffffffffffffffffff1673ffffffffffffffffffffffffffffffffffffffff16815260200190815260200160002060008201518160000160006101000a81548173ffffffffffffffffffffffffffffffffffffffff021916908373ffffffffffffffffffffffffffffffffffffffff16021790555060208201518160000160146101000a81548160ff02191690831515021790555090505060008890508073ffffffffffffffffffffffffffffffffffffffff1663b27ba6438b338b6040518463ffffffff1660e01b8152600401611161939291906127b4565b600060405180830381600087803b15801561117b57600080fd5b505af115801561118f573d6000803e3d6000fd5b50505050819650505050505050949350505050565b60007f01ffc9a7000000000000000000000000000000000000000000000000000000007bffffffffffffffffffffffffffffffffffffffffffffffffffffffff1916827bffffffffffffffffffffffffffffffffffffffffffffffffffffffff1916149050919050565b60008073ffffffffffffffffffffffffffffffffffffffff166002600084815260200190815260200160002060009054906101000a900473ffffffffffffffffffffffffffffffffffffffff1673ffffffffffffffffffffffffffffffffffffffff1614159050919050565b600033905090565b816004600083815260200190815260200160002060006101000a81548173ffffffffffffffffffffffffffffffffffffffff021916908373ffffffffffffffffffffffffffffffffffffffff160217905550808273ffffffffffffffffffffffffffffffffffffffff166112f5836107db565b73ffffffffffffffffffffffffffffffffffffffff167f8c5be1e5ebec7d5bd14f71427d1e84f3dd0314c0f7b2291e5b200ac8c7c3b92560405160405180910390a45050565b60006113468261120e565b611385576040517f08c379a000000000000000000000000000000000000000000000000000000000815260040161137c90612946565b60405180910390fd5b6000611390836107db565b90508073ffffffffffffffffffffffffffffffffffffffff168473ffffffffffffffffffffffffffffffffffffffff1614806113ff57508373ffffffffffffffffffffffffffffffffffffffff166113e784610560565b73ffffffffffffffffffffffffffffffffffffffff16145b80611410575061140f8185610d0c565b5b91505092915050565b8273ffffffffffffffffffffffffffffffffffffffff16611439826107db565b73ffffffffffffffffffffffffffffffffffffffff161461148f576040517f08c379a000000000000000000000000000000000000000000000000000000000815260040161148690612a46565b60405180910390fd5b600073ffffffffffffffffffffffffffffffffffffffff168273ffffffffffffffffffffffffffffffffffffffff1614156114ff576040517f08c379a00000000000000000000000000000000000000000000000000000000081526004016114f690612906565b60405180910390fd5b61150a83838361180e565b611515600082611282565b6001600360008573ffffffffffffffffffffffffffffffffffffffff1673ffffffffffffffffffffffffffffffffffffffff16815260200190815260200160002060008282546115659190612c72565b925050819055506001600360008473ffffffffffffffffffffffffffffffffffffffff1673ffffffffffffffffffffffffffffffffffffffff16815260200190815260200160002060008282546115bc9190612beb565b92505081905550816002600083815260200190815260200160002060006101000a81548173ffffffffffffffffffffffffffffffffffffffff021916908373ffffffffffffffffffffffffffffffffffffffff160217905550808273ffffffffffffffffffffffffffffffffffffffff168473ffffffffffffffffffffffffffffffffffffffff167fddf252ad1be2c89b69c2b068fc378daa952ba7f163c4a11628f55a4df523b3ef60405160405180910390a4505050565b611680848484611419565b61168c84848484611813565b6116cb576040517f08c379a00000000000000000000000000000000000000000000000000000000081526004016116c2906128c6565b60405180910390fd5b50505050565b606060405180602001604052806000815250905090565b60606116f38261120e565b611732576040517f08c379a000000000000000000000000000000000000000000000000000000000815260040161172990612a66565b60405180910390fd5b600061173c6116d1565b9050600081511161175c5760405180602001604052806000815250611787565b80611766846119aa565b604051602001611777929190612775565b6040516020818303038152906040525b915050919050565b600061179b6007611b57565b60006117a76007611b6d565b90506117b38382611b7b565b6117bd8185611d49565b6117fb6040518060400160405280600981526020017f53656e64657249443a0000000000000000000000000000000000000000000000815250611dbd565b61180433611e56565b8091505092915050565b505050565b60006118348473ffffffffffffffffffffffffffffffffffffffff16611eef565b1561199d578373ffffffffffffffffffffffffffffffffffffffff1663150b7a0261185d61127a565b8786866040518563ffffffff1660e01b815260040161187f94939291906127eb565b602060405180830381600087803b15801561189957600080fd5b505af19250505080156118ca57506040513d601f19601f820116820180604052508101906118c79190612353565b60015b61194d573d80600081146118fa576040519150601f19603f3d011682016040523d82523d6000602084013e6118ff565b606091505b50600081511415611945576040517f08c379a000000000000000000000000000000000000000000000000000000000815260040161193c906128c6565b60405180910390fd5b805181602001fd5b63150b7a0260e01b7bffffffffffffffffffffffffffffffffffffffffffffffffffffffff1916817bffffffffffffffffffffffffffffffffffffffffffffffffffffffff1916149150506119a2565b600190505b949350505050565b606060008214156119f2576040518060400160405280600181526020017f30000000000000000000000000000000000000000000000000000000000000008152509050611b52565b600082905060005b60008214611a24578080611a0d90612de4565b915050600a82611a1d9190612c41565b91506119fa565b60008167ffffffffffffffff811115611a66577f4e487b7100000000000000000000000000000000000000000000000000000000600052604160045260246000fd5b6040519080825280601f01601f191660200182016040528015611a985781602001600182028036833780820191505090505b5090505b60008514611b4b57600182611ab19190612c72565b9150600a85611ac09190612e2d565b6030611acc9190612beb565b60f81b818381518110611b08577f4e487b7100000000000000000000000000000000000000000000000000000000600052603260045260246000fd5b60200101907effffffffffffffffffffffffffffffffffffffffffffffffffffffffffffff1916908160001a905350600a85611b449190612c41565b9450611a9c565b8093505050505b919050565b6001816000016000828254019250508190555050565b600081600001549050919050565b600073ffffffffffffffffffffffffffffffffffffffff168273ffffffffffffffffffffffffffffffffffffffff161415611beb576040517f08c379a0000000000000000000000000000000000000000000000000000000008152600401611be2906129e6565b60405180910390fd5b611bf48161120e565b15611c34576040517f08c379a0000000000000000000000000000000000000000000000000000000008152600401611c2b906128e6565b60405180910390fd5b611c406000838361180e565b6001600360008473ffffffffffffffffffffffffffffffffffffffff1673ffffffffffffffffffffffffffffffffffffffff1681526020019081526020016000206000828254611c909190612beb565b92505081905550816002600083815260200190815260200160002060006101000a81548173ffffffffffffffffffffffffffffffffffffffff021916908373ffffffffffffffffffffffffffffffffffffffff160217905550808273ffffffffffffffffffffffffffffffffffffffff16600073ffffffffffffffffffffffffffffffffffffffff167fddf252ad1be2c89b69c2b068fc378daa952ba7f163c4a11628f55a4df523b3ef60405160405180910390a45050565b611d528261120e565b611d91576040517f08c379a0000000000000000000000000000000000000000000000000000000008152600401611d88906129c6565b60405180910390fd5b80600660008481526020019081526020016000209080519060200190611db8929190611f2b565b505050565b611e5381604051602401611dd191906128a4565b6040516020818303038152906040527f41304fac000000000000000000000000000000000000000000000000000000007bffffffffffffffffffffffffffffffffffffffffffffffffffffffff19166020820180517bffffffffffffffffffffffffffffffffffffffffffffffffffffffff8381831617835250505050611f02565b50565b611eec81604051602401611e6a9190612799565b6040516020818303038152906040527f2c2ecbc2000000000000000000000000000000000000000000000000000000007bffffffffffffffffffffffffffffffffffffffffffffffffffffffff19166020820180517bffffffffffffffffffffffffffffffffffffffffffffffffffffffff8381831617835250505050611f02565b50565b600080823b905060008111915050919050565b60008151905060006a636f6e736f6c652e6c6f679050602083016000808483855afa5050505050565b828054611f3790612d81565b90600052602060002090601f016020900481019282611f595760008555611fa0565b82601f10611f7257805160ff1916838001178555611fa0565b82800160010185558215611fa0579182015b82811115611f9f578251825591602001919060010190611f84565b5b509050611fad9190611fb1565b5090565b5b80821115611fca576000816000905550600101611fb2565b5090565b6000611fe1611fdc84612b46565b612b21565b905082815260208101848484011115611ff957600080fd5b612004848285612d3f565b509392505050565b600061201f61201a84612b77565b612b21565b90508281526020810184848401111561203757600080fd5b612042848285612d3f565b509392505050565b6000813590506120598161343e565b92915050565b60008151905061206e8161343e565b92915050565b60008135905061208381613455565b92915050565b60008151905061209881613455565b92915050565b6000813590506120ad8161346c565b92915050565b6000815190506120c28161346c565b92915050565b600082601f8301126120d957600080fd5b81356120e9848260208601611fce565b91505092915050565b600082601f83011261210357600080fd5b813561211384826020860161200c565b91505092915050565b60008135905061212b81613483565b92915050565b60006020828403121561214357600080fd5b60006121518482850161204a565b91505092915050565b60006020828403121561216c57600080fd5b600061217a8482850161205f565b91505092915050565b6000806040838503121561219657600080fd5b60006121a48582860161204a565b92505060206121b58582860161204a565b9150509250929050565b6000806000606084860312156121d457600080fd5b60006121e28682870161204a565b93505060206121f38682870161204a565b92505060406122048682870161211c565b9150509250925092565b6000806000806080858703121561222457600080fd5b60006122328782880161204a565b94505060206122438782880161204a565b93505060406122548782880161211c565b925050606085013567ffffffffffffffff81111561227157600080fd5b61227d878288016120c8565b91505092959194509250565b6000806040838503121561229c57600080fd5b60006122aa8582860161204a565b92505060206122bb85828601612074565b9150509250929050565b600080604083850312156122d857600080fd5b60006122e68582860161204a565b92505060206122f78582860161211c565b9150509250929050565b60006020828403121561231357600080fd5b600061232184828501612089565b91505092915050565b60006020828403121561233c57600080fd5b600061234a8482850161209e565b91505092915050565b60006020828403121561236557600080fd5b6000612373848285016120b3565b91505092915050565b6000806000806080858703121561239257600080fd5b600085013567ffffffffffffffff8111156123ac57600080fd5b6123b8878288016120f2565b94505060206123c98782880161204a565b93505060406123da8782880161204a565b92505060606123eb8782880161204a565b91505092959194509250565b60006020828403121561240957600080fd5b60006124178482850161211c565b91505092915050565b61242981612ca6565b82525050565b61243881612cb8565b82525050565b600061244982612ba8565b6124538185612bbe565b9350612463818560208601612d4e565b61246c81612f49565b840191505092915050565b61248081612d2d565b82525050565b600061249182612bb3565b61249b8185612bcf565b93506124ab818560208601612d4e565b6124b481612f49565b840191505092915050565b60006124ca82612bb3565b6124d48185612be0565b93506124e4818560208601612d4e565b80840191505092915050565b60006124fd603283612bcf565b915061250882612f5a565b604082019050919050565b6000612520601c83612bcf565b915061252b82612fa9565b602082019050919050565b6000612543602483612bcf565b915061254e82612fd2565b604082019050919050565b6000612566601983612bcf565b915061257182613021565b602082019050919050565b6000612589602c83612bcf565b91506125948261304a565b604082019050919050565b60006125ac603883612bcf565b91506125b782613099565b604082019050919050565b60006125cf602a83612bcf565b91506125da826130e8565b604082019050919050565b60006125f2602983612bcf565b91506125fd82613137565b604082019050919050565b6000612615602e83612bcf565b915061262082613186565b604082019050919050565b6000612638602083612bcf565b9150612643826131d5565b602082019050919050565b600061265b603183612bcf565b9150612666826131fe565b604082019050919050565b600061267e602c83612bcf565b91506126898261324d565b604082019050919050565b60006126a1602983612bcf565b91506126ac8261329c565b604082019050919050565b60006126c4602f83612bcf565b91506126cf826132eb565b604082019050919050565b60006126e7601a83612bcf565b91506126f28261333a565b602082019050919050565b600061270a602183612bcf565b915061271582613363565b604082019050919050565b600061272d603183612bcf565b9150612738826133b2565b604082019050919050565b6000612750601c83612bcf565b915061275b82613401565b602082019050919050565b61276f81612d23565b82525050565b600061278182856124bf565b915061278d82846124bf565b91508190509392505050565b60006020820190506127ae6000830184612420565b92915050565b60006060820190506127c96000830186612420565b6127d66020830185612420565b6127e36040830184612420565b949350505050565b60006080820190506128006000830187612420565b61280d6020830186612420565b61281a6040830185612766565b818103606083015261282c818461243e565b905095945050505050565b600060408201905061284c6000830185612420565b612859602083018461242f565b9392505050565b60006040820190506128756000830185612420565b6128826020830184612477565b9392505050565b600060208201905061289e600083018461242f565b92915050565b600060208201905081810360008301526128be8184612486565b905092915050565b600060208201905081810360008301526128df816124f0565b9050919050565b600060208201905081810360008301526128ff81612513565b9050919050565b6000602082019050818103600083015261291f81612536565b9050919050565b6000602082019050818103600083015261293f81612559565b9050919050565b6000602082019050818103600083015261295f8161257c565b9050919050565b6000602082019050818103600083015261297f8161259f565b9050919050565b6000602082019050818103600083015261299f816125c2565b9050919050565b600060208201905081810360008301526129bf816125e5565b9050919050565b600060208201905081810360008301526129df81612608565b9050919050565b600060208201905081810360008301526129ff8161262b565b9050919050565b60006020820190508181036000830152612a1f8161264e565b9050919050565b60006020820190508181036000830152612a3f81612671565b9050919050565b60006020820190508181036000830152612a5f81612694565b9050919050565b60006020820190508181036000830152612a7f816126b7565b9050919050565b60006020820190508181036000830152612a9f816126da565b9050919050565b60006020820190508181036000830152612abf816126fd565b9050919050565b60006020820190508181036000830152612adf81612720565b9050919050565b60006020820190508181036000830152612aff81612743565b9050919050565b6000602082019050612b1b6000830184612766565b92915050565b6000612b2b612b3c565b9050612b378282612db3565b919050565b6000604051905090565b600067ffffffffffffffff821115612b6157612b60612f1a565b5b612b6a82612f49565b9050602081019050919050565b600067ffffffffffffffff821115612b9257612b91612f1a565b5b612b9b82612f49565b9050602081019050919050565b600081519050919050565b600081519050919050565b600082825260208201905092915050565b600082825260208201905092915050565b600081905092915050565b6000612bf682612d23565b9150612c0183612d23565b9250827fffffffffffffffffffffffffffffffffffffffffffffffffffffffffffffffff03821115612c3657612c35612e5e565b5b828201905092915050565b6000612c4c82612d23565b9150612c5783612d23565b925082612c6757612c66612e8d565b5b828204905092915050565b6000612c7d82612d23565b9150612c8883612d23565b925082821015612c9b57612c9a612e5e565b5b828203905092915050565b6000612cb182612d03565b9050919050565b60008115159050919050565b60007fffffffff0000000000000000000000000000000000000000000000000000000082169050919050565b6000819050612cfe8261342a565b919050565b600073ffffffffffffffffffffffffffffffffffffffff82169050919050565b6000819050919050565b6000612d3882612cf0565b9050919050565b82818337600083830152505050565b60005b83811015612d6c578082015181840152602081019050612d51565b83811115612d7b576000848401525b50505050565b60006002820490506001821680612d9957607f821691505b60208210811415612dad57612dac612eeb565b5b50919050565b612dbc82612f49565b810181811067ffffffffffffffff82111715612ddb57612dda612f1a565b5b80604052505050565b6000612def82612d23565b91507fffffffffffffffffffffffffffffffffffffffffffffffffffffffffffffffff821415612e2257612e21612e5e565b5b600182019050919050565b6000612e3882612d23565b9150612e4383612d23565b925082612e5357612e52612e8d565b5b828206905092915050565b7f4e487b7100000000000000000000000000000000000000000000000000000000600052601160045260246000fd5b7f4e487b7100000000000000000000000000000000000000000000000000000000600052601260045260246000fd5b7f4e487b7100000000000000000000000000000000000000000000000000000000600052602160045260246000fd5b7f4e487b7100000000000000000000000000000000000000000000000000000000600052602260045260246000fd5b7f4e487b7100000000000000000000000000000000000000000000000000000000600052604160045260246000fd5b6000601f19601f8301169050919050565b7f4552433732313a207472616e7366657220746f206e6f6e20455243373231526560008201527f63656976657220696d706c656d656e7465720000000000000000000000000000602082015250565b7f4552433732313a20746f6b656e20616c7265616479206d696e74656400000000600082015250565b7f4552433732313a207472616e7366657220746f20746865207a65726f2061646460008201527f7265737300000000000000000000000000000000000000000000000000000000602082015250565b7f4552433732313a20617070726f766520746f2063616c6c657200000000000000600082015250565b7f4552433732313a206f70657261746f7220717565727920666f72206e6f6e657860008201527f697374656e7420746f6b656e0000000000000000000000000000000000000000602082015250565b7f4552433732313a20617070726f76652063616c6c6572206973206e6f74206f7760008201527f6e6572206e6f7220617070726f76656420666f7220616c6c0000000000000000602082015250565b7f4552433732313a2062616c616e636520717565727920666f7220746865207a6560008201527f726f206164647265737300000000000000000000000000000000000000000000602082015250565b7f4552433732313a206f776e657220717565727920666f72206e6f6e657869737460008201527f656e7420746f6b656e0000000000000000000000000000000000000000000000602082015250565b7f45524337323155524953746f726167653a2055524920736574206f66206e6f6e60008201527f6578697374656e7420746f6b656e000000000000000000000000000000000000602082015250565b7f4552433732313a206d696e7420746f20746865207a65726f2061646472657373600082015250565b7f45524337323155524953746f726167653a2055524920717565727920666f722060008201527f6e6f6e6578697374656e7420746f6b656e000000000000000000000000000000602082015250565b7f4552433732313a20617070726f76656420717565727920666f72206e6f6e657860008201527f697374656e7420746f6b656e0000000000000000000000000000000000000000602082015250565b7f4552433732313a207472616e73666572206f6620746f6b656e2074686174206960008201527f73206e6f74206f776e0000000000000000000000000000000000000000000000602082015250565b7f4552433732314d657461646174613a2055524920717565727920666f72206e6f60008201527f6e6578697374656e7420746f6b656e0000000000000000000000000000000000602082015250565b7f5573657220616c72656164792065786973747320696e206f7267000000000000600082015250565b7f4552433732313a20617070726f76616c20746f2063757272656e74206f776e6560008201527f7200000000000000000000000000000000000000000000000000000000000000602082015250565b7f4552433732313a207472616e736665722063616c6c6572206973206e6f74206f60008201527f776e6572206e6f7220617070726f766564000000000000000000000000000000602082015250565b7f53656e646572206e6f742067656e206f72207375706572207573657200000000600082015250565b6003811061343b5761343a612ebc565b5b50565b61344781612ca6565b811461345257600080fd5b50565b61345e81612cb8565b811461346957600080fd5b50565b61347581612cc4565b811461348057600080fd5b50565b61348c81612d23565b811461349757600080fd5b5056fea2646970667358221220c9bb3c029b7cf3af6603ea1d3832d988b45200e936d49bb982225be60c2a24b964736f6c63430008040033",
  "linkReferences": {},
  "deployedLinkReferences": {}
}