{
  "_format": "hh-sol-artifact-1",
  "contractName": "PermissionToken",
  "sourceName": "contracts/PermissionToken.sol",
  "abi": [
    {
      "inputs": [
        {
          "internalType": "address",
          "name": "_entityAddress",
          "type": "address"
        },
        {
          "internalType": "string",
          "name": "_name",
          "type": "string"
        }
      ],
      "stateMutability": "nonpayable",
      "type": "constructor"
    },
    {
      "anonymous": false,
      "inputs": [
        {
          "indexed": true,
          "internalType": "address",
          "name": "owner",
          "type": "address"
        },
        {
          "indexed": true,
          "internalType": "address",
          "name": "approved",
          "type": "address"
        },
        {
          "indexed": true,
          "internalType": "uint256",
          "name": "tokenId",
          "type": "uint256"
        }
      ],
      "name": "Approval",
      "type": "event"
    },
    {
      "anonymous": false,
      "inputs": [
        {
          "indexed": true,
          "internalType": "address",
          "name": "owner",
          "type": "address"
        },
        {
          "indexed": true,
          "internalType": "address",
          "name": "operator",
          "type": "address"
        },
        {
          "indexed": false,
          "internalType": "bool",
          "name": "approved",
          "type": "bool"
        }
      ],
      "name": "ApprovalForAll",
      "type": "event"
    },
    {
      "anonymous": false,
      "inputs": [
        {
          "indexed": true,
          "internalType": "address",
          "name": "from",
          "type": "address"
        },
        {
          "indexed": true,
          "internalType": "address",
          "name": "to",
          "type": "address"
        },
        {
          "indexed": true,
          "internalType": "uint256",
          "name": "tokenId",
          "type": "uint256"
        }
      ],
      "name": "Transfer",
      "type": "event"
    },
    {
      "inputs": [
        {
          "internalType": "address",
          "name": "to",
          "type": "address"
        },
        {
          "internalType": "uint256",
          "name": "tokenId",
          "type": "uint256"
        }
      ],
      "name": "approve",
      "outputs": [],
      "stateMutability": "nonpayable",
      "type": "function"
    },
    {
      "inputs": [
        {
          "internalType": "address",
          "name": "owner",
          "type": "address"
        }
      ],
      "name": "balanceOf",
      "outputs": [
        {
          "internalType": "uint256",
          "name": "",
          "type": "uint256"
        }
      ],
      "stateMutability": "view",
      "type": "function"
    },
    {
      "inputs": [
        {
          "internalType": "address",
          "name": "_owner",
          "type": "address"
        },
        {
          "internalType": "string",
          "name": "tokenURI",
          "type": "string"
        }
      ],
      "name": "createToken",
      "outputs": [
        {
          "internalType": "uint256",
          "name": "",
          "type": "uint256"
        }
      ],
      "stateMutability": "payable",
      "type": "function"
    },
    {
      "inputs": [],
      "name": "entityAddress",
      "outputs": [
        {
          "internalType": "address",
          "name": "",
          "type": "address"
        }
      ],
      "stateMutability": "view",
      "type": "function"
    },
    {
      "inputs": [
        {
          "internalType": "uint256",
          "name": "tokenId",
          "type": "uint256"
        }
      ],
      "name": "getApproved",
      "outputs": [
        {
          "internalType": "address",
          "name": "",
          "type": "address"
        }
      ],
      "stateMutability": "view",
      "type": "function"
    },
    {
      "inputs": [
        {
          "internalType": "address",
          "name": "owner",
          "type": "address"
        },
        {
          "internalType": "address",
          "name": "operator",
          "type": "address"
        }
      ],
      "name": "isApprovedForAll",
      "outputs": [
        {
          "internalType": "bool",
          "name": "",
          "type": "bool"
        }
      ],
      "stateMutability": "view",
      "type": "function"
    },
    {
      "inputs": [],
      "name": "name",
      "outputs": [
        {
          "internalType": "string",
          "name": "",
          "type": "string"
        }
      ],
      "stateMutability": "view",
      "type": "function"
    },
    {
      "inputs": [
        {
          "internalType": "uint256",
          "name": "tokenId",
          "type": "uint256"
        }
      ],
      "name": "ownerOf",
      "outputs": [
        {
          "internalType": "address",
          "name": "",
          "type": "address"
        }
      ],
      "stateMutability": "view",
      "type": "function"
    },
    {
      "inputs": [
        {
          "internalType": "address",
          "name": "from",
          "type": "address"
        },
        {
          "internalType": "address",
          "name": "to",
          "type": "address"
        },
        {
          "internalType": "uint256",
          "name": "tokenId",
          "type": "uint256"
        }
      ],
      "name": "safeTransferFrom",
      "outputs": [],
      "stateMutability": "nonpayable",
      "type": "function"
    },
    {
      "inputs": [
        {
          "internalType": "address",
          "name": "from",
          "type": "address"
        },
        {
          "internalType": "address",
          "name": "to",
          "type": "address"
        },
        {
          "internalType": "uint256",
          "name": "tokenId",
          "type": "uint256"
        },
        {
          "internalType": "bytes",
          "name": "_data",
          "type": "bytes"
        }
      ],
      "name": "safeTransferFrom",
      "outputs": [],
      "stateMutability": "nonpayable",
      "type": "function"
    },
    {
      "inputs": [
        {
          "internalType": "address",
          "name": "operator",
          "type": "address"
        },
        {
          "internalType": "bool",
          "name": "approved",
          "type": "bool"
        }
      ],
      "name": "setApprovalForAll",
      "outputs": [],
      "stateMutability": "nonpayable",
      "type": "function"
    },
    {
      "inputs": [
        {
          "internalType": "bytes4",
          "name": "interfaceId",
          "type": "bytes4"
        }
      ],
      "name": "supportsInterface",
      "outputs": [
        {
          "internalType": "bool",
          "name": "",
          "type": "bool"
        }
      ],
      "stateMutability": "view",
      "type": "function"
    },
    {
      "inputs": [],
      "name": "symbol",
      "outputs": [
        {
          "internalType": "string",
          "name": "",
          "type": "string"
        }
      ],
      "stateMutability": "view",
      "type": "function"
    },
    {
      "inputs": [
        {
          "internalType": "uint256",
          "name": "tokenId",
          "type": "uint256"
        }
      ],
      "name": "tokenURI",
      "outputs": [
        {
          "internalType": "string",
          "name": "",
          "type": "string"
        }
      ],
      "stateMutability": "view",
      "type": "function"
    },
    {
      "inputs": [
        {
          "internalType": "address",
          "name": "from",
          "type": "address"
        },
        {
          "internalType": "address",
          "name": "to",
          "type": "address"
        },
        {
          "internalType": "uint256",
          "name": "tokenId",
          "type": "uint256"
        }
      ],
      "name": "transferFrom",
      "outputs": [],
      "stateMutability": "nonpayable",
      "type": "function"
    }
  ],
  "bytecode": "0x60806040523480156200001157600080fd5b50604051620032a6380380620032a68339818101604052810190620000379190620002a9565b6200007e816040518060400160405280601481526020017f202d205065726d697373696f6e20546f6b656e730000000000000000000000008152506200014260201b60201c565b620000c5826040518060400160405280600b81526020017f5f5045524d495353494f4e0000000000000000000000000000000000000000008152506200014260201b60201c565b8160009080519060200190620000dd92919062000170565b508060019080519060200190620000f692919062000170565b50505081600860006101000a81548173ffffffffffffffffffffffffffffffffffffffff021916908373ffffffffffffffffffffffffffffffffffffffff160217905550505062000536565b60608282604051602001620001599291906200033a565b604051602081830303815290604052905092915050565b8280546200017e9062000441565b90600052602060002090601f016020900481019282620001a25760008555620001ee565b82601f10620001bd57805160ff1916838001178555620001ee565b82800160010185558215620001ee579182015b82811115620001ed578251825591602001919060010190620001d0565b5b509050620001fd919062000201565b5090565b5b808211156200021c57600081600090555060010162000202565b5090565b60006200023762000231846200038b565b62000362565b9050828152602081018484840111156200025057600080fd5b6200025d8482856200040b565b509392505050565b60008151905062000276816200051c565b92915050565b600082601f8301126200028e57600080fd5b8151620002a084826020860162000220565b91505092915050565b60008060408385031215620002bd57600080fd5b6000620002cd8582860162000265565b925050602083015167ffffffffffffffff811115620002eb57600080fd5b620002f9858286016200027c565b9150509250929050565b60006200031082620003c1565b6200031c8185620003cc565b93506200032e8185602086016200040b565b80840191505092915050565b600062000348828562000303565b915062000356828462000303565b91508190509392505050565b60006200036e62000381565b90506200037c828262000477565b919050565b6000604051905090565b600067ffffffffffffffff821115620003a957620003a8620004dc565b5b620003b4826200050b565b9050602081019050919050565b600081519050919050565b600081905092915050565b6000620003e482620003eb565b9050919050565b600073ffffffffffffffffffffffffffffffffffffffff82169050919050565b60005b838110156200042b5780820151818401526020810190506200040e565b838111156200043b576000848401525b50505050565b600060028204905060018216806200045a57607f821691505b60208210811415620004715762000470620004ad565b5b50919050565b62000482826200050b565b810181811067ffffffffffffffff82111715620004a457620004a3620004dc565b5b80604052505050565b7f4e487b7100000000000000000000000000000000000000000000000000000000600052602260045260246000fd5b7f4e487b7100000000000000000000000000000000000000000000000000000000600052604160045260246000fd5b6000601f19601f8301169050919050565b6200052781620003d7565b81146200053357600080fd5b50565b612d6080620005466000396000f3fe6080604052600436106100e85760003560e01c80636352211e1161008a578063b88d4fde11610059578063b88d4fde1461030b578063c87b56dd14610334578063cdb055cc14610371578063e985e9c51461039c576100e8565b80636352211e1461023d57806370a082311461027a57806395d89b41146102b7578063a22cb465146102e2576100e8565b8063081812fc116100c6578063081812fc14610185578063095ea7b3146101c257806323b872dd146101eb57806342842e0e14610214576100e8565b806301382807146100ed57806301ffc9a71461011d57806306fdde031461015a575b600080fd5b61010760048036038101906101029190611d11565b6103d9565b6040516101149190612427565b60405180910390f35b34801561012957600080fd5b50610144600480360381019061013f9190611da1565b6104a1565b60405161015191906121ca565b60405180910390f35b34801561016657600080fd5b5061016f610583565b60405161017c91906121e5565b60405180910390f35b34801561019157600080fd5b506101ac60048036038101906101a79190611df3565b610615565b6040516101b99190612163565b60405180910390f35b3480156101ce57600080fd5b506101e960048036038101906101e49190611d65565b61069a565b005b3480156101f757600080fd5b50610212600480360381019061020d9190611c0b565b6107b2565b005b34801561022057600080fd5b5061023b60048036038101906102369190611c0b565b610812565b005b34801561024957600080fd5b50610264600480360381019061025f9190611df3565b610832565b6040516102719190612163565b60405180910390f35b34801561028657600080fd5b506102a1600480360381019061029c9190611ba6565b6108e4565b6040516102ae9190612427565b60405180910390f35b3480156102c357600080fd5b506102cc61099c565b6040516102d991906121e5565b60405180910390f35b3480156102ee57600080fd5b5061030960048036038101906103049190611cd5565b610a2e565b005b34801561031757600080fd5b50610332600480360381019061032d9190611c5a565b610baf565b005b34801561034057600080fd5b5061035b60048036038101906103569190611df3565b610c11565b60405161036891906121e5565b60405180910390f35b34801561037d57600080fd5b50610386610d63565b6040516103939190612163565b60405180910390f35b3480156103a857600080fd5b506103c360048036038101906103be9190611bcf565b610d89565b6040516103d091906121ca565b60405180910390f35b6000600860009054906101000a900473ffffffffffffffffffffffffffffffffffffffff1673ffffffffffffffffffffffffffffffffffffffff163373ffffffffffffffffffffffffffffffffffffffff161461046b576040517f08c379a000000000000000000000000000000000000000000000000000000000815260040161046290612387565b60405180910390fd5b6104756007610e1d565b60006104816007610e33565b905061048d8482610e41565b610497818461100f565b8091505092915050565b60007f80ac58cd000000000000000000000000000000000000000000000000000000007bffffffffffffffffffffffffffffffffffffffffffffffffffffffff1916827bffffffffffffffffffffffffffffffffffffffffffffffffffffffff1916148061056c57507f5b5e139f000000000000000000000000000000000000000000000000000000007bffffffffffffffffffffffffffffffffffffffffffffffffffffffff1916827bffffffffffffffffffffffffffffffffffffffffffffffffffffffff1916145b8061057c575061057b82611083565b5b9050919050565b6060600080546105929061267d565b80601f01602080910402602001604051908101604052809291908181526020018280546105be9061267d565b801561060b5780601f106105e05761010080835404028352916020019161060b565b820191906000526020600020905b8154815290600101906020018083116105ee57829003601f168201915b5050505050905090565b6000610620826110ed565b61065f576040517f08c379a000000000000000000000000000000000000000000000000000000000815260040161065690612367565b60405180910390fd5b6004600083815260200190815260200160002060009054906101000a900473ffffffffffffffffffffffffffffffffffffffff169050919050565b60006106a582610832565b90508073ffffffffffffffffffffffffffffffffffffffff168373ffffffffffffffffffffffffffffffffffffffff161415610716576040517f08c379a000000000000000000000000000000000000000000000000000000000815260040161070d906123e7565b60405180910390fd5b8073ffffffffffffffffffffffffffffffffffffffff16610735611159565b73ffffffffffffffffffffffffffffffffffffffff16148061076457506107638161075e611159565b610d89565b5b6107a3576040517f08c379a000000000000000000000000000000000000000000000000000000000815260040161079a906122a7565b60405180910390fd5b6107ad8383611161565b505050565b6107c36107bd611159565b8261121a565b610802576040517f08c379a00000000000000000000000000000000000000000000000000000000081526004016107f990612407565b60405180910390fd5b61080d8383836112f8565b505050565b61082d83838360405180602001604052806000815250610baf565b505050565b6000806002600084815260200190815260200160002060009054906101000a900473ffffffffffffffffffffffffffffffffffffffff169050600073ffffffffffffffffffffffffffffffffffffffff168173ffffffffffffffffffffffffffffffffffffffff1614156108db576040517f08c379a00000000000000000000000000000000000000000000000000000000081526004016108d2906122e7565b60405180910390fd5b80915050919050565b60008073ffffffffffffffffffffffffffffffffffffffff168273ffffffffffffffffffffffffffffffffffffffff161415610955576040517f08c379a000000000000000000000000000000000000000000000000000000000815260040161094c906122c7565b60405180910390fd5b600360008373ffffffffffffffffffffffffffffffffffffffff1673ffffffffffffffffffffffffffffffffffffffff168152602001908152602001600020549050919050565b6060600180546109ab9061267d565b80601f01602080910402602001604051908101604052809291908181526020018280546109d79061267d565b8015610a245780601f106109f957610100808354040283529160200191610a24565b820191906000526020600020905b815481529060010190602001808311610a0757829003601f168201915b5050505050905090565b610a36611159565b73ffffffffffffffffffffffffffffffffffffffff168273ffffffffffffffffffffffffffffffffffffffff161415610aa4576040517f08c379a0000000000000000000000000000000000000000000000000000000008152600401610a9b90612267565b60405180910390fd5b8060056000610ab1611159565b73ffffffffffffffffffffffffffffffffffffffff1673ffffffffffffffffffffffffffffffffffffffff16815260200190815260200160002060008473ffffffffffffffffffffffffffffffffffffffff1673ffffffffffffffffffffffffffffffffffffffff16815260200190815260200160002060006101000a81548160ff0219169083151502179055508173ffffffffffffffffffffffffffffffffffffffff16610b5e611159565b73ffffffffffffffffffffffffffffffffffffffff167f17307eab39ab6107e8899845ad3d59bd9653f200f220920489ca2b5937696c3183604051610ba391906121ca565b60405180910390a35050565b610bc0610bba611159565b8361121a565b610bff576040517f08c379a0000000000000000000000000000000000000000000000000000000008152600401610bf690612407565b60405180910390fd5b610c0b84848484611554565b50505050565b6060610c1c826110ed565b610c5b576040517f08c379a0000000000000000000000000000000000000000000000000000000008152600401610c5290612347565b60405180910390fd5b6000600660008481526020019081526020016000208054610c7b9061267d565b80601f0160208091040260200160405190810160405280929190818152602001828054610ca79061267d565b8015610cf45780601f10610cc957610100808354040283529160200191610cf4565b820191906000526020600020905b815481529060010190602001808311610cd757829003601f168201915b505050505090506000610d056115b0565b9050600081511415610d1b578192505050610d5e565b600082511115610d50578082604051602001610d3892919061213f565b60405160208183030381529060405292505050610d5e565b610d59846115c7565b925050505b919050565b600860009054906101000a900473ffffffffffffffffffffffffffffffffffffffff1681565b6000600560008473ffffffffffffffffffffffffffffffffffffffff1673ffffffffffffffffffffffffffffffffffffffff16815260200190815260200160002060008373ffffffffffffffffffffffffffffffffffffffff1673ffffffffffffffffffffffffffffffffffffffff16815260200190815260200160002060009054906101000a900460ff16905092915050565b6001816000016000828254019250508190555050565b600081600001549050919050565b600073ffffffffffffffffffffffffffffffffffffffff168273ffffffffffffffffffffffffffffffffffffffff161415610eb1576040517f08c379a0000000000000000000000000000000000000000000000000000000008152600401610ea890612327565b60405180910390fd5b610eba816110ed565b15610efa576040517f08c379a0000000000000000000000000000000000000000000000000000000008152600401610ef190612227565b60405180910390fd5b610f066000838361166e565b6001600360008473ffffffffffffffffffffffffffffffffffffffff1673ffffffffffffffffffffffffffffffffffffffff1681526020019081526020016000206000828254610f56919061250c565b92505081905550816002600083815260200190815260200160002060006101000a81548173ffffffffffffffffffffffffffffffffffffffff021916908373ffffffffffffffffffffffffffffffffffffffff160217905550808273ffffffffffffffffffffffffffffffffffffffff16600073ffffffffffffffffffffffffffffffffffffffff167fddf252ad1be2c89b69c2b068fc378daa952ba7f163c4a11628f55a4df523b3ef60405160405180910390a45050565b611018826110ed565b611057576040517f08c379a000000000000000000000000000000000000000000000000000000000815260040161104e90612307565b60405180910390fd5b8060066000848152602001908152602001600020908051906020019061107e9291906119ca565b505050565b60007f01ffc9a7000000000000000000000000000000000000000000000000000000007bffffffffffffffffffffffffffffffffffffffffffffffffffffffff1916827bffffffffffffffffffffffffffffffffffffffffffffffffffffffff1916149050919050565b60008073ffffffffffffffffffffffffffffffffffffffff166002600084815260200190815260200160002060009054906101000a900473ffffffffffffffffffffffffffffffffffffffff1673ffffffffffffffffffffffffffffffffffffffff1614159050919050565b600033905090565b816004600083815260200190815260200160002060006101000a81548173ffffffffffffffffffffffffffffffffffffffff021916908373ffffffffffffffffffffffffffffffffffffffff160217905550808273ffffffffffffffffffffffffffffffffffffffff166111d483610832565b73ffffffffffffffffffffffffffffffffffffffff167f8c5be1e5ebec7d5bd14f71427d1e84f3dd0314c0f7b2291e5b200ac8c7c3b92560405160405180910390a45050565b6000611225826110ed565b611264576040517f08c379a000000000000000000000000000000000000000000000000000000000815260040161125b90612287565b60405180910390fd5b600061126f83610832565b90508073ffffffffffffffffffffffffffffffffffffffff168473ffffffffffffffffffffffffffffffffffffffff1614806112de57508373ffffffffffffffffffffffffffffffffffffffff166112c684610615565b73ffffffffffffffffffffffffffffffffffffffff16145b806112ef57506112ee8185610d89565b5b91505092915050565b8273ffffffffffffffffffffffffffffffffffffffff1661131882610832565b73ffffffffffffffffffffffffffffffffffffffff161461136e576040517f08c379a0000000000000000000000000000000000000000000000000000000008152600401611365906123a7565b60405180910390fd5b600073ffffffffffffffffffffffffffffffffffffffff168273ffffffffffffffffffffffffffffffffffffffff1614156113de576040517f08c379a00000000000000000000000000000000000000000000000000000000081526004016113d590612247565b60405180910390fd5b6113e983838361166e565b6113f4600082611161565b6001600360008573ffffffffffffffffffffffffffffffffffffffff1673ffffffffffffffffffffffffffffffffffffffff16815260200190815260200160002060008282546114449190612593565b925050819055506001600360008473ffffffffffffffffffffffffffffffffffffffff1673ffffffffffffffffffffffffffffffffffffffff168152602001908152602001600020600082825461149b919061250c565b92505081905550816002600083815260200190815260200160002060006101000a81548173ffffffffffffffffffffffffffffffffffffffff021916908373ffffffffffffffffffffffffffffffffffffffff160217905550808273ffffffffffffffffffffffffffffffffffffffff168473ffffffffffffffffffffffffffffffffffffffff167fddf252ad1be2c89b69c2b068fc378daa952ba7f163c4a11628f55a4df523b3ef60405160405180910390a4505050565b61155f8484846112f8565b61156b84848484611673565b6115aa576040517f08c379a00000000000000000000000000000000000000000000000000000000081526004016115a190612207565b60405180910390fd5b50505050565b606060405180602001604052806000815250905090565b60606115d2826110ed565b611611576040517f08c379a0000000000000000000000000000000000000000000000000000000008152600401611608906123c7565b60405180910390fd5b600061161b6115b0565b9050600081511161163b5760405180602001604052806000815250611666565b806116458461180a565b60405160200161165692919061213f565b6040516020818303038152906040525b915050919050565b505050565b60006116948473ffffffffffffffffffffffffffffffffffffffff166119b7565b156117fd578373ffffffffffffffffffffffffffffffffffffffff1663150b7a026116bd611159565b8786866040518563ffffffff1660e01b81526004016116df949392919061217e565b602060405180830381600087803b1580156116f957600080fd5b505af192505050801561172a57506040513d601f19601f820116820180604052508101906117279190611dca565b60015b6117ad573d806000811461175a576040519150601f19603f3d011682016040523d82523d6000602084013e61175f565b606091505b506000815114156117a5576040517f08c379a000000000000000000000000000000000000000000000000000000000815260040161179c90612207565b60405180910390fd5b805181602001fd5b63150b7a0260e01b7bffffffffffffffffffffffffffffffffffffffffffffffffffffffff1916817bffffffffffffffffffffffffffffffffffffffffffffffffffffffff191614915050611802565b600190505b949350505050565b60606000821415611852576040518060400160405280600181526020017f300000000000000000000000000000000000000000000000000000000000000081525090506119b2565b600082905060005b6000821461188457808061186d906126e0565b915050600a8261187d9190612562565b915061185a565b60008167ffffffffffffffff8111156118c6577f4e487b7100000000000000000000000000000000000000000000000000000000600052604160045260246000fd5b6040519080825280601f01601f1916602001820160405280156118f85781602001600182028036833780820191505090505b5090505b600085146119ab576001826119119190612593565b9150600a856119209190612729565b603061192c919061250c565b60f81b818381518110611968577f4e487b7100000000000000000000000000000000000000000000000000000000600052603260045260246000fd5b60200101907effffffffffffffffffffffffffffffffffffffffffffffffffffffffffffff1916908160001a905350600a856119a49190612562565b94506118fc565b8093505050505b919050565b600080823b905060008111915050919050565b8280546119d69061267d565b90600052602060002090601f0160209004810192826119f85760008555611a3f565b82601f10611a1157805160ff1916838001178555611a3f565b82800160010185558215611a3f579182015b82811115611a3e578251825591602001919060010190611a23565b5b509050611a4c9190611a50565b5090565b5b80821115611a69576000816000905550600101611a51565b5090565b6000611a80611a7b84612467565b612442565b905082815260208101848484011115611a9857600080fd5b611aa384828561263b565b509392505050565b6000611abe611ab984612498565b612442565b905082815260208101848484011115611ad657600080fd5b611ae184828561263b565b509392505050565b600081359050611af881612cce565b92915050565b600081359050611b0d81612ce5565b92915050565b600081359050611b2281612cfc565b92915050565b600081519050611b3781612cfc565b92915050565b600082601f830112611b4e57600080fd5b8135611b5e848260208601611a6d565b91505092915050565b600082601f830112611b7857600080fd5b8135611b88848260208601611aab565b91505092915050565b600081359050611ba081612d13565b92915050565b600060208284031215611bb857600080fd5b6000611bc684828501611ae9565b91505092915050565b60008060408385031215611be257600080fd5b6000611bf085828601611ae9565b9250506020611c0185828601611ae9565b9150509250929050565b600080600060608486031215611c2057600080fd5b6000611c2e86828701611ae9565b9350506020611c3f86828701611ae9565b9250506040611c5086828701611b91565b9150509250925092565b60008060008060808587031215611c7057600080fd5b6000611c7e87828801611ae9565b9450506020611c8f87828801611ae9565b9350506040611ca087828801611b91565b925050606085013567ffffffffffffffff811115611cbd57600080fd5b611cc987828801611b3d565b91505092959194509250565b60008060408385031215611ce857600080fd5b6000611cf685828601611ae9565b9250506020611d0785828601611afe565b9150509250929050565b60008060408385031215611d2457600080fd5b6000611d3285828601611ae9565b925050602083013567ffffffffffffffff811115611d4f57600080fd5b611d5b85828601611b67565b9150509250929050565b60008060408385031215611d7857600080fd5b6000611d8685828601611ae9565b9250506020611d9785828601611b91565b9150509250929050565b600060208284031215611db357600080fd5b6000611dc184828501611b13565b91505092915050565b600060208284031215611ddc57600080fd5b6000611dea84828501611b28565b91505092915050565b600060208284031215611e0557600080fd5b6000611e1384828501611b91565b91505092915050565b611e25816125c7565b82525050565b611e34816125d9565b82525050565b6000611e45826124c9565b611e4f81856124df565b9350611e5f81856020860161264a565b611e6881612816565b840191505092915050565b6000611e7e826124d4565b611e8881856124f0565b9350611e9881856020860161264a565b611ea181612816565b840191505092915050565b6000611eb7826124d4565b611ec18185612501565b9350611ed181856020860161264a565b80840191505092915050565b6000611eea6032836124f0565b9150611ef582612827565b604082019050919050565b6000611f0d601c836124f0565b9150611f1882612876565b602082019050919050565b6000611f306024836124f0565b9150611f3b8261289f565b604082019050919050565b6000611f536019836124f0565b9150611f5e826128ee565b602082019050919050565b6000611f76602c836124f0565b9150611f8182612917565b604082019050919050565b6000611f996038836124f0565b9150611fa482612966565b604082019050919050565b6000611fbc602a836124f0565b9150611fc7826129b5565b604082019050919050565b6000611fdf6029836124f0565b9150611fea82612a04565b604082019050919050565b6000612002602e836124f0565b915061200d82612a53565b604082019050919050565b60006120256020836124f0565b915061203082612aa2565b602082019050919050565b60006120486031836124f0565b915061205382612acb565b604082019050919050565b600061206b602c836124f0565b915061207682612b1a565b604082019050919050565b600061208e600b836124f0565b915061209982612b69565b602082019050919050565b60006120b16029836124f0565b91506120bc82612b92565b604082019050919050565b60006120d4602f836124f0565b91506120df82612be1565b604082019050919050565b60006120f76021836124f0565b915061210282612c30565b604082019050919050565b600061211a6031836124f0565b915061212582612c7f565b604082019050919050565b61213981612631565b82525050565b600061214b8285611eac565b91506121578284611eac565b91508190509392505050565b60006020820190506121786000830184611e1c565b92915050565b60006080820190506121936000830187611e1c565b6121a06020830186611e1c565b6121ad6040830185612130565b81810360608301526121bf8184611e3a565b905095945050505050565b60006020820190506121df6000830184611e2b565b92915050565b600060208201905081810360008301526121ff8184611e73565b905092915050565b6000602082019050818103600083015261222081611edd565b9050919050565b6000602082019050818103600083015261224081611f00565b9050919050565b6000602082019050818103600083015261226081611f23565b9050919050565b6000602082019050818103600083015261228081611f46565b9050919050565b600060208201905081810360008301526122a081611f69565b9050919050565b600060208201905081810360008301526122c081611f8c565b9050919050565b600060208201905081810360008301526122e081611faf565b9050919050565b6000602082019050818103600083015261230081611fd2565b9050919050565b6000602082019050818103600083015261232081611ff5565b9050919050565b6000602082019050818103600083015261234081612018565b9050919050565b600060208201905081810360008301526123608161203b565b9050919050565b600060208201905081810360008301526123808161205e565b9050919050565b600060208201905081810360008301526123a081612081565b9050919050565b600060208201905081810360008301526123c0816120a4565b9050919050565b600060208201905081810360008301526123e0816120c7565b9050919050565b60006020820190508181036000830152612400816120ea565b9050919050565b600060208201905081810360008301526124208161210d565b9050919050565b600060208201905061243c6000830184612130565b92915050565b600061244c61245d565b905061245882826126af565b919050565b6000604051905090565b600067ffffffffffffffff821115612482576124816127e7565b5b61248b82612816565b9050602081019050919050565b600067ffffffffffffffff8211156124b3576124b26127e7565b5b6124bc82612816565b9050602081019050919050565b600081519050919050565b600081519050919050565b600082825260208201905092915050565b600082825260208201905092915050565b600081905092915050565b600061251782612631565b915061252283612631565b9250827fffffffffffffffffffffffffffffffffffffffffffffffffffffffffffffffff038211156125575761255661275a565b5b828201905092915050565b600061256d82612631565b915061257883612631565b92508261258857612587612789565b5b828204905092915050565b600061259e82612631565b91506125a983612631565b9250828210156125bc576125bb61275a565b5b828203905092915050565b60006125d282612611565b9050919050565b60008115159050919050565b60007fffffffff0000000000000000000000000000000000000000000000000000000082169050919050565b600073ffffffffffffffffffffffffffffffffffffffff82169050919050565b6000819050919050565b82818337600083830152505050565b60005b8381101561266857808201518184015260208101905061264d565b83811115612677576000848401525b50505050565b6000600282049050600182168061269557607f821691505b602082108114156126a9576126a86127b8565b5b50919050565b6126b882612816565b810181811067ffffffffffffffff821117156126d7576126d66127e7565b5b80604052505050565b60006126eb82612631565b91507fffffffffffffffffffffffffffffffffffffffffffffffffffffffffffffffff82141561271e5761271d61275a565b5b600182019050919050565b600061273482612631565b915061273f83612631565b92508261274f5761274e612789565b5b828206905092915050565b7f4e487b7100000000000000000000000000000000000000000000000000000000600052601160045260246000fd5b7f4e487b7100000000000000000000000000000000000000000000000000000000600052601260045260246000fd5b7f4e487b7100000000000000000000000000000000000000000000000000000000600052602260045260246000fd5b7f4e487b7100000000000000000000000000000000000000000000000000000000600052604160045260246000fd5b6000601f19601f8301169050919050565b7f4552433732313a207472616e7366657220746f206e6f6e20455243373231526560008201527f63656976657220696d706c656d656e7465720000000000000000000000000000602082015250565b7f4552433732313a20746f6b656e20616c7265616479206d696e74656400000000600082015250565b7f4552433732313a207472616e7366657220746f20746865207a65726f2061646460008201527f7265737300000000000000000000000000000000000000000000000000000000602082015250565b7f4552433732313a20617070726f766520746f2063616c6c657200000000000000600082015250565b7f4552433732313a206f70657261746f7220717565727920666f72206e6f6e657860008201527f697374656e7420746f6b656e0000000000000000000000000000000000000000602082015250565b7f4552433732313a20617070726f76652063616c6c6572206973206e6f74206f7760008201527f6e6572206e6f7220617070726f76656420666f7220616c6c0000000000000000602082015250565b7f4552433732313a2062616c616e636520717565727920666f7220746865207a6560008201527f726f206164647265737300000000000000000000000000000000000000000000602082015250565b7f4552433732313a206f776e657220717565727920666f72206e6f6e657869737460008201527f656e7420746f6b656e0000000000000000000000000000000000000000000000602082015250565b7f45524337323155524953746f726167653a2055524920736574206f66206e6f6e60008201527f6578697374656e7420746f6b656e000000000000000000000000000000000000602082015250565b7f4552433732313a206d696e7420746f20746865207a65726f2061646472657373600082015250565b7f45524337323155524953746f726167653a2055524920717565727920666f722060008201527f6e6f6e6578697374656e7420746f6b656e000000000000000000000000000000602082015250565b7f4552433732313a20617070726f76656420717565727920666f72206e6f6e657860008201527f697374656e7420746f6b656e0000000000000000000000000000000000000000602082015250565b7f4e6f7420616c6c6f776564000000000000000000000000000000000000000000600082015250565b7f4552433732313a207472616e73666572206f6620746f6b656e2074686174206960008201527f73206e6f74206f776e0000000000000000000000000000000000000000000000602082015250565b7f4552433732314d657461646174613a2055524920717565727920666f72206e6f60008201527f6e6578697374656e7420746f6b656e0000000000000000000000000000000000602082015250565b7f4552433732313a20617070726f76616c20746f2063757272656e74206f776e6560008201527f7200000000000000000000000000000000000000000000000000000000000000602082015250565b7f4552433732313a207472616e736665722063616c6c6572206973206e6f74206f60008201527f776e6572206e6f7220617070726f766564000000000000000000000000000000602082015250565b612cd7816125c7565b8114612ce257600080fd5b50565b612cee816125d9565b8114612cf957600080fd5b50565b612d05816125e5565b8114612d1057600080fd5b50565b612d1c81612631565b8114612d2757600080fd5b5056fea2646970667358221220bc8da3dd46e28e64bc8a0e5bd59a3ea219ddb3d1e4d7a2fbe2cafa7572baffdb64736f6c63430008040033",
  "linkReferences": {},
  "deployedLinkReferences": {}
}