{
  "_format": "hh-sol-artifact-1",
  "contractName": "PermissionToken",
  "sourceName": "contracts/PermissionToken.sol",
  "abi": [
    {
      "inputs": [
        {
          "internalType": "address",
          "name": "_badgeRegistry",
          "type": "address"
        }
      ],
      "stateMutability": "nonpayable",
      "type": "constructor"
    },
    {
      "anonymous": false,
      "inputs": [
        {
          "indexed": true,
          "internalType": "address",
          "name": "owner",
          "type": "address"
        },
        {
          "indexed": true,
          "internalType": "address",
          "name": "approved",
          "type": "address"
        },
        {
          "indexed": true,
          "internalType": "uint256",
          "name": "tokenId",
          "type": "uint256"
        }
      ],
      "name": "Approval",
      "type": "event"
    },
    {
      "anonymous": false,
      "inputs": [
        {
          "indexed": true,
          "internalType": "address",
          "name": "owner",
          "type": "address"
        },
        {
          "indexed": true,
          "internalType": "address",
          "name": "operator",
          "type": "address"
        },
        {
          "indexed": false,
          "internalType": "bool",
          "name": "approved",
          "type": "bool"
        }
      ],
      "name": "ApprovalForAll",
      "type": "event"
    },
    {
      "anonymous": false,
      "inputs": [
        {
          "indexed": true,
          "internalType": "address",
          "name": "from",
          "type": "address"
        },
        {
          "indexed": true,
          "internalType": "address",
          "name": "to",
          "type": "address"
        },
        {
          "indexed": true,
          "internalType": "uint256",
          "name": "tokenId",
          "type": "uint256"
        }
      ],
      "name": "Transfer",
      "type": "event"
    },
    {
      "inputs": [
        {
          "internalType": "address",
          "name": "to",
          "type": "address"
        },
        {
          "internalType": "uint256",
          "name": "tokenId",
          "type": "uint256"
        }
      ],
      "name": "approve",
      "outputs": [],
      "stateMutability": "nonpayable",
      "type": "function"
    },
    {
      "inputs": [],
      "name": "badgeRegistry",
      "outputs": [
        {
          "internalType": "address",
          "name": "",
          "type": "address"
        }
      ],
      "stateMutability": "view",
      "type": "function"
    },
    {
      "inputs": [
        {
          "internalType": "address",
          "name": "owner",
          "type": "address"
        }
      ],
      "name": "balanceOf",
      "outputs": [
        {
          "internalType": "uint256",
          "name": "",
          "type": "uint256"
        }
      ],
      "stateMutability": "view",
      "type": "function"
    },
    {
      "inputs": [
        {
          "internalType": "uint256",
          "name": "tokenId",
          "type": "uint256"
        }
      ],
      "name": "getApproved",
      "outputs": [
        {
          "internalType": "address",
          "name": "",
          "type": "address"
        }
      ],
      "stateMutability": "view",
      "type": "function"
    },
    {
      "inputs": [
        {
          "internalType": "address",
          "name": "owner",
          "type": "address"
        },
        {
          "internalType": "address",
          "name": "operator",
          "type": "address"
        }
      ],
      "name": "isApprovedForAll",
      "outputs": [
        {
          "internalType": "bool",
          "name": "",
          "type": "bool"
        }
      ],
      "stateMutability": "view",
      "type": "function"
    },
    {
      "inputs": [
        {
          "internalType": "address",
          "name": "_owner",
          "type": "address"
        },
        {
          "internalType": "string",
          "name": "tokenURI",
          "type": "string"
        }
      ],
      "name": "mintToken",
      "outputs": [
        {
          "internalType": "uint256",
          "name": "",
          "type": "uint256"
        }
      ],
      "stateMutability": "nonpayable",
      "type": "function"
    },
    {
      "inputs": [],
      "name": "name",
      "outputs": [
        {
          "internalType": "string",
          "name": "",
          "type": "string"
        }
      ],
      "stateMutability": "view",
      "type": "function"
    },
    {
      "inputs": [
        {
          "internalType": "uint256",
          "name": "tokenId",
          "type": "uint256"
        }
      ],
      "name": "ownerOf",
      "outputs": [
        {
          "internalType": "address",
          "name": "",
          "type": "address"
        }
      ],
      "stateMutability": "view",
      "type": "function"
    },
    {
      "inputs": [
        {
          "internalType": "address",
          "name": "from",
          "type": "address"
        },
        {
          "internalType": "address",
          "name": "to",
          "type": "address"
        },
        {
          "internalType": "uint256",
          "name": "tokenId",
          "type": "uint256"
        }
      ],
      "name": "safeTransferFrom",
      "outputs": [],
      "stateMutability": "nonpayable",
      "type": "function"
    },
    {
      "inputs": [
        {
          "internalType": "address",
          "name": "from",
          "type": "address"
        },
        {
          "internalType": "address",
          "name": "to",
          "type": "address"
        },
        {
          "internalType": "uint256",
          "name": "tokenId",
          "type": "uint256"
        },
        {
          "internalType": "bytes",
          "name": "_data",
          "type": "bytes"
        }
      ],
      "name": "safeTransferFrom",
      "outputs": [],
      "stateMutability": "nonpayable",
      "type": "function"
    },
    {
      "inputs": [
        {
          "internalType": "address",
          "name": "operator",
          "type": "address"
        },
        {
          "internalType": "bool",
          "name": "approved",
          "type": "bool"
        }
      ],
      "name": "setApprovalForAll",
      "outputs": [],
      "stateMutability": "nonpayable",
      "type": "function"
    },
    {
      "inputs": [
        {
          "internalType": "bytes4",
          "name": "interfaceId",
          "type": "bytes4"
        }
      ],
      "name": "supportsInterface",
      "outputs": [
        {
          "internalType": "bool",
          "name": "",
          "type": "bool"
        }
      ],
      "stateMutability": "view",
      "type": "function"
    },
    {
      "inputs": [],
      "name": "symbol",
      "outputs": [
        {
          "internalType": "string",
          "name": "",
          "type": "string"
        }
      ],
      "stateMutability": "view",
      "type": "function"
    },
    {
      "inputs": [
        {
          "internalType": "uint256",
          "name": "tokenId",
          "type": "uint256"
        }
      ],
      "name": "tokenURI",
      "outputs": [
        {
          "internalType": "string",
          "name": "",
          "type": "string"
        }
      ],
      "stateMutability": "view",
      "type": "function"
    },
    {
      "inputs": [
        {
          "internalType": "address",
          "name": "from",
          "type": "address"
        },
        {
          "internalType": "address",
          "name": "to",
          "type": "address"
        },
        {
          "internalType": "uint256",
          "name": "tokenId",
          "type": "uint256"
        }
      ],
      "name": "transferFrom",
      "outputs": [],
      "stateMutability": "nonpayable",
      "type": "function"
    }
  ],
  "bytecode": "0x60806040523480156200001157600080fd5b5060405162003029380380620030298339818101604052810190620000379190620001e6565b6040518060400160405280601681526020017f4261646765205065726d697373696f6e20546f6b656e000000000000000000008152506040518060400160405280600a81526020017f42414447455f5045524d000000000000000000000000000000000000000000008152508160009080519060200190620000bb9291906200011f565b508060019080519060200190620000d49291906200011f565b50505080600860006101000a81548173ffffffffffffffffffffffffffffffffffffffff021916908373ffffffffffffffffffffffffffffffffffffffff16021790555050620002c5565b8280546200012d9062000246565b90600052602060002090601f0160209004810192826200015157600085556200019d565b82601f106200016c57805160ff19168380011785556200019d565b828001600101855582156200019d579182015b828111156200019c5782518255916020019190600101906200017f565b5b509050620001ac9190620001b0565b5090565b5b80821115620001cb576000816000905550600101620001b1565b5090565b600081519050620001e081620002ab565b92915050565b600060208284031215620001f957600080fd5b60006200020984828501620001cf565b91505092915050565b60006200021f8262000226565b9050919050565b600073ffffffffffffffffffffffffffffffffffffffff82169050919050565b600060028204905060018216806200025f57607f821691505b602082108114156200027657620002756200027c565b5b50919050565b7f4e487b7100000000000000000000000000000000000000000000000000000000600052602260045260246000fd5b620002b68162000212565b8114620002c257600080fd5b50565b612d5480620002d56000396000f3fe608060405234801561001057600080fd5b50600436106100f55760003560e01c80636352211e11610097578063b88d4fde11610066578063b88d4fde14610296578063c87b56dd146102b2578063e985e9c5146102e2578063ea3e7cef14610312576100f5565b80636352211e146101fc57806370a082311461022c57806395d89b411461025c578063a22cb4651461027a576100f5565b8063095ea7b3116100d3578063095ea7b31461017857806323b872dd146101945780633d02d0c9146101b057806342842e0e146101e0576100f5565b806301ffc9a7146100fa57806306fdde031461012a578063081812fc14610148575b600080fd5b610114600480360381019061010f9190611d95565b610330565b60405161012191906121be565b60405180910390f35b610132610412565b60405161013f91906121d9565b60405180910390f35b610162600480360381019061015d9190611de7565b6104a4565b60405161016f9190612157565b60405180910390f35b610192600480360381019061018d9190611d30565b610529565b005b6101ae60048036038101906101a99190611bd6565b610641565b005b6101ca60048036038101906101c59190611cdc565b6106a1565b6040516101d7919061241b565b60405180910390f35b6101fa60048036038101906101f59190611bd6565b6107c8565b005b61021660048036038101906102119190611de7565b6107e8565b6040516102239190612157565b60405180910390f35b61024660048036038101906102419190611b71565b61089a565b604051610253919061241b565b60405180910390f35b610264610952565b60405161027191906121d9565b60405180910390f35b610294600480360381019061028f9190611ca0565b6109e4565b005b6102b060048036038101906102ab9190611c25565b610b65565b005b6102cc60048036038101906102c79190611de7565b610bc7565b6040516102d991906121d9565b60405180910390f35b6102fc60048036038101906102f79190611b9a565b610d19565b60405161030991906121be565b60405180910390f35b61031a610dad565b6040516103279190612157565b60405180910390f35b60007f80ac58cd000000000000000000000000000000000000000000000000000000007bffffffffffffffffffffffffffffffffffffffffffffffffffffffff1916827bffffffffffffffffffffffffffffffffffffffffffffffffffffffff191614806103fb57507f5b5e139f000000000000000000000000000000000000000000000000000000007bffffffffffffffffffffffffffffffffffffffffffffffffffffffff1916827bffffffffffffffffffffffffffffffffffffffffffffffffffffffff1916145b8061040b575061040a82610dd3565b5b9050919050565b60606000805461042190612671565b80601f016020809104026020016040519081016040528092919081815260200182805461044d90612671565b801561049a5780601f1061046f5761010080835404028352916020019161049a565b820191906000526020600020905b81548152906001019060200180831161047d57829003601f168201915b5050505050905090565b60006104af82610e3d565b6104ee576040517f08c379a00000000000000000000000000000000000000000000000000000000081526004016104e59061235b565b60405180910390fd5b6004600083815260200190815260200160002060009054906101000a900473ffffffffffffffffffffffffffffffffffffffff169050919050565b6000610534826107e8565b90508073ffffffffffffffffffffffffffffffffffffffff168373ffffffffffffffffffffffffffffffffffffffff1614156105a5576040517f08c379a000000000000000000000000000000000000000000000000000000000815260040161059c906123bb565b60405180910390fd5b8073ffffffffffffffffffffffffffffffffffffffff166105c4610ea9565b73ffffffffffffffffffffffffffffffffffffffff1614806105f357506105f2816105ed610ea9565b610d19565b5b610632576040517f08c379a00000000000000000000000000000000000000000000000000000000081526004016106299061229b565b60405180910390fd5b61063c8383610eb1565b505050565b61065261064c610ea9565b82610f6a565b610691576040517f08c379a0000000000000000000000000000000000000000000000000000000008152600401610688906123fb565b60405180910390fd5b61069c838383611048565b505050565b600080600860009054906101000a900473ffffffffffffffffffffffffffffffffffffffff1673ffffffffffffffffffffffffffffffffffffffff1663c3c5a547336040518263ffffffff1660e01b81526004016106ff9190612157565b60206040518083038186803b15801561071757600080fd5b505afa15801561072b573d6000803e3d6000fd5b505050506040513d601f19601f8201168201806040525081019061074f9190611d6c565b905080610791576040517f08c379a0000000000000000000000000000000000000000000000000000000008152600401610788906123db565b60405180910390fd5b61079b60076112a4565b60006107a760076112ba565b90506107b385826112c8565b6107bd8185611496565b809250505092915050565b6107e383838360405180602001604052806000815250610b65565b505050565b6000806002600084815260200190815260200160002060009054906101000a900473ffffffffffffffffffffffffffffffffffffffff169050600073ffffffffffffffffffffffffffffffffffffffff168173ffffffffffffffffffffffffffffffffffffffff161415610891576040517f08c379a0000000000000000000000000000000000000000000000000000000008152600401610888906122db565b60405180910390fd5b80915050919050565b60008073ffffffffffffffffffffffffffffffffffffffff168273ffffffffffffffffffffffffffffffffffffffff16141561090b576040517f08c379a0000000000000000000000000000000000000000000000000000000008152600401610902906122bb565b60405180910390fd5b600360008373ffffffffffffffffffffffffffffffffffffffff1673ffffffffffffffffffffffffffffffffffffffff168152602001908152602001600020549050919050565b60606001805461096190612671565b80601f016020809104026020016040519081016040528092919081815260200182805461098d90612671565b80156109da5780601f106109af576101008083540402835291602001916109da565b820191906000526020600020905b8154815290600101906020018083116109bd57829003601f168201915b5050505050905090565b6109ec610ea9565b73ffffffffffffffffffffffffffffffffffffffff168273ffffffffffffffffffffffffffffffffffffffff161415610a5a576040517f08c379a0000000000000000000000000000000000000000000000000000000008152600401610a519061225b565b60405180910390fd5b8060056000610a67610ea9565b73ffffffffffffffffffffffffffffffffffffffff1673ffffffffffffffffffffffffffffffffffffffff16815260200190815260200160002060008473ffffffffffffffffffffffffffffffffffffffff1673ffffffffffffffffffffffffffffffffffffffff16815260200190815260200160002060006101000a81548160ff0219169083151502179055508173ffffffffffffffffffffffffffffffffffffffff16610b14610ea9565b73ffffffffffffffffffffffffffffffffffffffff167f17307eab39ab6107e8899845ad3d59bd9653f200f220920489ca2b5937696c3183604051610b5991906121be565b60405180910390a35050565b610b76610b70610ea9565b83610f6a565b610bb5576040517f08c379a0000000000000000000000000000000000000000000000000000000008152600401610bac906123fb565b60405180910390fd5b610bc18484848461150a565b50505050565b6060610bd282610e3d565b610c11576040517f08c379a0000000000000000000000000000000000000000000000000000000008152600401610c089061233b565b60405180910390fd5b6000600660008481526020019081526020016000208054610c3190612671565b80601f0160208091040260200160405190810160405280929190818152602001828054610c5d90612671565b8015610caa5780601f10610c7f57610100808354040283529160200191610caa565b820191906000526020600020905b815481529060010190602001808311610c8d57829003601f168201915b505050505090506000610cbb611566565b9050600081511415610cd1578192505050610d14565b600082511115610d06578082604051602001610cee929190612133565b60405160208183030381529060405292505050610d14565b610d0f8461157d565b925050505b919050565b6000600560008473ffffffffffffffffffffffffffffffffffffffff1673ffffffffffffffffffffffffffffffffffffffff16815260200190815260200160002060008373ffffffffffffffffffffffffffffffffffffffff1673ffffffffffffffffffffffffffffffffffffffff16815260200190815260200160002060009054906101000a900460ff16905092915050565b600860009054906101000a900473ffffffffffffffffffffffffffffffffffffffff1681565b60007f01ffc9a7000000000000000000000000000000000000000000000000000000007bffffffffffffffffffffffffffffffffffffffffffffffffffffffff1916827bffffffffffffffffffffffffffffffffffffffffffffffffffffffff1916149050919050565b60008073ffffffffffffffffffffffffffffffffffffffff166002600084815260200190815260200160002060009054906101000a900473ffffffffffffffffffffffffffffffffffffffff1673ffffffffffffffffffffffffffffffffffffffff1614159050919050565b600033905090565b816004600083815260200190815260200160002060006101000a81548173ffffffffffffffffffffffffffffffffffffffff021916908373ffffffffffffffffffffffffffffffffffffffff160217905550808273ffffffffffffffffffffffffffffffffffffffff16610f24836107e8565b73ffffffffffffffffffffffffffffffffffffffff167f8c5be1e5ebec7d5bd14f71427d1e84f3dd0314c0f7b2291e5b200ac8c7c3b92560405160405180910390a45050565b6000610f7582610e3d565b610fb4576040517f08c379a0000000000000000000000000000000000000000000000000000000008152600401610fab9061227b565b60405180910390fd5b6000610fbf836107e8565b90508073ffffffffffffffffffffffffffffffffffffffff168473ffffffffffffffffffffffffffffffffffffffff16148061102e57508373ffffffffffffffffffffffffffffffffffffffff16611016846104a4565b73ffffffffffffffffffffffffffffffffffffffff16145b8061103f575061103e8185610d19565b5b91505092915050565b8273ffffffffffffffffffffffffffffffffffffffff16611068826107e8565b73ffffffffffffffffffffffffffffffffffffffff16146110be576040517f08c379a00000000000000000000000000000000000000000000000000000000081526004016110b59061237b565b60405180910390fd5b600073ffffffffffffffffffffffffffffffffffffffff168273ffffffffffffffffffffffffffffffffffffffff16141561112e576040517f08c379a00000000000000000000000000000000000000000000000000000000081526004016111259061223b565b60405180910390fd5b611139838383611624565b611144600082610eb1565b6001600360008573ffffffffffffffffffffffffffffffffffffffff1673ffffffffffffffffffffffffffffffffffffffff16815260200190815260200160002060008282546111949190612587565b925050819055506001600360008473ffffffffffffffffffffffffffffffffffffffff1673ffffffffffffffffffffffffffffffffffffffff16815260200190815260200160002060008282546111eb9190612500565b92505081905550816002600083815260200190815260200160002060006101000a81548173ffffffffffffffffffffffffffffffffffffffff021916908373ffffffffffffffffffffffffffffffffffffffff160217905550808273ffffffffffffffffffffffffffffffffffffffff168473ffffffffffffffffffffffffffffffffffffffff167fddf252ad1be2c89b69c2b068fc378daa952ba7f163c4a11628f55a4df523b3ef60405160405180910390a4505050565b6001816000016000828254019250508190555050565b600081600001549050919050565b600073ffffffffffffffffffffffffffffffffffffffff168273ffffffffffffffffffffffffffffffffffffffff161415611338576040517f08c379a000000000000000000000000000000000000000000000000000000000815260040161132f9061231b565b60405180910390fd5b61134181610e3d565b15611381576040517f08c379a00000000000000000000000000000000000000000000000000000000081526004016113789061221b565b60405180910390fd5b61138d60008383611624565b6001600360008473ffffffffffffffffffffffffffffffffffffffff1673ffffffffffffffffffffffffffffffffffffffff16815260200190815260200160002060008282546113dd9190612500565b92505081905550816002600083815260200190815260200160002060006101000a81548173ffffffffffffffffffffffffffffffffffffffff021916908373ffffffffffffffffffffffffffffffffffffffff160217905550808273ffffffffffffffffffffffffffffffffffffffff16600073ffffffffffffffffffffffffffffffffffffffff167fddf252ad1be2c89b69c2b068fc378daa952ba7f163c4a11628f55a4df523b3ef60405160405180910390a45050565b61149f82610e3d565b6114de576040517f08c379a00000000000000000000000000000000000000000000000000000000081526004016114d5906122fb565b60405180910390fd5b80600660008481526020019081526020016000209080519060200190611505929190611980565b505050565b611515848484611048565b61152184848484611629565b611560576040517f08c379a0000000000000000000000000000000000000000000000000000000008152600401611557906121fb565b60405180910390fd5b50505050565b606060405180602001604052806000815250905090565b606061158882610e3d565b6115c7576040517f08c379a00000000000000000000000000000000000000000000000000000000081526004016115be9061239b565b60405180910390fd5b60006115d1611566565b905060008151116115f1576040518060200160405280600081525061161c565b806115fb846117c0565b60405160200161160c929190612133565b6040516020818303038152906040525b915050919050565b505050565b600061164a8473ffffffffffffffffffffffffffffffffffffffff1661196d565b156117b3578373ffffffffffffffffffffffffffffffffffffffff1663150b7a02611673610ea9565b8786866040518563ffffffff1660e01b81526004016116959493929190612172565b602060405180830381600087803b1580156116af57600080fd5b505af19250505080156116e057506040513d601f19601f820116820180604052508101906116dd9190611dbe565b60015b611763573d8060008114611710576040519150601f19603f3d011682016040523d82523d6000602084013e611715565b606091505b5060008151141561175b576040517f08c379a0000000000000000000000000000000000000000000000000000000008152600401611752906121fb565b60405180910390fd5b805181602001fd5b63150b7a0260e01b7bffffffffffffffffffffffffffffffffffffffffffffffffffffffff1916817bffffffffffffffffffffffffffffffffffffffffffffffffffffffff1916149150506117b8565b600190505b949350505050565b60606000821415611808576040518060400160405280600181526020017f30000000000000000000000000000000000000000000000000000000000000008152509050611968565b600082905060005b6000821461183a578080611823906126d4565b915050600a826118339190612556565b9150611810565b60008167ffffffffffffffff81111561187c577f4e487b7100000000000000000000000000000000000000000000000000000000600052604160045260246000fd5b6040519080825280601f01601f1916602001820160405280156118ae5781602001600182028036833780820191505090505b5090505b60008514611961576001826118c79190612587565b9150600a856118d6919061271d565b60306118e29190612500565b60f81b81838151811061191e577f4e487b7100000000000000000000000000000000000000000000000000000000600052603260045260246000fd5b60200101907effffffffffffffffffffffffffffffffffffffffffffffffffffffffffffff1916908160001a905350600a8561195a9190612556565b94506118b2565b8093505050505b919050565b600080823b905060008111915050919050565b82805461198c90612671565b90600052602060002090601f0160209004810192826119ae57600085556119f5565b82601f106119c757805160ff19168380011785556119f5565b828001600101855582156119f5579182015b828111156119f45782518255916020019190600101906119d9565b5b509050611a029190611a06565b5090565b5b80821115611a1f576000816000905550600101611a07565b5090565b6000611a36611a318461245b565b612436565b905082815260208101848484011115611a4e57600080fd5b611a5984828561262f565b509392505050565b6000611a74611a6f8461248c565b612436565b905082815260208101848484011115611a8c57600080fd5b611a9784828561262f565b509392505050565b600081359050611aae81612cc2565b92915050565b600081359050611ac381612cd9565b92915050565b600081519050611ad881612cd9565b92915050565b600081359050611aed81612cf0565b92915050565b600081519050611b0281612cf0565b92915050565b600082601f830112611b1957600080fd5b8135611b29848260208601611a23565b91505092915050565b600082601f830112611b4357600080fd5b8135611b53848260208601611a61565b91505092915050565b600081359050611b6b81612d07565b92915050565b600060208284031215611b8357600080fd5b6000611b9184828501611a9f565b91505092915050565b60008060408385031215611bad57600080fd5b6000611bbb85828601611a9f565b9250506020611bcc85828601611a9f565b9150509250929050565b600080600060608486031215611beb57600080fd5b6000611bf986828701611a9f565b9350506020611c0a86828701611a9f565b9250506040611c1b86828701611b5c565b9150509250925092565b60008060008060808587031215611c3b57600080fd5b6000611c4987828801611a9f565b9450506020611c5a87828801611a9f565b9350506040611c6b87828801611b5c565b925050606085013567ffffffffffffffff811115611c8857600080fd5b611c9487828801611b08565b91505092959194509250565b60008060408385031215611cb357600080fd5b6000611cc185828601611a9f565b9250506020611cd285828601611ab4565b9150509250929050565b60008060408385031215611cef57600080fd5b6000611cfd85828601611a9f565b925050602083013567ffffffffffffffff811115611d1a57600080fd5b611d2685828601611b32565b9150509250929050565b60008060408385031215611d4357600080fd5b6000611d5185828601611a9f565b9250506020611d6285828601611b5c565b9150509250929050565b600060208284031215611d7e57600080fd5b6000611d8c84828501611ac9565b91505092915050565b600060208284031215611da757600080fd5b6000611db584828501611ade565b91505092915050565b600060208284031215611dd057600080fd5b6000611dde84828501611af3565b91505092915050565b600060208284031215611df957600080fd5b6000611e0784828501611b5c565b91505092915050565b611e19816125bb565b82525050565b611e28816125cd565b82525050565b6000611e39826124bd565b611e4381856124d3565b9350611e5381856020860161263e565b611e5c8161280a565b840191505092915050565b6000611e72826124c8565b611e7c81856124e4565b9350611e8c81856020860161263e565b611e958161280a565b840191505092915050565b6000611eab826124c8565b611eb581856124f5565b9350611ec581856020860161263e565b80840191505092915050565b6000611ede6032836124e4565b9150611ee98261281b565b604082019050919050565b6000611f01601c836124e4565b9150611f0c8261286a565b602082019050919050565b6000611f246024836124e4565b9150611f2f82612893565b604082019050919050565b6000611f476019836124e4565b9150611f52826128e2565b602082019050919050565b6000611f6a602c836124e4565b9150611f758261290b565b604082019050919050565b6000611f8d6038836124e4565b9150611f988261295a565b604082019050919050565b6000611fb0602a836124e4565b9150611fbb826129a9565b604082019050919050565b6000611fd36029836124e4565b9150611fde826129f8565b604082019050919050565b6000611ff6602e836124e4565b915061200182612a47565b604082019050919050565b60006120196020836124e4565b915061202482612a96565b602082019050919050565b600061203c6031836124e4565b915061204782612abf565b604082019050919050565b600061205f602c836124e4565b915061206a82612b0e565b604082019050919050565b60006120826029836124e4565b915061208d82612b5d565b604082019050919050565b60006120a5602f836124e4565b91506120b082612bac565b604082019050919050565b60006120c86021836124e4565b91506120d382612bfb565b604082019050919050565b60006120eb6018836124e4565b91506120f682612c4a565b602082019050919050565b600061210e6031836124e4565b915061211982612c73565b604082019050919050565b61212d81612625565b82525050565b600061213f8285611ea0565b915061214b8284611ea0565b91508190509392505050565b600060208201905061216c6000830184611e10565b92915050565b60006080820190506121876000830187611e10565b6121946020830186611e10565b6121a16040830185612124565b81810360608301526121b38184611e2e565b905095945050505050565b60006020820190506121d36000830184611e1f565b92915050565b600060208201905081810360008301526121f38184611e67565b905092915050565b6000602082019050818103600083015261221481611ed1565b9050919050565b6000602082019050818103600083015261223481611ef4565b9050919050565b6000602082019050818103600083015261225481611f17565b9050919050565b6000602082019050818103600083015261227481611f3a565b9050919050565b6000602082019050818103600083015261229481611f5d565b9050919050565b600060208201905081810360008301526122b481611f80565b9050919050565b600060208201905081810360008301526122d481611fa3565b9050919050565b600060208201905081810360008301526122f481611fc6565b9050919050565b6000602082019050818103600083015261231481611fe9565b9050919050565b600060208201905081810360008301526123348161200c565b9050919050565b600060208201905081810360008301526123548161202f565b9050919050565b6000602082019050818103600083015261237481612052565b9050919050565b6000602082019050818103600083015261239481612075565b9050919050565b600060208201905081810360008301526123b481612098565b9050919050565b600060208201905081810360008301526123d4816120bb565b9050919050565b600060208201905081810360008301526123f4816120de565b9050919050565b6000602082019050818103600083015261241481612101565b9050919050565b60006020820190506124306000830184612124565b92915050565b6000612440612451565b905061244c82826126a3565b919050565b6000604051905090565b600067ffffffffffffffff821115612476576124756127db565b5b61247f8261280a565b9050602081019050919050565b600067ffffffffffffffff8211156124a7576124a66127db565b5b6124b08261280a565b9050602081019050919050565b600081519050919050565b600081519050919050565b600082825260208201905092915050565b600082825260208201905092915050565b600081905092915050565b600061250b82612625565b915061251683612625565b9250827fffffffffffffffffffffffffffffffffffffffffffffffffffffffffffffffff0382111561254b5761254a61274e565b5b828201905092915050565b600061256182612625565b915061256c83612625565b92508261257c5761257b61277d565b5b828204905092915050565b600061259282612625565b915061259d83612625565b9250828210156125b0576125af61274e565b5b828203905092915050565b60006125c682612605565b9050919050565b60008115159050919050565b60007fffffffff0000000000000000000000000000000000000000000000000000000082169050919050565b600073ffffffffffffffffffffffffffffffffffffffff82169050919050565b6000819050919050565b82818337600083830152505050565b60005b8381101561265c578082015181840152602081019050612641565b8381111561266b576000848401525b50505050565b6000600282049050600182168061268957607f821691505b6020821081141561269d5761269c6127ac565b5b50919050565b6126ac8261280a565b810181811067ffffffffffffffff821117156126cb576126ca6127db565b5b80604052505050565b60006126df82612625565b91507fffffffffffffffffffffffffffffffffffffffffffffffffffffffffffffffff8214156127125761271161274e565b5b600182019050919050565b600061272882612625565b915061273383612625565b9250826127435761274261277d565b5b828206905092915050565b7f4e487b7100000000000000000000000000000000000000000000000000000000600052601160045260246000fd5b7f4e487b7100000000000000000000000000000000000000000000000000000000600052601260045260246000fd5b7f4e487b7100000000000000000000000000000000000000000000000000000000600052602260045260246000fd5b7f4e487b7100000000000000000000000000000000000000000000000000000000600052604160045260246000fd5b6000601f19601f8301169050919050565b7f4552433732313a207472616e7366657220746f206e6f6e20455243373231526560008201527f63656976657220696d706c656d656e7465720000000000000000000000000000602082015250565b7f4552433732313a20746f6b656e20616c7265616479206d696e74656400000000600082015250565b7f4552433732313a207472616e7366657220746f20746865207a65726f2061646460008201527f7265737300000000000000000000000000000000000000000000000000000000602082015250565b7f4552433732313a20617070726f766520746f2063616c6c657200000000000000600082015250565b7f4552433732313a206f70657261746f7220717565727920666f72206e6f6e657860008201527f697374656e7420746f6b656e0000000000000000000000000000000000000000602082015250565b7f4552433732313a20617070726f76652063616c6c6572206973206e6f74206f7760008201527f6e6572206e6f7220617070726f76656420666f7220616c6c0000000000000000602082015250565b7f4552433732313a2062616c616e636520717565727920666f7220746865207a6560008201527f726f206164647265737300000000000000000000000000000000000000000000602082015250565b7f4552433732313a206f776e657220717565727920666f72206e6f6e657869737460008201527f656e7420746f6b656e0000000000000000000000000000000000000000000000602082015250565b7f45524337323155524953746f726167653a2055524920736574206f66206e6f6e60008201527f6578697374656e7420746f6b656e000000000000000000000000000000000000602082015250565b7f4552433732313a206d696e7420746f20746865207a65726f2061646472657373600082015250565b7f45524337323155524953746f726167653a2055524920717565727920666f722060008201527f6e6f6e6578697374656e7420746f6b656e000000000000000000000000000000602082015250565b7f4552433732313a20617070726f76656420717565727920666f72206e6f6e657860008201527f697374656e7420746f6b656e0000000000000000000000000000000000000000602082015250565b7f4552433732313a207472616e73666572206f6620746f6b656e2074686174206960008201527f73206e6f74206f776e0000000000000000000000000000000000000000000000602082015250565b7f4552433732314d657461646174613a2055524920717565727920666f72206e6f60008201527f6e6578697374656e7420746f6b656e0000000000000000000000000000000000602082015250565b7f4552433732313a20617070726f76616c20746f2063757272656e74206f776e6560008201527f7200000000000000000000000000000000000000000000000000000000000000602082015250565b7f456e74697479206973206e6f7420726567697374657265640000000000000000600082015250565b7f4552433732313a207472616e736665722063616c6c6572206973206e6f74206f60008201527f776e6572206e6f7220617070726f766564000000000000000000000000000000602082015250565b612ccb816125bb565b8114612cd657600080fd5b50565b612ce2816125cd565b8114612ced57600080fd5b50565b612cf9816125d9565b8114612d0457600080fd5b50565b612d1081612625565b8114612d1b57600080fd5b5056fea26469706673582212202ddb3f397d581dc12a2a2f836c46ee0dbf6e1c16f9cbe4b1a98e94cead58121964736f6c63430008040033",
  "linkReferences": {},
  "deployedLinkReferences": {}
}