{
  "_format": "hh-sol-artifact-1",
  "contractName": "SuperUserToken",
  "sourceName": "contracts/SuperUserToken.sol",
  "abi": [
    {
      "inputs": [],
      "stateMutability": "nonpayable",
      "type": "constructor"
    },
    {
      "anonymous": false,
      "inputs": [
        {
          "indexed": true,
          "internalType": "address",
          "name": "owner",
          "type": "address"
        },
        {
          "indexed": true,
          "internalType": "address",
          "name": "approved",
          "type": "address"
        },
        {
          "indexed": true,
          "internalType": "uint256",
          "name": "tokenId",
          "type": "uint256"
        }
      ],
      "name": "Approval",
      "type": "event"
    },
    {
      "anonymous": false,
      "inputs": [
        {
          "indexed": true,
          "internalType": "address",
          "name": "owner",
          "type": "address"
        },
        {
          "indexed": true,
          "internalType": "address",
          "name": "operator",
          "type": "address"
        },
        {
          "indexed": false,
          "internalType": "bool",
          "name": "approved",
          "type": "bool"
        }
      ],
      "name": "ApprovalForAll",
      "type": "event"
    },
    {
      "anonymous": false,
      "inputs": [
        {
          "indexed": true,
          "internalType": "address",
          "name": "from",
          "type": "address"
        },
        {
          "indexed": true,
          "internalType": "address",
          "name": "to",
          "type": "address"
        },
        {
          "indexed": true,
          "internalType": "uint256",
          "name": "tokenId",
          "type": "uint256"
        }
      ],
      "name": "Transfer",
      "type": "event"
    },
    {
      "inputs": [
        {
          "internalType": "address",
          "name": "to",
          "type": "address"
        },
        {
          "internalType": "uint256",
          "name": "tokenId",
          "type": "uint256"
        }
      ],
      "name": "approve",
      "outputs": [],
      "stateMutability": "nonpayable",
      "type": "function"
    },
    {
      "inputs": [
        {
          "internalType": "address",
          "name": "owner",
          "type": "address"
        }
      ],
      "name": "balanceOf",
      "outputs": [
        {
          "internalType": "uint256",
          "name": "",
          "type": "uint256"
        }
      ],
      "stateMutability": "view",
      "type": "function"
    },
    {
      "inputs": [
        {
          "internalType": "uint256",
          "name": "tokenId",
          "type": "uint256"
        }
      ],
      "name": "getApproved",
      "outputs": [
        {
          "internalType": "address",
          "name": "",
          "type": "address"
        }
      ],
      "stateMutability": "view",
      "type": "function"
    },
    {
      "inputs": [
        {
          "internalType": "address",
          "name": "owner",
          "type": "address"
        },
        {
          "internalType": "address",
          "name": "operator",
          "type": "address"
        }
      ],
      "name": "isApprovedForAll",
      "outputs": [
        {
          "internalType": "bool",
          "name": "",
          "type": "bool"
        }
      ],
      "stateMutability": "view",
      "type": "function"
    },
    {
      "inputs": [
        {
          "internalType": "string",
          "name": "tokenURI",
          "type": "string"
        },
        {
          "internalType": "address",
          "name": "superUserAddress",
          "type": "address"
        },
        {
          "internalType": "address",
          "name": "orgAddress",
          "type": "address"
        },
        {
          "internalType": "address",
          "name": "badgeAddress",
          "type": "address"
        }
      ],
      "name": "mintSuperUserToken",
      "outputs": [
        {
          "internalType": "uint256",
          "name": "",
          "type": "uint256"
        }
      ],
      "stateMutability": "payable",
      "type": "function"
    },
    {
      "inputs": [],
      "name": "name",
      "outputs": [
        {
          "internalType": "string",
          "name": "",
          "type": "string"
        }
      ],
      "stateMutability": "view",
      "type": "function"
    },
    {
      "inputs": [
        {
          "internalType": "address",
          "name": "",
          "type": "address"
        },
        {
          "internalType": "address",
          "name": "",
          "type": "address"
        }
      ],
      "name": "orgToOwners",
      "outputs": [
        {
          "internalType": "address",
          "name": "userAddress",
          "type": "address"
        },
        {
          "internalType": "bool",
          "name": "exists",
          "type": "bool"
        }
      ],
      "stateMutability": "view",
      "type": "function"
    },
    {
      "inputs": [
        {
          "internalType": "uint256",
          "name": "tokenId",
          "type": "uint256"
        }
      ],
      "name": "ownerOf",
      "outputs": [
        {
          "internalType": "address",
          "name": "",
          "type": "address"
        }
      ],
      "stateMutability": "view",
      "type": "function"
    },
    {
      "inputs": [
        {
          "internalType": "address",
          "name": "from",
          "type": "address"
        },
        {
          "internalType": "address",
          "name": "to",
          "type": "address"
        },
        {
          "internalType": "uint256",
          "name": "tokenId",
          "type": "uint256"
        }
      ],
      "name": "safeTransferFrom",
      "outputs": [],
      "stateMutability": "nonpayable",
      "type": "function"
    },
    {
      "inputs": [
        {
          "internalType": "address",
          "name": "from",
          "type": "address"
        },
        {
          "internalType": "address",
          "name": "to",
          "type": "address"
        },
        {
          "internalType": "uint256",
          "name": "tokenId",
          "type": "uint256"
        },
        {
          "internalType": "bytes",
          "name": "_data",
          "type": "bytes"
        }
      ],
      "name": "safeTransferFrom",
      "outputs": [],
      "stateMutability": "nonpayable",
      "type": "function"
    },
    {
      "inputs": [
        {
          "internalType": "address",
          "name": "operator",
          "type": "address"
        },
        {
          "internalType": "bool",
          "name": "approved",
          "type": "bool"
        }
      ],
      "name": "setApprovalForAll",
      "outputs": [],
      "stateMutability": "nonpayable",
      "type": "function"
    },
    {
      "inputs": [
        {
          "internalType": "bytes4",
          "name": "interfaceId",
          "type": "bytes4"
        }
      ],
      "name": "supportsInterface",
      "outputs": [
        {
          "internalType": "bool",
          "name": "",
          "type": "bool"
        }
      ],
      "stateMutability": "view",
      "type": "function"
    },
    {
      "inputs": [],
      "name": "symbol",
      "outputs": [
        {
          "internalType": "string",
          "name": "",
          "type": "string"
        }
      ],
      "stateMutability": "view",
      "type": "function"
    },
    {
      "inputs": [
        {
          "internalType": "uint256",
          "name": "tokenId",
          "type": "uint256"
        }
      ],
      "name": "tokenURI",
      "outputs": [
        {
          "internalType": "string",
          "name": "",
          "type": "string"
        }
      ],
      "stateMutability": "view",
      "type": "function"
    },
    {
      "inputs": [
        {
          "internalType": "address",
          "name": "from",
          "type": "address"
        },
        {
          "internalType": "address",
          "name": "to",
          "type": "address"
        },
        {
          "internalType": "uint256",
          "name": "tokenId",
          "type": "uint256"
        }
      ],
      "name": "transferFrom",
      "outputs": [],
      "stateMutability": "nonpayable",
      "type": "function"
    }
  ],
  "bytecode": "0x60806040523480156200001157600080fd5b506040518060400160405280601881526020017f4261646765202d205375706572207573657220746f6b656e00000000000000008152506040518060400160405280600b81526020017f42414447455f5355504552000000000000000000000000000000000000000000815250816000908051906020019062000096929190620000b8565b508060019080519060200190620000af929190620000b8565b505050620001cd565b828054620000c69062000168565b90600052602060002090601f016020900481019282620000ea576000855562000136565b82601f106200010557805160ff191683800117855562000136565b8280016001018555821562000136579182015b828111156200013557825182559160200191906001019062000118565b5b50905062000145919062000149565b5090565b5b80821115620001645760008160009055506001016200014a565b5090565b600060028204905060018216806200018157607f821691505b602082108114156200019857620001976200019e565b5b50919050565b7f4e487b7100000000000000000000000000000000000000000000000000000000600052602260045260246000fd5b61335380620001dd6000396000f3fe6080604052600436106100e85760003560e01c8063540dd6941161008a578063a22cb46511610059578063a22cb46514610320578063b88d4fde14610349578063c87b56dd14610372578063e985e9c5146103af576100e8565b8063540dd6941461023d5780636352211e1461027b57806370a08231146102b857806395d89b41146102f5576100e8565b8063095ea7b3116100c6578063095ea7b31461019257806323b872dd146101bb57806334a53027146101e457806342842e0e14610214576100e8565b806301ffc9a7146100ed57806306fdde031461012a578063081812fc14610155575b600080fd5b3480156100f957600080fd5b50610114600480360381019061010f919061224d565b6103ec565b6040516101219190612774565b60405180910390f35b34801561013657600080fd5b5061013f6104ce565b60405161014c919061278f565b60405180910390f35b34801561016157600080fd5b5061017c6004803603810190610177919061231a565b610560565b60405161018991906126ad565b60405180910390f35b34801561019e57600080fd5b506101b960048036038101906101b49190612211565b6105e5565b005b3480156101c757600080fd5b506101e260048036038101906101dd919061210b565b6106fd565b005b6101fe60048036038101906101f9919061229f565b61075d565b60405161020b91906129f1565b60405180910390f35b34801561022057600080fd5b5061023b6004803603810190610236919061210b565b610ac2565b005b34801561024957600080fd5b50610264600480360381019061025f91906120cf565b610ae2565b60405161027292919061274b565b60405180910390f35b34801561028757600080fd5b506102a2600480360381019061029d919061231a565b610b40565b6040516102af91906126ad565b60405180910390f35b3480156102c457600080fd5b506102df60048036038101906102da919061207d565b610bf2565b6040516102ec91906129f1565b60405180910390f35b34801561030157600080fd5b5061030a610caa565b604051610317919061278f565b60405180910390f35b34801561032c57600080fd5b50610347600480360381019061034291906121d5565b610d3c565b005b34801561035557600080fd5b50610370600480360381019061036b919061215a565b610ebd565b005b34801561037e57600080fd5b506103996004803603810190610394919061231a565b610f1f565b6040516103a6919061278f565b60405180910390f35b3480156103bb57600080fd5b506103d660048036038101906103d191906120cf565b611071565b6040516103e39190612774565b60405180910390f35b60007f80ac58cd000000000000000000000000000000000000000000000000000000007bffffffffffffffffffffffffffffffffffffffffffffffffffffffff1916827bffffffffffffffffffffffffffffffffffffffffffffffffffffffff191614806104b757507f5b5e139f000000000000000000000000000000000000000000000000000000007bffffffffffffffffffffffffffffffffffffffffffffffffffffffff1916827bffffffffffffffffffffffffffffffffffffffffffffffffffffffff1916145b806104c757506104c682611105565b5b9050919050565b6060600080546104dd90612c47565b80601f016020809104026020016040519081016040528092919081815260200182805461050990612c47565b80156105565780601f1061052b57610100808354040283529160200191610556565b820191906000526020600020905b81548152906001019060200180831161053957829003601f168201915b5050505050905090565b600061056b8261116f565b6105aa576040517f08c379a00000000000000000000000000000000000000000000000000000000081526004016105a190612931565b60405180910390fd5b6004600083815260200190815260200160002060009054906101000a900473ffffffffffffffffffffffffffffffffffffffff169050919050565b60006105f082610b40565b90508073ffffffffffffffffffffffffffffffffffffffff168373ffffffffffffffffffffffffffffffffffffffff161415610661576040517f08c379a0000000000000000000000000000000000000000000000000000000008152600401610658906129b1565b60405180910390fd5b8073ffffffffffffffffffffffffffffffffffffffff166106806111db565b73ffffffffffffffffffffffffffffffffffffffff1614806106af57506106ae816106a96111db565b611071565b5b6106ee576040517f08c379a00000000000000000000000000000000000000000000000000000000081526004016106e590612851565b60405180910390fd5b6106f883836111e3565b505050565b61070e6107086111db565b8261129c565b61074d576040517f08c379a0000000000000000000000000000000000000000000000000000000008152600401610744906129d1565b60405180910390fd5b61075883838361137a565b505050565b60008260008190503373ffffffffffffffffffffffffffffffffffffffff168173ffffffffffffffffffffffffffffffffffffffff16636701d6cd6040518163ffffffff1660e01b815260040160206040518083038186803b1580156107c257600080fd5b505afa1580156107d6573d6000803e3d6000fd5b505050506040513d601f19601f820116820180604052508101906107fa91906120a6565b73ffffffffffffffffffffffffffffffffffffffff1614610850576040517f08c379a0000000000000000000000000000000000000000000000000000000008152600401610847906128f1565b60405180910390fd5b600860008673ffffffffffffffffffffffffffffffffffffffff1673ffffffffffffffffffffffffffffffffffffffff16815260200190815260200160002060008773ffffffffffffffffffffffffffffffffffffffff1673ffffffffffffffffffffffffffffffffffffffff16815260200190815260200160002060000160149054906101000a900460ff161561091d576040517f08c379a000000000000000000000000000000000000000000000000000000000815260040161091490612991565b60405180910390fd5b600061092988886115d6565b905060405180604001604052808873ffffffffffffffffffffffffffffffffffffffff16815260200160011515815250600860008873ffffffffffffffffffffffffffffffffffffffff1673ffffffffffffffffffffffffffffffffffffffff16815260200190815260200160002060008973ffffffffffffffffffffffffffffffffffffffff1673ffffffffffffffffffffffffffffffffffffffff16815260200190815260200160002060008201518160000160006101000a81548173ffffffffffffffffffffffffffffffffffffffff021916908373ffffffffffffffffffffffffffffffffffffffff16021790555060208201518160000160146101000a81548160ff02191690831515021790555090505060008690508073ffffffffffffffffffffffffffffffffffffffff1663a2d29be08933896040518463ffffffff1660e01b8152600401610a81939291906126c8565b600060405180830381600087803b158015610a9b57600080fd5b505af1158015610aaf573d6000803e3d6000fd5b5050505081945050505050949350505050565b610add83838360405180602001604052806000815250610ebd565b505050565b6008602052816000526040600020602052806000526040600020600091509150508060000160009054906101000a900473ffffffffffffffffffffffffffffffffffffffff16908060000160149054906101000a900460ff16905082565b6000806002600084815260200190815260200160002060009054906101000a900473ffffffffffffffffffffffffffffffffffffffff169050600073ffffffffffffffffffffffffffffffffffffffff168173ffffffffffffffffffffffffffffffffffffffff161415610be9576040517f08c379a0000000000000000000000000000000000000000000000000000000008152600401610be090612891565b60405180910390fd5b80915050919050565b60008073ffffffffffffffffffffffffffffffffffffffff168273ffffffffffffffffffffffffffffffffffffffff161415610c63576040517f08c379a0000000000000000000000000000000000000000000000000000000008152600401610c5a90612871565b60405180910390fd5b600360008373ffffffffffffffffffffffffffffffffffffffff1673ffffffffffffffffffffffffffffffffffffffff168152602001908152602001600020549050919050565b606060018054610cb990612c47565b80601f0160208091040260200160405190810160405280929190818152602001828054610ce590612c47565b8015610d325780601f10610d0757610100808354040283529160200191610d32565b820191906000526020600020905b815481529060010190602001808311610d1557829003601f168201915b5050505050905090565b610d446111db565b73ffffffffffffffffffffffffffffffffffffffff168273ffffffffffffffffffffffffffffffffffffffff161415610db2576040517f08c379a0000000000000000000000000000000000000000000000000000000008152600401610da990612811565b60405180910390fd5b8060056000610dbf6111db565b73ffffffffffffffffffffffffffffffffffffffff1673ffffffffffffffffffffffffffffffffffffffff16815260200190815260200160002060008473ffffffffffffffffffffffffffffffffffffffff1673ffffffffffffffffffffffffffffffffffffffff16815260200190815260200160002060006101000a81548160ff0219169083151502179055508173ffffffffffffffffffffffffffffffffffffffff16610e6c6111db565b73ffffffffffffffffffffffffffffffffffffffff167f17307eab39ab6107e8899845ad3d59bd9653f200f220920489ca2b5937696c3183604051610eb19190612774565b60405180910390a35050565b610ece610ec86111db565b8361129c565b610f0d576040517f08c379a0000000000000000000000000000000000000000000000000000000008152600401610f04906129d1565b60405180910390fd5b610f1984848484611655565b50505050565b6060610f2a8261116f565b610f69576040517f08c379a0000000000000000000000000000000000000000000000000000000008152600401610f6090612911565b60405180910390fd5b6000600660008481526020019081526020016000208054610f8990612c47565b80601f0160208091040260200160405190810160405280929190818152602001828054610fb590612c47565b80156110025780601f10610fd757610100808354040283529160200191611002565b820191906000526020600020905b815481529060010190602001808311610fe557829003601f168201915b5050505050905060006110136116b1565b905060008151141561102957819250505061106c565b60008251111561105e578082604051602001611046929190612689565b6040516020818303038152906040529250505061106c565b611067846116c8565b925050505b919050565b6000600560008473ffffffffffffffffffffffffffffffffffffffff1673ffffffffffffffffffffffffffffffffffffffff16815260200190815260200160002060008373ffffffffffffffffffffffffffffffffffffffff1673ffffffffffffffffffffffffffffffffffffffff16815260200190815260200160002060009054906101000a900460ff16905092915050565b60007f01ffc9a7000000000000000000000000000000000000000000000000000000007bffffffffffffffffffffffffffffffffffffffffffffffffffffffff1916827bffffffffffffffffffffffffffffffffffffffffffffffffffffffff1916149050919050565b60008073ffffffffffffffffffffffffffffffffffffffff166002600084815260200190815260200160002060009054906101000a900473ffffffffffffffffffffffffffffffffffffffff1673ffffffffffffffffffffffffffffffffffffffff1614159050919050565b600033905090565b816004600083815260200190815260200160002060006101000a81548173ffffffffffffffffffffffffffffffffffffffff021916908373ffffffffffffffffffffffffffffffffffffffff160217905550808273ffffffffffffffffffffffffffffffffffffffff1661125683610b40565b73ffffffffffffffffffffffffffffffffffffffff167f8c5be1e5ebec7d5bd14f71427d1e84f3dd0314c0f7b2291e5b200ac8c7c3b92560405160405180910390a45050565b60006112a78261116f565b6112e6576040517f08c379a00000000000000000000000000000000000000000000000000000000081526004016112dd90612831565b60405180910390fd5b60006112f183610b40565b90508073ffffffffffffffffffffffffffffffffffffffff168473ffffffffffffffffffffffffffffffffffffffff16148061136057508373ffffffffffffffffffffffffffffffffffffffff1661134884610560565b73ffffffffffffffffffffffffffffffffffffffff16145b8061137157506113708185611071565b5b91505092915050565b8273ffffffffffffffffffffffffffffffffffffffff1661139a82610b40565b73ffffffffffffffffffffffffffffffffffffffff16146113f0576040517f08c379a00000000000000000000000000000000000000000000000000000000081526004016113e790612951565b60405180910390fd5b600073ffffffffffffffffffffffffffffffffffffffff168273ffffffffffffffffffffffffffffffffffffffff161415611460576040517f08c379a0000000000000000000000000000000000000000000000000000000008152600401611457906127f1565b60405180910390fd5b61146b83838361176f565b6114766000826111e3565b6001600360008573ffffffffffffffffffffffffffffffffffffffff1673ffffffffffffffffffffffffffffffffffffffff16815260200190815260200160002060008282546114c69190612b5d565b925050819055506001600360008473ffffffffffffffffffffffffffffffffffffffff1673ffffffffffffffffffffffffffffffffffffffff168152602001908152602001600020600082825461151d9190612ad6565b92505081905550816002600083815260200190815260200160002060006101000a81548173ffffffffffffffffffffffffffffffffffffffff021916908373ffffffffffffffffffffffffffffffffffffffff160217905550808273ffffffffffffffffffffffffffffffffffffffff168473ffffffffffffffffffffffffffffffffffffffff167fddf252ad1be2c89b69c2b068fc378daa952ba7f163c4a11628f55a4df523b3ef60405160405180910390a4505050565b60006115e26007611774565b60006115ee600761178a565b90506115fa8382611798565b6116048185611966565b6116426040518060400160405280600981526020017f53656e64657249443a00000000000000000000000000000000000000000000008152506119da565b61164b33611a73565b8091505092915050565b61166084848461137a565b61166c84848484611b0c565b6116ab576040517f08c379a00000000000000000000000000000000000000000000000000000000081526004016116a2906127b1565b60405180910390fd5b50505050565b606060405180602001604052806000815250905090565b60606116d38261116f565b611712576040517f08c379a000000000000000000000000000000000000000000000000000000000815260040161170990612971565b60405180910390fd5b600061171c6116b1565b9050600081511161173c5760405180602001604052806000815250611767565b8061174684611ca3565b604051602001611757929190612689565b6040516020818303038152906040525b915050919050565b505050565b6001816000016000828254019250508190555050565b600081600001549050919050565b600073ffffffffffffffffffffffffffffffffffffffff168273ffffffffffffffffffffffffffffffffffffffff161415611808576040517f08c379a00000000000000000000000000000000000000000000000000000000081526004016117ff906128d1565b60405180910390fd5b6118118161116f565b15611851576040517f08c379a0000000000000000000000000000000000000000000000000000000008152600401611848906127d1565b60405180910390fd5b61185d6000838361176f565b6001600360008473ffffffffffffffffffffffffffffffffffffffff1673ffffffffffffffffffffffffffffffffffffffff16815260200190815260200160002060008282546118ad9190612ad6565b92505081905550816002600083815260200190815260200160002060006101000a81548173ffffffffffffffffffffffffffffffffffffffff021916908373ffffffffffffffffffffffffffffffffffffffff160217905550808273ffffffffffffffffffffffffffffffffffffffff16600073ffffffffffffffffffffffffffffffffffffffff167fddf252ad1be2c89b69c2b068fc378daa952ba7f163c4a11628f55a4df523b3ef60405160405180910390a45050565b61196f8261116f565b6119ae576040517f08c379a00000000000000000000000000000000000000000000000000000000081526004016119a5906128b1565b60405180910390fd5b806006600084815260200190815260200160002090805190602001906119d5929190611e8c565b505050565b611a70816040516024016119ee919061278f565b6040516020818303038152906040527f41304fac000000000000000000000000000000000000000000000000000000007bffffffffffffffffffffffffffffffffffffffffffffffffffffffff19166020820180517bffffffffffffffffffffffffffffffffffffffffffffffffffffffff8381831617835250505050611e50565b50565b611b0981604051602401611a8791906126ad565b6040516020818303038152906040527f2c2ecbc2000000000000000000000000000000000000000000000000000000007bffffffffffffffffffffffffffffffffffffffffffffffffffffffff19166020820180517bffffffffffffffffffffffffffffffffffffffffffffffffffffffff8381831617835250505050611e50565b50565b6000611b2d8473ffffffffffffffffffffffffffffffffffffffff16611e79565b15611c96578373ffffffffffffffffffffffffffffffffffffffff1663150b7a02611b566111db565b8786866040518563ffffffff1660e01b8152600401611b7894939291906126ff565b602060405180830381600087803b158015611b9257600080fd5b505af1925050508015611bc357506040513d601f19601f82011682018060405250810190611bc09190612276565b60015b611c46573d8060008114611bf3576040519150601f19603f3d011682016040523d82523d6000602084013e611bf8565b606091505b50600081511415611c3e576040517f08c379a0000000000000000000000000000000000000000000000000000000008152600401611c35906127b1565b60405180910390fd5b805181602001fd5b63150b7a0260e01b7bffffffffffffffffffffffffffffffffffffffffffffffffffffffff1916817bffffffffffffffffffffffffffffffffffffffffffffffffffffffff191614915050611c9b565b600190505b949350505050565b60606000821415611ceb576040518060400160405280600181526020017f30000000000000000000000000000000000000000000000000000000000000008152509050611e4b565b600082905060005b60008214611d1d578080611d0690612caa565b915050600a82611d169190612b2c565b9150611cf3565b60008167ffffffffffffffff811115611d5f577f4e487b7100000000000000000000000000000000000000000000000000000000600052604160045260246000fd5b6040519080825280601f01601f191660200182016040528015611d915781602001600182028036833780820191505090505b5090505b60008514611e4457600182611daa9190612b5d565b9150600a85611db99190612cf3565b6030611dc59190612ad6565b60f81b818381518110611e01577f4e487b7100000000000000000000000000000000000000000000000000000000600052603260045260246000fd5b60200101907effffffffffffffffffffffffffffffffffffffffffffffffffffffffffffff1916908160001a905350600a85611e3d9190612b2c565b9450611d95565b8093505050505b919050565b60008151905060006a636f6e736f6c652e6c6f679050602083016000808483855afa5050505050565b600080823b905060008111915050919050565b828054611e9890612c47565b90600052602060002090601f016020900481019282611eba5760008555611f01565b82601f10611ed357805160ff1916838001178555611f01565b82800160010185558215611f01579182015b82811115611f00578251825591602001919060010190611ee5565b5b509050611f0e9190611f12565b5090565b5b80821115611f2b576000816000905550600101611f13565b5090565b6000611f42611f3d84612a31565b612a0c565b905082815260208101848484011115611f5a57600080fd5b611f65848285612c05565b509392505050565b6000611f80611f7b84612a62565b612a0c565b905082815260208101848484011115611f9857600080fd5b611fa3848285612c05565b509392505050565b600081359050611fba816132c1565b92915050565b600081519050611fcf816132c1565b92915050565b600081359050611fe4816132d8565b92915050565b600081359050611ff9816132ef565b92915050565b60008151905061200e816132ef565b92915050565b600082601f83011261202557600080fd5b8135612035848260208601611f2f565b91505092915050565b600082601f83011261204f57600080fd5b813561205f848260208601611f6d565b91505092915050565b60008135905061207781613306565b92915050565b60006020828403121561208f57600080fd5b600061209d84828501611fab565b91505092915050565b6000602082840312156120b857600080fd5b60006120c684828501611fc0565b91505092915050565b600080604083850312156120e257600080fd5b60006120f085828601611fab565b925050602061210185828601611fab565b9150509250929050565b60008060006060848603121561212057600080fd5b600061212e86828701611fab565b935050602061213f86828701611fab565b925050604061215086828701612068565b9150509250925092565b6000806000806080858703121561217057600080fd5b600061217e87828801611fab565b945050602061218f87828801611fab565b93505060406121a087828801612068565b925050606085013567ffffffffffffffff8111156121bd57600080fd5b6121c987828801612014565b91505092959194509250565b600080604083850312156121e857600080fd5b60006121f685828601611fab565b925050602061220785828601611fd5565b9150509250929050565b6000806040838503121561222457600080fd5b600061223285828601611fab565b925050602061224385828601612068565b9150509250929050565b60006020828403121561225f57600080fd5b600061226d84828501611fea565b91505092915050565b60006020828403121561228857600080fd5b600061229684828501611fff565b91505092915050565b600080600080608085870312156122b557600080fd5b600085013567ffffffffffffffff8111156122cf57600080fd5b6122db8782880161203e565b94505060206122ec87828801611fab565b93505060406122fd87828801611fab565b925050606061230e87828801611fab565b91505092959194509250565b60006020828403121561232c57600080fd5b600061233a84828501612068565b91505092915050565b61234c81612b91565b82525050565b61235b81612ba3565b82525050565b600061236c82612a93565b6123768185612aa9565b9350612386818560208601612c14565b61238f81612de0565b840191505092915050565b60006123a582612a9e565b6123af8185612aba565b93506123bf818560208601612c14565b6123c881612de0565b840191505092915050565b60006123de82612a9e565b6123e88185612acb565b93506123f8818560208601612c14565b80840191505092915050565b6000612411603283612aba565b915061241c82612df1565b604082019050919050565b6000612434601c83612aba565b915061243f82612e40565b602082019050919050565b6000612457602483612aba565b915061246282612e69565b604082019050919050565b600061247a601983612aba565b915061248582612eb8565b602082019050919050565b600061249d602c83612aba565b91506124a882612ee1565b604082019050919050565b60006124c0603883612aba565b91506124cb82612f30565b604082019050919050565b60006124e3602a83612aba565b91506124ee82612f7f565b604082019050919050565b6000612506602983612aba565b915061251182612fce565b604082019050919050565b6000612529602e83612aba565b91506125348261301d565b604082019050919050565b600061254c602083612aba565b91506125578261306c565b602082019050919050565b600061256f601c83612aba565b915061257a82613095565b602082019050919050565b6000612592603183612aba565b915061259d826130be565b604082019050919050565b60006125b5602c83612aba565b91506125c08261310d565b604082019050919050565b60006125d8602983612aba565b91506125e38261315c565b604082019050919050565b60006125fb602f83612aba565b9150612606826131ab565b604082019050919050565b600061261e601a83612aba565b9150612629826131fa565b602082019050919050565b6000612641602183612aba565b915061264c82613223565b604082019050919050565b6000612664603183612aba565b915061266f82613272565b604082019050919050565b61268381612bfb565b82525050565b600061269582856123d3565b91506126a182846123d3565b91508190509392505050565b60006020820190506126c26000830184612343565b92915050565b60006060820190506126dd6000830186612343565b6126ea6020830185612343565b6126f76040830184612343565b949350505050565b60006080820190506127146000830187612343565b6127216020830186612343565b61272e604083018561267a565b81810360608301526127408184612361565b905095945050505050565b60006040820190506127606000830185612343565b61276d6020830184612352565b9392505050565b60006020820190506127896000830184612352565b92915050565b600060208201905081810360008301526127a9818461239a565b905092915050565b600060208201905081810360008301526127ca81612404565b9050919050565b600060208201905081810360008301526127ea81612427565b9050919050565b6000602082019050818103600083015261280a8161244a565b9050919050565b6000602082019050818103600083015261282a8161246d565b9050919050565b6000602082019050818103600083015261284a81612490565b9050919050565b6000602082019050818103600083015261286a816124b3565b9050919050565b6000602082019050818103600083015261288a816124d6565b9050919050565b600060208201905081810360008301526128aa816124f9565b9050919050565b600060208201905081810360008301526128ca8161251c565b9050919050565b600060208201905081810360008301526128ea8161253f565b9050919050565b6000602082019050818103600083015261290a81612562565b9050919050565b6000602082019050818103600083015261292a81612585565b9050919050565b6000602082019050818103600083015261294a816125a8565b9050919050565b6000602082019050818103600083015261296a816125cb565b9050919050565b6000602082019050818103600083015261298a816125ee565b9050919050565b600060208201905081810360008301526129aa81612611565b9050919050565b600060208201905081810360008301526129ca81612634565b9050919050565b600060208201905081810360008301526129ea81612657565b9050919050565b6000602082019050612a06600083018461267a565b92915050565b6000612a16612a27565b9050612a228282612c79565b919050565b6000604051905090565b600067ffffffffffffffff821115612a4c57612a4b612db1565b5b612a5582612de0565b9050602081019050919050565b600067ffffffffffffffff821115612a7d57612a7c612db1565b5b612a8682612de0565b9050602081019050919050565b600081519050919050565b600081519050919050565b600082825260208201905092915050565b600082825260208201905092915050565b600081905092915050565b6000612ae182612bfb565b9150612aec83612bfb565b9250827fffffffffffffffffffffffffffffffffffffffffffffffffffffffffffffffff03821115612b2157612b20612d24565b5b828201905092915050565b6000612b3782612bfb565b9150612b4283612bfb565b925082612b5257612b51612d53565b5b828204905092915050565b6000612b6882612bfb565b9150612b7383612bfb565b925082821015612b8657612b85612d24565b5b828203905092915050565b6000612b9c82612bdb565b9050919050565b60008115159050919050565b60007fffffffff0000000000000000000000000000000000000000000000000000000082169050919050565b600073ffffffffffffffffffffffffffffffffffffffff82169050919050565b6000819050919050565b82818337600083830152505050565b60005b83811015612c32578082015181840152602081019050612c17565b83811115612c41576000848401525b50505050565b60006002820490506001821680612c5f57607f821691505b60208210811415612c7357612c72612d82565b5b50919050565b612c8282612de0565b810181811067ffffffffffffffff82111715612ca157612ca0612db1565b5b80604052505050565b6000612cb582612bfb565b91507fffffffffffffffffffffffffffffffffffffffffffffffffffffffffffffffff821415612ce857612ce7612d24565b5b600182019050919050565b6000612cfe82612bfb565b9150612d0983612bfb565b925082612d1957612d18612d53565b5b828206905092915050565b7f4e487b7100000000000000000000000000000000000000000000000000000000600052601160045260246000fd5b7f4e487b7100000000000000000000000000000000000000000000000000000000600052601260045260246000fd5b7f4e487b7100000000000000000000000000000000000000000000000000000000600052602260045260246000fd5b7f4e487b7100000000000000000000000000000000000000000000000000000000600052604160045260246000fd5b6000601f19601f8301169050919050565b7f4552433732313a207472616e7366657220746f206e6f6e20455243373231526560008201527f63656976657220696d706c656d656e7465720000000000000000000000000000602082015250565b7f4552433732313a20746f6b656e20616c7265616479206d696e74656400000000600082015250565b7f4552433732313a207472616e7366657220746f20746865207a65726f2061646460008201527f7265737300000000000000000000000000000000000000000000000000000000602082015250565b7f4552433732313a20617070726f766520746f2063616c6c657200000000000000600082015250565b7f4552433732313a206f70657261746f7220717565727920666f72206e6f6e657860008201527f697374656e7420746f6b656e0000000000000000000000000000000000000000602082015250565b7f4552433732313a20617070726f76652063616c6c6572206973206e6f74206f7760008201527f6e6572206e6f7220617070726f76656420666f7220616c6c0000000000000000602082015250565b7f4552433732313a2062616c616e636520717565727920666f7220746865207a6560008201527f726f206164647265737300000000000000000000000000000000000000000000602082015250565b7f4552433732313a206f776e657220717565727920666f72206e6f6e657869737460008201527f656e7420746f6b656e0000000000000000000000000000000000000000000000602082015250565b7f45524337323155524953746f726167653a2055524920736574206f66206e6f6e60008201527f6578697374656e7420746f6b656e000000000000000000000000000000000000602082015250565b7f4552433732313a206d696e7420746f20746865207a65726f2061646472657373600082015250565b7f53656e646572206973206e6f7420612067656e65736973207573657200000000600082015250565b7f45524337323155524953746f726167653a2055524920717565727920666f722060008201527f6e6f6e6578697374656e7420746f6b656e000000000000000000000000000000602082015250565b7f4552433732313a20617070726f76656420717565727920666f72206e6f6e657860008201527f697374656e7420746f6b656e0000000000000000000000000000000000000000602082015250565b7f4552433732313a207472616e73666572206f6620746f6b656e2074686174206960008201527f73206e6f74206f776e0000000000000000000000000000000000000000000000602082015250565b7f4552433732314d657461646174613a2055524920717565727920666f72206e6f60008201527f6e6578697374656e7420746f6b656e0000000000000000000000000000000000602082015250565b7f5573657220616c72656164792065786973747320696e206f7267000000000000600082015250565b7f4552433732313a20617070726f76616c20746f2063757272656e74206f776e6560008201527f7200000000000000000000000000000000000000000000000000000000000000602082015250565b7f4552433732313a207472616e736665722063616c6c6572206973206e6f74206f60008201527f776e6572206e6f7220617070726f766564000000000000000000000000000000602082015250565b6132ca81612b91565b81146132d557600080fd5b50565b6132e181612ba3565b81146132ec57600080fd5b50565b6132f881612baf565b811461330357600080fd5b50565b61330f81612bfb565b811461331a57600080fd5b5056fea2646970667358221220e0dad2159dfc7d4085c05df6da7542ab2ed4d0f7bbbee5460df7ad2f9b12fd8c64736f6c63430008040033",
  "linkReferences": {},
  "deployedLinkReferences": {}
}