{
  "_format": "hh-sol-artifact-1",
  "contractName": "BadgeTokenFactory",
  "sourceName": "contracts/BadgeTokenFactory.sol",
  "abi": [
    {
      "inputs": [],
      "name": "badgeRegistry",
      "outputs": [
        {
          "internalType": "address",
          "name": "",
          "type": "address"
        }
      ],
      "stateMutability": "view",
      "type": "function"
    },
    {
      "inputs": [
        {
          "internalType": "string",
          "name": "_entityName",
          "type": "string"
        }
      ],
      "name": "createBadgeToken",
      "outputs": [
        {
          "internalType": "address",
          "name": "",
          "type": "address"
        }
      ],
      "stateMutability": "nonpayable",
      "type": "function"
    }
  ],
  "bytecode": "0x608060405234801561001057600080fd5b506137e7806100206000396000f3fe608060405234801561001057600080fd5b50600436106100365760003560e01c80637c7449711461003b578063ea3e7cef1461006b575b600080fd5b61005560048036038101906100509190610147565b610089565b60405161006291906101c8565b60405180910390f35b6100736100cb565b60405161008091906101c8565b60405180910390f35b600033838360405161009a906100ef565b6100a6939291906101e3565b604051809103906000f0801580156100c2573d6000803e3d6000fd5b50905092915050565b60008054906101000a900473ffffffffffffffffffffffffffffffffffffffff1681565b613539806200027983390190565b60008083601f84011261010f57600080fd5b8235905067ffffffffffffffff81111561012857600080fd5b60208301915083600182028301111561014057600080fd5b9250929050565b6000806020838503121561015a57600080fd5b600083013567ffffffffffffffff81111561017457600080fd5b610180858286016100fd565b92509250509250929050565b61019581610226565b82525050565b60006101a78385610215565b93506101b4838584610258565b6101bd83610267565b840190509392505050565b60006020820190506101dd600083018461018c565b92915050565b60006040820190506101f8600083018661018c565b818103602083015261020b81848661019b565b9050949350505050565b600082825260208201905092915050565b600061023182610238565b9050919050565b600073ffffffffffffffffffffffffffffffffffffffff82169050919050565b82818337600083830152505050565b6000601f19601f830116905091905056fe60806040523480156200001157600080fd5b506040516200353938038062003539833981810160405281019062000037919062000298565b6200007e816040518060400160405280600981526020017f202d2042616467657300000000000000000000000000000000000000000000008152506200013160201b60201c565b6040518060400160405280600581526020017f42414447450000000000000000000000000000000000000000000000000000008152508160009080519060200190620000cc9291906200015f565b508060019080519060200190620000e59291906200015f565b50505081600a60006101000a81548173ffffffffffffffffffffffffffffffffffffffff021916908373ffffffffffffffffffffffffffffffffffffffff160217905550505062000525565b606082826040516020016200014892919062000329565b604051602081830303815290604052905092915050565b8280546200016d9062000430565b90600052602060002090601f016020900481019282620001915760008555620001dd565b82601f10620001ac57805160ff1916838001178555620001dd565b82800160010185558215620001dd579182015b82811115620001dc578251825591602001919060010190620001bf565b5b509050620001ec9190620001f0565b5090565b5b808211156200020b576000816000905550600101620001f1565b5090565b60006200022662000220846200037a565b62000351565b9050828152602081018484840111156200023f57600080fd5b6200024c848285620003fa565b509392505050565b60008151905062000265816200050b565b92915050565b600082601f8301126200027d57600080fd5b81516200028f8482602086016200020f565b91505092915050565b60008060408385031215620002ac57600080fd5b6000620002bc8582860162000254565b925050602083015167ffffffffffffffff811115620002da57600080fd5b620002e8858286016200026b565b9150509250929050565b6000620002ff82620003b0565b6200030b8185620003bb565b93506200031d818560208601620003fa565b80840191505092915050565b6000620003378285620002f2565b9150620003458284620002f2565b91508190509392505050565b60006200035d62000370565b90506200036b828262000466565b919050565b6000604051905090565b600067ffffffffffffffff821115620003985762000397620004cb565b5b620003a382620004fa565b9050602081019050919050565b600081519050919050565b600081905092915050565b6000620003d382620003da565b9050919050565b600073ffffffffffffffffffffffffffffffffffffffff82169050919050565b60005b838110156200041a578082015181840152602081019050620003fd565b838111156200042a576000848401525b50505050565b600060028204905060018216806200044957607f821691505b6020821081141562000460576200045f6200049c565b5b50919050565b6200047182620004fa565b810181811067ffffffffffffffff82111715620004935762000492620004cb565b5b80604052505050565b7f4e487b7100000000000000000000000000000000000000000000000000000000600052602260045260246000fd5b7f4e487b7100000000000000000000000000000000000000000000000000000000600052604160045260246000fd5b6000601f19601f8301169050919050565b6200051681620003c6565b81146200052257600080fd5b50565b61300480620005356000396000f3fe6080604052600436106100f35760003560e01c806370a082311161008a578063a22cb46511610059578063a22cb46514610320578063b88d4fde14610349578063c87b56dd14610372578063e985e9c5146103af576100f3565b806370a082311461028057806374afd802146102bd57806395d89b41146102d9578063a116960514610304576100f3565b806323b872dd116100c657806323b872dd146101c657806342842e0e146101ef5780636352211e146102185780636cdbbc6614610255576100f3565b806301ffc9a7146100f857806306fdde0314610135578063081812fc14610160578063095ea7b31461019d575b600080fd5b34801561010457600080fd5b5061011f600480360381019061011a9190611f8c565b6103ec565b60405161012c919061247c565b60405180910390f35b34801561014157600080fd5b5061014a6104ce565b6040516101579190612497565b60405180910390f35b34801561016c57600080fd5b5061018760048036038101906101829190611fde565b610560565b604051610194919061239e565b60405180910390f35b3480156101a957600080fd5b506101c460048036038101906101bf9190611ee4565b6105e5565b005b3480156101d257600080fd5b506101ed60048036038101906101e89190611dde565b6106fd565b005b3480156101fb57600080fd5b5061021660048036038101906102119190611dde565b61075d565b005b34801561022457600080fd5b5061023f600480360381019061023a9190611fde565b61077d565b60405161024c919061239e565b60405180910390f35b34801561026157600080fd5b5061026a61082f565b604051610277919061239e565b60405180910390f35b34801561028c57600080fd5b506102a760048036038101906102a29190611d79565b610855565b6040516102b491906126f9565b60405180910390f35b6102d760048036038101906102d29190611f20565b61090d565b005b3480156102e557600080fd5b506102ee610a83565b6040516102fb9190612497565b60405180910390f35b61031e60048036038101906103199190611fde565b610b15565b005b34801561032c57600080fd5b5061034760048036038101906103429190611ea8565b610cb7565b005b34801561035557600080fd5b50610370600480360381019061036b9190611e2d565b610e38565b005b34801561037e57600080fd5b5061039960048036038101906103949190611fde565b610e9a565b6040516103a69190612497565b60405180910390f35b3480156103bb57600080fd5b506103d660048036038101906103d19190611da2565b610fec565b6040516103e3919061247c565b60405180910390f35b60007f80ac58cd000000000000000000000000000000000000000000000000000000007bffffffffffffffffffffffffffffffffffffffffffffffffffffffff1916827bffffffffffffffffffffffffffffffffffffffffffffffffffffffff191614806104b757507f5b5e139f000000000000000000000000000000000000000000000000000000007bffffffffffffffffffffffffffffffffffffffffffffffffffffffff1916827bffffffffffffffffffffffffffffffffffffffffffffffffffffffff1916145b806104c757506104c682611080565b5b9050919050565b6060600080546104dd9061291e565b80601f01602080910402602001604051908101604052809291908181526020018280546105099061291e565b80156105565780601f1061052b57610100808354040283529160200191610556565b820191906000526020600020905b81548152906001019060200180831161053957829003601f168201915b5050505050905090565b600061056b826110ea565b6105aa576040517f08c379a00000000000000000000000000000000000000000000000000000000081526004016105a190612619565b60405180910390fd5b6004600083815260200190815260200160002060009054906101000a900473ffffffffffffffffffffffffffffffffffffffff169050919050565b60006105f08261077d565b90508073ffffffffffffffffffffffffffffffffffffffff168373ffffffffffffffffffffffffffffffffffffffff161415610661576040517f08c379a000000000000000000000000000000000000000000000000000000000815260040161065890612659565b60405180910390fd5b8073ffffffffffffffffffffffffffffffffffffffff16610680611156565b73ffffffffffffffffffffffffffffffffffffffff1614806106af57506106ae816106a9611156565b610fec565b5b6106ee576040517f08c379a00000000000000000000000000000000000000000000000000000000081526004016106e590612559565b60405180910390fd5b6106f8838361115e565b505050565b61070e610708611156565b82611217565b61074d576040517f08c379a000000000000000000000000000000000000000000000000000000000815260040161074490612679565b60405180910390fd5b6107588383836112f5565b505050565b61077883838360405180602001604052806000815250610e38565b505050565b6000806002600084815260200190815260200160002060009054906101000a900473ffffffffffffffffffffffffffffffffffffffff169050600073ffffffffffffffffffffffffffffffffffffffff168173ffffffffffffffffffffffffffffffffffffffff161415610826576040517f08c379a000000000000000000000000000000000000000000000000000000000815260040161081d90612599565b60405180910390fd5b80915050919050565b600a60009054906101000a900473ffffffffffffffffffffffffffffffffffffffff1681565b60008073ffffffffffffffffffffffffffffffffffffffff168273ffffffffffffffffffffffffffffffffffffffff1614156108c6576040517f08c379a00000000000000000000000000000000000000000000000000000000081526004016108bd90612579565b60405180910390fd5b600360008373ffffffffffffffffffffffffffffffffffffffff1673ffffffffffffffffffffffffffffffffffffffff168152602001908152602001600020549050919050565b600a60009054906101000a900473ffffffffffffffffffffffffffffffffffffffff1673ffffffffffffffffffffffffffffffffffffffff163373ffffffffffffffffffffffffffffffffffffffff161461099d576040517f08c379a0000000000000000000000000000000000000000000000000000000008152600401610994906126d9565b60405180910390fd5b6109a7600761133b565b60006109b36007611351565b90506109bf858261135f565b610a0d8184848080601f016020809104026020016040519081016040528093929190818152602001838380828437600081840152601f19601f8201169050808301925050505050505061152d565b8360086000838152602001908152602001600020819055504260096000838152602001908152602001600020819055507f5436dc28583773ca1024aefe4527413e52bd65f3829cc6e138ee939f6653d9c13082868686604051610a7495949392919061242e565b60405180910390a15050505050565b606060018054610a929061291e565b80601f0160208091040260200160405190810160405280929190818152602001828054610abe9061291e565b8015610b0b5780601f10610ae057610100808354040283529160200191610b0b565b820191906000526020600020905b815481529060010190602001808311610aee57829003601f168201915b5050505050905090565b610b1e8161077d565b73ffffffffffffffffffffffffffffffffffffffff163373ffffffffffffffffffffffffffffffffffffffff1614610b8b576040517f08c379a0000000000000000000000000000000000000000000000000000000008152600401610b8290612699565b60405180910390fd5b62093a80600960008381526020019081526020016000205442610bae9190612834565b1115610bef576040517f08c379a0000000000000000000000000000000000000000000000000000000008152600401610be6906126b9565b60405180910390fd5b610bf8816115a1565b600a60009054906101000a900473ffffffffffffffffffffffffffffffffffffffff1673ffffffffffffffffffffffffffffffffffffffff1663deccb0916040518163ffffffff1660e01b8152600401600060405180830381600087803b158015610c6257600080fd5b505af1158015610c76573d6000803e3d6000fd5b505050507f74b876a3976ec73d04754387c8e4a73c432b83d4ee32a082f0767d877c4e8bf2336001604051610cac929190612405565b60405180910390a150565b610cbf611156565b73ffffffffffffffffffffffffffffffffffffffff168273ffffffffffffffffffffffffffffffffffffffff161415610d2d576040517f08c379a0000000000000000000000000000000000000000000000000000000008152600401610d2490612519565b60405180910390fd5b8060056000610d3a611156565b73ffffffffffffffffffffffffffffffffffffffff1673ffffffffffffffffffffffffffffffffffffffff16815260200190815260200160002060008473ffffffffffffffffffffffffffffffffffffffff1673ffffffffffffffffffffffffffffffffffffffff16815260200190815260200160002060006101000a81548160ff0219169083151502179055508173ffffffffffffffffffffffffffffffffffffffff16610de7611156565b73ffffffffffffffffffffffffffffffffffffffff167f17307eab39ab6107e8899845ad3d59bd9653f200f220920489ca2b5937696c3183604051610e2c919061247c565b60405180910390a35050565b610e49610e43611156565b83611217565b610e88576040517f08c379a0000000000000000000000000000000000000000000000000000000008152600401610e7f90612679565b60405180910390fd5b610e94848484846115f4565b50505050565b6060610ea5826110ea565b610ee4576040517f08c379a0000000000000000000000000000000000000000000000000000000008152600401610edb906125f9565b60405180910390fd5b6000600660008481526020019081526020016000208054610f049061291e565b80601f0160208091040260200160405190810160405280929190818152602001828054610f309061291e565b8015610f7d5780601f10610f5257610100808354040283529160200191610f7d565b820191906000526020600020905b815481529060010190602001808311610f6057829003601f168201915b505050505090506000610f8e611650565b9050600081511415610fa4578192505050610fe7565b600082511115610fd9578082604051602001610fc192919061237a565b60405160208183030381529060405292505050610fe7565b610fe284611667565b925050505b919050565b6000600560008473ffffffffffffffffffffffffffffffffffffffff1673ffffffffffffffffffffffffffffffffffffffff16815260200190815260200160002060008373ffffffffffffffffffffffffffffffffffffffff1673ffffffffffffffffffffffffffffffffffffffff16815260200190815260200160002060009054906101000a900460ff16905092915050565b60007f01ffc9a7000000000000000000000000000000000000000000000000000000007bffffffffffffffffffffffffffffffffffffffffffffffffffffffff1916827bffffffffffffffffffffffffffffffffffffffffffffffffffffffff1916149050919050565b60008073ffffffffffffffffffffffffffffffffffffffff166002600084815260200190815260200160002060009054906101000a900473ffffffffffffffffffffffffffffffffffffffff1673ffffffffffffffffffffffffffffffffffffffff1614159050919050565b600033905090565b816004600083815260200190815260200160002060006101000a81548173ffffffffffffffffffffffffffffffffffffffff021916908373ffffffffffffffffffffffffffffffffffffffff160217905550808273ffffffffffffffffffffffffffffffffffffffff166111d18361077d565b73ffffffffffffffffffffffffffffffffffffffff167f8c5be1e5ebec7d5bd14f71427d1e84f3dd0314c0f7b2291e5b200ac8c7c3b92560405160405180910390a45050565b6000611222826110ea565b611261576040517f08c379a000000000000000000000000000000000000000000000000000000000815260040161125890612539565b60405180910390fd5b600061126c8361077d565b90508073ffffffffffffffffffffffffffffffffffffffff168473ffffffffffffffffffffffffffffffffffffffff1614806112db57508373ffffffffffffffffffffffffffffffffffffffff166112c384610560565b73ffffffffffffffffffffffffffffffffffffffff16145b806112ec57506112eb8185610fec565b5b91505092915050565b6000611336576040517f08c379a000000000000000000000000000000000000000000000000000000000815260040161132d906124f9565b60405180910390fd5b505050565b6001816000016000828254019250508190555050565b600081600001549050919050565b600073ffffffffffffffffffffffffffffffffffffffff168273ffffffffffffffffffffffffffffffffffffffff1614156113cf576040517f08c379a00000000000000000000000000000000000000000000000000000000081526004016113c6906125d9565b60405180910390fd5b6113d8816110ea565b15611418576040517f08c379a000000000000000000000000000000000000000000000000000000000815260040161140f906124d9565b60405180910390fd5b6114246000838361170e565b6001600360008473ffffffffffffffffffffffffffffffffffffffff1673ffffffffffffffffffffffffffffffffffffffff168152602001908152602001600020600082825461147491906127ad565b92505081905550816002600083815260200190815260200160002060006101000a81548173ffffffffffffffffffffffffffffffffffffffff021916908373ffffffffffffffffffffffffffffffffffffffff160217905550808273ffffffffffffffffffffffffffffffffffffffff16600073ffffffffffffffffffffffffffffffffffffffff167fddf252ad1be2c89b69c2b068fc378daa952ba7f163c4a11628f55a4df523b3ef60405160405180910390a45050565b611536826110ea565b611575576040517f08c379a000000000000000000000000000000000000000000000000000000000815260040161156c906125b9565b60405180910390fd5b8060066000848152602001908152602001600020908051906020019061159c929190611b7b565b505050565b6115aa81611713565b60006006600083815260200190815260200160002080546115ca9061291e565b9050146115f1576006600082815260200190815260200160002060006115f09190611c01565b5b50565b6115ff8484846112f5565b61160b84848484611824565b61164a576040517f08c379a0000000000000000000000000000000000000000000000000000000008152600401611641906124b9565b60405180910390fd5b50505050565b606060405180602001604052806000815250905090565b6060611672826110ea565b6116b1576040517f08c379a00000000000000000000000000000000000000000000000000000000081526004016116a890612639565b60405180910390fd5b60006116bb611650565b905060008151116116db5760405180602001604052806000815250611706565b806116e5846119bb565b6040516020016116f692919061237a565b6040516020818303038152906040525b915050919050565b505050565b600061171e8261077d565b905061172c8160008461170e565b61173760008361115e565b6001600360008373ffffffffffffffffffffffffffffffffffffffff1673ffffffffffffffffffffffffffffffffffffffff16815260200190815260200160002060008282546117879190612834565b925050819055506002600083815260200190815260200160002060006101000a81549073ffffffffffffffffffffffffffffffffffffffff021916905581600073ffffffffffffffffffffffffffffffffffffffff168273ffffffffffffffffffffffffffffffffffffffff167fddf252ad1be2c89b69c2b068fc378daa952ba7f163c4a11628f55a4df523b3ef60405160405180910390a45050565b60006118458473ffffffffffffffffffffffffffffffffffffffff16611b68565b156119ae578373ffffffffffffffffffffffffffffffffffffffff1663150b7a0261186e611156565b8786866040518563ffffffff1660e01b815260040161189094939291906123b9565b602060405180830381600087803b1580156118aa57600080fd5b505af19250505080156118db57506040513d601f19601f820116820180604052508101906118d89190611fb5565b60015b61195e573d806000811461190b576040519150601f19603f3d011682016040523d82523d6000602084013e611910565b606091505b50600081511415611956576040517f08c379a000000000000000000000000000000000000000000000000000000000815260040161194d906124b9565b60405180910390fd5b805181602001fd5b63150b7a0260e01b7bffffffffffffffffffffffffffffffffffffffffffffffffffffffff1916817bffffffffffffffffffffffffffffffffffffffffffffffffffffffff1916149150506119b3565b600190505b949350505050565b60606000821415611a03576040518060400160405280600181526020017f30000000000000000000000000000000000000000000000000000000000000008152509050611b63565b600082905060005b60008214611a35578080611a1e90612981565b915050600a82611a2e9190612803565b9150611a0b565b60008167ffffffffffffffff811115611a77577f4e487b7100000000000000000000000000000000000000000000000000000000600052604160045260246000fd5b6040519080825280601f01601f191660200182016040528015611aa95781602001600182028036833780820191505090505b5090505b60008514611b5c57600182611ac29190612834565b9150600a85611ad191906129ca565b6030611add91906127ad565b60f81b818381518110611b19577f4e487b7100000000000000000000000000000000000000000000000000000000600052603260045260246000fd5b60200101907effffffffffffffffffffffffffffffffffffffffffffffffffffffffffffff1916908160001a905350600a85611b559190612803565b9450611aad565b8093505050505b919050565b600080823b905060008111915050919050565b828054611b879061291e565b90600052602060002090601f016020900481019282611ba95760008555611bf0565b82601f10611bc257805160ff1916838001178555611bf0565b82800160010185558215611bf0579182015b82811115611bef578251825591602001919060010190611bd4565b5b509050611bfd9190611c41565b5090565b508054611c0d9061291e565b6000825580601f10611c1f5750611c3e565b601f016020900490600052602060002090810190611c3d9190611c41565b5b50565b5b80821115611c5a576000816000905550600101611c42565b5090565b6000611c71611c6c84612739565b612714565b905082815260208101848484011115611c8957600080fd5b611c948482856128dc565b509392505050565b600081359050611cab81612f72565b92915050565b600081359050611cc081612f89565b92915050565b600081359050611cd581612fa0565b92915050565b600081519050611cea81612fa0565b92915050565b600082601f830112611d0157600080fd5b8135611d11848260208601611c5e565b91505092915050565b60008083601f840112611d2c57600080fd5b8235905067ffffffffffffffff811115611d4557600080fd5b602083019150836001820283011115611d5d57600080fd5b9250929050565b600081359050611d7381612fb7565b92915050565b600060208284031215611d8b57600080fd5b6000611d9984828501611c9c565b91505092915050565b60008060408385031215611db557600080fd5b6000611dc385828601611c9c565b9250506020611dd485828601611c9c565b9150509250929050565b600080600060608486031215611df357600080fd5b6000611e0186828701611c9c565b9350506020611e1286828701611c9c565b9250506040611e2386828701611d64565b9150509250925092565b60008060008060808587031215611e4357600080fd5b6000611e5187828801611c9c565b9450506020611e6287828801611c9c565b9350506040611e7387828801611d64565b925050606085013567ffffffffffffffff811115611e9057600080fd5b611e9c87828801611cf0565b91505092959194509250565b60008060408385031215611ebb57600080fd5b6000611ec985828601611c9c565b9250506020611eda85828601611cb1565b9150509250929050565b60008060408385031215611ef757600080fd5b6000611f0585828601611c9c565b9250506020611f1685828601611d64565b9150509250929050565b60008060008060608587031215611f3657600080fd5b6000611f4487828801611c9c565b9450506020611f5587828801611d64565b935050604085013567ffffffffffffffff811115611f7257600080fd5b611f7e87828801611d1a565b925092505092959194509250565b600060208284031215611f9e57600080fd5b6000611fac84828501611cc6565b91505092915050565b600060208284031215611fc757600080fd5b6000611fd584828501611cdb565b91505092915050565b600060208284031215611ff057600080fd5b6000611ffe84828501611d64565b91505092915050565b61201081612868565b82525050565b61201f8161287a565b82525050565b60006120308261276a565b61203a8185612780565b935061204a8185602086016128eb565b61205381612ab7565b840191505092915050565b600061206a8385612791565b93506120778385846128dc565b61208083612ab7565b840190509392505050565b600061209682612775565b6120a08185612791565b93506120b08185602086016128eb565b6120b981612ab7565b840191505092915050565b60006120cf82612775565b6120d981856127a2565b93506120e98185602086016128eb565b80840191505092915050565b6000612102603283612791565b915061210d82612ac8565b604082019050919050565b6000612125601c83612791565b915061213082612b17565b602082019050919050565b6000612148601c83612791565b915061215382612b40565b602082019050919050565b600061216b601983612791565b915061217682612b69565b602082019050919050565b600061218e602c83612791565b915061219982612b92565b604082019050919050565b60006121b1603883612791565b91506121bc82612be1565b604082019050919050565b60006121d4602a83612791565b91506121df82612c30565b604082019050919050565b60006121f7602983612791565b915061220282612c7f565b604082019050919050565b600061221a602e83612791565b915061222582612cce565b604082019050919050565b600061223d602083612791565b915061224882612d1d565b602082019050919050565b6000612260603183612791565b915061226b82612d46565b604082019050919050565b6000612283602c83612791565b915061228e82612d95565b604082019050919050565b60006122a6602f83612791565b91506122b182612de4565b604082019050919050565b60006122c9602183612791565b91506122d482612e33565b604082019050919050565b60006122ec603183612791565b91506122f782612e82565b604082019050919050565b600061230f601983612791565b915061231a82612ed1565b602082019050919050565b6000612332601883612791565b915061233d82612efa565b602082019050919050565b6000612355602283612791565b915061236082612f23565b604082019050919050565b612374816128d2565b82525050565b600061238682856120c4565b915061239282846120c4565b91508190509392505050565b60006020820190506123b36000830184612007565b92915050565b60006080820190506123ce6000830187612007565b6123db6020830186612007565b6123e8604083018561236b565b81810360608301526123fa8184612025565b905095945050505050565b600060408201905061241a6000830185612007565b6124276020830184612016565b9392505050565b60006080820190506124436000830188612007565b612450602083018761236b565b61245d604083018661236b565b818103606083015261247081848661205e565b90509695505050505050565b60006020820190506124916000830184612016565b92915050565b600060208201905081810360008301526124b1818461208b565b905092915050565b600060208201905081810360008301526124d2816120f5565b9050919050565b600060208201905081810360008301526124f281612118565b9050919050565b600060208201905081810360008301526125128161213b565b9050919050565b600060208201905081810360008301526125328161215e565b9050919050565b6000602082019050818103600083015261255281612181565b9050919050565b60006020820190508181036000830152612572816121a4565b9050919050565b60006020820190508181036000830152612592816121c7565b9050919050565b600060208201905081810360008301526125b2816121ea565b9050919050565b600060208201905081810360008301526125d28161220d565b9050919050565b600060208201905081810360008301526125f281612230565b9050919050565b6000602082019050818103600083015261261281612253565b9050919050565b6000602082019050818103600083015261263281612276565b9050919050565b6000602082019050818103600083015261265281612299565b9050919050565b60006020820190508181036000830152612672816122bc565b9050919050565b60006020820190508181036000830152612692816122df565b9050919050565b600060208201905081810360008301526126b281612302565b9050919050565b600060208201905081810360008301526126d281612325565b9050919050565b600060208201905081810360008301526126f281612348565b9050919050565b600060208201905061270e600083018461236b565b92915050565b600061271e61272f565b905061272a8282612950565b919050565b6000604051905090565b600067ffffffffffffffff82111561275457612753612a88565b5b61275d82612ab7565b9050602081019050919050565b600081519050919050565b600081519050919050565b600082825260208201905092915050565b600082825260208201905092915050565b600081905092915050565b60006127b8826128d2565b91506127c3836128d2565b9250827fffffffffffffffffffffffffffffffffffffffffffffffffffffffffffffffff038211156127f8576127f76129fb565b5b828201905092915050565b600061280e826128d2565b9150612819836128d2565b92508261282957612828612a2a565b5b828204905092915050565b600061283f826128d2565b915061284a836128d2565b92508282101561285d5761285c6129fb565b5b828203905092915050565b6000612873826128b2565b9050919050565b60008115159050919050565b60007fffffffff0000000000000000000000000000000000000000000000000000000082169050919050565b600073ffffffffffffffffffffffffffffffffffffffff82169050919050565b6000819050919050565b82818337600083830152505050565b60005b838110156129095780820151818401526020810190506128ee565b83811115612918576000848401525b50505050565b6000600282049050600182168061293657607f821691505b6020821081141561294a57612949612a59565b5b50919050565b61295982612ab7565b810181811067ffffffffffffffff8211171561297857612977612a88565b5b80604052505050565b600061298c826128d2565b91507fffffffffffffffffffffffffffffffffffffffffffffffffffffffffffffffff8214156129bf576129be6129fb565b5b600182019050919050565b60006129d5826128d2565b91506129e0836128d2565b9250826129f0576129ef612a2a565b5b828206905092915050565b7f4e487b7100000000000000000000000000000000000000000000000000000000600052601160045260246000fd5b7f4e487b7100000000000000000000000000000000000000000000000000000000600052601260045260246000fd5b7f4e487b7100000000000000000000000000000000000000000000000000000000600052602260045260246000fd5b7f4e487b7100000000000000000000000000000000000000000000000000000000600052604160045260246000fd5b6000601f19601f8301169050919050565b7f4552433732313a207472616e7366657220746f206e6f6e20455243373231526560008201527f63656976657220696d706c656d656e7465720000000000000000000000000000602082015250565b7f4552433732313a20746f6b656e20616c7265616479206d696e74656400000000600082015250565b7f42616467657320617265206e6f6e2d7472616e736665727261626c6500000000600082015250565b7f4552433732313a20617070726f766520746f2063616c6c657200000000000000600082015250565b7f4552433732313a206f70657261746f7220717565727920666f72206e6f6e657860008201527f697374656e7420746f6b656e0000000000000000000000000000000000000000602082015250565b7f4552433732313a20617070726f76652063616c6c6572206973206e6f74206f7760008201527f6e6572206e6f7220617070726f76656420666f7220616c6c0000000000000000602082015250565b7f4552433732313a2062616c616e636520717565727920666f7220746865207a6560008201527f726f206164647265737300000000000000000000000000000000000000000000602082015250565b7f4552433732313a206f776e657220717565727920666f72206e6f6e657869737460008201527f656e7420746f6b656e0000000000000000000000000000000000000000000000602082015250565b7f45524337323155524953746f726167653a2055524920736574206f66206e6f6e60008201527f6578697374656e7420746f6b656e000000000000000000000000000000000000602082015250565b7f4552433732313a206d696e7420746f20746865207a65726f2061646472657373600082015250565b7f45524337323155524953746f726167653a2055524920717565727920666f722060008201527f6e6f6e6578697374656e7420746f6b656e000000000000000000000000000000602082015250565b7f4552433732313a20617070726f76656420717565727920666f72206e6f6e657860008201527f697374656e7420746f6b656e0000000000000000000000000000000000000000602082015250565b7f4552433732314d657461646174613a2055524920717565727920666f72206e6f60008201527f6e6578697374656e7420746f6b656e0000000000000000000000000000000000602082015250565b7f4552433732313a20617070726f76616c20746f2063757272656e74206f776e6560008201527f7200000000000000000000000000000000000000000000000000000000000000602082015250565b7f4552433732313a207472616e736665722063616c6c6572206973206e6f74206f60008201527f776e6572206e6f7220617070726f766564000000000000000000000000000000602082015250565b7f4f6e6c79206f776e65722063616e206275726e20626164676500000000000000600082015250565b7f4e6f7420616c6c6f776564206166746572203720646179730000000000000000600082015250565b7f4f6e6c7920656e746974792063616e206163636573732074686973206d65746860008201527f6f64000000000000000000000000000000000000000000000000000000000000602082015250565b612f7b81612868565b8114612f8657600080fd5b50565b612f928161287a565b8114612f9d57600080fd5b50565b612fa981612886565b8114612fb457600080fd5b50565b612fc0816128d2565b8114612fcb57600080fd5b5056fea26469706673582212209e56b88eab6c20e3e804e6c825f68246690c39f74e9d08d53ac22c3b73626e7b64736f6c63430008040033a2646970667358221220b5d7960e51d887d2f2e854345675557ae556537dd3360b4ae2043e08fde4cf8a64736f6c63430008040033",
  "linkReferences": {},
  "deployedLinkReferences": {}
}