{
  "_format": "hh-sol-artifact-1",
  "contractName": "Entity",
  "sourceName": "contracts/Entity.sol",
  "abi": [
    {
      "inputs": [
        {
          "internalType": "string",
          "name": "_entityName",
          "type": "string"
        }
      ],
      "stateMutability": "nonpayable",
      "type": "constructor"
    },
    {
      "anonymous": false,
      "inputs": [
        {
          "indexed": false,
          "internalType": "address",
          "name": "entityAddress",
          "type": "address"
        },
        {
          "indexed": false,
          "internalType": "string",
          "name": "entityName",
          "type": "string"
        },
        {
          "indexed": false,
          "internalType": "address",
          "name": "genesisTokenHolder",
          "type": "address"
        }
      ],
      "name": "EntityDeployed",
      "type": "event"
    },
    {
      "inputs": [],
      "name": "badgeContract",
      "outputs": [
        {
          "internalType": "address",
          "name": "",
          "type": "address"
        }
      ],
      "stateMutability": "view",
      "type": "function"
    },
    {
      "inputs": [],
      "name": "demeritPoints",
      "outputs": [
        {
          "internalType": "uint256",
          "name": "_value",
          "type": "uint256"
        }
      ],
      "stateMutability": "view",
      "type": "function"
    },
    {
      "inputs": [],
      "name": "entityName",
      "outputs": [
        {
          "internalType": "string",
          "name": "",
          "type": "string"
        }
      ],
      "stateMutability": "view",
      "type": "function"
    },
    {
      "inputs": [],
      "name": "getDemeritPoints",
      "outputs": [
        {
          "internalType": "uint256",
          "name": "",
          "type": "uint256"
        }
      ],
      "stateMutability": "view",
      "type": "function"
    },
    {
      "inputs": [],
      "name": "incrementDemeritPoints",
      "outputs": [],
      "stateMutability": "payable",
      "type": "function"
    },
    {
      "inputs": [],
      "name": "permissionContract",
      "outputs": [
        {
          "internalType": "address",
          "name": "",
          "type": "address"
        }
      ],
      "stateMutability": "view",
      "type": "function"
    },
    {
      "inputs": [
        {
          "internalType": "address",
          "name": "",
          "type": "address"
        }
      ],
      "name": "permissionTokenHolders",
      "outputs": [
        {
          "internalType": "enum Entity.PermissionTokenType",
          "name": "",
          "type": "uint8"
        }
      ],
      "stateMutability": "view",
      "type": "function"
    },
    {
      "inputs": [
        {
          "internalType": "address",
          "name": "_address",
          "type": "address"
        }
      ],
      "name": "setBadgeTokenAddress",
      "outputs": [],
      "stateMutability": "nonpayable",
      "type": "function"
    },
    {
      "inputs": [
        {
          "internalType": "address",
          "name": "_address",
          "type": "address"
        }
      ],
      "name": "setPermTokenAddress",
      "outputs": [],
      "stateMutability": "nonpayable",
      "type": "function"
    }
  ],
  "bytecode": "0x60806040526000600260146101000a81548160ff0219169083151502179055506000600360146101000a81548160ff0219169083151502179055503480156200004757600080fd5b50604051620015123803806200151283398181016040528101906200006d91906200055f565b620000b96040518060400160405280601481526020017f4465706c6f796564206e657720656e746974793a000000000000000000000000815250826200012960201b620007081760201c565b8060009080519060200190620000d19291906200043d565b50620000e5336002620001cf60201b60201c565b7fcf2cb25dfc1dfff1e34e799b424a6b365a57020ef199ebb3ad06a7c7779e461b3082336040516200011a939291906200061d565b60405180910390a150620008a7565b620001cb82826040516024016200014292919062000661565b6040516020818303038152906040527f4b5c4277000000000000000000000000000000000000000000000000000000007bffffffffffffffffffffffffffffffffffffffffffffffffffffffff19166020820180517bffffffffffffffffffffffffffffffffffffffffffffffffffffffff83818316178352505050506200041460201b60201c565b5050565b600060028111156200020a577f4e487b7100000000000000000000000000000000000000000000000000000000600052602160045260246000fd5b81600281111562000244577f4e487b7100000000000000000000000000000000000000000000000000000000600052602160045260246000fd5b1480620002c357506001600281111562000287577f4e487b7100000000000000000000000000000000000000000000000000000000600052602160045260246000fd5b816002811115620002c1577f4e487b7100000000000000000000000000000000000000000000000000000000600052602160045260246000fd5b145b8062000340575060028081111562000304577f4e487b7100000000000000000000000000000000000000000000000000000000600052602160045260246000fd5b8160028111156200033e577f4e487b7100000000000000000000000000000000000000000000000000000000600052602160045260246000fd5b145b62000382576040517f08c379a000000000000000000000000000000000000000000000000000000000815260040162000379906200069c565b60405180910390fd5b80600160008473ffffffffffffffffffffffffffffffffffffffff1673ffffffffffffffffffffffffffffffffffffffff16815260200190815260200160002060006101000a81548160ff021916908360028111156200040b577f4e487b7100000000000000000000000000000000000000000000000000000000600052602160045260246000fd5b02179055505050565b60008151905060006a636f6e736f6c652e6c6f679050602083016000808483855afa5050505050565b8280546200044b90620007a3565b90600052602060002090601f0160209004810192826200046f5760008555620004bb565b82601f106200048a57805160ff1916838001178555620004bb565b82800160010185558215620004bb579182015b82811115620004ba5782518255916020019190600101906200049d565b5b509050620004ca9190620004ce565b5090565b5b80821115620004e9576000816000905550600101620004cf565b5090565b600062000504620004fe84620006e7565b620006be565b9050828152602081018484840111156200051d57600080fd5b6200052a8482856200076d565b509392505050565b600082601f8301126200054457600080fd5b815162000556848260208601620004ed565b91505092915050565b6000602082840312156200057257600080fd5b600082015167ffffffffffffffff8111156200058d57600080fd5b6200059b8482850162000532565b91505092915050565b620005af8162000739565b82525050565b6000620005c2826200071d565b620005ce818562000728565b9350620005e08185602086016200076d565b620005eb816200086d565b840191505092915050565b600062000605601d8362000728565b915062000612826200087e565b602082019050919050565b6000606082019050620006346000830186620005a4565b8181036020830152620006488185620005b5565b9050620006596040830184620005a4565b949350505050565b600060408201905081810360008301526200067d8185620005b5565b90508181036020830152620006938184620005b5565b90509392505050565b60006020820190508181036000830152620006b781620005f6565b9050919050565b6000620006ca620006dd565b9050620006d88282620007d9565b919050565b6000604051905090565b600067ffffffffffffffff8211156200070557620007046200083e565b5b62000710826200086d565b9050602081019050919050565b600081519050919050565b600082825260208201905092915050565b600062000746826200074d565b9050919050565b600073ffffffffffffffffffffffffffffffffffffffff82169050919050565b60005b838110156200078d57808201518184015260208101905062000770565b838111156200079d576000848401525b50505050565b60006002820490506001821680620007bc57607f821691505b60208210811415620007d357620007d26200080f565b5b50919050565b620007e4826200086d565b810181811067ffffffffffffffff821117156200080657620008056200083e565b5b80604052505050565b7f4e487b7100000000000000000000000000000000000000000000000000000000600052602260045260246000fd5b7f4e487b7100000000000000000000000000000000000000000000000000000000600052604160045260246000fd5b6000601f19601f8301169050919050565b7f496e76616c6964207065726d697373696f6e20746f6b656e2074797065000000600082015250565b610c5b80620008b76000396000f3fe6080604052600436106100865760003560e01c80638d6d4925116100595780638d6d49251461014557806394047ad414610170578063a64e73a21461019b578063d53cb718146101c6578063deccb091146101f157610086565b8063131af5001461008b5780633c0514f1146100b6578063732cd86a146100f357806377c1753a1461011c575b600080fd5b34801561009757600080fd5b506100a06101fb565b6040516100ad9190610934565b60405180910390f35b3480156100c257600080fd5b506100dd60048036038101906100d89190610806565b610289565b6040516100ea9190610919565b60405180910390f35b3480156100ff57600080fd5b5061011a60048036038101906101159190610806565b6102a9565b005b34801561012857600080fd5b50610143600480360381019061013e9190610806565b610456565b005b34801561015157600080fd5b5061015a610603565b60405161016791906108fe565b60405180910390f35b34801561017c57600080fd5b50610185610629565b60405161019291906109ed565b60405180910390f35b3480156101a757600080fd5b506101b061063a565b6040516101bd91906109ed565b60405180910390f35b3480156101d257600080fd5b506101db610646565b6040516101e891906108fe565b60405180910390f35b6101f961066c565b005b6000805461020890610ab8565b80601f016020809104026020016040519081016040528092919081815260200182805461023490610ab8565b80156102815780601f1061025657610100808354040283529160200191610281565b820191906000526020600020905b81548152906001019060200180831161026457829003601f168201915b505050505081565b60016020528060005260406000206000915054906101000a900460ff1681565b6002808111156102e2577f4e487b7100000000000000000000000000000000000000000000000000000000600052602160045260246000fd5b600160003373ffffffffffffffffffffffffffffffffffffffff1673ffffffffffffffffffffffffffffffffffffffff16815260200190815260200160002060009054906101000a900460ff166002811115610367577f4e487b7100000000000000000000000000000000000000000000000000000000600052602160045260246000fd5b146103a7576040517f08c379a000000000000000000000000000000000000000000000000000000000815260040161039e9061098d565b60405180910390fd5b600360149054906101000a900460ff16156103f7576040517f08c379a00000000000000000000000000000000000000000000000000000000081526004016103ee906109ad565b60405180910390fd5b80600360006101000a81548173ffffffffffffffffffffffffffffffffffffffff021916908373ffffffffffffffffffffffffffffffffffffffff1602179055506001600360146101000a81548160ff02191690831515021790555050565b60028081111561048f577f4e487b7100000000000000000000000000000000000000000000000000000000600052602160045260246000fd5b600160003373ffffffffffffffffffffffffffffffffffffffff1673ffffffffffffffffffffffffffffffffffffffff16815260200190815260200160002060009054906101000a900460ff166002811115610514577f4e487b7100000000000000000000000000000000000000000000000000000000600052602160045260246000fd5b14610554576040517f08c379a000000000000000000000000000000000000000000000000000000000815260040161054b9061098d565b60405180910390fd5b600260149054906101000a900460ff16156105a4576040517f08c379a000000000000000000000000000000000000000000000000000000000815260040161059b906109ad565b60405180910390fd5b80600260006101000a81548173ffffffffffffffffffffffffffffffffffffffff021916908373ffffffffffffffffffffffffffffffffffffffff1602179055506001600260146101000a81548160ff02191690831515021790555050565b600260009054906101000a900473ffffffffffffffffffffffffffffffffffffffff1681565b600061063560046107a4565b905090565b60048060000154905081565b600360009054906101000a900473ffffffffffffffffffffffffffffffffffffffff1681565b600260009054906101000a900473ffffffffffffffffffffffffffffffffffffffff1673ffffffffffffffffffffffffffffffffffffffff163373ffffffffffffffffffffffffffffffffffffffff16146106fc576040517f08c379a00000000000000000000000000000000000000000000000000000000081526004016106f3906109cd565b60405180910390fd5b61070660046107b2565b565b6107a0828260405160240161071e929190610956565b6040516020818303038152906040527f4b5c4277000000000000000000000000000000000000000000000000000000007bffffffffffffffffffffffffffffffffffffffffffffffffffffffff19166020820180517bffffffffffffffffffffffffffffffffffffffffffffffffffffffff83818316178352505050506107c8565b5050565b600081600001549050919050565b6001816000016000828254019250508190555050565b60008151905060006a636f6e736f6c652e6c6f679050602083016000808483855afa5050505050565b60008135905061080081610c0e565b92915050565b60006020828403121561081857600080fd5b6000610826848285016107f1565b91505092915050565b61083881610a24565b82525050565b61084781610a73565b82525050565b600061085882610a08565b6108628185610a13565b9350610872818560208601610a85565b61087b81610b48565b840191505092915050565b6000610893601783610a13565b915061089e82610b59565b602082019050919050565b60006108b6600b83610a13565b91506108c182610b82565b602082019050919050565b60006108d9602d83610a13565b91506108e482610bab565b604082019050919050565b6108f881610a69565b82525050565b6000602082019050610913600083018461082f565b92915050565b600060208201905061092e600083018461083e565b92915050565b6000602082019050818103600083015261094e818461084d565b905092915050565b60006040820190508181036000830152610970818561084d565b90508181036020830152610984818461084d565b90509392505050565b600060208201905081810360008301526109a681610886565b9050919050565b600060208201905081810360008301526109c6816108a9565b9050919050565b600060208201905081810360008301526109e6816108cc565b9050919050565b6000602082019050610a0260008301846108ef565b92915050565b600081519050919050565b600082825260208201905092915050565b6000610a2f82610a49565b9050919050565b6000819050610a4482610bfa565b919050565b600073ffffffffffffffffffffffffffffffffffffffff82169050919050565b6000819050919050565b6000610a7e82610a36565b9050919050565b60005b83811015610aa3578082015181840152602081019050610a88565b83811115610ab2576000848401525b50505050565b60006002820490506001821680610ad057607f821691505b60208210811415610ae457610ae3610b19565b5b50919050565b7f4e487b7100000000000000000000000000000000000000000000000000000000600052602160045260246000fd5b7f4e487b7100000000000000000000000000000000000000000000000000000000600052602260045260246000fd5b6000601f19601f8301169050919050565b7f47656e2070726976696c65676573207265717569726564000000000000000000600082015250565b7f416c726561647920736574000000000000000000000000000000000000000000600082015250565b7f4f6e6c7920626164676520746f6b656e2063616e20696e6372656d656e74206460008201527f656d6572697420706f696e747300000000000000000000000000000000000000602082015250565b60038110610c0b57610c0a610aea565b5b50565b610c1781610a24565b8114610c2257600080fd5b5056fea2646970667358221220913bdc042fccebdf1baa3ad77bee79106b283cedebc0ba7642d16118ce5281ed64736f6c63430008040033",
  "linkReferences": {},
  "deployedLinkReferences": {}
}