{
  "_format": "hh-sol-artifact-1",
  "contractName": "Entity",
  "sourceName": "contracts/Entity.sol",
  "abi": [
    {
      "inputs": [
        {
          "internalType": "string",
          "name": "_entityName",
          "type": "string"
        }
      ],
      "stateMutability": "nonpayable",
      "type": "constructor"
    },
    {
      "inputs": [
        {
          "internalType": "address",
          "name": "userAddress",
          "type": "address"
        },
        {
          "internalType": "address",
          "name": "assigningAddress",
          "type": "address"
        },
        {
          "internalType": "address",
          "name": "badgeAddress",
          "type": "address"
        }
      ],
      "name": "assignBasicUser",
      "outputs": [],
      "stateMutability": "nonpayable",
      "type": "function"
    },
    {
      "inputs": [
        {
          "internalType": "address",
          "name": "userAddress",
          "type": "address"
        },
        {
          "internalType": "address",
          "name": "assigningAddress",
          "type": "address"
        },
        {
          "internalType": "address",
          "name": "badgeAddress",
          "type": "address"
        }
      ],
      "name": "assignSuperUser",
      "outputs": [],
      "stateMutability": "nonpayable",
      "type": "function"
    },
    {
      "inputs": [
        {
          "internalType": "address",
          "name": "",
          "type": "address"
        }
      ],
      "name": "basicUsers",
      "outputs": [
        {
          "internalType": "address",
          "name": "assigner",
          "type": "address"
        },
        {
          "internalType": "bool",
          "name": "exists",
          "type": "bool"
        }
      ],
      "stateMutability": "view",
      "type": "function"
    },
    {
      "inputs": [
        {
          "internalType": "address",
          "name": "userAddress",
          "type": "address"
        },
        {
          "internalType": "enum TokenType",
          "name": "tokenType",
          "type": "uint8"
        }
      ],
      "name": "doesUserExist",
      "outputs": [
        {
          "internalType": "bool",
          "name": "",
          "type": "bool"
        }
      ],
      "stateMutability": "view",
      "type": "function"
    },
    {
      "inputs": [],
      "name": "entityName",
      "outputs": [
        {
          "internalType": "string",
          "name": "",
          "type": "string"
        }
      ],
      "stateMutability": "view",
      "type": "function"
    },
    {
      "inputs": [],
      "name": "genesisUserAddress",
      "outputs": [
        {
          "internalType": "address",
          "name": "",
          "type": "address"
        }
      ],
      "stateMutability": "view",
      "type": "function"
    },
    {
      "inputs": [
        {
          "internalType": "address",
          "name": "",
          "type": "address"
        }
      ],
      "name": "superUsers",
      "outputs": [
        {
          "internalType": "address",
          "name": "assigner",
          "type": "address"
        },
        {
          "internalType": "bool",
          "name": "exists",
          "type": "bool"
        }
      ],
      "stateMutability": "view",
      "type": "function"
    }
  ],
  "bytecode": "0x60806040523480156200001157600080fd5b5060405162001492380380620014928339818101604052810190620000379190620002dd565b60016000819055506200008b6040518060400160405280601481526020017f4465706c6f796564206e657720656e746974793a00000000000000000000000081525082620000ec60201b620009a41760201c565b8060019080519060200190620000a3929190620001bb565b5033600260006101000a81548173ffffffffffffffffffffffffffffffffffffffff021916908373ffffffffffffffffffffffffffffffffffffffff160217905550506200052a565b6200018e82826040516024016200010592919062000363565b6040516020818303038152906040527f4b5c4277000000000000000000000000000000000000000000000000000000007bffffffffffffffffffffffffffffffffffffffffffffffffffffffff19166020820180517bffffffffffffffffffffffffffffffffffffffffffffffffffffffff83818316178352505050506200019260201b60201c565b5050565b60008151905060006a636f6e736f6c652e6c6f679050602083016000808483855afa5050505050565b828054620001c9906200044f565b90600052602060002090601f016020900481019282620001ed576000855562000239565b82601f106200020857805160ff191683800117855562000239565b8280016001018555821562000239579182015b82811115620002385782518255916020019190600101906200021b565b5b5090506200024891906200024c565b5090565b5b80821115620002675760008160009055506001016200024d565b5090565b6000620002826200027c84620003c7565b6200039e565b9050828152602081018484840111156200029b57600080fd5b620002a884828562000419565b509392505050565b600082601f830112620002c257600080fd5b8151620002d48482602086016200026b565b91505092915050565b600060208284031215620002f057600080fd5b600082015167ffffffffffffffff8111156200030b57600080fd5b6200031984828501620002b0565b91505092915050565b60006200032f82620003fd565b6200033b818562000408565b93506200034d81856020860162000419565b620003588162000519565b840191505092915050565b600060408201905081810360008301526200037f818562000322565b9050818103602083015262000395818462000322565b90509392505050565b6000620003aa620003bd565b9050620003b8828262000485565b919050565b6000604051905090565b600067ffffffffffffffff821115620003e557620003e4620004ea565b5b620003f08262000519565b9050602081019050919050565b600081519050919050565b600082825260208201905092915050565b60005b83811015620004395780820151818401526020810190506200041c565b8381111562000449576000848401525b50505050565b600060028204905060018216806200046857607f821691505b602082108114156200047f576200047e620004bb565b5b50919050565b620004908262000519565b810181811067ffffffffffffffff82111715620004b257620004b1620004ea565b5b80604052505050565b7f4e487b7100000000000000000000000000000000000000000000000000000000600052602260045260246000fd5b7f4e487b7100000000000000000000000000000000000000000000000000000000600052604160045260246000fd5b6000601f19601f8301169050919050565b610f58806200053a6000396000f3fe608060405234801561001057600080fd5b506004361061007d5760003560e01c8063a2d29be01161005b578063a2d29be0146100ef578063a73430331461010b578063a781cf331461013c578063b27ba6431461016c5761007d565b8063131af50014610082578063654dcefa146100a05780636701d6cd146100d1575b600080fd5b61008a610188565b6040516100979190610cbf565b60405180910390f35b6100ba60048036038101906100b59190610abd565b610216565b6040516100c8929190610c7b565b60405180910390f35b6100d9610267565b6040516100e69190610c60565b60405180910390f35b61010960048036038101906101049190610ae6565b61028d565b005b61012560048036038101906101209190610abd565b6104b2565b604051610133929190610c7b565b60405180910390f35b61015660048036038101906101519190610b35565b610503565b6040516101639190610ca4565b60405180910390f35b61018660048036038101906101819190610ae6565b61077f565b005b6001805461019590610e09565b80601f01602080910402602001604051908101604052809291908181526020018280546101c190610e09565b801561020e5780601f106101e35761010080835404028352916020019161020e565b820191906000526020600020905b8154815290600101906020018083116101f157829003601f168201915b505050505081565b60036020528060005260406000206000915090508060000160009054906101000a900473ffffffffffffffffffffffffffffffffffffffff16908060000160149054906101000a900460ff16905082565b600260009054906101000a900473ffffffffffffffffffffffffffffffffffffffff1681565b600260005414156102d3576040517f08c379a00000000000000000000000000000000000000000000000000000000081526004016102ca90610d38565b60405180910390fd5b60026000819055508060008190503373ffffffffffffffffffffffffffffffffffffffff168173ffffffffffffffffffffffffffffffffffffffff1663b789e03a6040518163ffffffff1660e01b815260040160206040518083038186803b15801561033e57600080fd5b505afa158015610352573d6000803e3d6000fd5b505050506040513d601f19601f820116820180604052508101906103769190610b9a565b73ffffffffffffffffffffffffffffffffffffffff16146103cc576040517f08c379a00000000000000000000000000000000000000000000000000000000081526004016103c390610d18565b60405180910390fd5b60405180604001604052808573ffffffffffffffffffffffffffffffffffffffff16815260200160011515815250600360008773ffffffffffffffffffffffffffffffffffffffff1673ffffffffffffffffffffffffffffffffffffffff16815260200190815260200160002060008201518160000160006101000a81548173ffffffffffffffffffffffffffffffffffffffff021916908373ffffffffffffffffffffffffffffffffffffffff16021790555060208201518160000160146101000a81548160ff02191690831515021790555090505050506001600081905550505050565b60046020528060005260406000206000915090508060000160009054906101000a900473ffffffffffffffffffffffffffffffffffffffff16908060000160149054906101000a900460ff16905082565b600080600281111561053e577f4e487b7100000000000000000000000000000000000000000000000000000000600052602160045260246000fd5b826002811115610577577f4e487b7100000000000000000000000000000000000000000000000000000000600052602160045260246000fd5b14156105d5578273ffffffffffffffffffffffffffffffffffffffff16600260009054906101000a900473ffffffffffffffffffffffffffffffffffffffff1673ffffffffffffffffffffffffffffffffffffffff16149050610779565b6001600281111561060f577f4e487b7100000000000000000000000000000000000000000000000000000000600052602160045260246000fd5b826002811115610648577f4e487b7100000000000000000000000000000000000000000000000000000000600052602160045260246000fd5b14156106a557600360008473ffffffffffffffffffffffffffffffffffffffff1673ffffffffffffffffffffffffffffffffffffffff16815260200190815260200160002060000160149054906101000a900460ff169050610779565b6002808111156106de577f4e487b7100000000000000000000000000000000000000000000000000000000600052602160045260246000fd5b826002811115610717577f4e487b7100000000000000000000000000000000000000000000000000000000600052602160045260246000fd5b141561077457600460008473ffffffffffffffffffffffffffffffffffffffff1673ffffffffffffffffffffffffffffffffffffffff16815260200190815260200160002060000160149054906101000a900460ff169050610779565b600090505b92915050565b600260005414156107c5576040517f08c379a00000000000000000000000000000000000000000000000000000000081526004016107bc90610d38565b60405180910390fd5b60026000819055508060008190503373ffffffffffffffffffffffffffffffffffffffff168173ffffffffffffffffffffffffffffffffffffffff166356a989416040518163ffffffff1660e01b815260040160206040518083038186803b15801561083057600080fd5b505afa158015610844573d6000803e3d6000fd5b505050506040513d601f19601f820116820180604052508101906108689190610b71565b73ffffffffffffffffffffffffffffffffffffffff16146108be576040517f08c379a00000000000000000000000000000000000000000000000000000000081526004016108b590610d18565b60405180910390fd5b60405180604001604052808573ffffffffffffffffffffffffffffffffffffffff16815260200160011515815250600460008773ffffffffffffffffffffffffffffffffffffffff1673ffffffffffffffffffffffffffffffffffffffff16815260200190815260200160002060008201518160000160006101000a81548173ffffffffffffffffffffffffffffffffffffffff021916908373ffffffffffffffffffffffffffffffffffffffff16021790555060208201518160000160146101000a81548160ff02191690831515021790555090505050506001600081905550505050565b610a3c82826040516024016109ba929190610ce1565b6040516020818303038152906040527f4b5c4277000000000000000000000000000000000000000000000000000000007bffffffffffffffffffffffffffffffffffffffffffffffffffffffff19166020820180517bffffffffffffffffffffffffffffffffffffffffffffffffffffffff8381831617835250505050610a40565b5050565b60008151905060006a636f6e736f6c652e6c6f679050602083016000808483855afa5050505050565b600081359050610a7881610ecd565b92915050565b600081519050610a8d81610ee4565b92915050565b600081519050610aa281610efb565b92915050565b600081359050610ab781610f12565b92915050565b600060208284031215610acf57600080fd5b6000610add84828501610a69565b91505092915050565b600080600060608486031215610afb57600080fd5b6000610b0986828701610a69565b9350506020610b1a86828701610a69565b9250506040610b2b86828701610a69565b9150509250925092565b60008060408385031215610b4857600080fd5b6000610b5685828601610a69565b9250506020610b6785828601610aa8565b9150509250929050565b600060208284031215610b8357600080fd5b6000610b9184828501610a7e565b91505092915050565b600060208284031215610bac57600080fd5b6000610bba84828501610a93565b91505092915050565b610bcc81610d74565b82525050565b610bdb81610d86565b82525050565b6000610bec82610d58565b610bf68185610d63565b9350610c06818560208601610dd6565b610c0f81610e6a565b840191505092915050565b6000610c27601e83610d63565b9150610c3282610e7b565b602082019050919050565b6000610c4a601f83610d63565b9150610c5582610ea4565b602082019050919050565b6000602082019050610c756000830184610bc3565b92915050565b6000604082019050610c906000830185610bc3565b610c9d6020830184610bd2565b9392505050565b6000602082019050610cb96000830184610bd2565b92915050565b60006020820190508181036000830152610cd98184610be1565b905092915050565b60006040820190508181036000830152610cfb8185610be1565b90508181036020830152610d0f8184610be1565b90509392505050565b60006020820190508181036000830152610d3181610c1a565b9050919050565b60006020820190508181036000830152610d5181610c3d565b9050919050565b600081519050919050565b600082825260208201905092915050565b6000610d7f82610db6565b9050919050565b60008115159050919050565b6000610d9d82610d74565b9050919050565b6000610daf82610d74565b9050919050565b600073ffffffffffffffffffffffffffffffffffffffff82169050919050565b60005b83811015610df4578082015181840152602081019050610dd9565b83811115610e03576000848401525b50505050565b60006002820490506001821680610e2157607f821691505b60208210811415610e3557610e34610e3b565b5b50919050565b7f4e487b7100000000000000000000000000000000000000000000000000000000600052602260045260246000fd5b6000601f19601f8301169050919050565b7f53656e646572206973206e6f74207375706572207573657220746f6b656e0000600082015250565b7f5265656e7472616e637947756172643a207265656e7472616e742063616c6c00600082015250565b610ed681610d74565b8114610ee157600080fd5b50565b610eed81610d92565b8114610ef857600080fd5b50565b610f0481610da4565b8114610f0f57600080fd5b50565b60038110610f1f57600080fd5b5056fea264697066735822122059b58bc6e6672b048661a0e7b3ac4b9e3b552eacb9f8b206439564d7d511be8864736f6c63430008040033",
  "linkReferences": {},
  "deployedLinkReferences": {}
}