{
  "_format": "hh-sol-artifact-1",
  "contractName": "Entity",
  "sourceName": "contracts/Entity.sol",
  "abi": [
    {
      "inputs": [
        {
          "internalType": "string",
          "name": "_entityName",
          "type": "string"
        },
        {
          "internalType": "address",
          "name": "_badgeRegistry",
          "type": "address"
        },
        {
          "internalType": "address",
          "name": "_badgeContract",
          "type": "address"
        },
        {
          "internalType": "address",
          "name": "_permissionContract",
          "type": "address"
        }
      ],
      "stateMutability": "nonpayable",
      "type": "constructor"
    },
    {
      "inputs": [
        {
          "internalType": "address",
          "name": "_holder",
          "type": "address"
        },
        {
          "internalType": "string",
          "name": "_tokenURI",
          "type": "string"
        }
      ],
      "name": "assignGenesisTokenHolder",
      "outputs": [],
      "stateMutability": "nonpayable",
      "type": "function"
    },
    {
      "inputs": [],
      "name": "badgeContract",
      "outputs": [
        {
          "internalType": "address",
          "name": "",
          "type": "address"
        }
      ],
      "stateMutability": "view",
      "type": "function"
    },
    {
      "inputs": [],
      "name": "badgeRegistry",
      "outputs": [
        {
          "internalType": "address",
          "name": "",
          "type": "address"
        }
      ],
      "stateMutability": "view",
      "type": "function"
    },
    {
      "inputs": [],
      "name": "demeritPoints",
      "outputs": [
        {
          "internalType": "uint256",
          "name": "_value",
          "type": "uint256"
        }
      ],
      "stateMutability": "view",
      "type": "function"
    },
    {
      "inputs": [],
      "name": "entityName",
      "outputs": [
        {
          "internalType": "string",
          "name": "",
          "type": "string"
        }
      ],
      "stateMutability": "view",
      "type": "function"
    },
    {
      "inputs": [],
      "name": "getDemeritPoints",
      "outputs": [
        {
          "internalType": "uint256",
          "name": "",
          "type": "uint256"
        }
      ],
      "stateMutability": "view",
      "type": "function"
    },
    {
      "inputs": [],
      "name": "incrementDemeritPoints",
      "outputs": [],
      "stateMutability": "payable",
      "type": "function"
    },
    {
      "inputs": [],
      "name": "permissionContract",
      "outputs": [
        {
          "internalType": "address",
          "name": "",
          "type": "address"
        }
      ],
      "stateMutability": "view",
      "type": "function"
    },
    {
      "inputs": [
        {
          "internalType": "address",
          "name": "",
          "type": "address"
        }
      ],
      "name": "permissionTokenHolders",
      "outputs": [
        {
          "internalType": "enum Entity.PermissionTokenType",
          "name": "permType",
          "type": "uint8"
        },
        {
          "internalType": "uint256",
          "name": "permissionId",
          "type": "uint256"
        }
      ],
      "stateMutability": "view",
      "type": "function"
    },
    {
      "inputs": [
        {
          "internalType": "address",
          "name": "_contract",
          "type": "address"
        }
      ],
      "name": "setUpgradedEntityContract",
      "outputs": [],
      "stateMutability": "nonpayable",
      "type": "function"
    },
    {
      "inputs": [],
      "name": "upgradedContract",
      "outputs": [
        {
          "internalType": "address",
          "name": "",
          "type": "address"
        }
      ],
      "stateMutability": "view",
      "type": "function"
    }
  ],
  "bytecode": "0x60806040523480156200001157600080fd5b50604051620015c8380380620015c8833981810160405281019062000037919062000371565b620000836040518060400160405280601481526020017f4465706c6f796564206e657720656e746974793a000000000000000000000000815250856200016960201b6200065d1760201c565b83600090805190602001906200009b92919062000238565b5082600260006101000a81548173ffffffffffffffffffffffffffffffffffffffff021916908373ffffffffffffffffffffffffffffffffffffffff16021790555081600360006101000a81548173ffffffffffffffffffffffffffffffffffffffff021916908373ffffffffffffffffffffffffffffffffffffffff16021790555080600460006101000a81548173ffffffffffffffffffffffffffffffffffffffff021916908373ffffffffffffffffffffffffffffffffffffffff160217905550505050506200064c565b6200020b82826040516024016200018292919062000437565b6040516020818303038152906040527f4b5c4277000000000000000000000000000000000000000000000000000000007bffffffffffffffffffffffffffffffffffffffffffffffffffffffff19166020820180517bffffffffffffffffffffffffffffffffffffffffffffffffffffffff83818316178352505050506200020f60201b60201c565b5050565b60008151905060006a636f6e736f6c652e6c6f679050602083016000808483855afa5050505050565b828054620002469062000557565b90600052602060002090601f0160209004810192826200026a5760008555620002b6565b82601f106200028557805160ff1916838001178555620002b6565b82800160010185558215620002b6579182015b82811115620002b557825182559160200191906001019062000298565b5b509050620002c59190620002c9565b5090565b5b80821115620002e4576000816000905550600101620002ca565b5090565b6000620002ff620002f9846200049b565b62000472565b9050828152602081018484840111156200031857600080fd5b6200032584828562000521565b509392505050565b6000815190506200033e8162000632565b92915050565b600082601f8301126200035657600080fd5b815162000368848260208601620002e8565b91505092915050565b600080600080608085870312156200038857600080fd5b600085015167ffffffffffffffff811115620003a357600080fd5b620003b18782880162000344565b9450506020620003c4878288016200032d565b9350506040620003d7878288016200032d565b9250506060620003ea878288016200032d565b91505092959194509250565b60006200040382620004d1565b6200040f8185620004dc565b93506200042181856020860162000521565b6200042c8162000621565b840191505092915050565b60006040820190508181036000830152620004538185620003f6565b90508181036020830152620004698184620003f6565b90509392505050565b60006200047e62000491565b90506200048c82826200058d565b919050565b6000604051905090565b600067ffffffffffffffff821115620004b957620004b8620005f2565b5b620004c48262000621565b9050602081019050919050565b600081519050919050565b600082825260208201905092915050565b6000620004fa8262000501565b9050919050565b600073ffffffffffffffffffffffffffffffffffffffff82169050919050565b60005b838110156200054157808201518184015260208101905062000524565b8381111562000551576000848401525b50505050565b600060028204905060018216806200057057607f821691505b60208210811415620005875762000586620005c3565b5b50919050565b620005988262000621565b810181811067ffffffffffffffff82111715620005ba57620005b9620005f2565b5b80604052505050565b7f4e487b7100000000000000000000000000000000000000000000000000000000600052602260045260246000fd5b7f4e487b7100000000000000000000000000000000000000000000000000000000600052604160045260246000fd5b6000601f19601f8301169050919050565b6200063d81620004ed565b81146200064957600080fd5b50565b610f6c806200065c6000396000f3fe60806040526004361061009c5760003560e01c806394047ad41161006457806394047ad414610189578063a64e73a2146101b4578063cf9238c8146101df578063d53cb71814610208578063deccb09114610233578063ea3e7cef1461023d5761009c565b8063131af500146100a15780633c0514f1146100cc57806353b8e2781461010a578063841a49b3146101355780638d6d49251461015e575b600080fd5b3480156100ad57600080fd5b506100b6610268565b6040516100c39190610b69565b60405180910390f35b3480156100d857600080fd5b506100f360048036038101906100ee9190610980565b6102f6565b604051610101929190610b40565b60405180910390f35b34801561011657600080fd5b5061011f610327565b60405161012c9190610af5565b60405180910390f35b34801561014157600080fd5b5061015c60048036038101906101579190610980565b61034d565b005b34801561016a57600080fd5b50610173610492565b6040516101809190610af5565b60405180910390f35b34801561019557600080fd5b5061019e6104b8565b6040516101ab9190610c22565b60405180910390f35b3480156101c057600080fd5b506101c96104c9565b6040516101d69190610c22565b60405180910390f35b3480156101eb57600080fd5b50610206600480360381019061020191906109a9565b6104d5565b005b34801561021457600080fd5b5061021d610575565b60405161022a9190610af5565b60405180910390f35b61023b61059b565b005b34801561024957600080fd5b50610252610637565b60405161025f9190610af5565b60405180910390f35b6000805461027590610d52565b80601f01602080910402602001604051908101604052809291908181526020018280546102a190610d52565b80156102ee5780601f106102c3576101008083540402835291602001916102ee565b820191906000526020600020905b8154815290600101906020018083116102d157829003601f168201915b505050505081565b60016020528060005260406000206000915090508060000160009054906101000a900460ff16908060010154905082565b600560009054906101000a900473ffffffffffffffffffffffffffffffffffffffff1681565b600280811115610386577f4e487b7100000000000000000000000000000000000000000000000000000000600052602160045260246000fd5b600160003373ffffffffffffffffffffffffffffffffffffffff1673ffffffffffffffffffffffffffffffffffffffff16815260200190815260200160002060000160009054906101000a900460ff16600281111561040e577f4e487b7100000000000000000000000000000000000000000000000000000000600052602160045260246000fd5b1461044e576040517f08c379a000000000000000000000000000000000000000000000000000000000815260040161044590610bc2565b60405180910390fd5b80600560006101000a81548173ffffffffffffffffffffffffffffffffffffffff021916908373ffffffffffffffffffffffffffffffffffffffff16021790555050565b600360009054906101000a900473ffffffffffffffffffffffffffffffffffffffff1681565b60006104c460066106f9565b905090565b60068060000154905081565b600260009054906101000a900473ffffffffffffffffffffffffffffffffffffffff1673ffffffffffffffffffffffffffffffffffffffff163373ffffffffffffffffffffffffffffffffffffffff1614610565576040517f08c379a000000000000000000000000000000000000000000000000000000000815260040161055c90610be2565b60405180910390fd5b61057182600283610707565b5050565b600460009054906101000a900473ffffffffffffffffffffffffffffffffffffffff1681565b600360009054906101000a900473ffffffffffffffffffffffffffffffffffffffff1673ffffffffffffffffffffffffffffffffffffffff163373ffffffffffffffffffffffffffffffffffffffff161461062b576040517f08c379a000000000000000000000000000000000000000000000000000000000815260040161062290610c02565b60405180910390fd5b61063560066108af565b565b600260009054906101000a900473ffffffffffffffffffffffffffffffffffffffff1681565b6106f58282604051602401610673929190610b8b565b6040516020818303038152906040527f4b5c4277000000000000000000000000000000000000000000000000000000007bffffffffffffffffffffffffffffffffffffffffffffffffffffffff19166020820180517bffffffffffffffffffffffffffffffffffffffffffffffffffffffff83818316178352505050506108c5565b5050565b600081600001549050919050565b6000600460009054906101000a900473ffffffffffffffffffffffffffffffffffffffff1673ffffffffffffffffffffffffffffffffffffffff16633d02d0c985846040518363ffffffff1660e01b8152600401610766929190610b10565b602060405180830381600087803b15801561078057600080fd5b505af1158015610794573d6000803e3d6000fd5b505050506040513d601f19601f820116820180604052508101906107b891906109fd565b905060405180604001604052808460028111156107fe577f4e487b7100000000000000000000000000000000000000000000000000000000600052602160045260246000fd5b815260200182815250600160008673ffffffffffffffffffffffffffffffffffffffff1673ffffffffffffffffffffffffffffffffffffffff16815260200190815260200160002060008201518160000160006101000a81548160ff02191690836002811115610897577f4e487b7100000000000000000000000000000000000000000000000000000000600052602160045260246000fd5b02179055506020820151816001015590505050505050565b6001816000016000828254019250508190555050565b60008151905060006a636f6e736f6c652e6c6f679050602083016000808483855afa5050505050565b60006109016108fc84610c62565b610c3d565b90508281526020810184848401111561091957600080fd5b610924848285610d10565b509392505050565b60008135905061093b81610f08565b92915050565b600082601f83011261095257600080fd5b81356109628482602086016108ee565b91505092915050565b60008151905061097a81610f1f565b92915050565b60006020828403121561099257600080fd5b60006109a08482850161092c565b91505092915050565b600080604083850312156109bc57600080fd5b60006109ca8582860161092c565b925050602083013567ffffffffffffffff8111156109e757600080fd5b6109f385828601610941565b9150509250929050565b600060208284031215610a0f57600080fd5b6000610a1d8482850161096b565b91505092915050565b610a2f81610caf565b82525050565b610a3e81610cfe565b82525050565b6000610a4f82610c93565b610a598185610c9e565b9350610a69818560208601610d1f565b610a7281610e42565b840191505092915050565b6000610a8a601783610c9e565b9150610a9582610e53565b602082019050919050565b6000610aad601b83610c9e565b9150610ab882610e7c565b602082019050919050565b6000610ad0602d83610c9e565b9150610adb82610ea5565b604082019050919050565b610aef81610cf4565b82525050565b6000602082019050610b0a6000830184610a26565b92915050565b6000604082019050610b256000830185610a26565b8181036020830152610b378184610a44565b90509392505050565b6000604082019050610b556000830185610a35565b610b626020830184610ae6565b9392505050565b60006020820190508181036000830152610b838184610a44565b905092915050565b60006040820190508181036000830152610ba58185610a44565b90508181036020830152610bb98184610a44565b90509392505050565b60006020820190508181036000830152610bdb81610a7d565b9050919050565b60006020820190508181036000830152610bfb81610aa0565b9050919050565b60006020820190508181036000830152610c1b81610ac3565b9050919050565b6000602082019050610c376000830184610ae6565b92915050565b6000610c47610c58565b9050610c538282610d84565b919050565b6000604051905090565b600067ffffffffffffffff821115610c7d57610c7c610e13565b5b610c8682610e42565b9050602081019050919050565b600081519050919050565b600082825260208201905092915050565b6000610cba82610cd4565b9050919050565b6000819050610ccf82610ef4565b919050565b600073ffffffffffffffffffffffffffffffffffffffff82169050919050565b6000819050919050565b6000610d0982610cc1565b9050919050565b82818337600083830152505050565b60005b83811015610d3d578082015181840152602081019050610d22565b83811115610d4c576000848401525b50505050565b60006002820490506001821680610d6a57607f821691505b60208210811415610d7e57610d7d610de4565b5b50919050565b610d8d82610e42565b810181811067ffffffffffffffff82111715610dac57610dab610e13565b5b80604052505050565b7f4e487b7100000000000000000000000000000000000000000000000000000000600052602160045260246000fd5b7f4e487b7100000000000000000000000000000000000000000000000000000000600052602260045260246000fd5b7f4e487b7100000000000000000000000000000000000000000000000000000000600052604160045260246000fd5b6000601f19601f8301169050919050565b7f47656e2070726976696c65676573207265717569726564000000000000000000600082015250565b7f4f6e6c792072656769737472792063616e2063616c6c20746869730000000000600082015250565b7f4f6e6c7920626164676520746f6b656e2063616e20696e6372656d656e74206460008201527f656d6572697420706f696e747300000000000000000000000000000000000000602082015250565b60038110610f0557610f04610db5565b5b50565b610f1181610caf565b8114610f1c57600080fd5b50565b610f2881610cf4565b8114610f3357600080fd5b5056fea264697066735822122015660b961835ac8f045eed851fdbbaee9941b0a8cf8893e4d5287af7e8e74d6164736f6c63430008040033",
  "linkReferences": {},
  "deployedLinkReferences": {}
}