{
  "_format": "hh-sol-artifact-1",
  "contractName": "EntityFactory",
  "sourceName": "contracts/EntityFactory.sol",
  "abi": [
    {
      "inputs": [
        {
          "internalType": "address",
          "name": "_badgeRegistry",
          "type": "address"
        }
      ],
      "stateMutability": "nonpayable",
      "type": "constructor"
    },
    {
      "anonymous": false,
      "inputs": [
        {
          "indexed": false,
          "internalType": "string",
          "name": "entityName",
          "type": "string"
        },
        {
          "indexed": false,
          "internalType": "address",
          "name": "entityAddress",
          "type": "address"
        }
      ],
      "name": "EntityDeployed",
      "type": "event"
    },
    {
      "inputs": [],
      "name": "badgeRegistry",
      "outputs": [
        {
          "internalType": "address",
          "name": "",
          "type": "address"
        }
      ],
      "stateMutability": "view",
      "type": "function"
    },
    {
      "inputs": [
        {
          "internalType": "string",
          "name": "entityName",
          "type": "string"
        },
        {
          "internalType": "address",
          "name": "genesisUser",
          "type": "address"
        },
        {
          "internalType": "string",
          "name": "genesisTokenURI",
          "type": "string"
        }
      ],
      "name": "createEntity",
      "outputs": [
        {
          "internalType": "address",
          "name": "",
          "type": "address"
        }
      ],
      "stateMutability": "nonpayable",
      "type": "function"
    }
  ],
  "bytecode": "0x608060405234801561001057600080fd5b506040516123e63803806123e68339818101604052810190610032919061008d565b806000806101000a81548173ffffffffffffffffffffffffffffffffffffffff021916908373ffffffffffffffffffffffffffffffffffffffff160217905550506100ff565b600081519050610087816100e8565b92915050565b60006020828403121561009f57600080fd5b60006100ad84828501610078565b91505092915050565b60006100c1826100c8565b9050919050565b600073ffffffffffffffffffffffffffffffffffffffff82169050919050565b6100f1816100b6565b81146100fc57600080fd5b50565b6122d88061010e6000396000f3fe60806040523480156200001157600080fd5b50600436106200003a5760003560e01c8063d08f5b36146200003f578063ea3e7cef1462000075575b600080fd5b6200005d60048036038101906200005791906200026c565b62000097565b6040516200006c919062000369565b60405180910390f35b6200007f620001d6565b6040516200008e919062000369565b60405180910390f35b60008060009054906101000a900473ffffffffffffffffffffffffffffffffffffffff1673ffffffffffffffffffffffffffffffffffffffff163373ffffffffffffffffffffffffffffffffffffffff16146200012b576040517f08c379a00000000000000000000000000000000000000000000000000000000081526004016200012290620003bc565b60405180910390fd5b6000868660008054906101000a900473ffffffffffffffffffffffffffffffffffffffff166040516200015e90620001fa565b6200016c9392919062000386565b604051809103906000f08015801562000189573d6000803e3d6000fd5b5090507f9b26724132675794c7d3a369b539baad138a229996e7a7965c9fdba35218ce42878783604051620001c19392919062000386565b60405180910390a18091505095945050505050565b60008054906101000a900473ffffffffffffffffffffffffffffffffffffffff1681565b611df680620004ad83390190565b600081359050620002198162000492565b92915050565b60008083601f8401126200023257600080fd5b8235905067ffffffffffffffff8111156200024c57600080fd5b6020830191508360018202830111156200026557600080fd5b9250929050565b6000806000806000606086880312156200028557600080fd5b600086013567ffffffffffffffff811115620002a057600080fd5b620002ae888289016200021f565b95509550506020620002c38882890162000208565b935050604086013567ffffffffffffffff811115620002e157600080fd5b620002ef888289016200021f565b92509250509295509295909350565b6200030981620003ef565b82525050565b60006200031d8385620003de565b93506200032c83858462000423565b620003378362000432565b840190509392505050565b600062000351602183620003de565b91506200035e8262000443565b604082019050919050565b6000602082019050620003806000830184620002fe565b92915050565b60006040820190508181036000830152620003a38185876200030f565b9050620003b46020830184620002fe565b949350505050565b60006020820190508181036000830152620003d78162000342565b9050919050565b600082825260208201905092915050565b6000620003fc8262000403565b9050919050565b600073ffffffffffffffffffffffffffffffffffffffff82169050919050565b82818337600083830152505050565b6000601f19601f8301169050919050565b7f4f6e6c792062616467652072656769737472792063616e2063616c6c2074686960008201527f7300000000000000000000000000000000000000000000000000000000000000602082015250565b6200049d81620003ef565b8114620004a957600080fd5b5056fe60806040523480156200001157600080fd5b5060405162001df638038062001df6833981810160405281019062000037919062000500565b620000836040518060400160405280601481526020017f4465706c6f796564206e657720656e746974793a000000000000000000000000815250836200037c60201b62000b191760201c565b80600160006101000a81548173ffffffffffffffffffffffffffffffffffffffff021916908373ffffffffffffffffffffffffffffffffffffffff16021790555060008173ffffffffffffffffffffffffffffffffffffffff16631e93e3976040518163ffffffff1660e01b815260040160206040518083038186803b1580156200010d57600080fd5b505afa15801562000122573d6000803e3d6000fd5b505050506040513d601f19601f82011682018060405250810190620001489190620004d4565b90508073ffffffffffffffffffffffffffffffffffffffff16637c744971846040518263ffffffff1660e01b81526004016200018591906200059b565b602060405180830381600087803b158015620001a057600080fd5b505af1158015620001b5573d6000803e3d6000fd5b505050506040513d601f19601f82011682018060405250810190620001db9190620004d4565b600260006101000a81548173ffffffffffffffffffffffffffffffffffffffff021916908373ffffffffffffffffffffffffffffffffffffffff16021790555060008273ffffffffffffffffffffffffffffffffffffffff166327a462fe6040518163ffffffff1660e01b815260040160206040518083038186803b1580156200026457600080fd5b505afa15801562000279573d6000803e3d6000fd5b505050506040513d601f19601f820116820180604052508101906200029f9190620004d4565b90508073ffffffffffffffffffffffffffffffffffffffff16634bad7fe7856040518263ffffffff1660e01b8152600401620002dc91906200059b565b602060405180830381600087803b158015620002f757600080fd5b505af11580156200030c573d6000803e3d6000fd5b505050506040513d601f19601f82011682018060405250810190620003329190620004d4565b600460006101000a81548173ffffffffffffffffffffffffffffffffffffffff021916908373ffffffffffffffffffffffffffffffffffffffff160217905550505050506200076f565b6200041e828260405160240162000395929190620005bf565b6040516020818303038152906040527f4b5c4277000000000000000000000000000000000000000000000000000000007bffffffffffffffffffffffffffffffffffffffffffffffffffffffff19166020820180517bffffffffffffffffffffffffffffffffffffffffffffffffffffffff83818316178352505050506200042260201b60201c565b5050565b60008151905060006a636f6e736f6c652e6c6f679050602083016000808483855afa5050505050565b6000620004626200045c8462000623565b620005fa565b9050828152602081018484840111156200047b57600080fd5b62000488848285620006a9565b509392505050565b600081519050620004a18162000755565b92915050565b600082601f830112620004b957600080fd5b8151620004cb8482602086016200044b565b91505092915050565b600060208284031215620004e757600080fd5b6000620004f78482850162000490565b91505092915050565b600080604083850312156200051457600080fd5b600083015167ffffffffffffffff8111156200052f57600080fd5b6200053d85828601620004a7565b9250506020620005508582860162000490565b9150509250929050565b6000620005678262000659565b62000573818562000664565b935062000585818560208601620006a9565b620005908162000744565b840191505092915050565b60006020820190508181036000830152620005b781846200055a565b905092915050565b60006040820190508181036000830152620005db81856200055a565b90508181036020830152620005f181846200055a565b90509392505050565b60006200060662000619565b9050620006148282620006df565b919050565b6000604051905090565b600067ffffffffffffffff82111562000641576200064062000715565b5b6200064c8262000744565b9050602081019050919050565b600081519050919050565b600082825260208201905092915050565b6000620006828262000689565b9050919050565b600073ffffffffffffffffffffffffffffffffffffffff82169050919050565b60005b83811015620006c9578082015181840152602081019050620006ac565b83811115620006d9576000848401525b50505050565b620006ea8262000744565b810181811067ffffffffffffffff821117156200070c576200070b62000715565b5b80604052505050565b7f4e487b7100000000000000000000000000000000000000000000000000000000600052604160045260246000fd5b6000601f19601f8301169050919050565b620007608162000675565b81146200076c57600080fd5b50565b611677806200077f6000396000f3fe6080604052600436106100915760003560e01c8063a64e73a211610059578063a64e73a21461016e578063cbc3b15914610199578063deccb091146101c4578063ea3e7cef146101db578063fea4a76f1461020657610091565b80630a7d5e67146100965780633c0514f1146100c15780634dfb5c81146100fe57806374afd8021461012757806394047ad414610143575b600080fd5b3480156100a257600080fd5b506100ab610231565b6040516100b89190611190565b60405180910390f35b3480156100cd57600080fd5b506100e860048036038101906100e39190610ea0565b61025b565b6040516100f59190611270565b60405180910390f35b34801561010a57600080fd5b5061012560048036038101906101209190610ef2565b61027b565b005b610141600480360381019061013c9190610f5e565b6103cf565b005b34801561014f57600080fd5b506101586109ee565b6040516101659190611382565b60405180910390f35b34801561017a57600080fd5b506101836109ff565b6040516101909190611382565b60405180910390f35b3480156101a557600080fd5b506101ae610a0b565b6040516101bb9190611190565b60405180910390f35b3480156101d057600080fd5b506101d9610a31565b005b3480156101e757600080fd5b506101f0610acd565b6040516101fd9190611190565b60405180910390f35b34801561021257600080fd5b5061021b610af3565b6040516102289190611190565b60405180910390f35b6000600160009054906101000a900473ffffffffffffffffffffffffffffffffffffffff16905090565b60006020528060005260406000206000915054906101000a900460ff1681565b60008060003373ffffffffffffffffffffffffffffffffffffffff1673ffffffffffffffffffffffffffffffffffffffff16815260200190815260200160002060009054906101000a900460ff169050836002811115610304577f4e487b7100000000000000000000000000000000000000000000000000000000600052602160045260246000fd5b81600281111561033d577f4e487b7100000000000000000000000000000000000000000000000000000000600052602160045260246000fd5b1161037d576040517f08c379a0000000000000000000000000000000000000000000000000000000008152600401610374906112c2565b60405180910390fd5b61038985858585610bb5565b7fcc2456bddba4f26e55cd6e849428c370420610a5032aaef28f1bd9cec471001930338388886040516103c09594939291906111ab565b60405180910390a15050505050565b60006002811115610409577f4e487b7100000000000000000000000000000000000000000000000000000000600052602160045260246000fd5b6000803373ffffffffffffffffffffffffffffffffffffffff1673ffffffffffffffffffffffffffffffffffffffff16815260200190815260200160002060009054906101000a900460ff16600281111561048d577f4e487b7100000000000000000000000000000000000000000000000000000000600052602160045260246000fd5b14806105545750600160028111156104ce577f4e487b7100000000000000000000000000000000000000000000000000000000600052602160045260246000fd5b6000803373ffffffffffffffffffffffffffffffffffffffff1673ffffffffffffffffffffffffffffffffffffffff16815260200190815260200160002060009054906101000a900460ff166002811115610552577f4e487b7100000000000000000000000000000000000000000000000000000000600052602160045260246000fd5b145b806106195750600280811115610593577f4e487b7100000000000000000000000000000000000000000000000000000000600052602160045260246000fd5b6000803373ffffffffffffffffffffffffffffffffffffffff1673ffffffffffffffffffffffffffffffffffffffff16815260200190815260200160002060009054906101000a900460ff166002811115610617577f4e487b7100000000000000000000000000000000000000000000000000000000600052602160045260246000fd5b145b610658576040517f08c379a000000000000000000000000000000000000000000000000000000000815260040161064f906112e2565b60405180910390fd5b600083101561069c576040517f08c379a000000000000000000000000000000000000000000000000000000000815260040161069390611362565b60405180910390fd5b6000600160009054906101000a900473ffffffffffffffffffffffffffffffffffffffff1673ffffffffffffffffffffffffffffffffffffffff1663cb6e390c856040518263ffffffff1660e01b81526004016106f99190611382565b60206040518083038186803b15801561071157600080fd5b505afa158015610725573d6000803e3d6000fd5b505050506040513d601f19601f820116820180604052508101906107499190610fca565b90508034101561078e576040517f08c379a000000000000000000000000000000000000000000000000000000000815260040161078590611302565b60405180910390fd5b6000600160009054906101000a900473ffffffffffffffffffffffffffffffffffffffff1673ffffffffffffffffffffffffffffffffffffffff166368bc573e6040518163ffffffff1660e01b815260040160206040518083038186803b1580156107f857600080fd5b505afa15801561080c573d6000803e3d6000fd5b505050506040513d601f19601f820116820180604052508101906108309190610ec9565b905060008173ffffffffffffffffffffffffffffffffffffffff16836040516108589061117b565b60006040518083038185875af1925050503d8060008114610895576040519150601f19603f3d011682016040523d82523d6000602084013e61089a565b606091505b50509050806108de576040517f08c379a00000000000000000000000000000000000000000000000000000000081526004016108d590611322565b60405180910390fd5b600260009054906101000a900473ffffffffffffffffffffffffffffffffffffffff1673ffffffffffffffffffffffffffffffffffffffff166374afd802888888886040518563ffffffff1660e01b815260040161093f9493929190611230565b600060405180830381600087803b15801561095957600080fd5b505af115801561096d573d6000803e3d6000fd5b50505050610979610cf9565b73ffffffffffffffffffffffffffffffffffffffff166394bf804d87896040518363ffffffff1660e01b81526004016109b392919061139d565b600060405180830381600087803b1580156109cd57600080fd5b505af11580156109e1573d6000803e3d6000fd5b5050505050505050505050565b60006109fa6003610da0565b905090565b60038060000154905081565b600460009054906101000a900473ffffffffffffffffffffffffffffffffffffffff1681565b600260009054906101000a900473ffffffffffffffffffffffffffffffffffffffff1673ffffffffffffffffffffffffffffffffffffffff163373ffffffffffffffffffffffffffffffffffffffff1614610ac1576040517f08c379a0000000000000000000000000000000000000000000000000000000008152600401610ab890611342565b60405180910390fd5b610acb6003610dae565b565b600160009054906101000a900473ffffffffffffffffffffffffffffffffffffffff1681565b600260009054906101000a900473ffffffffffffffffffffffffffffffffffffffff1681565b610bb18282604051602401610b2f92919061128b565b6040516020818303038152906040527f4b5c4277000000000000000000000000000000000000000000000000000000007bffffffffffffffffffffffffffffffffffffffffffffffffffffffff19166020820180517bffffffffffffffffffffffffffffffffffffffffffffffffffffffff8381831617835250505050610dc4565b5050565b826000808673ffffffffffffffffffffffffffffffffffffffff1673ffffffffffffffffffffffffffffffffffffffff16815260200190815260200160002060006101000a81548160ff02191690836002811115610c3c577f4e487b7100000000000000000000000000000000000000000000000000000000600052602160045260246000fd5b0217905550600460009054906101000a900473ffffffffffffffffffffffffffffffffffffffff1673ffffffffffffffffffffffffffffffffffffffff16639ad98cd68584846040518463ffffffff1660e01b8152600401610ca0939291906111fe565b602060405180830381600087803b158015610cba57600080fd5b505af1158015610cce573d6000803e3d6000fd5b505050506040513d601f19601f82011682018060405250810190610cf29190610fca565b5050505050565b6000600160009054906101000a900473ffffffffffffffffffffffffffffffffffffffff1673ffffffffffffffffffffffffffffffffffffffff1663a59cf7e16040518163ffffffff1660e01b815260040160206040518083038186803b158015610d6357600080fd5b505afa158015610d77573d6000803e3d6000fd5b505050506040513d601f19601f82011682018060405250810190610d9b9190610ec9565b905090565b600081600001549050919050565b6001816000016000828254019250508190555050565b60008151905060006a636f6e736f6c652e6c6f679050602083016000808483855afa5050505050565b600081359050610dfc81611603565b92915050565b600081519050610e1181611603565b92915050565b600081359050610e268161161a565b92915050565b60008083601f840112610e3e57600080fd5b8235905067ffffffffffffffff811115610e5757600080fd5b602083019150836001820283011115610e6f57600080fd5b9250929050565b600081359050610e858161162a565b92915050565b600081519050610e9a8161162a565b92915050565b600060208284031215610eb257600080fd5b6000610ec084828501610ded565b91505092915050565b600060208284031215610edb57600080fd5b6000610ee984828501610e02565b91505092915050565b60008060008060608587031215610f0857600080fd5b6000610f1687828801610ded565b9450506020610f2787828801610e17565b935050604085013567ffffffffffffffff811115610f4457600080fd5b610f5087828801610e2c565b925092505092959194509250565b60008060008060608587031215610f7457600080fd5b6000610f8287828801610ded565b9450506020610f9387828801610e76565b935050604085013567ffffffffffffffff811115610fb057600080fd5b610fbc87828801610e2c565b925092505092959194509250565b600060208284031215610fdc57600080fd5b6000610fea84828501610e8b565b91505092915050565b610ffc816113ed565b82525050565b61100b8161143c565b82525050565b600061101d83856113dc565b935061102a83858461144e565b611033836114bf565b840190509392505050565b6000611049826113c6565b61105381856113dc565b935061106381856020860161145d565b61106c816114bf565b840191505092915050565b6000611084601a836113dc565b915061108f826114d0565b602082019050919050565b60006110a7601d836113dc565b91506110b2826114f9565b602082019050919050565b60006110ca600e836113dc565b91506110d582611522565b602082019050919050565b60006110ed6013836113dc565b91506110f88261154b565b602082019050919050565b60006111106000836113d1565b915061111b82611574565b600082019050919050565b6000611133602d836113dc565b915061113e82611577565b604082019050919050565b6000611156601b836113dc565b9150611161826115c6565b602082019050919050565b61117581611432565b82525050565b600061118682611103565b9150819050919050565b60006020820190506111a56000830184610ff3565b92915050565b600060a0820190506111c06000830188610ff3565b6111cd6020830187610ff3565b6111da6040830186611002565b6111e76060830185610ff3565b6111f46080830184611002565b9695505050505050565b60006040820190506112136000830186610ff3565b8181036020830152611226818486611011565b9050949350505050565b60006060820190506112456000830187610ff3565b611252602083018661116c565b8181036040830152611265818486611011565b905095945050505050565b60006020820190506112856000830184611002565b92915050565b600060408201905081810360008301526112a5818561103e565b905081810360208301526112b9818461103e565b90509392505050565b600060208201905081810360008301526112db81611077565b9050919050565b600060208201905081810360008301526112fb8161109a565b9050919050565b6000602082019050818103600083015261131b816110bd565b9050919050565b6000602082019050818103600083015261133b816110e0565b9050919050565b6000602082019050818103600083015261135b81611126565b9050919050565b6000602082019050818103600083015261137b81611149565b9050919050565b6000602082019050611397600083018461116c565b92915050565b60006040820190506113b2600083018561116c565b6113bf6020830184610ff3565b9392505050565b600081519050919050565b600081905092915050565b600082825260208201905092915050565b60006113f882611412565b9050919050565b600081905061140d826115ef565b919050565b600073ffffffffffffffffffffffffffffffffffffffff82169050919050565b6000819050919050565b6000611447826113ff565b9050919050565b82818337600083830152505050565b60005b8381101561147b578082015181840152602081019050611460565b8381111561148a576000848401525b50505050565b7f4e487b7100000000000000000000000000000000000000000000000000000000600052602160045260246000fd5b6000601f19601f8301169050919050565b7f41737369676e657220686173206e6f207065726d697373696f6e000000000000600082015250565b7f53656e64657220686173206e6f2061646d696e2070726976696c656765000000600082015250565b7f4e6f7420656e6f75676820455448000000000000000000000000000000000000600082015250565b7f43616c6c20746f2073616665206661696c656400000000000000000000000000600082015250565b50565b7f4f6e6c7920626164676520746f6b656e2063616e20696e6372656d656e74206460008201527f656d6572697420706f696e747300000000000000000000000000000000000000602082015250565b7f4c6576656c2063616e6e6f74206265206c657373207468616e20300000000000600082015250565b60038110611600576115ff611490565b5b50565b61160c816113ed565b811461161757600080fd5b50565b6003811061162757600080fd5b50565b61163381611432565b811461163e57600080fd5b5056fea2646970667358221220bdbfb3edc122c19193b4ca716f742fed552968fd419181c84872c96f61def51664736f6c63430008040033a2646970667358221220ef6f7e3beca15ea663893f18c9fbdf2addc3447dc0e38d3f433bd8bbad14ed6964736f6c63430008040033",
  "linkReferences": {},
  "deployedLinkReferences": {}
}