{
  "_format": "hh-sol-artifact-1",
  "contractName": "BasicUserToken",
  "sourceName": "contracts/BasicUserToken.sol",
  "abi": [
    {
      "inputs": [],
      "stateMutability": "nonpayable",
      "type": "constructor"
    },
    {
      "anonymous": false,
      "inputs": [
        {
          "indexed": true,
          "internalType": "address",
          "name": "owner",
          "type": "address"
        },
        {
          "indexed": true,
          "internalType": "address",
          "name": "approved",
          "type": "address"
        },
        {
          "indexed": true,
          "internalType": "uint256",
          "name": "tokenId",
          "type": "uint256"
        }
      ],
      "name": "Approval",
      "type": "event"
    },
    {
      "anonymous": false,
      "inputs": [
        {
          "indexed": true,
          "internalType": "address",
          "name": "owner",
          "type": "address"
        },
        {
          "indexed": true,
          "internalType": "address",
          "name": "operator",
          "type": "address"
        },
        {
          "indexed": false,
          "internalType": "bool",
          "name": "approved",
          "type": "bool"
        }
      ],
      "name": "ApprovalForAll",
      "type": "event"
    },
    {
      "anonymous": false,
      "inputs": [
        {
          "indexed": true,
          "internalType": "address",
          "name": "from",
          "type": "address"
        },
        {
          "indexed": true,
          "internalType": "address",
          "name": "to",
          "type": "address"
        },
        {
          "indexed": true,
          "internalType": "uint256",
          "name": "tokenId",
          "type": "uint256"
        }
      ],
      "name": "Transfer",
      "type": "event"
    },
    {
      "inputs": [
        {
          "internalType": "address",
          "name": "to",
          "type": "address"
        },
        {
          "internalType": "uint256",
          "name": "tokenId",
          "type": "uint256"
        }
      ],
      "name": "approve",
      "outputs": [],
      "stateMutability": "nonpayable",
      "type": "function"
    },
    {
      "inputs": [
        {
          "internalType": "address",
          "name": "owner",
          "type": "address"
        }
      ],
      "name": "balanceOf",
      "outputs": [
        {
          "internalType": "uint256",
          "name": "",
          "type": "uint256"
        }
      ],
      "stateMutability": "view",
      "type": "function"
    },
    {
      "inputs": [
        {
          "internalType": "uint256",
          "name": "tokenId",
          "type": "uint256"
        }
      ],
      "name": "getApproved",
      "outputs": [
        {
          "internalType": "address",
          "name": "",
          "type": "address"
        }
      ],
      "stateMutability": "view",
      "type": "function"
    },
    {
      "inputs": [
        {
          "internalType": "address",
          "name": "owner",
          "type": "address"
        },
        {
          "internalType": "address",
          "name": "operator",
          "type": "address"
        }
      ],
      "name": "isApprovedForAll",
      "outputs": [
        {
          "internalType": "bool",
          "name": "",
          "type": "bool"
        }
      ],
      "stateMutability": "view",
      "type": "function"
    },
    {
      "inputs": [
        {
          "internalType": "string",
          "name": "tokenURI",
          "type": "string"
        },
        {
          "internalType": "address",
          "name": "basicUserAddress",
          "type": "address"
        },
        {
          "internalType": "address",
          "name": "orgAddress",
          "type": "address"
        },
        {
          "internalType": "address",
          "name": "badgeAddress",
          "type": "address"
        }
      ],
      "name": "mintBasicUserToken",
      "outputs": [
        {
          "internalType": "uint256",
          "name": "",
          "type": "uint256"
        }
      ],
      "stateMutability": "payable",
      "type": "function"
    },
    {
      "inputs": [],
      "name": "name",
      "outputs": [
        {
          "internalType": "string",
          "name": "",
          "type": "string"
        }
      ],
      "stateMutability": "view",
      "type": "function"
    },
    {
      "inputs": [
        {
          "internalType": "address",
          "name": "",
          "type": "address"
        },
        {
          "internalType": "address",
          "name": "",
          "type": "address"
        }
      ],
      "name": "orgToOwners",
      "outputs": [
        {
          "internalType": "address",
          "name": "userAddress",
          "type": "address"
        },
        {
          "internalType": "bool",
          "name": "exists",
          "type": "bool"
        }
      ],
      "stateMutability": "view",
      "type": "function"
    },
    {
      "inputs": [
        {
          "internalType": "uint256",
          "name": "tokenId",
          "type": "uint256"
        }
      ],
      "name": "ownerOf",
      "outputs": [
        {
          "internalType": "address",
          "name": "",
          "type": "address"
        }
      ],
      "stateMutability": "view",
      "type": "function"
    },
    {
      "inputs": [
        {
          "internalType": "address",
          "name": "from",
          "type": "address"
        },
        {
          "internalType": "address",
          "name": "to",
          "type": "address"
        },
        {
          "internalType": "uint256",
          "name": "tokenId",
          "type": "uint256"
        }
      ],
      "name": "safeTransferFrom",
      "outputs": [],
      "stateMutability": "nonpayable",
      "type": "function"
    },
    {
      "inputs": [
        {
          "internalType": "address",
          "name": "from",
          "type": "address"
        },
        {
          "internalType": "address",
          "name": "to",
          "type": "address"
        },
        {
          "internalType": "uint256",
          "name": "tokenId",
          "type": "uint256"
        },
        {
          "internalType": "bytes",
          "name": "_data",
          "type": "bytes"
        }
      ],
      "name": "safeTransferFrom",
      "outputs": [],
      "stateMutability": "nonpayable",
      "type": "function"
    },
    {
      "inputs": [
        {
          "internalType": "address",
          "name": "operator",
          "type": "address"
        },
        {
          "internalType": "bool",
          "name": "approved",
          "type": "bool"
        }
      ],
      "name": "setApprovalForAll",
      "outputs": [],
      "stateMutability": "nonpayable",
      "type": "function"
    },
    {
      "inputs": [
        {
          "internalType": "bytes4",
          "name": "interfaceId",
          "type": "bytes4"
        }
      ],
      "name": "supportsInterface",
      "outputs": [
        {
          "internalType": "bool",
          "name": "",
          "type": "bool"
        }
      ],
      "stateMutability": "view",
      "type": "function"
    },
    {
      "inputs": [],
      "name": "symbol",
      "outputs": [
        {
          "internalType": "string",
          "name": "",
          "type": "string"
        }
      ],
      "stateMutability": "view",
      "type": "function"
    },
    {
      "inputs": [
        {
          "internalType": "uint256",
          "name": "tokenId",
          "type": "uint256"
        }
      ],
      "name": "tokenURI",
      "outputs": [
        {
          "internalType": "string",
          "name": "",
          "type": "string"
        }
      ],
      "stateMutability": "view",
      "type": "function"
    },
    {
      "inputs": [
        {
          "internalType": "address",
          "name": "from",
          "type": "address"
        },
        {
          "internalType": "address",
          "name": "to",
          "type": "address"
        },
        {
          "internalType": "uint256",
          "name": "tokenId",
          "type": "uint256"
        }
      ],
      "name": "transferFrom",
      "outputs": [],
      "stateMutability": "nonpayable",
      "type": "function"
    }
  ],
  "bytecode": "0x60806040523480156200001157600080fd5b506040518060400160405280601881526020017f4261646765202d204261736963207573657220746f6b656e00000000000000008152506040518060400160405280600b81526020017f42414447455f4241534943000000000000000000000000000000000000000000815250816000908051906020019062000096929190620000b8565b508060019080519060200190620000af929190620000b8565b505050620001cd565b828054620000c69062000168565b90600052602060002090601f016020900481019282620000ea576000855562000136565b82601f106200010557805160ff191683800117855562000136565b8280016001018555821562000136579182015b828111156200013557825182559160200191906001019062000118565b5b50905062000145919062000149565b5090565b5b80821115620001645760008160009055506001016200014a565b5090565b600060028204905060018216806200018157607f821691505b602082108114156200019857620001976200019e565b5b50919050565b7f4e487b7100000000000000000000000000000000000000000000000000000000600052602260045260246000fd5b6134d080620001dd6000396000f3fe6080604052600436106100e85760003560e01c80636352211e1161008a578063b88d4fde11610059578063b88d4fde14610319578063c87b56dd14610342578063e985e9c51461037f578063fb747fc1146103bc576100e8565b80636352211e1461024b57806370a082311461028857806395d89b41146102c5578063a22cb465146102f0576100e8565b8063095ea7b3116100c6578063095ea7b31461019257806323b872dd146101bb57806342842e0e146101e4578063540dd6941461020d576100e8565b806301ffc9a7146100ed57806306fdde031461012a578063081812fc14610155575b600080fd5b3480156100f957600080fd5b50610114600480360381019061010f919061232a565b6103ec565b6040516101219190612889565b60405180910390f35b34801561013657600080fd5b5061013f6104ce565b60405161014c91906128a4565b60405180910390f35b34801561016157600080fd5b5061017c600480360381019061017791906123f7565b610560565b6040516101899190612799565b60405180910390f35b34801561019e57600080fd5b506101b960048036038101906101b491906122c5565b6105e5565b005b3480156101c757600080fd5b506101e260048036038101906101dd91906121bf565b6106fd565b005b3480156101f057600080fd5b5061020b600480360381019061020691906121bf565b61075d565b005b34801561021957600080fd5b50610234600480360381019061022f9190612183565b61077d565b604051610242929190612837565b60405180910390f35b34801561025757600080fd5b50610272600480360381019061026d91906123f7565b6107db565b60405161027f9190612799565b60405180910390f35b34801561029457600080fd5b506102af60048036038101906102aa9190612131565b61088d565b6040516102bc9190612b06565b60405180910390f35b3480156102d157600080fd5b506102da610945565b6040516102e791906128a4565b60405180910390f35b3480156102fc57600080fd5b5061031760048036038101906103129190612289565b6109d7565b005b34801561032557600080fd5b50610340600480360381019061033b919061220e565b610b58565b005b34801561034e57600080fd5b50610369600480360381019061036491906123f7565b610bba565b60405161037691906128a4565b60405180910390f35b34801561038b57600080fd5b506103a660048036038101906103a19190612183565b610d0c565b6040516103b39190612889565b60405180910390f35b6103d660048036038101906103d1919061237c565b610da0565b6040516103e39190612b06565b60405180910390f35b60007f80ac58cd000000000000000000000000000000000000000000000000000000007bffffffffffffffffffffffffffffffffffffffffffffffffffffffff1916827bffffffffffffffffffffffffffffffffffffffffffffffffffffffff191614806104b757507f5b5e139f000000000000000000000000000000000000000000000000000000007bffffffffffffffffffffffffffffffffffffffffffffffffffffffff1916827bffffffffffffffffffffffffffffffffffffffffffffffffffffffff1916145b806104c757506104c6826111a4565b5b9050919050565b6060600080546104dd90612d81565b80601f016020809104026020016040519081016040528092919081815260200182805461050990612d81565b80156105565780601f1061052b57610100808354040283529160200191610556565b820191906000526020600020905b81548152906001019060200180831161053957829003601f168201915b5050505050905090565b600061056b8261120e565b6105aa576040517f08c379a00000000000000000000000000000000000000000000000000000000081526004016105a190612a26565b60405180910390fd5b6004600083815260200190815260200160002060009054906101000a900473ffffffffffffffffffffffffffffffffffffffff169050919050565b60006105f0826107db565b90508073ffffffffffffffffffffffffffffffffffffffff168373ffffffffffffffffffffffffffffffffffffffff161415610661576040517f08c379a000000000000000000000000000000000000000000000000000000000815260040161065890612aa6565b60405180910390fd5b8073ffffffffffffffffffffffffffffffffffffffff1661068061127a565b73ffffffffffffffffffffffffffffffffffffffff1614806106af57506106ae816106a961127a565b610d0c565b5b6106ee576040517f08c379a00000000000000000000000000000000000000000000000000000000081526004016106e590612966565b60405180910390fd5b6106f88383611282565b505050565b61070e61070861127a565b8261133b565b61074d576040517f08c379a000000000000000000000000000000000000000000000000000000000815260040161074490612ac6565b60405180910390fd5b610758838383611419565b505050565b61077883838360405180602001604052806000815250610b58565b505050565b6008602052816000526040600020602052806000526040600020600091509150508060000160009054906101000a900473ffffffffffffffffffffffffffffffffffffffff16908060000160149054906101000a900460ff16905082565b6000806002600084815260200190815260200160002060009054906101000a900473ffffffffffffffffffffffffffffffffffffffff169050600073ffffffffffffffffffffffffffffffffffffffff168173ffffffffffffffffffffffffffffffffffffffff161415610884576040517f08c379a000000000000000000000000000000000000000000000000000000000815260040161087b906129a6565b60405180910390fd5b80915050919050565b60008073ffffffffffffffffffffffffffffffffffffffff168273ffffffffffffffffffffffffffffffffffffffff1614156108fe576040517f08c379a00000000000000000000000000000000000000000000000000000000081526004016108f590612986565b60405180910390fd5b600360008373ffffffffffffffffffffffffffffffffffffffff1673ffffffffffffffffffffffffffffffffffffffff168152602001908152602001600020549050919050565b60606001805461095490612d81565b80601f016020809104026020016040519081016040528092919081815260200182805461098090612d81565b80156109cd5780601f106109a2576101008083540402835291602001916109cd565b820191906000526020600020905b8154815290600101906020018083116109b057829003601f168201915b5050505050905090565b6109df61127a565b73ffffffffffffffffffffffffffffffffffffffff168273ffffffffffffffffffffffffffffffffffffffff161415610a4d576040517f08c379a0000000000000000000000000000000000000000000000000000000008152600401610a4490612926565b60405180910390fd5b8060056000610a5a61127a565b73ffffffffffffffffffffffffffffffffffffffff1673ffffffffffffffffffffffffffffffffffffffff16815260200190815260200160002060008473ffffffffffffffffffffffffffffffffffffffff1673ffffffffffffffffffffffffffffffffffffffff16815260200190815260200160002060006101000a81548160ff0219169083151502179055508173ffffffffffffffffffffffffffffffffffffffff16610b0761127a565b73ffffffffffffffffffffffffffffffffffffffff167f17307eab39ab6107e8899845ad3d59bd9653f200f220920489ca2b5937696c3183604051610b4c9190612889565b60405180910390a35050565b610b69610b6361127a565b8361133b565b610ba8576040517f08c379a0000000000000000000000000000000000000000000000000000000008152600401610b9f90612ac6565b60405180910390fd5b610bb484848484611675565b50505050565b6060610bc58261120e565b610c04576040517f08c379a0000000000000000000000000000000000000000000000000000000008152600401610bfb90612a06565b60405180910390fd5b6000600660008481526020019081526020016000208054610c2490612d81565b80601f0160208091040260200160405190810160405280929190818152602001828054610c5090612d81565b8015610c9d5780601f10610c7257610100808354040283529160200191610c9d565b820191906000526020600020905b815481529060010190602001808311610c8057829003601f168201915b505050505090506000610cae6116d1565b9050600081511415610cc4578192505050610d07565b600082511115610cf9578082604051602001610ce1929190612775565b60405160208183030381529060405292505050610d07565b610d02846116e8565b925050505b919050565b6000600560008473ffffffffffffffffffffffffffffffffffffffff1673ffffffffffffffffffffffffffffffffffffffff16815260200190815260200160002060008373ffffffffffffffffffffffffffffffffffffffff1673ffffffffffffffffffffffffffffffffffffffff16815260200190815260200160002060009054906101000a900460ff16905092915050565b600082600081905060003373ffffffffffffffffffffffffffffffffffffffff168273ffffffffffffffffffffffffffffffffffffffff16636701d6cd6040518163ffffffff1660e01b815260040160206040518083038186803b158015610e0757600080fd5b505afa158015610e1b573d6000803e3d6000fd5b505050506040513d601f19601f82011682018060405250810190610e3f919061215a565b73ffffffffffffffffffffffffffffffffffffffff1614905060008273ffffffffffffffffffffffffffffffffffffffff1663a781cf333360016040518363ffffffff1660e01b8152600401610e96929190612860565b60206040518083038186803b158015610eae57600080fd5b505afa158015610ec2573d6000803e3d6000fd5b505050506040513d601f19601f82011682018060405250810190610ee69190612301565b90508180610ef15750805b610f30576040517f08c379a0000000000000000000000000000000000000000000000000000000008152600401610f2790612ae6565b60405180910390fd5b600860008873ffffffffffffffffffffffffffffffffffffffff1673ffffffffffffffffffffffffffffffffffffffff16815260200190815260200160002060008973ffffffffffffffffffffffffffffffffffffffff1673ffffffffffffffffffffffffffffffffffffffff16815260200190815260200160002060000160149054906101000a900460ff1615610ffd576040517f08c379a0000000000000000000000000000000000000000000000000000000008152600401610ff490612a86565b60405180910390fd5b60006110098a8a61178f565b905060405180604001604052808a73ffffffffffffffffffffffffffffffffffffffff16815260200160011515815250600860008a73ffffffffffffffffffffffffffffffffffffffff1673ffffffffffffffffffffffffffffffffffffffff16815260200190815260200160002060008b73ffffffffffffffffffffffffffffffffffffffff1673ffffffffffffffffffffffffffffffffffffffff16815260200190815260200160002060008201518160000160006101000a81548173ffffffffffffffffffffffffffffffffffffffff021916908373ffffffffffffffffffffffffffffffffffffffff16021790555060208201518160000160146101000a81548160ff02191690831515021790555090505060008890508073ffffffffffffffffffffffffffffffffffffffff1663b27ba6438b338b6040518463ffffffff1660e01b8152600401611161939291906127b4565b600060405180830381600087803b15801561117b57600080fd5b505af115801561118f573d6000803e3d6000fd5b50505050819650505050505050949350505050565b60007f01ffc9a7000000000000000000000000000000000000000000000000000000007bffffffffffffffffffffffffffffffffffffffffffffffffffffffff1916827bffffffffffffffffffffffffffffffffffffffffffffffffffffffff1916149050919050565b60008073ffffffffffffffffffffffffffffffffffffffff166002600084815260200190815260200160002060009054906101000a900473ffffffffffffffffffffffffffffffffffffffff1673ffffffffffffffffffffffffffffffffffffffff1614159050919050565b600033905090565b816004600083815260200190815260200160002060006101000a81548173ffffffffffffffffffffffffffffffffffffffff021916908373ffffffffffffffffffffffffffffffffffffffff160217905550808273ffffffffffffffffffffffffffffffffffffffff166112f5836107db565b73ffffffffffffffffffffffffffffffffffffffff167f8c5be1e5ebec7d5bd14f71427d1e84f3dd0314c0f7b2291e5b200ac8c7c3b92560405160405180910390a45050565b60006113468261120e565b611385576040517f08c379a000000000000000000000000000000000000000000000000000000000815260040161137c90612946565b60405180910390fd5b6000611390836107db565b90508073ffffffffffffffffffffffffffffffffffffffff168473ffffffffffffffffffffffffffffffffffffffff1614806113ff57508373ffffffffffffffffffffffffffffffffffffffff166113e784610560565b73ffffffffffffffffffffffffffffffffffffffff16145b80611410575061140f8185610d0c565b5b91505092915050565b8273ffffffffffffffffffffffffffffffffffffffff16611439826107db565b73ffffffffffffffffffffffffffffffffffffffff161461148f576040517f08c379a000000000000000000000000000000000000000000000000000000000815260040161148690612a46565b60405180910390fd5b600073ffffffffffffffffffffffffffffffffffffffff168273ffffffffffffffffffffffffffffffffffffffff1614156114ff576040517f08c379a00000000000000000000000000000000000000000000000000000000081526004016114f690612906565b60405180910390fd5b61150a83838361180e565b611515600082611282565b6001600360008573ffffffffffffffffffffffffffffffffffffffff1673ffffffffffffffffffffffffffffffffffffffff16815260200190815260200160002060008282546115659190612c72565b925050819055506001600360008473ffffffffffffffffffffffffffffffffffffffff1673ffffffffffffffffffffffffffffffffffffffff16815260200190815260200160002060008282546115bc9190612beb565b92505081905550816002600083815260200190815260200160002060006101000a81548173ffffffffffffffffffffffffffffffffffffffff021916908373ffffffffffffffffffffffffffffffffffffffff160217905550808273ffffffffffffffffffffffffffffffffffffffff168473ffffffffffffffffffffffffffffffffffffffff167fddf252ad1be2c89b69c2b068fc378daa952ba7f163c4a11628f55a4df523b3ef60405160405180910390a4505050565b611680848484611419565b61168c84848484611813565b6116cb576040517f08c379a00000000000000000000000000000000000000000000000000000000081526004016116c2906128c6565b60405180910390fd5b50505050565b606060405180602001604052806000815250905090565b60606116f38261120e565b611732576040517f08c379a000000000000000000000000000000000000000000000000000000000815260040161172990612a66565b60405180910390fd5b600061173c6116d1565b9050600081511161175c5760405180602001604052806000815250611787565b80611766846119aa565b604051602001611777929190612775565b6040516020818303038152906040525b915050919050565b600061179b6007611b57565b60006117a76007611b6d565b90506117b38382611b7b565b6117bd8185611d49565b6117fb6040518060400160405280600981526020017f53656e64657249443a0000000000000000000000000000000000000000000000815250611dbd565b61180433611e56565b8091505092915050565b505050565b60006118348473ffffffffffffffffffffffffffffffffffffffff16611eef565b1561199d578373ffffffffffffffffffffffffffffffffffffffff1663150b7a0261185d61127a565b8786866040518563ffffffff1660e01b815260040161187f94939291906127eb565b602060405180830381600087803b15801561189957600080fd5b505af19250505080156118ca57506040513d601f19601f820116820180604052508101906118c79190612353565b60015b61194d573d80600081146118fa576040519150601f19603f3d011682016040523d82523d6000602084013e6118ff565b606091505b50600081511415611945576040517f08c379a000000000000000000000000000000000000000000000000000000000815260040161193c906128c6565b60405180910390fd5b805181602001fd5b63150b7a0260e01b7bffffffffffffffffffffffffffffffffffffffffffffffffffffffff1916817bffffffffffffffffffffffffffffffffffffffffffffffffffffffff1916149150506119a2565b600190505b949350505050565b606060008214156119f2576040518060400160405280600181526020017f30000000000000000000000000000000000000000000000000000000000000008152509050611b52565b600082905060005b60008214611a24578080611a0d90612de4565b915050600a82611a1d9190612c41565b91506119fa565b60008167ffffffffffffffff811115611a66577f4e487b7100000000000000000000000000000000000000000000000000000000600052604160045260246000fd5b6040519080825280601f01601f191660200182016040528015611a985781602001600182028036833780820191505090505b5090505b60008514611b4b57600182611ab19190612c72565b9150600a85611ac09190612e2d565b6030611acc9190612beb565b60f81b818381518110611b08577f4e487b7100000000000000000000000000000000000000000000000000000000600052603260045260246000fd5b60200101907effffffffffffffffffffffffffffffffffffffffffffffffffffffffffffff1916908160001a905350600a85611b449190612c41565b9450611a9c565b8093505050505b919050565b6001816000016000828254019250508190555050565b600081600001549050919050565b600073ffffffffffffffffffffffffffffffffffffffff168273ffffffffffffffffffffffffffffffffffffffff161415611beb576040517f08c379a0000000000000000000000000000000000000000000000000000000008152600401611be2906129e6565b60405180910390fd5b611bf48161120e565b15611c34576040517f08c379a0000000000000000000000000000000000000000000000000000000008152600401611c2b906128e6565b60405180910390fd5b611c406000838361180e565b6001600360008473ffffffffffffffffffffffffffffffffffffffff1673ffffffffffffffffffffffffffffffffffffffff1681526020019081526020016000206000828254611c909190612beb565b92505081905550816002600083815260200190815260200160002060006101000a81548173ffffffffffffffffffffffffffffffffffffffff021916908373ffffffffffffffffffffffffffffffffffffffff160217905550808273ffffffffffffffffffffffffffffffffffffffff16600073ffffffffffffffffffffffffffffffffffffffff167fddf252ad1be2c89b69c2b068fc378daa952ba7f163c4a11628f55a4df523b3ef60405160405180910390a45050565b611d528261120e565b611d91576040517f08c379a0000000000000000000000000000000000000000000000000000000008152600401611d88906129c6565b60405180910390fd5b80600660008481526020019081526020016000209080519060200190611db8929190611f2b565b505050565b611e5381604051602401611dd191906128a4565b6040516020818303038152906040527f41304fac000000000000000000000000000000000000000000000000000000007bffffffffffffffffffffffffffffffffffffffffffffffffffffffff19166020820180517bffffffffffffffffffffffffffffffffffffffffffffffffffffffff8381831617835250505050611f02565b50565b611eec81604051602401611e6a9190612799565b6040516020818303038152906040527f2c2ecbc2000000000000000000000000000000000000000000000000000000007bffffffffffffffffffffffffffffffffffffffffffffffffffffffff19166020820180517bffffffffffffffffffffffffffffffffffffffffffffffffffffffff8381831617835250505050611f02565b50565b600080823b905060008111915050919050565b60008151905060006a636f6e736f6c652e6c6f679050602083016000808483855afa5050505050565b828054611f3790612d81565b90600052602060002090601f016020900481019282611f595760008555611fa0565b82601f10611f7257805160ff1916838001178555611fa0565b82800160010185558215611fa0579182015b82811115611f9f578251825591602001919060010190611f84565b5b509050611fad9190611fb1565b5090565b5b80821115611fca576000816000905550600101611fb2565b5090565b6000611fe1611fdc84612b46565b612b21565b905082815260208101848484011115611ff957600080fd5b612004848285612d3f565b509392505050565b600061201f61201a84612b77565b612b21565b90508281526020810184848401111561203757600080fd5b612042848285612d3f565b509392505050565b6000813590506120598161343e565b92915050565b60008151905061206e8161343e565b92915050565b60008135905061208381613455565b92915050565b60008151905061209881613455565b92915050565b6000813590506120ad8161346c565b92915050565b6000815190506120c28161346c565b92915050565b600082601f8301126120d957600080fd5b81356120e9848260208601611fce565b91505092915050565b600082601f83011261210357600080fd5b813561211384826020860161200c565b91505092915050565b60008135905061212b81613483565b92915050565b60006020828403121561214357600080fd5b60006121518482850161204a565b91505092915050565b60006020828403121561216c57600080fd5b600061217a8482850161205f565b91505092915050565b6000806040838503121561219657600080fd5b60006121a48582860161204a565b92505060206121b58582860161204a565b9150509250929050565b6000806000606084860312156121d457600080fd5b60006121e28682870161204a565b93505060206121f38682870161204a565b92505060406122048682870161211c565b9150509250925092565b6000806000806080858703121561222457600080fd5b60006122328782880161204a565b94505060206122438782880161204a565b93505060406122548782880161211c565b925050606085013567ffffffffffffffff81111561227157600080fd5b61227d878288016120c8565b91505092959194509250565b6000806040838503121561229c57600080fd5b60006122aa8582860161204a565b92505060206122bb85828601612074565b9150509250929050565b600080604083850312156122d857600080fd5b60006122e68582860161204a565b92505060206122f78582860161211c565b9150509250929050565b60006020828403121561231357600080fd5b600061232184828501612089565b91505092915050565b60006020828403121561233c57600080fd5b600061234a8482850161209e565b91505092915050565b60006020828403121561236557600080fd5b6000612373848285016120b3565b91505092915050565b6000806000806080858703121561239257600080fd5b600085013567ffffffffffffffff8111156123ac57600080fd5b6123b8878288016120f2565b94505060206123c98782880161204a565b93505060406123da8782880161204a565b92505060606123eb8782880161204a565b91505092959194509250565b60006020828403121561240957600080fd5b60006124178482850161211c565b91505092915050565b61242981612ca6565b82525050565b61243881612cb8565b82525050565b600061244982612ba8565b6124538185612bbe565b9350612463818560208601612d4e565b61246c81612f49565b840191505092915050565b61248081612d2d565b82525050565b600061249182612bb3565b61249b8185612bcf565b93506124ab818560208601612d4e565b6124b481612f49565b840191505092915050565b60006124ca82612bb3565b6124d48185612be0565b93506124e4818560208601612d4e565b80840191505092915050565b60006124fd603283612bcf565b915061250882612f5a565b604082019050919050565b6000612520601c83612bcf565b915061252b82612fa9565b602082019050919050565b6000612543602483612bcf565b915061254e82612fd2565b604082019050919050565b6000612566601983612bcf565b915061257182613021565b602082019050919050565b6000612589602c83612bcf565b91506125948261304a565b604082019050919050565b60006125ac603883612bcf565b91506125b782613099565b604082019050919050565b60006125cf602a83612bcf565b91506125da826130e8565b604082019050919050565b60006125f2602983612bcf565b91506125fd82613137565b604082019050919050565b6000612615602e83612bcf565b915061262082613186565b604082019050919050565b6000612638602083612bcf565b9150612643826131d5565b602082019050919050565b600061265b603183612bcf565b9150612666826131fe565b604082019050919050565b600061267e602c83612bcf565b91506126898261324d565b604082019050919050565b60006126a1602983612bcf565b91506126ac8261329c565b604082019050919050565b60006126c4602f83612bcf565b91506126cf826132eb565b604082019050919050565b60006126e7601a83612bcf565b91506126f28261333a565b602082019050919050565b600061270a602183612bcf565b915061271582613363565b604082019050919050565b600061272d603183612bcf565b9150612738826133b2565b604082019050919050565b6000612750601c83612bcf565b915061275b82613401565b602082019050919050565b61276f81612d23565b82525050565b600061278182856124bf565b915061278d82846124bf565b91508190509392505050565b60006020820190506127ae6000830184612420565b92915050565b60006060820190506127c96000830186612420565b6127d66020830185612420565b6127e36040830184612420565b949350505050565b60006080820190506128006000830187612420565b61280d6020830186612420565b61281a6040830185612766565b818103606083015261282c818461243e565b905095945050505050565b600060408201905061284c6000830185612420565b612859602083018461242f565b9392505050565b60006040820190506128756000830185612420565b6128826020830184612477565b9392505050565b600060208201905061289e600083018461242f565b92915050565b600060208201905081810360008301526128be8184612486565b905092915050565b600060208201905081810360008301526128df816124f0565b9050919050565b600060208201905081810360008301526128ff81612513565b9050919050565b6000602082019050818103600083015261291f81612536565b9050919050565b6000602082019050818103600083015261293f81612559565b9050919050565b6000602082019050818103600083015261295f8161257c565b9050919050565b6000602082019050818103600083015261297f8161259f565b9050919050565b6000602082019050818103600083015261299f816125c2565b9050919050565b600060208201905081810360008301526129bf816125e5565b9050919050565b600060208201905081810360008301526129df81612608565b9050919050565b600060208201905081810360008301526129ff8161262b565b9050919050565b60006020820190508181036000830152612a1f8161264e565b9050919050565b60006020820190508181036000830152612a3f81612671565b9050919050565b60006020820190508181036000830152612a5f81612694565b9050919050565b60006020820190508181036000830152612a7f816126b7565b9050919050565b60006020820190508181036000830152612a9f816126da565b9050919050565b60006020820190508181036000830152612abf816126fd565b9050919050565b60006020820190508181036000830152612adf81612720565b9050919050565b60006020820190508181036000830152612aff81612743565b9050919050565b6000602082019050612b1b6000830184612766565b92915050565b6000612b2b612b3c565b9050612b378282612db3565b919050565b6000604051905090565b600067ffffffffffffffff821115612b6157612b60612f1a565b5b612b6a82612f49565b9050602081019050919050565b600067ffffffffffffffff821115612b9257612b91612f1a565b5b612b9b82612f49565b9050602081019050919050565b600081519050919050565b600081519050919050565b600082825260208201905092915050565b600082825260208201905092915050565b600081905092915050565b6000612bf682612d23565b9150612c0183612d23565b9250827fffffffffffffffffffffffffffffffffffffffffffffffffffffffffffffffff03821115612c3657612c35612e5e565b5b828201905092915050565b6000612c4c82612d23565b9150612c5783612d23565b925082612c6757612c66612e8d565b5b828204905092915050565b6000612c7d82612d23565b9150612c8883612d23565b925082821015612c9b57612c9a612e5e565b5b828203905092915050565b6000612cb182612d03565b9050919050565b60008115159050919050565b60007fffffffff0000000000000000000000000000000000000000000000000000000082169050919050565b6000819050612cfe8261342a565b919050565b600073ffffffffffffffffffffffffffffffffffffffff82169050919050565b6000819050919050565b6000612d3882612cf0565b9050919050565b82818337600083830152505050565b60005b83811015612d6c578082015181840152602081019050612d51565b83811115612d7b576000848401525b50505050565b60006002820490506001821680612d9957607f821691505b60208210811415612dad57612dac612eeb565b5b50919050565b612dbc82612f49565b810181811067ffffffffffffffff82111715612ddb57612dda612f1a565b5b80604052505050565b6000612def82612d23565b91507fffffffffffffffffffffffffffffffffffffffffffffffffffffffffffffffff821415612e2257612e21612e5e565b5b600182019050919050565b6000612e3882612d23565b9150612e4383612d23565b925082612e5357612e52612e8d565b5b828206905092915050565b7f4e487b7100000000000000000000000000000000000000000000000000000000600052601160045260246000fd5b7f4e487b7100000000000000000000000000000000000000000000000000000000600052601260045260246000fd5b7f4e487b7100000000000000000000000000000000000000000000000000000000600052602160045260246000fd5b7f4e487b7100000000000000000000000000000000000000000000000000000000600052602260045260246000fd5b7f4e487b7100000000000000000000000000000000000000000000000000000000600052604160045260246000fd5b6000601f19601f8301169050919050565b7f4552433732313a207472616e7366657220746f206e6f6e20455243373231526560008201527f63656976657220696d706c656d656e7465720000000000000000000000000000602082015250565b7f4552433732313a20746f6b656e20616c7265616479206d696e74656400000000600082015250565b7f4552433732313a207472616e7366657220746f20746865207a65726f2061646460008201527f7265737300000000000000000000000000000000000000000000000000000000602082015250565b7f4552433732313a20617070726f766520746f2063616c6c657200000000000000600082015250565b7f4552433732313a206f70657261746f7220717565727920666f72206e6f6e657860008201527f697374656e7420746f6b656e0000000000000000000000000000000000000000602082015250565b7f4552433732313a20617070726f76652063616c6c6572206973206e6f74206f7760008201527f6e6572206e6f7220617070726f76656420666f7220616c6c0000000000000000602082015250565b7f4552433732313a2062616c616e636520717565727920666f7220746865207a6560008201527f726f206164647265737300000000000000000000000000000000000000000000602082015250565b7f4552433732313a206f776e657220717565727920666f72206e6f6e657869737460008201527f656e7420746f6b656e0000000000000000000000000000000000000000000000602082015250565b7f45524337323155524953746f726167653a2055524920736574206f66206e6f6e60008201527f6578697374656e7420746f6b656e000000000000000000000000000000000000602082015250565b7f4552433732313a206d696e7420746f20746865207a65726f2061646472657373600082015250565b7f45524337323155524953746f726167653a2055524920717565727920666f722060008201527f6e6f6e6578697374656e7420746f6b656e000000000000000000000000000000602082015250565b7f4552433732313a20617070726f76656420717565727920666f72206e6f6e657860008201527f697374656e7420746f6b656e0000000000000000000000000000000000000000602082015250565b7f4552433732313a207472616e73666572206f6620746f6b656e2074686174206960008201527f73206e6f74206f776e0000000000000000000000000000000000000000000000602082015250565b7f4552433732314d657461646174613a2055524920717565727920666f72206e6f60008201527f6e6578697374656e7420746f6b656e0000000000000000000000000000000000602082015250565b7f5573657220616c72656164792065786973747320696e206f7267000000000000600082015250565b7f4552433732313a20617070726f76616c20746f2063757272656e74206f776e6560008201527f7200000000000000000000000000000000000000000000000000000000000000602082015250565b7f4552433732313a207472616e736665722063616c6c6572206973206e6f74206f60008201527f776e6572206e6f7220617070726f766564000000000000000000000000000000602082015250565b7f53656e646572206e6f742067656e206f72207375706572207573657200000000600082015250565b6003811061343b5761343a612ebc565b5b50565b61344781612ca6565b811461345257600080fd5b50565b61345e81612cb8565b811461346957600080fd5b50565b61347581612cc4565b811461348057600080fd5b50565b61348c81612d23565b811461349757600080fd5b5056fea2646970667358221220c9bb3c029b7cf3af6603ea1d3832d988b45200e936d49bb982225be60c2a24b964736f6c63430008040033",
  "linkReferences": {},
  "deployedLinkReferences": {}
}