{
  "_format": "hh-sol-artifact-1",
  "contractName": "BadgeToken",
  "sourceName": "contracts/BadgeToken.sol",
  "abi": [
    {
      "inputs": [
        {
          "internalType": "address",
          "name": "_entity",
          "type": "address"
        },
        {
          "internalType": "string",
          "name": "_name",
          "type": "string"
        }
      ],
      "stateMutability": "nonpayable",
      "type": "constructor"
    },
    {
      "anonymous": false,
      "inputs": [
        {
          "indexed": true,
          "internalType": "address",
          "name": "owner",
          "type": "address"
        },
        {
          "indexed": true,
          "internalType": "address",
          "name": "approved",
          "type": "address"
        },
        {
          "indexed": true,
          "internalType": "uint256",
          "name": "tokenId",
          "type": "uint256"
        }
      ],
      "name": "Approval",
      "type": "event"
    },
    {
      "anonymous": false,
      "inputs": [
        {
          "indexed": true,
          "internalType": "address",
          "name": "owner",
          "type": "address"
        },
        {
          "indexed": true,
          "internalType": "address",
          "name": "operator",
          "type": "address"
        },
        {
          "indexed": false,
          "internalType": "bool",
          "name": "approved",
          "type": "bool"
        }
      ],
      "name": "ApprovalForAll",
      "type": "event"
    },
    {
      "anonymous": false,
      "inputs": [
        {
          "indexed": false,
          "internalType": "address",
          "name": "entityAddress",
          "type": "address"
        },
        {
          "indexed": false,
          "internalType": "bool",
          "name": "withPrejudice",
          "type": "bool"
        }
      ],
      "name": "BadgeBurned",
      "type": "event"
    },
    {
      "anonymous": false,
      "inputs": [
        {
          "indexed": true,
          "internalType": "address",
          "name": "from",
          "type": "address"
        },
        {
          "indexed": true,
          "internalType": "address",
          "name": "to",
          "type": "address"
        },
        {
          "indexed": true,
          "internalType": "uint256",
          "name": "tokenId",
          "type": "uint256"
        }
      ],
      "name": "Transfer",
      "type": "event"
    },
    {
      "inputs": [
        {
          "internalType": "address",
          "name": "to",
          "type": "address"
        },
        {
          "internalType": "uint256",
          "name": "tokenId",
          "type": "uint256"
        }
      ],
      "name": "approve",
      "outputs": [],
      "stateMutability": "nonpayable",
      "type": "function"
    },
    {
      "inputs": [],
      "name": "badgeRegistry",
      "outputs": [
        {
          "internalType": "address",
          "name": "",
          "type": "address"
        }
      ],
      "stateMutability": "view",
      "type": "function"
    },
    {
      "inputs": [
        {
          "internalType": "address",
          "name": "owner",
          "type": "address"
        }
      ],
      "name": "balanceOf",
      "outputs": [
        {
          "internalType": "uint256",
          "name": "",
          "type": "uint256"
        }
      ],
      "stateMutability": "view",
      "type": "function"
    },
    {
      "inputs": [
        {
          "internalType": "uint256",
          "name": "tokenId",
          "type": "uint256"
        }
      ],
      "name": "burnWithPrejudice",
      "outputs": [],
      "stateMutability": "payable",
      "type": "function"
    },
    {
      "inputs": [],
      "name": "entity",
      "outputs": [
        {
          "internalType": "address",
          "name": "",
          "type": "address"
        }
      ],
      "stateMutability": "view",
      "type": "function"
    },
    {
      "inputs": [
        {
          "internalType": "uint256",
          "name": "tokenId",
          "type": "uint256"
        }
      ],
      "name": "getApproved",
      "outputs": [
        {
          "internalType": "address",
          "name": "",
          "type": "address"
        }
      ],
      "stateMutability": "view",
      "type": "function"
    },
    {
      "inputs": [
        {
          "internalType": "address",
          "name": "owner",
          "type": "address"
        },
        {
          "internalType": "address",
          "name": "operator",
          "type": "address"
        }
      ],
      "name": "isApprovedForAll",
      "outputs": [
        {
          "internalType": "bool",
          "name": "",
          "type": "bool"
        }
      ],
      "stateMutability": "view",
      "type": "function"
    },
    {
      "inputs": [
        {
          "internalType": "address",
          "name": "_to",
          "type": "address"
        },
        {
          "internalType": "string",
          "name": "_tokenURI",
          "type": "string"
        }
      ],
      "name": "mintBadge",
      "outputs": [],
      "stateMutability": "payable",
      "type": "function"
    },
    {
      "inputs": [],
      "name": "name",
      "outputs": [
        {
          "internalType": "string",
          "name": "",
          "type": "string"
        }
      ],
      "stateMutability": "view",
      "type": "function"
    },
    {
      "inputs": [
        {
          "internalType": "uint256",
          "name": "tokenId",
          "type": "uint256"
        }
      ],
      "name": "ownerOf",
      "outputs": [
        {
          "internalType": "address",
          "name": "",
          "type": "address"
        }
      ],
      "stateMutability": "view",
      "type": "function"
    },
    {
      "inputs": [
        {
          "internalType": "address",
          "name": "from",
          "type": "address"
        },
        {
          "internalType": "address",
          "name": "to",
          "type": "address"
        },
        {
          "internalType": "uint256",
          "name": "tokenId",
          "type": "uint256"
        }
      ],
      "name": "safeTransferFrom",
      "outputs": [],
      "stateMutability": "nonpayable",
      "type": "function"
    },
    {
      "inputs": [
        {
          "internalType": "address",
          "name": "from",
          "type": "address"
        },
        {
          "internalType": "address",
          "name": "to",
          "type": "address"
        },
        {
          "internalType": "uint256",
          "name": "tokenId",
          "type": "uint256"
        },
        {
          "internalType": "bytes",
          "name": "_data",
          "type": "bytes"
        }
      ],
      "name": "safeTransferFrom",
      "outputs": [],
      "stateMutability": "nonpayable",
      "type": "function"
    },
    {
      "inputs": [
        {
          "internalType": "address",
          "name": "operator",
          "type": "address"
        },
        {
          "internalType": "bool",
          "name": "approved",
          "type": "bool"
        }
      ],
      "name": "setApprovalForAll",
      "outputs": [],
      "stateMutability": "nonpayable",
      "type": "function"
    },
    {
      "inputs": [
        {
          "internalType": "bytes4",
          "name": "interfaceId",
          "type": "bytes4"
        }
      ],
      "name": "supportsInterface",
      "outputs": [
        {
          "internalType": "bool",
          "name": "",
          "type": "bool"
        }
      ],
      "stateMutability": "view",
      "type": "function"
    },
    {
      "inputs": [],
      "name": "symbol",
      "outputs": [
        {
          "internalType": "string",
          "name": "",
          "type": "string"
        }
      ],
      "stateMutability": "view",
      "type": "function"
    },
    {
      "inputs": [
        {
          "internalType": "uint256",
          "name": "tokenId",
          "type": "uint256"
        }
      ],
      "name": "tokenURI",
      "outputs": [
        {
          "internalType": "string",
          "name": "",
          "type": "string"
        }
      ],
      "stateMutability": "view",
      "type": "function"
    },
    {
      "inputs": [
        {
          "internalType": "address",
          "name": "from",
          "type": "address"
        },
        {
          "internalType": "address",
          "name": "to",
          "type": "address"
        },
        {
          "internalType": "uint256",
          "name": "tokenId",
          "type": "uint256"
        }
      ],
      "name": "transferFrom",
      "outputs": [],
      "stateMutability": "nonpayable",
      "type": "function"
    }
  ],
  "bytecode": "0x60806040523480156200001157600080fd5b506040516200347a3803806200347a833981810160405281019062000037919062000298565b6200007e816040518060400160405280600981526020017f202d2042616467657300000000000000000000000000000000000000000000008152506200013160201b60201c565b6040518060400160405280600581526020017f42414447450000000000000000000000000000000000000000000000000000008152508160009080519060200190620000cc9291906200015f565b508060019080519060200190620000e59291906200015f565b50505081600a60006101000a81548173ffffffffffffffffffffffffffffffffffffffff021916908373ffffffffffffffffffffffffffffffffffffffff160217905550505062000525565b606082826040516020016200014892919062000329565b604051602081830303815290604052905092915050565b8280546200016d9062000430565b90600052602060002090601f016020900481019282620001915760008555620001dd565b82601f10620001ac57805160ff1916838001178555620001dd565b82800160010185558215620001dd579182015b82811115620001dc578251825591602001919060010190620001bf565b5b509050620001ec9190620001f0565b5090565b5b808211156200020b576000816000905550600101620001f1565b5090565b60006200022662000220846200037a565b62000351565b9050828152602081018484840111156200023f57600080fd5b6200024c848285620003fa565b509392505050565b60008151905062000265816200050b565b92915050565b600082601f8301126200027d57600080fd5b81516200028f8482602086016200020f565b91505092915050565b60008060408385031215620002ac57600080fd5b6000620002bc8582860162000254565b925050602083015167ffffffffffffffff811115620002da57600080fd5b620002e8858286016200026b565b9150509250929050565b6000620002ff82620003b0565b6200030b8185620003bb565b93506200031d818560208601620003fa565b80840191505092915050565b6000620003378285620002f2565b9150620003458284620002f2565b91508190509392505050565b60006200035d62000370565b90506200036b828262000466565b919050565b6000604051905090565b600067ffffffffffffffff821115620003985762000397620004cb565b5b620003a382620004fa565b9050602081019050919050565b600081519050919050565b600081905092915050565b6000620003d382620003da565b9050919050565b600073ffffffffffffffffffffffffffffffffffffffff82169050919050565b60005b838110156200041a578082015181840152602081019050620003fd565b838111156200042a576000848401525b50505050565b600060028204905060018216806200044957607f821691505b6020821081141562000460576200045f6200049c565b5b50919050565b6200047182620004fa565b810181811067ffffffffffffffff82111715620004935762000492620004cb565b5b80604052505050565b7f4e487b7100000000000000000000000000000000000000000000000000000000600052602260045260246000fd5b7f4e487b7100000000000000000000000000000000000000000000000000000000600052604160045260246000fd5b6000601f19601f8301169050919050565b6200051681620003c6565b81146200052257600080fd5b50565b612f4580620005356000396000f3fe6080604052600436106100fe5760003560e01c80636cdbbc6611610095578063a22cb46511610064578063a22cb4651461032b578063b88d4fde14610354578063c87b56dd1461037d578063e985e9c5146103ba578063ea3e7cef146103f7576100fe565b80636cdbbc661461027c57806370a08231146102a757806395d89b41146102e4578063a11696051461030f576100fe565b806323b872dd116100d157806323b872dd146101d157806342842e0e146101fa5780636352211e146102235780636b2bafc814610260576100fe565b806301ffc9a71461010357806306fdde0314610140578063081812fc1461016b578063095ea7b3146101a8575b600080fd5b34801561010f57600080fd5b5061012a60048036038101906101259190611f17565b610422565b604051610137919061238c565b60405180910390f35b34801561014c57600080fd5b50610155610504565b60405161016291906123a7565b60405180910390f35b34801561017757600080fd5b50610192600480360381019061018d9190611f69565b610596565b60405161019f91906122fc565b60405180910390f35b3480156101b457600080fd5b506101cf60048036038101906101ca9190611edb565b61061b565b005b3480156101dd57600080fd5b506101f860048036038101906101f39190611d81565b610733565b005b34801561020657600080fd5b50610221600480360381019061021c9190611d81565b610793565b005b34801561022f57600080fd5b5061024a60048036038101906102459190611f69565b6107b3565b60405161025791906122fc565b60405180910390f35b61027a60048036038101906102759190611e87565b610865565b005b34801561028857600080fd5b50610291610926565b60405161029e91906122fc565b60405180910390f35b3480156102b357600080fd5b506102ce60048036038101906102c99190611d1c565b61094c565b6040516102db9190612609565b60405180910390f35b3480156102f057600080fd5b506102f9610a04565b60405161030691906123a7565b60405180910390f35b61032960048036038101906103249190611f69565b610a96565b005b34801561033757600080fd5b50610352600480360381019061034d9190611e4b565b610c16565b005b34801561036057600080fd5b5061037b60048036038101906103769190611dd0565b610d97565b005b34801561038957600080fd5b506103a4600480360381019061039f9190611f69565b610df9565b6040516103b191906123a7565b60405180910390f35b3480156103c657600080fd5b506103e160048036038101906103dc9190611d45565b610f4b565b6040516103ee919061238c565b60405180910390f35b34801561040357600080fd5b5061040c610fdf565b60405161041991906122fc565b60405180910390f35b60007f80ac58cd000000000000000000000000000000000000000000000000000000007bffffffffffffffffffffffffffffffffffffffffffffffffffffffff1916827bffffffffffffffffffffffffffffffffffffffffffffffffffffffff191614806104ed57507f5b5e139f000000000000000000000000000000000000000000000000000000007bffffffffffffffffffffffffffffffffffffffffffffffffffffffff1916827bffffffffffffffffffffffffffffffffffffffffffffffffffffffff1916145b806104fd57506104fc82611005565b5b9050919050565b6060600080546105139061285f565b80601f016020809104026020016040519081016040528092919081815260200182805461053f9061285f565b801561058c5780601f106105615761010080835404028352916020019161058c565b820191906000526020600020905b81548152906001019060200180831161056f57829003601f168201915b5050505050905090565b60006105a18261106f565b6105e0576040517f08c379a00000000000000000000000000000000000000000000000000000000081526004016105d790612529565b60405180910390fd5b6004600083815260200190815260200160002060009054906101000a900473ffffffffffffffffffffffffffffffffffffffff169050919050565b6000610626826107b3565b90508073ffffffffffffffffffffffffffffffffffffffff168373ffffffffffffffffffffffffffffffffffffffff161415610697576040517f08c379a000000000000000000000000000000000000000000000000000000000815260040161068e90612569565b60405180910390fd5b8073ffffffffffffffffffffffffffffffffffffffff166106b66110db565b73ffffffffffffffffffffffffffffffffffffffff1614806106e557506106e4816106df6110db565b610f4b565b5b610724576040517f08c379a000000000000000000000000000000000000000000000000000000000815260040161071b90612469565b60405180910390fd5b61072e83836110e3565b505050565b61074461073e6110db565b8261119c565b610783576040517f08c379a000000000000000000000000000000000000000000000000000000000815260040161077a90612589565b60405180910390fd5b61078e83838361127a565b505050565b6107ae83838360405180602001604052806000815250610d97565b505050565b6000806002600084815260200190815260200160002060009054906101000a900473ffffffffffffffffffffffffffffffffffffffff169050600073ffffffffffffffffffffffffffffffffffffffff168173ffffffffffffffffffffffffffffffffffffffff16141561085c576040517f08c379a0000000000000000000000000000000000000000000000000000000008152600401610853906124a9565b60405180910390fd5b80915050919050565b600a60009054906101000a900473ffffffffffffffffffffffffffffffffffffffff1673ffffffffffffffffffffffffffffffffffffffff163373ffffffffffffffffffffffffffffffffffffffff16146108f5576040517f08c379a00000000000000000000000000000000000000000000000000000000081526004016108ec906125e9565b60405180910390fd5b6108ff60076112c0565b600061090b60076112d6565b905061091783826112e4565b61092181836114b2565b505050565b600a60009054906101000a900473ffffffffffffffffffffffffffffffffffffffff1681565b60008073ffffffffffffffffffffffffffffffffffffffff168273ffffffffffffffffffffffffffffffffffffffff1614156109bd576040517f08c379a00000000000000000000000000000000000000000000000000000000081526004016109b490612489565b60405180910390fd5b600360008373ffffffffffffffffffffffffffffffffffffffff1673ffffffffffffffffffffffffffffffffffffffff168152602001908152602001600020549050919050565b606060018054610a139061285f565b80601f0160208091040260200160405190810160405280929190818152602001828054610a3f9061285f565b8015610a8c5780601f10610a6157610100808354040283529160200191610a8c565b820191906000526020600020905b815481529060010190602001808311610a6f57829003601f168201915b5050505050905090565b610a9f816107b3565b73ffffffffffffffffffffffffffffffffffffffff163373ffffffffffffffffffffffffffffffffffffffff1614610b0c576040517f08c379a0000000000000000000000000000000000000000000000000000000008152600401610b03906125a9565b60405180910390fd5b62093a80600860008381526020019081526020016000205442610b2f9190612775565b1115610b70576040517f08c379a0000000000000000000000000000000000000000000000000000000008152600401610b67906125c9565b60405180910390fd5b610b7981611526565b3373ffffffffffffffffffffffffffffffffffffffff1663deccb0916040518163ffffffff1660e01b8152600401600060405180830381600087803b158015610bc157600080fd5b505af1158015610bd5573d6000803e3d6000fd5b505050507f74b876a3976ec73d04754387c8e4a73c432b83d4ee32a082f0767d877c4e8bf2336001604051610c0b929190612363565b60405180910390a150565b610c1e6110db565b73ffffffffffffffffffffffffffffffffffffffff168273ffffffffffffffffffffffffffffffffffffffff161415610c8c576040517f08c379a0000000000000000000000000000000000000000000000000000000008152600401610c8390612429565b60405180910390fd5b8060056000610c996110db565b73ffffffffffffffffffffffffffffffffffffffff1673ffffffffffffffffffffffffffffffffffffffff16815260200190815260200160002060008473ffffffffffffffffffffffffffffffffffffffff1673ffffffffffffffffffffffffffffffffffffffff16815260200190815260200160002060006101000a81548160ff0219169083151502179055508173ffffffffffffffffffffffffffffffffffffffff16610d466110db565b73ffffffffffffffffffffffffffffffffffffffff167f17307eab39ab6107e8899845ad3d59bd9653f200f220920489ca2b5937696c3183604051610d8b919061238c565b60405180910390a35050565b610da8610da26110db565b8361119c565b610de7576040517f08c379a0000000000000000000000000000000000000000000000000000000008152600401610dde90612589565b60405180910390fd5b610df384848484611579565b50505050565b6060610e048261106f565b610e43576040517f08c379a0000000000000000000000000000000000000000000000000000000008152600401610e3a90612509565b60405180910390fd5b6000600660008481526020019081526020016000208054610e639061285f565b80601f0160208091040260200160405190810160405280929190818152602001828054610e8f9061285f565b8015610edc5780601f10610eb157610100808354040283529160200191610edc565b820191906000526020600020905b815481529060010190602001808311610ebf57829003601f168201915b505050505090506000610eed6115d5565b9050600081511415610f03578192505050610f46565b600082511115610f38578082604051602001610f209291906122d8565b60405160208183030381529060405292505050610f46565b610f41846115ec565b925050505b919050565b6000600560008473ffffffffffffffffffffffffffffffffffffffff1673ffffffffffffffffffffffffffffffffffffffff16815260200190815260200160002060008373ffffffffffffffffffffffffffffffffffffffff1673ffffffffffffffffffffffffffffffffffffffff16815260200190815260200160002060009054906101000a900460ff16905092915050565b600960009054906101000a900473ffffffffffffffffffffffffffffffffffffffff1681565b60007f01ffc9a7000000000000000000000000000000000000000000000000000000007bffffffffffffffffffffffffffffffffffffffffffffffffffffffff1916827bffffffffffffffffffffffffffffffffffffffffffffffffffffffff1916149050919050565b60008073ffffffffffffffffffffffffffffffffffffffff166002600084815260200190815260200160002060009054906101000a900473ffffffffffffffffffffffffffffffffffffffff1673ffffffffffffffffffffffffffffffffffffffff1614159050919050565b600033905090565b816004600083815260200190815260200160002060006101000a81548173ffffffffffffffffffffffffffffffffffffffff021916908373ffffffffffffffffffffffffffffffffffffffff160217905550808273ffffffffffffffffffffffffffffffffffffffff16611156836107b3565b73ffffffffffffffffffffffffffffffffffffffff167f8c5be1e5ebec7d5bd14f71427d1e84f3dd0314c0f7b2291e5b200ac8c7c3b92560405160405180910390a45050565b60006111a78261106f565b6111e6576040517f08c379a00000000000000000000000000000000000000000000000000000000081526004016111dd90612449565b60405180910390fd5b60006111f1836107b3565b90508073ffffffffffffffffffffffffffffffffffffffff168473ffffffffffffffffffffffffffffffffffffffff16148061126057508373ffffffffffffffffffffffffffffffffffffffff1661124884610596565b73ffffffffffffffffffffffffffffffffffffffff16145b8061127157506112708185610f4b565b5b91505092915050565b60006112bb576040517f08c379a00000000000000000000000000000000000000000000000000000000081526004016112b290612409565b60405180910390fd5b505050565b6001816000016000828254019250508190555050565b600081600001549050919050565b600073ffffffffffffffffffffffffffffffffffffffff168273ffffffffffffffffffffffffffffffffffffffff161415611354576040517f08c379a000000000000000000000000000000000000000000000000000000000815260040161134b906124e9565b60405180910390fd5b61135d8161106f565b1561139d576040517f08c379a0000000000000000000000000000000000000000000000000000000008152600401611394906123e9565b60405180910390fd5b6113a960008383611693565b6001600360008473ffffffffffffffffffffffffffffffffffffffff1673ffffffffffffffffffffffffffffffffffffffff16815260200190815260200160002060008282546113f991906126ee565b92505081905550816002600083815260200190815260200160002060006101000a81548173ffffffffffffffffffffffffffffffffffffffff021916908373ffffffffffffffffffffffffffffffffffffffff160217905550808273ffffffffffffffffffffffffffffffffffffffff16600073ffffffffffffffffffffffffffffffffffffffff167fddf252ad1be2c89b69c2b068fc378daa952ba7f163c4a11628f55a4df523b3ef60405160405180910390a45050565b6114bb8261106f565b6114fa576040517f08c379a00000000000000000000000000000000000000000000000000000000081526004016114f1906124c9565b60405180910390fd5b80600660008481526020019081526020016000209080519060200190611521929190611b00565b505050565b61152f81611698565b600060066000838152602001908152602001600020805461154f9061285f565b905014611576576006600082815260200190815260200160002060006115759190611b86565b5b50565b61158484848461127a565b611590848484846117a9565b6115cf576040517f08c379a00000000000000000000000000000000000000000000000000000000081526004016115c6906123c9565b60405180910390fd5b50505050565b606060405180602001604052806000815250905090565b60606115f78261106f565b611636576040517f08c379a000000000000000000000000000000000000000000000000000000000815260040161162d90612549565b60405180910390fd5b60006116406115d5565b90506000815111611660576040518060200160405280600081525061168b565b8061166a84611940565b60405160200161167b9291906122d8565b6040516020818303038152906040525b915050919050565b505050565b60006116a3826107b3565b90506116b181600084611693565b6116bc6000836110e3565b6001600360008373ffffffffffffffffffffffffffffffffffffffff1673ffffffffffffffffffffffffffffffffffffffff168152602001908152602001600020600082825461170c9190612775565b925050819055506002600083815260200190815260200160002060006101000a81549073ffffffffffffffffffffffffffffffffffffffff021916905581600073ffffffffffffffffffffffffffffffffffffffff168273ffffffffffffffffffffffffffffffffffffffff167fddf252ad1be2c89b69c2b068fc378daa952ba7f163c4a11628f55a4df523b3ef60405160405180910390a45050565b60006117ca8473ffffffffffffffffffffffffffffffffffffffff16611aed565b15611933578373ffffffffffffffffffffffffffffffffffffffff1663150b7a026117f36110db565b8786866040518563ffffffff1660e01b81526004016118159493929190612317565b602060405180830381600087803b15801561182f57600080fd5b505af192505050801561186057506040513d601f19601f8201168201806040525081019061185d9190611f40565b60015b6118e3573d8060008114611890576040519150601f19603f3d011682016040523d82523d6000602084013e611895565b606091505b506000815114156118db576040517f08c379a00000000000000000000000000000000000000000000000000000000081526004016118d2906123c9565b60405180910390fd5b805181602001fd5b63150b7a0260e01b7bffffffffffffffffffffffffffffffffffffffffffffffffffffffff1916817bffffffffffffffffffffffffffffffffffffffffffffffffffffffff191614915050611938565b600190505b949350505050565b60606000821415611988576040518060400160405280600181526020017f30000000000000000000000000000000000000000000000000000000000000008152509050611ae8565b600082905060005b600082146119ba5780806119a3906128c2565b915050600a826119b39190612744565b9150611990565b60008167ffffffffffffffff8111156119fc577f4e487b7100000000000000000000000000000000000000000000000000000000600052604160045260246000fd5b6040519080825280601f01601f191660200182016040528015611a2e5781602001600182028036833780820191505090505b5090505b60008514611ae157600182611a479190612775565b9150600a85611a56919061290b565b6030611a6291906126ee565b60f81b818381518110611a9e577f4e487b7100000000000000000000000000000000000000000000000000000000600052603260045260246000fd5b60200101907effffffffffffffffffffffffffffffffffffffffffffffffffffffffffffff1916908160001a905350600a85611ada9190612744565b9450611a32565b8093505050505b919050565b600080823b905060008111915050919050565b828054611b0c9061285f565b90600052602060002090601f016020900481019282611b2e5760008555611b75565b82601f10611b4757805160ff1916838001178555611b75565b82800160010185558215611b75579182015b82811115611b74578251825591602001919060010190611b59565b5b509050611b829190611bc6565b5090565b508054611b929061285f565b6000825580601f10611ba45750611bc3565b601f016020900490600052602060002090810190611bc29190611bc6565b5b50565b5b80821115611bdf576000816000905550600101611bc7565b5090565b6000611bf6611bf184612649565b612624565b905082815260208101848484011115611c0e57600080fd5b611c1984828561281d565b509392505050565b6000611c34611c2f8461267a565b612624565b905082815260208101848484011115611c4c57600080fd5b611c5784828561281d565b509392505050565b600081359050611c6e81612eb3565b92915050565b600081359050611c8381612eca565b92915050565b600081359050611c9881612ee1565b92915050565b600081519050611cad81612ee1565b92915050565b600082601f830112611cc457600080fd5b8135611cd4848260208601611be3565b91505092915050565b600082601f830112611cee57600080fd5b8135611cfe848260208601611c21565b91505092915050565b600081359050611d1681612ef8565b92915050565b600060208284031215611d2e57600080fd5b6000611d3c84828501611c5f565b91505092915050565b60008060408385031215611d5857600080fd5b6000611d6685828601611c5f565b9250506020611d7785828601611c5f565b9150509250929050565b600080600060608486031215611d9657600080fd5b6000611da486828701611c5f565b9350506020611db586828701611c5f565b9250506040611dc686828701611d07565b9150509250925092565b60008060008060808587031215611de657600080fd5b6000611df487828801611c5f565b9450506020611e0587828801611c5f565b9350506040611e1687828801611d07565b925050606085013567ffffffffffffffff811115611e3357600080fd5b611e3f87828801611cb3565b91505092959194509250565b60008060408385031215611e5e57600080fd5b6000611e6c85828601611c5f565b9250506020611e7d85828601611c74565b9150509250929050565b60008060408385031215611e9a57600080fd5b6000611ea885828601611c5f565b925050602083013567ffffffffffffffff811115611ec557600080fd5b611ed185828601611cdd565b9150509250929050565b60008060408385031215611eee57600080fd5b6000611efc85828601611c5f565b9250506020611f0d85828601611d07565b9150509250929050565b600060208284031215611f2957600080fd5b6000611f3784828501611c89565b91505092915050565b600060208284031215611f5257600080fd5b6000611f6084828501611c9e565b91505092915050565b600060208284031215611f7b57600080fd5b6000611f8984828501611d07565b91505092915050565b611f9b816127a9565b82525050565b611faa816127bb565b82525050565b6000611fbb826126ab565b611fc581856126c1565b9350611fd581856020860161282c565b611fde816129f8565b840191505092915050565b6000611ff4826126b6565b611ffe81856126d2565b935061200e81856020860161282c565b612017816129f8565b840191505092915050565b600061202d826126b6565b61203781856126e3565b935061204781856020860161282c565b80840191505092915050565b60006120606032836126d2565b915061206b82612a09565b604082019050919050565b6000612083601c836126d2565b915061208e82612a58565b602082019050919050565b60006120a6601c836126d2565b91506120b182612a81565b602082019050919050565b60006120c96019836126d2565b91506120d482612aaa565b602082019050919050565b60006120ec602c836126d2565b91506120f782612ad3565b604082019050919050565b600061210f6038836126d2565b915061211a82612b22565b604082019050919050565b6000612132602a836126d2565b915061213d82612b71565b604082019050919050565b60006121556029836126d2565b915061216082612bc0565b604082019050919050565b6000612178602e836126d2565b915061218382612c0f565b604082019050919050565b600061219b6020836126d2565b91506121a682612c5e565b602082019050919050565b60006121be6031836126d2565b91506121c982612c87565b604082019050919050565b60006121e1602c836126d2565b91506121ec82612cd6565b604082019050919050565b6000612204602f836126d2565b915061220f82612d25565b604082019050919050565b60006122276021836126d2565b915061223282612d74565b604082019050919050565b600061224a6031836126d2565b915061225582612dc3565b604082019050919050565b600061226d6019836126d2565b915061227882612e12565b602082019050919050565b60006122906018836126d2565b915061229b82612e3b565b602082019050919050565b60006122b36022836126d2565b91506122be82612e64565b604082019050919050565b6122d281612813565b82525050565b60006122e48285612022565b91506122f08284612022565b91508190509392505050565b60006020820190506123116000830184611f92565b92915050565b600060808201905061232c6000830187611f92565b6123396020830186611f92565b61234660408301856122c9565b81810360608301526123588184611fb0565b905095945050505050565b60006040820190506123786000830185611f92565b6123856020830184611fa1565b9392505050565b60006020820190506123a16000830184611fa1565b92915050565b600060208201905081810360008301526123c18184611fe9565b905092915050565b600060208201905081810360008301526123e281612053565b9050919050565b6000602082019050818103600083015261240281612076565b9050919050565b6000602082019050818103600083015261242281612099565b9050919050565b60006020820190508181036000830152612442816120bc565b9050919050565b60006020820190508181036000830152612462816120df565b9050919050565b6000602082019050818103600083015261248281612102565b9050919050565b600060208201905081810360008301526124a281612125565b9050919050565b600060208201905081810360008301526124c281612148565b9050919050565b600060208201905081810360008301526124e28161216b565b9050919050565b600060208201905081810360008301526125028161218e565b9050919050565b60006020820190508181036000830152612522816121b1565b9050919050565b60006020820190508181036000830152612542816121d4565b9050919050565b60006020820190508181036000830152612562816121f7565b9050919050565b600060208201905081810360008301526125828161221a565b9050919050565b600060208201905081810360008301526125a28161223d565b9050919050565b600060208201905081810360008301526125c281612260565b9050919050565b600060208201905081810360008301526125e281612283565b9050919050565b60006020820190508181036000830152612602816122a6565b9050919050565b600060208201905061261e60008301846122c9565b92915050565b600061262e61263f565b905061263a8282612891565b919050565b6000604051905090565b600067ffffffffffffffff821115612664576126636129c9565b5b61266d826129f8565b9050602081019050919050565b600067ffffffffffffffff821115612695576126946129c9565b5b61269e826129f8565b9050602081019050919050565b600081519050919050565b600081519050919050565b600082825260208201905092915050565b600082825260208201905092915050565b600081905092915050565b60006126f982612813565b915061270483612813565b9250827fffffffffffffffffffffffffffffffffffffffffffffffffffffffffffffffff038211156127395761273861293c565b5b828201905092915050565b600061274f82612813565b915061275a83612813565b92508261276a5761276961296b565b5b828204905092915050565b600061278082612813565b915061278b83612813565b92508282101561279e5761279d61293c565b5b828203905092915050565b60006127b4826127f3565b9050919050565b60008115159050919050565b60007fffffffff0000000000000000000000000000000000000000000000000000000082169050919050565b600073ffffffffffffffffffffffffffffffffffffffff82169050919050565b6000819050919050565b82818337600083830152505050565b60005b8381101561284a57808201518184015260208101905061282f565b83811115612859576000848401525b50505050565b6000600282049050600182168061287757607f821691505b6020821081141561288b5761288a61299a565b5b50919050565b61289a826129f8565b810181811067ffffffffffffffff821117156128b9576128b86129c9565b5b80604052505050565b60006128cd82612813565b91507fffffffffffffffffffffffffffffffffffffffffffffffffffffffffffffffff821415612900576128ff61293c565b5b600182019050919050565b600061291682612813565b915061292183612813565b9250826129315761293061296b565b5b828206905092915050565b7f4e487b7100000000000000000000000000000000000000000000000000000000600052601160045260246000fd5b7f4e487b7100000000000000000000000000000000000000000000000000000000600052601260045260246000fd5b7f4e487b7100000000000000000000000000000000000000000000000000000000600052602260045260246000fd5b7f4e487b7100000000000000000000000000000000000000000000000000000000600052604160045260246000fd5b6000601f19601f8301169050919050565b7f4552433732313a207472616e7366657220746f206e6f6e20455243373231526560008201527f63656976657220696d706c656d656e7465720000000000000000000000000000602082015250565b7f4552433732313a20746f6b656e20616c7265616479206d696e74656400000000600082015250565b7f42616467657320617265206e6f6e2d7472616e736665727261626c6500000000600082015250565b7f4552433732313a20617070726f766520746f2063616c6c657200000000000000600082015250565b7f4552433732313a206f70657261746f7220717565727920666f72206e6f6e657860008201527f697374656e7420746f6b656e0000000000000000000000000000000000000000602082015250565b7f4552433732313a20617070726f76652063616c6c6572206973206e6f74206f7760008201527f6e6572206e6f7220617070726f76656420666f7220616c6c0000000000000000602082015250565b7f4552433732313a2062616c616e636520717565727920666f7220746865207a6560008201527f726f206164647265737300000000000000000000000000000000000000000000602082015250565b7f4552433732313a206f776e657220717565727920666f72206e6f6e657869737460008201527f656e7420746f6b656e0000000000000000000000000000000000000000000000602082015250565b7f45524337323155524953746f726167653a2055524920736574206f66206e6f6e60008201527f6578697374656e7420746f6b656e000000000000000000000000000000000000602082015250565b7f4552433732313a206d696e7420746f20746865207a65726f2061646472657373600082015250565b7f45524337323155524953746f726167653a2055524920717565727920666f722060008201527f6e6f6e6578697374656e7420746f6b656e000000000000000000000000000000602082015250565b7f4552433732313a20617070726f76656420717565727920666f72206e6f6e657860008201527f697374656e7420746f6b656e0000000000000000000000000000000000000000602082015250565b7f4552433732314d657461646174613a2055524920717565727920666f72206e6f60008201527f6e6578697374656e7420746f6b656e0000000000000000000000000000000000602082015250565b7f4552433732313a20617070726f76616c20746f2063757272656e74206f776e6560008201527f7200000000000000000000000000000000000000000000000000000000000000602082015250565b7f4552433732313a207472616e736665722063616c6c6572206973206e6f74206f60008201527f776e6572206e6f7220617070726f766564000000000000000000000000000000602082015250565b7f4f6e6c79206f776e65722063616e206275726e20626164676500000000000000600082015250565b7f4e6f7420616c6c6f776564206166746572203720646179730000000000000000600082015250565b7f4f6e6c7920656e746974792063616e206163636573732074686973206d65746860008201527f6f64000000000000000000000000000000000000000000000000000000000000602082015250565b612ebc816127a9565b8114612ec757600080fd5b50565b612ed3816127bb565b8114612ede57600080fd5b50565b612eea816127c7565b8114612ef557600080fd5b50565b612f0181612813565b8114612f0c57600080fd5b5056fea264697066735822122003215f98acd896e7f7c0f8eb2b0e6e10ebb71156114126fd935299234ca1887064736f6c63430008040033",
  "linkReferences": {},
  "deployedLinkReferences": {}
}