{
  "_format": "hh-sol-artifact-1",
  "contractName": "BadgeToken",
  "sourceName": "contracts/BadgeToken.sol",
  "abi": [
    {
      "inputs": [
        {
          "internalType": "address",
          "name": "_entityAddress",
          "type": "address"
        },
        {
          "internalType": "string",
          "name": "_entityName",
          "type": "string"
        }
      ],
      "stateMutability": "nonpayable",
      "type": "constructor"
    },
    {
      "anonymous": false,
      "inputs": [
        {
          "indexed": true,
          "internalType": "address",
          "name": "owner",
          "type": "address"
        },
        {
          "indexed": true,
          "internalType": "address",
          "name": "approved",
          "type": "address"
        },
        {
          "indexed": true,
          "internalType": "uint256",
          "name": "tokenId",
          "type": "uint256"
        }
      ],
      "name": "Approval",
      "type": "event"
    },
    {
      "anonymous": false,
      "inputs": [
        {
          "indexed": true,
          "internalType": "address",
          "name": "owner",
          "type": "address"
        },
        {
          "indexed": true,
          "internalType": "address",
          "name": "operator",
          "type": "address"
        },
        {
          "indexed": false,
          "internalType": "bool",
          "name": "approved",
          "type": "bool"
        }
      ],
      "name": "ApprovalForAll",
      "type": "event"
    },
    {
      "anonymous": false,
      "inputs": [
        {
          "indexed": false,
          "internalType": "address",
          "name": "entityAddress",
          "type": "address"
        },
        {
          "indexed": false,
          "internalType": "bool",
          "name": "withPrejudice",
          "type": "bool"
        }
      ],
      "name": "BadgeBurned",
      "type": "event"
    },
    {
      "anonymous": false,
      "inputs": [
        {
          "indexed": true,
          "internalType": "address",
          "name": "from",
          "type": "address"
        },
        {
          "indexed": true,
          "internalType": "address",
          "name": "to",
          "type": "address"
        },
        {
          "indexed": true,
          "internalType": "uint256",
          "name": "tokenId",
          "type": "uint256"
        }
      ],
      "name": "Transfer",
      "type": "event"
    },
    {
      "inputs": [
        {
          "internalType": "address",
          "name": "to",
          "type": "address"
        },
        {
          "internalType": "uint256",
          "name": "tokenId",
          "type": "uint256"
        }
      ],
      "name": "approve",
      "outputs": [],
      "stateMutability": "nonpayable",
      "type": "function"
    },
    {
      "inputs": [
        {
          "internalType": "address",
          "name": "owner",
          "type": "address"
        }
      ],
      "name": "balanceOf",
      "outputs": [
        {
          "internalType": "uint256",
          "name": "",
          "type": "uint256"
        }
      ],
      "stateMutability": "view",
      "type": "function"
    },
    {
      "inputs": [
        {
          "internalType": "uint256",
          "name": "tokenId",
          "type": "uint256"
        }
      ],
      "name": "burnWithPrejudice",
      "outputs": [],
      "stateMutability": "payable",
      "type": "function"
    },
    {
      "inputs": [],
      "name": "entityAddress",
      "outputs": [
        {
          "internalType": "address",
          "name": "",
          "type": "address"
        }
      ],
      "stateMutability": "view",
      "type": "function"
    },
    {
      "inputs": [
        {
          "internalType": "uint256",
          "name": "tokenId",
          "type": "uint256"
        }
      ],
      "name": "getApproved",
      "outputs": [
        {
          "internalType": "address",
          "name": "",
          "type": "address"
        }
      ],
      "stateMutability": "view",
      "type": "function"
    },
    {
      "inputs": [
        {
          "internalType": "address",
          "name": "owner",
          "type": "address"
        },
        {
          "internalType": "address",
          "name": "operator",
          "type": "address"
        }
      ],
      "name": "isApprovedForAll",
      "outputs": [
        {
          "internalType": "bool",
          "name": "",
          "type": "bool"
        }
      ],
      "stateMutability": "view",
      "type": "function"
    },
    {
      "inputs": [
        {
          "internalType": "address",
          "name": "userId",
          "type": "address"
        },
        {
          "internalType": "string",
          "name": "tokenURI",
          "type": "string"
        }
      ],
      "name": "mintBadge",
      "outputs": [],
      "stateMutability": "payable",
      "type": "function"
    },
    {
      "inputs": [],
      "name": "name",
      "outputs": [
        {
          "internalType": "string",
          "name": "",
          "type": "string"
        }
      ],
      "stateMutability": "view",
      "type": "function"
    },
    {
      "inputs": [
        {
          "internalType": "uint256",
          "name": "tokenId",
          "type": "uint256"
        }
      ],
      "name": "ownerOf",
      "outputs": [
        {
          "internalType": "address",
          "name": "",
          "type": "address"
        }
      ],
      "stateMutability": "view",
      "type": "function"
    },
    {
      "inputs": [
        {
          "internalType": "address",
          "name": "from",
          "type": "address"
        },
        {
          "internalType": "address",
          "name": "to",
          "type": "address"
        },
        {
          "internalType": "uint256",
          "name": "tokenId",
          "type": "uint256"
        }
      ],
      "name": "safeTransferFrom",
      "outputs": [],
      "stateMutability": "nonpayable",
      "type": "function"
    },
    {
      "inputs": [
        {
          "internalType": "address",
          "name": "from",
          "type": "address"
        },
        {
          "internalType": "address",
          "name": "to",
          "type": "address"
        },
        {
          "internalType": "uint256",
          "name": "tokenId",
          "type": "uint256"
        },
        {
          "internalType": "bytes",
          "name": "_data",
          "type": "bytes"
        }
      ],
      "name": "safeTransferFrom",
      "outputs": [],
      "stateMutability": "nonpayable",
      "type": "function"
    },
    {
      "inputs": [
        {
          "internalType": "address",
          "name": "operator",
          "type": "address"
        },
        {
          "internalType": "bool",
          "name": "approved",
          "type": "bool"
        }
      ],
      "name": "setApprovalForAll",
      "outputs": [],
      "stateMutability": "nonpayable",
      "type": "function"
    },
    {
      "inputs": [
        {
          "internalType": "bytes4",
          "name": "interfaceId",
          "type": "bytes4"
        }
      ],
      "name": "supportsInterface",
      "outputs": [
        {
          "internalType": "bool",
          "name": "",
          "type": "bool"
        }
      ],
      "stateMutability": "view",
      "type": "function"
    },
    {
      "inputs": [],
      "name": "symbol",
      "outputs": [
        {
          "internalType": "string",
          "name": "",
          "type": "string"
        }
      ],
      "stateMutability": "view",
      "type": "function"
    },
    {
      "inputs": [
        {
          "internalType": "uint256",
          "name": "tokenId",
          "type": "uint256"
        }
      ],
      "name": "tokenURI",
      "outputs": [
        {
          "internalType": "string",
          "name": "",
          "type": "string"
        }
      ],
      "stateMutability": "view",
      "type": "function"
    },
    {
      "inputs": [
        {
          "internalType": "address",
          "name": "from",
          "type": "address"
        },
        {
          "internalType": "address",
          "name": "to",
          "type": "address"
        },
        {
          "internalType": "uint256",
          "name": "tokenId",
          "type": "uint256"
        }
      ],
      "name": "transferFrom",
      "outputs": [],
      "stateMutability": "nonpayable",
      "type": "function"
    }
  ],
  "bytecode": "0x60806040523480156200001157600080fd5b5060405162003428380380620034288339818101604052810190620000379190620002a9565b6200007e816040518060400160405280600981526020017f202d2042616467657300000000000000000000000000000000000000000000008152506200014260201b60201c565b620000c5826040518060400160405280600681526020017f5f424144474500000000000000000000000000000000000000000000000000008152506200014260201b60201c565b8160009080519060200190620000dd92919062000170565b508060019080519060200190620000f692919062000170565b50505081600860006101000a81548173ffffffffffffffffffffffffffffffffffffffff021916908373ffffffffffffffffffffffffffffffffffffffff160217905550505062000536565b60608282604051602001620001599291906200033a565b604051602081830303815290604052905092915050565b8280546200017e9062000441565b90600052602060002090601f016020900481019282620001a25760008555620001ee565b82601f10620001bd57805160ff1916838001178555620001ee565b82800160010185558215620001ee579182015b82811115620001ed578251825591602001919060010190620001d0565b5b509050620001fd919062000201565b5090565b5b808211156200021c57600081600090555060010162000202565b5090565b60006200023762000231846200038b565b62000362565b9050828152602081018484840111156200025057600080fd5b6200025d8482856200040b565b509392505050565b60008151905062000276816200051c565b92915050565b600082601f8301126200028e57600080fd5b8151620002a084826020860162000220565b91505092915050565b60008060408385031215620002bd57600080fd5b6000620002cd8582860162000265565b925050602083015167ffffffffffffffff811115620002eb57600080fd5b620002f9858286016200027c565b9150509250929050565b60006200031082620003c1565b6200031c8185620003cc565b93506200032e8185602086016200040b565b80840191505092915050565b600062000348828562000303565b915062000356828462000303565b91508190509392505050565b60006200036e62000381565b90506200037c828262000477565b919050565b6000604051905090565b600067ffffffffffffffff821115620003a957620003a8620004dc565b5b620003b4826200050b565b9050602081019050919050565b600081519050919050565b600081905092915050565b6000620003e482620003eb565b9050919050565b600073ffffffffffffffffffffffffffffffffffffffff82169050919050565b60005b838110156200042b5780820151818401526020810190506200040e565b838111156200043b576000848401525b50505050565b600060028204905060018216806200045a57607f821691505b60208210811415620004715762000470620004ad565b5b50919050565b62000482826200050b565b810181811067ffffffffffffffff82111715620004a457620004a3620004dc565b5b80604052505050565b7f4e487b7100000000000000000000000000000000000000000000000000000000600052602260045260246000fd5b7f4e487b7100000000000000000000000000000000000000000000000000000000600052604160045260246000fd5b6000601f19601f8301169050919050565b6200052781620003d7565b81146200053357600080fd5b50565b612ee280620005466000396000f3fe6080604052600436106100f35760003560e01c806370a082311161008a578063b88d4fde11610059578063b88d4fde1461031e578063c87b56dd14610347578063cdb055cc14610384578063e985e9c5146103af576100f3565b806370a082311461027157806395d89b41146102ae578063a1169605146102d9578063a22cb465146102f5576100f3565b806323b872dd116100c657806323b872dd146101c657806342842e0e146101ef5780636352211e146102185780636b2bafc814610255576100f3565b806301ffc9a7146100f857806306fdde0314610135578063081812fc14610160578063095ea7b31461019d575b600080fd5b34801561010457600080fd5b5061011f600480360381019061011a9190611f46565b6103ec565b60405161012c9190612398565b60405180910390f35b34801561014157600080fd5b5061014a6104ce565b60405161015791906123b3565b60405180910390f35b34801561016c57600080fd5b5061018760048036038101906101829190611f98565b610560565b6040516101949190612308565b60405180910390f35b3480156101a957600080fd5b506101c460048036038101906101bf9190611f0a565b6105e5565b005b3480156101d257600080fd5b506101ed60048036038101906101e89190611db0565b6106fd565b005b3480156101fb57600080fd5b5061021660048036038101906102119190611db0565b61075d565b005b34801561022457600080fd5b5061023f600480360381019061023a9190611f98565b61077d565b60405161024c9190612308565b60405180910390f35b61026f600480360381019061026a9190611eb6565b61082f565b005b34801561027d57600080fd5b5061029860048036038101906102939190611d4b565b610937565b6040516102a591906125f5565b60405180910390f35b3480156102ba57600080fd5b506102c36109ef565b6040516102d091906123b3565b60405180910390f35b6102f360048036038101906102ee9190611f98565b610a81565b005b34801561030157600080fd5b5061031c60048036038101906103179190611e7a565b610c45565b005b34801561032a57600080fd5b5061034560048036038101906103409190611dff565b610dc6565b005b34801561035357600080fd5b5061036e60048036038101906103699190611f98565b610e28565b60405161037b91906123b3565b60405180910390f35b34801561039057600080fd5b50610399610f7a565b6040516103a69190612308565b60405180910390f35b3480156103bb57600080fd5b506103d660048036038101906103d19190611d74565b610fa0565b6040516103e39190612398565b60405180910390f35b60007f80ac58cd000000000000000000000000000000000000000000000000000000007bffffffffffffffffffffffffffffffffffffffffffffffffffffffff1916827bffffffffffffffffffffffffffffffffffffffffffffffffffffffff191614806104b757507f5b5e139f000000000000000000000000000000000000000000000000000000007bffffffffffffffffffffffffffffffffffffffffffffffffffffffff1916827bffffffffffffffffffffffffffffffffffffffffffffffffffffffff1916145b806104c757506104c682611034565b5b9050919050565b6060600080546104dd9061284b565b80601f01602080910402602001604051908101604052809291908181526020018280546105099061284b565b80156105565780601f1061052b57610100808354040283529160200191610556565b820191906000526020600020905b81548152906001019060200180831161053957829003601f168201915b5050505050905090565b600061056b8261109e565b6105aa576040517f08c379a00000000000000000000000000000000000000000000000000000000081526004016105a190612535565b60405180910390fd5b6004600083815260200190815260200160002060009054906101000a900473ffffffffffffffffffffffffffffffffffffffff169050919050565b60006105f08261077d565b90508073ffffffffffffffffffffffffffffffffffffffff168373ffffffffffffffffffffffffffffffffffffffff161415610661576040517f08c379a000000000000000000000000000000000000000000000000000000000815260040161065890612575565b60405180910390fd5b8073ffffffffffffffffffffffffffffffffffffffff1661068061110a565b73ffffffffffffffffffffffffffffffffffffffff1614806106af57506106ae816106a961110a565b610fa0565b5b6106ee576040517f08c379a00000000000000000000000000000000000000000000000000000000081526004016106e590612455565b60405180910390fd5b6106f88383611112565b505050565b61070e61070861110a565b826111cb565b61074d576040517f08c379a000000000000000000000000000000000000000000000000000000000815260040161074490612595565b60405180910390fd5b6107588383836112a9565b505050565b61077883838360405180602001604052806000815250610dc6565b505050565b6000806002600084815260200190815260200160002060009054906101000a900473ffffffffffffffffffffffffffffffffffffffff169050600073ffffffffffffffffffffffffffffffffffffffff168173ffffffffffffffffffffffffffffffffffffffff161415610826576040517f08c379a000000000000000000000000000000000000000000000000000000000815260040161081d90612495565b60405180910390fd5b80915050919050565b600860009054906101000a900473ffffffffffffffffffffffffffffffffffffffff1673ffffffffffffffffffffffffffffffffffffffff163373ffffffffffffffffffffffffffffffffffffffff161461088957600080fd5b61089360076112ef565b600061089f6007611305565b90506108ab8382611313565b6108b581836114e1565b808373ffffffffffffffffffffffffffffffffffffffff16600860009054906101000a900473ffffffffffffffffffffffffffffffffffffffff1673ffffffffffffffffffffffffffffffffffffffff167fddf252ad1be2c89b69c2b068fc378daa952ba7f163c4a11628f55a4df523b3ef60405160405180910390a4505050565b60008073ffffffffffffffffffffffffffffffffffffffff168273ffffffffffffffffffffffffffffffffffffffff1614156109a8576040517f08c379a000000000000000000000000000000000000000000000000000000000815260040161099f90612475565b60405180910390fd5b600360008373ffffffffffffffffffffffffffffffffffffffff1673ffffffffffffffffffffffffffffffffffffffff168152602001908152602001600020549050919050565b6060600180546109fe9061284b565b80601f0160208091040260200160405190810160405280929190818152602001828054610a2a9061284b565b8015610a775780601f10610a4c57610100808354040283529160200191610a77565b820191906000526020600020905b815481529060010190602001808311610a5a57829003601f168201915b5050505050905090565b610a8a8161077d565b73ffffffffffffffffffffffffffffffffffffffff163373ffffffffffffffffffffffffffffffffffffffff1614610af7576040517f08c379a0000000000000000000000000000000000000000000000000000000008152600401610aee906125b5565b60405180910390fd5b62093a80600960008381526020019081526020016000205442610b1a9190612761565b1115610b5b576040517f08c379a0000000000000000000000000000000000000000000000000000000008152600401610b52906125d5565b60405180910390fd5b610b6481611555565b600860009054906101000a900473ffffffffffffffffffffffffffffffffffffffff1673ffffffffffffffffffffffffffffffffffffffff1663deccb0916040518163ffffffff1660e01b8152600401600060405180830381600087803b158015610bce57600080fd5b505af1158015610be2573d6000803e3d6000fd5b505050507f74b876a3976ec73d04754387c8e4a73c432b83d4ee32a082f0767d877c4e8bf2600860009054906101000a900473ffffffffffffffffffffffffffffffffffffffff166001604051610c3a92919061236f565b60405180910390a150565b610c4d61110a565b73ffffffffffffffffffffffffffffffffffffffff168273ffffffffffffffffffffffffffffffffffffffff161415610cbb576040517f08c379a0000000000000000000000000000000000000000000000000000000008152600401610cb290612415565b60405180910390fd5b8060056000610cc861110a565b73ffffffffffffffffffffffffffffffffffffffff1673ffffffffffffffffffffffffffffffffffffffff16815260200190815260200160002060008473ffffffffffffffffffffffffffffffffffffffff1673ffffffffffffffffffffffffffffffffffffffff16815260200190815260200160002060006101000a81548160ff0219169083151502179055508173ffffffffffffffffffffffffffffffffffffffff16610d7561110a565b73ffffffffffffffffffffffffffffffffffffffff167f17307eab39ab6107e8899845ad3d59bd9653f200f220920489ca2b5937696c3183604051610dba9190612398565b60405180910390a35050565b610dd7610dd161110a565b836111cb565b610e16576040517f08c379a0000000000000000000000000000000000000000000000000000000008152600401610e0d90612595565b60405180910390fd5b610e22848484846115a8565b50505050565b6060610e338261109e565b610e72576040517f08c379a0000000000000000000000000000000000000000000000000000000008152600401610e6990612515565b60405180910390fd5b6000600660008481526020019081526020016000208054610e929061284b565b80601f0160208091040260200160405190810160405280929190818152602001828054610ebe9061284b565b8015610f0b5780601f10610ee057610100808354040283529160200191610f0b565b820191906000526020600020905b815481529060010190602001808311610eee57829003601f168201915b505050505090506000610f1c611604565b9050600081511415610f32578192505050610f75565b600082511115610f67578082604051602001610f4f9291906122e4565b60405160208183030381529060405292505050610f75565b610f708461161b565b925050505b919050565b600860009054906101000a900473ffffffffffffffffffffffffffffffffffffffff1681565b6000600560008473ffffffffffffffffffffffffffffffffffffffff1673ffffffffffffffffffffffffffffffffffffffff16815260200190815260200160002060008373ffffffffffffffffffffffffffffffffffffffff1673ffffffffffffffffffffffffffffffffffffffff16815260200190815260200160002060009054906101000a900460ff16905092915050565b60007f01ffc9a7000000000000000000000000000000000000000000000000000000007bffffffffffffffffffffffffffffffffffffffffffffffffffffffff1916827bffffffffffffffffffffffffffffffffffffffffffffffffffffffff1916149050919050565b60008073ffffffffffffffffffffffffffffffffffffffff166002600084815260200190815260200160002060009054906101000a900473ffffffffffffffffffffffffffffffffffffffff1673ffffffffffffffffffffffffffffffffffffffff1614159050919050565b600033905090565b816004600083815260200190815260200160002060006101000a81548173ffffffffffffffffffffffffffffffffffffffff021916908373ffffffffffffffffffffffffffffffffffffffff160217905550808273ffffffffffffffffffffffffffffffffffffffff166111858361077d565b73ffffffffffffffffffffffffffffffffffffffff167f8c5be1e5ebec7d5bd14f71427d1e84f3dd0314c0f7b2291e5b200ac8c7c3b92560405160405180910390a45050565b60006111d68261109e565b611215576040517f08c379a000000000000000000000000000000000000000000000000000000000815260040161120c90612435565b60405180910390fd5b60006112208361077d565b90508073ffffffffffffffffffffffffffffffffffffffff168473ffffffffffffffffffffffffffffffffffffffff16148061128f57508373ffffffffffffffffffffffffffffffffffffffff1661127784610560565b73ffffffffffffffffffffffffffffffffffffffff16145b806112a0575061129f8185610fa0565b5b91505092915050565b60006112ea576040517f08c379a00000000000000000000000000000000000000000000000000000000081526004016112e1906124d5565b60405180910390fd5b505050565b6001816000016000828254019250508190555050565b600081600001549050919050565b600073ffffffffffffffffffffffffffffffffffffffff168273ffffffffffffffffffffffffffffffffffffffff161415611383576040517f08c379a000000000000000000000000000000000000000000000000000000000815260040161137a906124f5565b60405180910390fd5b61138c8161109e565b156113cc576040517f08c379a00000000000000000000000000000000000000000000000000000000081526004016113c3906123f5565b60405180910390fd5b6113d8600083836116c2565b6001600360008473ffffffffffffffffffffffffffffffffffffffff1673ffffffffffffffffffffffffffffffffffffffff168152602001908152602001600020600082825461142891906126da565b92505081905550816002600083815260200190815260200160002060006101000a81548173ffffffffffffffffffffffffffffffffffffffff021916908373ffffffffffffffffffffffffffffffffffffffff160217905550808273ffffffffffffffffffffffffffffffffffffffff16600073ffffffffffffffffffffffffffffffffffffffff167fddf252ad1be2c89b69c2b068fc378daa952ba7f163c4a11628f55a4df523b3ef60405160405180910390a45050565b6114ea8261109e565b611529576040517f08c379a0000000000000000000000000000000000000000000000000000000008152600401611520906124b5565b60405180910390fd5b80600660008481526020019081526020016000209080519060200190611550929190611b2f565b505050565b61155e816116c7565b600060066000838152602001908152602001600020805461157e9061284b565b9050146115a5576006600082815260200190815260200160002060006115a49190611bb5565b5b50565b6115b38484846112a9565b6115bf848484846117d8565b6115fe576040517f08c379a00000000000000000000000000000000000000000000000000000000081526004016115f5906123d5565b60405180910390fd5b50505050565b606060405180602001604052806000815250905090565b60606116268261109e565b611665576040517f08c379a000000000000000000000000000000000000000000000000000000000815260040161165c90612555565b60405180910390fd5b600061166f611604565b9050600081511161168f57604051806020016040528060008152506116ba565b806116998461196f565b6040516020016116aa9291906122e4565b6040516020818303038152906040525b915050919050565b505050565b60006116d28261077d565b90506116e0816000846116c2565b6116eb600083611112565b6001600360008373ffffffffffffffffffffffffffffffffffffffff1673ffffffffffffffffffffffffffffffffffffffff168152602001908152602001600020600082825461173b9190612761565b925050819055506002600083815260200190815260200160002060006101000a81549073ffffffffffffffffffffffffffffffffffffffff021916905581600073ffffffffffffffffffffffffffffffffffffffff168273ffffffffffffffffffffffffffffffffffffffff167fddf252ad1be2c89b69c2b068fc378daa952ba7f163c4a11628f55a4df523b3ef60405160405180910390a45050565b60006117f98473ffffffffffffffffffffffffffffffffffffffff16611b1c565b15611962578373ffffffffffffffffffffffffffffffffffffffff1663150b7a0261182261110a565b8786866040518563ffffffff1660e01b81526004016118449493929190612323565b602060405180830381600087803b15801561185e57600080fd5b505af192505050801561188f57506040513d601f19601f8201168201806040525081019061188c9190611f6f565b60015b611912573d80600081146118bf576040519150601f19603f3d011682016040523d82523d6000602084013e6118c4565b606091505b5060008151141561190a576040517f08c379a0000000000000000000000000000000000000000000000000000000008152600401611901906123d5565b60405180910390fd5b805181602001fd5b63150b7a0260e01b7bffffffffffffffffffffffffffffffffffffffffffffffffffffffff1916817bffffffffffffffffffffffffffffffffffffffffffffffffffffffff191614915050611967565b600190505b949350505050565b606060008214156119b7576040518060400160405280600181526020017f30000000000000000000000000000000000000000000000000000000000000008152509050611b17565b600082905060005b600082146119e95780806119d2906128ae565b915050600a826119e29190612730565b91506119bf565b60008167ffffffffffffffff811115611a2b577f4e487b7100000000000000000000000000000000000000000000000000000000600052604160045260246000fd5b6040519080825280601f01601f191660200182016040528015611a5d5781602001600182028036833780820191505090505b5090505b60008514611b1057600182611a769190612761565b9150600a85611a8591906128f7565b6030611a9191906126da565b60f81b818381518110611acd577f4e487b7100000000000000000000000000000000000000000000000000000000600052603260045260246000fd5b60200101907effffffffffffffffffffffffffffffffffffffffffffffffffffffffffffff1916908160001a905350600a85611b099190612730565b9450611a61565b8093505050505b919050565b600080823b905060008111915050919050565b828054611b3b9061284b565b90600052602060002090601f016020900481019282611b5d5760008555611ba4565b82601f10611b7657805160ff1916838001178555611ba4565b82800160010185558215611ba4579182015b82811115611ba3578251825591602001919060010190611b88565b5b509050611bb19190611bf5565b5090565b508054611bc19061284b565b6000825580601f10611bd35750611bf2565b601f016020900490600052602060002090810190611bf19190611bf5565b5b50565b5b80821115611c0e576000816000905550600101611bf6565b5090565b6000611c25611c2084612635565b612610565b905082815260208101848484011115611c3d57600080fd5b611c48848285612809565b509392505050565b6000611c63611c5e84612666565b612610565b905082815260208101848484011115611c7b57600080fd5b611c86848285612809565b509392505050565b600081359050611c9d81612e50565b92915050565b600081359050611cb281612e67565b92915050565b600081359050611cc781612e7e565b92915050565b600081519050611cdc81612e7e565b92915050565b600082601f830112611cf357600080fd5b8135611d03848260208601611c12565b91505092915050565b600082601f830112611d1d57600080fd5b8135611d2d848260208601611c50565b91505092915050565b600081359050611d4581612e95565b92915050565b600060208284031215611d5d57600080fd5b6000611d6b84828501611c8e565b91505092915050565b60008060408385031215611d8757600080fd5b6000611d9585828601611c8e565b9250506020611da685828601611c8e565b9150509250929050565b600080600060608486031215611dc557600080fd5b6000611dd386828701611c8e565b9350506020611de486828701611c8e565b9250506040611df586828701611d36565b9150509250925092565b60008060008060808587031215611e1557600080fd5b6000611e2387828801611c8e565b9450506020611e3487828801611c8e565b9350506040611e4587828801611d36565b925050606085013567ffffffffffffffff811115611e6257600080fd5b611e6e87828801611ce2565b91505092959194509250565b60008060408385031215611e8d57600080fd5b6000611e9b85828601611c8e565b9250506020611eac85828601611ca3565b9150509250929050565b60008060408385031215611ec957600080fd5b6000611ed785828601611c8e565b925050602083013567ffffffffffffffff811115611ef457600080fd5b611f0085828601611d0c565b9150509250929050565b60008060408385031215611f1d57600080fd5b6000611f2b85828601611c8e565b9250506020611f3c85828601611d36565b9150509250929050565b600060208284031215611f5857600080fd5b6000611f6684828501611cb8565b91505092915050565b600060208284031215611f8157600080fd5b6000611f8f84828501611ccd565b91505092915050565b600060208284031215611faa57600080fd5b6000611fb884828501611d36565b91505092915050565b611fca81612795565b82525050565b611fd9816127a7565b82525050565b6000611fea82612697565b611ff481856126ad565b9350612004818560208601612818565b61200d816129e4565b840191505092915050565b6000612023826126a2565b61202d81856126be565b935061203d818560208601612818565b612046816129e4565b840191505092915050565b600061205c826126a2565b61206681856126cf565b9350612076818560208601612818565b80840191505092915050565b600061208f6032836126be565b915061209a826129f5565b604082019050919050565b60006120b2601c836126be565b91506120bd82612a44565b602082019050919050565b60006120d56019836126be565b91506120e082612a6d565b602082019050919050565b60006120f8602c836126be565b915061210382612a96565b604082019050919050565b600061211b6038836126be565b915061212682612ae5565b604082019050919050565b600061213e602a836126be565b915061214982612b34565b604082019050919050565b60006121616029836126be565b915061216c82612b83565b604082019050919050565b6000612184602e836126be565b915061218f82612bd2565b604082019050919050565b60006121a76014836126be565b91506121b282612c21565b602082019050919050565b60006121ca6020836126be565b91506121d582612c4a565b602082019050919050565b60006121ed6031836126be565b91506121f882612c73565b604082019050919050565b6000612210602c836126be565b915061221b82612cc2565b604082019050919050565b6000612233602f836126be565b915061223e82612d11565b604082019050919050565b60006122566021836126be565b915061226182612d60565b604082019050919050565b60006122796031836126be565b915061228482612daf565b604082019050919050565b600061229c6019836126be565b91506122a782612dfe565b602082019050919050565b60006122bf6018836126be565b91506122ca82612e27565b602082019050919050565b6122de816127ff565b82525050565b60006122f08285612051565b91506122fc8284612051565b91508190509392505050565b600060208201905061231d6000830184611fc1565b92915050565b60006080820190506123386000830187611fc1565b6123456020830186611fc1565b61235260408301856122d5565b81810360608301526123648184611fdf565b905095945050505050565b60006040820190506123846000830185611fc1565b6123916020830184611fd0565b9392505050565b60006020820190506123ad6000830184611fd0565b92915050565b600060208201905081810360008301526123cd8184612018565b905092915050565b600060208201905081810360008301526123ee81612082565b9050919050565b6000602082019050818103600083015261240e816120a5565b9050919050565b6000602082019050818103600083015261242e816120c8565b9050919050565b6000602082019050818103600083015261244e816120eb565b9050919050565b6000602082019050818103600083015261246e8161210e565b9050919050565b6000602082019050818103600083015261248e81612131565b9050919050565b600060208201905081810360008301526124ae81612154565b9050919050565b600060208201905081810360008301526124ce81612177565b9050919050565b600060208201905081810360008301526124ee8161219a565b9050919050565b6000602082019050818103600083015261250e816121bd565b9050919050565b6000602082019050818103600083015261252e816121e0565b9050919050565b6000602082019050818103600083015261254e81612203565b9050919050565b6000602082019050818103600083015261256e81612226565b9050919050565b6000602082019050818103600083015261258e81612249565b9050919050565b600060208201905081810360008301526125ae8161226c565b9050919050565b600060208201905081810360008301526125ce8161228f565b9050919050565b600060208201905081810360008301526125ee816122b2565b9050919050565b600060208201905061260a60008301846122d5565b92915050565b600061261a61262b565b9050612626828261287d565b919050565b6000604051905090565b600067ffffffffffffffff8211156126505761264f6129b5565b5b612659826129e4565b9050602081019050919050565b600067ffffffffffffffff821115612681576126806129b5565b5b61268a826129e4565b9050602081019050919050565b600081519050919050565b600081519050919050565b600082825260208201905092915050565b600082825260208201905092915050565b600081905092915050565b60006126e5826127ff565b91506126f0836127ff565b9250827fffffffffffffffffffffffffffffffffffffffffffffffffffffffffffffffff0382111561272557612724612928565b5b828201905092915050565b600061273b826127ff565b9150612746836127ff565b92508261275657612755612957565b5b828204905092915050565b600061276c826127ff565b9150612777836127ff565b92508282101561278a57612789612928565b5b828203905092915050565b60006127a0826127df565b9050919050565b60008115159050919050565b60007fffffffff0000000000000000000000000000000000000000000000000000000082169050919050565b600073ffffffffffffffffffffffffffffffffffffffff82169050919050565b6000819050919050565b82818337600083830152505050565b60005b8381101561283657808201518184015260208101905061281b565b83811115612845576000848401525b50505050565b6000600282049050600182168061286357607f821691505b6020821081141561287757612876612986565b5b50919050565b612886826129e4565b810181811067ffffffffffffffff821117156128a5576128a46129b5565b5b80604052505050565b60006128b9826127ff565b91507fffffffffffffffffffffffffffffffffffffffffffffffffffffffffffffffff8214156128ec576128eb612928565b5b600182019050919050565b6000612902826127ff565b915061290d836127ff565b92508261291d5761291c612957565b5b828206905092915050565b7f4e487b7100000000000000000000000000000000000000000000000000000000600052601160045260246000fd5b7f4e487b7100000000000000000000000000000000000000000000000000000000600052601260045260246000fd5b7f4e487b7100000000000000000000000000000000000000000000000000000000600052602260045260246000fd5b7f4e487b7100000000000000000000000000000000000000000000000000000000600052604160045260246000fd5b6000601f19601f8301169050919050565b7f4552433732313a207472616e7366657220746f206e6f6e20455243373231526560008201527f63656976657220696d706c656d656e7465720000000000000000000000000000602082015250565b7f4552433732313a20746f6b656e20616c7265616479206d696e74656400000000600082015250565b7f4552433732313a20617070726f766520746f2063616c6c657200000000000000600082015250565b7f4552433732313a206f70657261746f7220717565727920666f72206e6f6e657860008201527f697374656e7420746f6b656e0000000000000000000000000000000000000000602082015250565b7f4552433732313a20617070726f76652063616c6c6572206973206e6f74206f7760008201527f6e6572206e6f7220617070726f76656420666f7220616c6c0000000000000000602082015250565b7f4552433732313a2062616c616e636520717565727920666f7220746865207a6560008201527f726f206164647265737300000000000000000000000000000000000000000000602082015250565b7f4552433732313a206f776e657220717565727920666f72206e6f6e657869737460008201527f656e7420746f6b656e0000000000000000000000000000000000000000000000602082015250565b7f45524337323155524953746f726167653a2055524920736574206f66206e6f6e60008201527f6578697374656e7420746f6b656e000000000000000000000000000000000000602082015250565b7f5472616e73666572206e6f7420616c6c6f776564000000000000000000000000600082015250565b7f4552433732313a206d696e7420746f20746865207a65726f2061646472657373600082015250565b7f45524337323155524953746f726167653a2055524920717565727920666f722060008201527f6e6f6e6578697374656e7420746f6b656e000000000000000000000000000000602082015250565b7f4552433732313a20617070726f76656420717565727920666f72206e6f6e657860008201527f697374656e7420746f6b656e0000000000000000000000000000000000000000602082015250565b7f4552433732314d657461646174613a2055524920717565727920666f72206e6f60008201527f6e6578697374656e7420746f6b656e0000000000000000000000000000000000602082015250565b7f4552433732313a20617070726f76616c20746f2063757272656e74206f776e6560008201527f7200000000000000000000000000000000000000000000000000000000000000602082015250565b7f4552433732313a207472616e736665722063616c6c6572206973206e6f74206f60008201527f776e6572206e6f7220617070726f766564000000000000000000000000000000602082015250565b7f4f6e6c79206f776e65722063616e206275726e20626164676500000000000000600082015250565b7f4e6f7420616c6c6f776564206166746572203720646179730000000000000000600082015250565b612e5981612795565b8114612e6457600080fd5b50565b612e70816127a7565b8114612e7b57600080fd5b50565b612e87816127b3565b8114612e9257600080fd5b50565b612e9e816127ff565b8114612ea957600080fd5b5056fea2646970667358221220f38d94dadea9ee567fb6e79e2b61cc5b3758749bc466e498fa043ac427045b8f64736f6c63430008040033",
  "linkReferences": {},
  "deployedLinkReferences": {}
}