{
  "_format": "hh-sol-artifact-1",
  "contractName": "BadgeToken",
  "sourceName": "contracts/BadgeToken.sol",
  "abi": [
    {
      "inputs": [
        {
          "internalType": "address",
          "name": "_badgeRegistry",
          "type": "address"
        }
      ],
      "stateMutability": "nonpayable",
      "type": "constructor"
    },
    {
      "anonymous": false,
      "inputs": [
        {
          "indexed": true,
          "internalType": "address",
          "name": "owner",
          "type": "address"
        },
        {
          "indexed": true,
          "internalType": "address",
          "name": "approved",
          "type": "address"
        },
        {
          "indexed": true,
          "internalType": "uint256",
          "name": "tokenId",
          "type": "uint256"
        }
      ],
      "name": "Approval",
      "type": "event"
    },
    {
      "anonymous": false,
      "inputs": [
        {
          "indexed": true,
          "internalType": "address",
          "name": "owner",
          "type": "address"
        },
        {
          "indexed": true,
          "internalType": "address",
          "name": "operator",
          "type": "address"
        },
        {
          "indexed": false,
          "internalType": "bool",
          "name": "approved",
          "type": "bool"
        }
      ],
      "name": "ApprovalForAll",
      "type": "event"
    },
    {
      "anonymous": false,
      "inputs": [
        {
          "indexed": false,
          "internalType": "address",
          "name": "entityAddress",
          "type": "address"
        },
        {
          "indexed": false,
          "internalType": "bool",
          "name": "withPrejudice",
          "type": "bool"
        }
      ],
      "name": "BadgeBurned",
      "type": "event"
    },
    {
      "anonymous": false,
      "inputs": [
        {
          "indexed": true,
          "internalType": "address",
          "name": "from",
          "type": "address"
        },
        {
          "indexed": true,
          "internalType": "address",
          "name": "to",
          "type": "address"
        },
        {
          "indexed": true,
          "internalType": "uint256",
          "name": "tokenId",
          "type": "uint256"
        }
      ],
      "name": "Transfer",
      "type": "event"
    },
    {
      "inputs": [
        {
          "internalType": "address",
          "name": "to",
          "type": "address"
        },
        {
          "internalType": "uint256",
          "name": "tokenId",
          "type": "uint256"
        }
      ],
      "name": "approve",
      "outputs": [],
      "stateMutability": "nonpayable",
      "type": "function"
    },
    {
      "inputs": [],
      "name": "badgeRegistry",
      "outputs": [
        {
          "internalType": "address",
          "name": "",
          "type": "address"
        }
      ],
      "stateMutability": "view",
      "type": "function"
    },
    {
      "inputs": [
        {
          "internalType": "address",
          "name": "owner",
          "type": "address"
        }
      ],
      "name": "balanceOf",
      "outputs": [
        {
          "internalType": "uint256",
          "name": "",
          "type": "uint256"
        }
      ],
      "stateMutability": "view",
      "type": "function"
    },
    {
      "inputs": [
        {
          "internalType": "uint256",
          "name": "tokenId",
          "type": "uint256"
        }
      ],
      "name": "burnWithPrejudice",
      "outputs": [],
      "stateMutability": "payable",
      "type": "function"
    },
    {
      "inputs": [
        {
          "internalType": "uint256",
          "name": "tokenId",
          "type": "uint256"
        }
      ],
      "name": "getApproved",
      "outputs": [
        {
          "internalType": "address",
          "name": "",
          "type": "address"
        }
      ],
      "stateMutability": "view",
      "type": "function"
    },
    {
      "inputs": [
        {
          "internalType": "address",
          "name": "owner",
          "type": "address"
        },
        {
          "internalType": "address",
          "name": "operator",
          "type": "address"
        }
      ],
      "name": "isApprovedForAll",
      "outputs": [
        {
          "internalType": "bool",
          "name": "",
          "type": "bool"
        }
      ],
      "stateMutability": "view",
      "type": "function"
    },
    {
      "inputs": [
        {
          "internalType": "address",
          "name": "userId",
          "type": "address"
        },
        {
          "internalType": "string",
          "name": "tokenURI",
          "type": "string"
        }
      ],
      "name": "mintBadge",
      "outputs": [],
      "stateMutability": "payable",
      "type": "function"
    },
    {
      "inputs": [],
      "name": "name",
      "outputs": [
        {
          "internalType": "string",
          "name": "",
          "type": "string"
        }
      ],
      "stateMutability": "view",
      "type": "function"
    },
    {
      "inputs": [
        {
          "internalType": "uint256",
          "name": "tokenId",
          "type": "uint256"
        }
      ],
      "name": "ownerOf",
      "outputs": [
        {
          "internalType": "address",
          "name": "",
          "type": "address"
        }
      ],
      "stateMutability": "view",
      "type": "function"
    },
    {
      "inputs": [
        {
          "internalType": "address",
          "name": "from",
          "type": "address"
        },
        {
          "internalType": "address",
          "name": "to",
          "type": "address"
        },
        {
          "internalType": "uint256",
          "name": "tokenId",
          "type": "uint256"
        }
      ],
      "name": "safeTransferFrom",
      "outputs": [],
      "stateMutability": "nonpayable",
      "type": "function"
    },
    {
      "inputs": [
        {
          "internalType": "address",
          "name": "from",
          "type": "address"
        },
        {
          "internalType": "address",
          "name": "to",
          "type": "address"
        },
        {
          "internalType": "uint256",
          "name": "tokenId",
          "type": "uint256"
        },
        {
          "internalType": "bytes",
          "name": "_data",
          "type": "bytes"
        }
      ],
      "name": "safeTransferFrom",
      "outputs": [],
      "stateMutability": "nonpayable",
      "type": "function"
    },
    {
      "inputs": [
        {
          "internalType": "address",
          "name": "operator",
          "type": "address"
        },
        {
          "internalType": "bool",
          "name": "approved",
          "type": "bool"
        }
      ],
      "name": "setApprovalForAll",
      "outputs": [],
      "stateMutability": "nonpayable",
      "type": "function"
    },
    {
      "inputs": [
        {
          "internalType": "bytes4",
          "name": "interfaceId",
          "type": "bytes4"
        }
      ],
      "name": "supportsInterface",
      "outputs": [
        {
          "internalType": "bool",
          "name": "",
          "type": "bool"
        }
      ],
      "stateMutability": "view",
      "type": "function"
    },
    {
      "inputs": [],
      "name": "symbol",
      "outputs": [
        {
          "internalType": "string",
          "name": "",
          "type": "string"
        }
      ],
      "stateMutability": "view",
      "type": "function"
    },
    {
      "inputs": [
        {
          "internalType": "uint256",
          "name": "tokenId",
          "type": "uint256"
        }
      ],
      "name": "tokenURI",
      "outputs": [
        {
          "internalType": "string",
          "name": "",
          "type": "string"
        }
      ],
      "stateMutability": "view",
      "type": "function"
    },
    {
      "inputs": [
        {
          "internalType": "address",
          "name": "from",
          "type": "address"
        },
        {
          "internalType": "address",
          "name": "to",
          "type": "address"
        },
        {
          "internalType": "uint256",
          "name": "tokenId",
          "type": "uint256"
        }
      ],
      "name": "transferFrom",
      "outputs": [],
      "stateMutability": "nonpayable",
      "type": "function"
    }
  ],
  "bytecode": "0x60806040523480156200001157600080fd5b5060405162003291380380620032918339818101604052810190620000379190620001e6565b6040518060400160405280600681526020017f42616467652e00000000000000000000000000000000000000000000000000008152506040518060400160405280600581526020017f42414447450000000000000000000000000000000000000000000000000000008152508160009080519060200190620000bb9291906200011f565b508060019080519060200190620000d49291906200011f565b50505080600960006101000a81548173ffffffffffffffffffffffffffffffffffffffff021916908373ffffffffffffffffffffffffffffffffffffffff16021790555050620002c5565b8280546200012d9062000246565b90600052602060002090601f0160209004810192826200015157600085556200019d565b82601f106200016c57805160ff19168380011785556200019d565b828001600101855582156200019d579182015b828111156200019c5782518255916020019190600101906200017f565b5b509050620001ac9190620001b0565b5090565b5b80821115620001cb576000816000905550600101620001b1565b5090565b600081519050620001e081620002ab565b92915050565b600060208284031215620001f957600080fd5b60006200020984828501620001cf565b91505092915050565b60006200021f8262000226565b9050919050565b600073ffffffffffffffffffffffffffffffffffffffff82169050919050565b600060028204905060018216806200025f57607f821691505b602082108114156200027657620002756200027c565b5b50919050565b7f4e487b7100000000000000000000000000000000000000000000000000000000600052602260045260246000fd5b620002b68162000212565b8114620002c257600080fd5b50565b612fbc80620002d56000396000f3fe6080604052600436106100f35760003560e01c806370a082311161008a578063b88d4fde11610059578063b88d4fde1461031e578063c87b56dd14610347578063e985e9c514610384578063ea3e7cef146103c1576100f3565b806370a082311461027157806395d89b41146102ae578063a1169605146102d9578063a22cb465146102f5576100f3565b806323b872dd116100c657806323b872dd146101c657806342842e0e146101ef5780636352211e146102185780636b2bafc814610255576100f3565b806301ffc9a7146100f857806306fdde0314610135578063081812fc14610160578063095ea7b31461019d575b600080fd5b34801561010457600080fd5b5061011f600480360381019061011a9190611fb4565b6103ec565b60405161012c9190612429565b60405180910390f35b34801561014157600080fd5b5061014a6104ce565b6040516101579190612444565b60405180910390f35b34801561016c57600080fd5b5061018760048036038101906101829190612006565b610560565b6040516101949190612399565b60405180910390f35b3480156101a957600080fd5b506101c460048036038101906101bf9190611f4f565b6105e5565b005b3480156101d257600080fd5b506101ed60048036038101906101e89190611df5565b6106fd565b005b3480156101fb57600080fd5b5061021660048036038101906102119190611df5565b61075d565b005b34801561022457600080fd5b5061023f600480360381019061023a9190612006565b61077d565b60405161024c9190612399565b60405180910390f35b61026f600480360381019061026a9190611efb565b61082f565b005b34801561027d57600080fd5b5061029860048036038101906102939190611d90565b6109ab565b6040516102a591906126a6565b60405180910390f35b3480156102ba57600080fd5b506102c3610a63565b6040516102d09190612444565b60405180910390f35b6102f360048036038101906102ee9190612006565b610af5565b005b34801561030157600080fd5b5061031c60048036038101906103179190611ebf565b610c75565b005b34801561032a57600080fd5b5061034560048036038101906103409190611e44565b610df6565b005b34801561035357600080fd5b5061036e60048036038101906103699190612006565b610e58565b60405161037b9190612444565b60405180910390f35b34801561039057600080fd5b506103ab60048036038101906103a69190611db9565b610faa565b6040516103b89190612429565b60405180910390f35b3480156103cd57600080fd5b506103d661103e565b6040516103e39190612399565b60405180910390f35b60007f80ac58cd000000000000000000000000000000000000000000000000000000007bffffffffffffffffffffffffffffffffffffffffffffffffffffffff1916827bffffffffffffffffffffffffffffffffffffffffffffffffffffffff191614806104b757507f5b5e139f000000000000000000000000000000000000000000000000000000007bffffffffffffffffffffffffffffffffffffffffffffffffffffffff1916827bffffffffffffffffffffffffffffffffffffffffffffffffffffffff1916145b806104c757506104c682611064565b5b9050919050565b6060600080546104dd906128fc565b80601f0160208091040260200160405190810160405280929190818152602001828054610509906128fc565b80156105565780601f1061052b57610100808354040283529160200191610556565b820191906000526020600020905b81548152906001019060200180831161053957829003601f168201915b5050505050905090565b600061056b826110ce565b6105aa576040517f08c379a00000000000000000000000000000000000000000000000000000000081526004016105a1906125c6565b60405180910390fd5b6004600083815260200190815260200160002060009054906101000a900473ffffffffffffffffffffffffffffffffffffffff169050919050565b60006105f08261077d565b90508073ffffffffffffffffffffffffffffffffffffffff168373ffffffffffffffffffffffffffffffffffffffff161415610661576040517f08c379a000000000000000000000000000000000000000000000000000000000815260040161065890612606565b60405180910390fd5b8073ffffffffffffffffffffffffffffffffffffffff1661068061113a565b73ffffffffffffffffffffffffffffffffffffffff1614806106af57506106ae816106a961113a565b610faa565b5b6106ee576040517f08c379a00000000000000000000000000000000000000000000000000000000081526004016106e5906124e6565b60405180910390fd5b6106f88383611142565b505050565b61070e61070861113a565b826111fb565b61074d576040517f08c379a000000000000000000000000000000000000000000000000000000000815260040161074490612646565b60405180910390fd5b6107588383836112d9565b505050565b61077883838360405180602001604052806000815250610df6565b505050565b6000806002600084815260200190815260200160002060009054906101000a900473ffffffffffffffffffffffffffffffffffffffff169050600073ffffffffffffffffffffffffffffffffffffffff168173ffffffffffffffffffffffffffffffffffffffff161415610826576040517f08c379a000000000000000000000000000000000000000000000000000000000815260040161081d90612526565b60405180910390fd5b80915050919050565b6000600960009054906101000a900473ffffffffffffffffffffffffffffffffffffffff1673ffffffffffffffffffffffffffffffffffffffff1663c3c5a547336040518263ffffffff1660e01b815260040161088c9190612399565b60206040518083038186803b1580156108a457600080fd5b505afa1580156108b8573d6000803e3d6000fd5b505050506040513d601f19601f820116820180604052508101906108dc9190611f8b565b90508061091e576040517f08c379a000000000000000000000000000000000000000000000000000000000815260040161091590612626565b60405180910390fd5b610928600761131f565b60006109346007611335565b90506109408482611343565b61094a8184611511565b808473ffffffffffffffffffffffffffffffffffffffff163373ffffffffffffffffffffffffffffffffffffffff167fddf252ad1be2c89b69c2b068fc378daa952ba7f163c4a11628f55a4df523b3ef60405160405180910390a450505050565b60008073ffffffffffffffffffffffffffffffffffffffff168273ffffffffffffffffffffffffffffffffffffffff161415610a1c576040517f08c379a0000000000000000000000000000000000000000000000000000000008152600401610a1390612506565b60405180910390fd5b600360008373ffffffffffffffffffffffffffffffffffffffff1673ffffffffffffffffffffffffffffffffffffffff168152602001908152602001600020549050919050565b606060018054610a72906128fc565b80601f0160208091040260200160405190810160405280929190818152602001828054610a9e906128fc565b8015610aeb5780601f10610ac057610100808354040283529160200191610aeb565b820191906000526020600020905b815481529060010190602001808311610ace57829003601f168201915b5050505050905090565b610afe8161077d565b73ffffffffffffffffffffffffffffffffffffffff163373ffffffffffffffffffffffffffffffffffffffff1614610b6b576040517f08c379a0000000000000000000000000000000000000000000000000000000008152600401610b6290612666565b60405180910390fd5b62093a80600860008381526020019081526020016000205442610b8e9190612812565b1115610bcf576040517f08c379a0000000000000000000000000000000000000000000000000000000008152600401610bc690612686565b60405180910390fd5b610bd881611585565b3373ffffffffffffffffffffffffffffffffffffffff1663deccb0916040518163ffffffff1660e01b8152600401600060405180830381600087803b158015610c2057600080fd5b505af1158015610c34573d6000803e3d6000fd5b505050507f74b876a3976ec73d04754387c8e4a73c432b83d4ee32a082f0767d877c4e8bf2336001604051610c6a929190612400565b60405180910390a150565b610c7d61113a565b73ffffffffffffffffffffffffffffffffffffffff168273ffffffffffffffffffffffffffffffffffffffff161415610ceb576040517f08c379a0000000000000000000000000000000000000000000000000000000008152600401610ce2906124a6565b60405180910390fd5b8060056000610cf861113a565b73ffffffffffffffffffffffffffffffffffffffff1673ffffffffffffffffffffffffffffffffffffffff16815260200190815260200160002060008473ffffffffffffffffffffffffffffffffffffffff1673ffffffffffffffffffffffffffffffffffffffff16815260200190815260200160002060006101000a81548160ff0219169083151502179055508173ffffffffffffffffffffffffffffffffffffffff16610da561113a565b73ffffffffffffffffffffffffffffffffffffffff167f17307eab39ab6107e8899845ad3d59bd9653f200f220920489ca2b5937696c3183604051610dea9190612429565b60405180910390a35050565b610e07610e0161113a565b836111fb565b610e46576040517f08c379a0000000000000000000000000000000000000000000000000000000008152600401610e3d90612646565b60405180910390fd5b610e52848484846115d8565b50505050565b6060610e63826110ce565b610ea2576040517f08c379a0000000000000000000000000000000000000000000000000000000008152600401610e99906125a6565b60405180910390fd5b6000600660008481526020019081526020016000208054610ec2906128fc565b80601f0160208091040260200160405190810160405280929190818152602001828054610eee906128fc565b8015610f3b5780601f10610f1057610100808354040283529160200191610f3b565b820191906000526020600020905b815481529060010190602001808311610f1e57829003601f168201915b505050505090506000610f4c611634565b9050600081511415610f62578192505050610fa5565b600082511115610f97578082604051602001610f7f929190612375565b60405160208183030381529060405292505050610fa5565b610fa08461164b565b925050505b919050565b6000600560008473ffffffffffffffffffffffffffffffffffffffff1673ffffffffffffffffffffffffffffffffffffffff16815260200190815260200160002060008373ffffffffffffffffffffffffffffffffffffffff1673ffffffffffffffffffffffffffffffffffffffff16815260200190815260200160002060009054906101000a900460ff16905092915050565b600960009054906101000a900473ffffffffffffffffffffffffffffffffffffffff1681565b60007f01ffc9a7000000000000000000000000000000000000000000000000000000007bffffffffffffffffffffffffffffffffffffffffffffffffffffffff1916827bffffffffffffffffffffffffffffffffffffffffffffffffffffffff1916149050919050565b60008073ffffffffffffffffffffffffffffffffffffffff166002600084815260200190815260200160002060009054906101000a900473ffffffffffffffffffffffffffffffffffffffff1673ffffffffffffffffffffffffffffffffffffffff1614159050919050565b600033905090565b816004600083815260200190815260200160002060006101000a81548173ffffffffffffffffffffffffffffffffffffffff021916908373ffffffffffffffffffffffffffffffffffffffff160217905550808273ffffffffffffffffffffffffffffffffffffffff166111b58361077d565b73ffffffffffffffffffffffffffffffffffffffff167f8c5be1e5ebec7d5bd14f71427d1e84f3dd0314c0f7b2291e5b200ac8c7c3b92560405160405180910390a45050565b6000611206826110ce565b611245576040517f08c379a000000000000000000000000000000000000000000000000000000000815260040161123c906124c6565b60405180910390fd5b60006112508361077d565b90508073ffffffffffffffffffffffffffffffffffffffff168473ffffffffffffffffffffffffffffffffffffffff1614806112bf57508373ffffffffffffffffffffffffffffffffffffffff166112a784610560565b73ffffffffffffffffffffffffffffffffffffffff16145b806112d057506112cf8185610faa565b5b91505092915050565b600061131a576040517f08c379a000000000000000000000000000000000000000000000000000000000815260040161131190612566565b60405180910390fd5b505050565b6001816000016000828254019250508190555050565b600081600001549050919050565b600073ffffffffffffffffffffffffffffffffffffffff168273ffffffffffffffffffffffffffffffffffffffff1614156113b3576040517f08c379a00000000000000000000000000000000000000000000000000000000081526004016113aa90612586565b60405180910390fd5b6113bc816110ce565b156113fc576040517f08c379a00000000000000000000000000000000000000000000000000000000081526004016113f390612486565b60405180910390fd5b611408600083836116f2565b6001600360008473ffffffffffffffffffffffffffffffffffffffff1673ffffffffffffffffffffffffffffffffffffffff1681526020019081526020016000206000828254611458919061278b565b92505081905550816002600083815260200190815260200160002060006101000a81548173ffffffffffffffffffffffffffffffffffffffff021916908373ffffffffffffffffffffffffffffffffffffffff160217905550808273ffffffffffffffffffffffffffffffffffffffff16600073ffffffffffffffffffffffffffffffffffffffff167fddf252ad1be2c89b69c2b068fc378daa952ba7f163c4a11628f55a4df523b3ef60405160405180910390a45050565b61151a826110ce565b611559576040517f08c379a000000000000000000000000000000000000000000000000000000000815260040161155090612546565b60405180910390fd5b80600660008481526020019081526020016000209080519060200190611580929190611b5f565b505050565b61158e816116f7565b60006006600083815260200190815260200160002080546115ae906128fc565b9050146115d5576006600082815260200190815260200160002060006115d49190611be5565b5b50565b6115e38484846112d9565b6115ef84848484611808565b61162e576040517f08c379a000000000000000000000000000000000000000000000000000000000815260040161162590612466565b60405180910390fd5b50505050565b606060405180602001604052806000815250905090565b6060611656826110ce565b611695576040517f08c379a000000000000000000000000000000000000000000000000000000000815260040161168c906125e6565b60405180910390fd5b600061169f611634565b905060008151116116bf57604051806020016040528060008152506116ea565b806116c98461199f565b6040516020016116da929190612375565b6040516020818303038152906040525b915050919050565b505050565b60006117028261077d565b9050611710816000846116f2565b61171b600083611142565b6001600360008373ffffffffffffffffffffffffffffffffffffffff1673ffffffffffffffffffffffffffffffffffffffff168152602001908152602001600020600082825461176b9190612812565b925050819055506002600083815260200190815260200160002060006101000a81549073ffffffffffffffffffffffffffffffffffffffff021916905581600073ffffffffffffffffffffffffffffffffffffffff168273ffffffffffffffffffffffffffffffffffffffff167fddf252ad1be2c89b69c2b068fc378daa952ba7f163c4a11628f55a4df523b3ef60405160405180910390a45050565b60006118298473ffffffffffffffffffffffffffffffffffffffff16611b4c565b15611992578373ffffffffffffffffffffffffffffffffffffffff1663150b7a0261185261113a565b8786866040518563ffffffff1660e01b815260040161187494939291906123b4565b602060405180830381600087803b15801561188e57600080fd5b505af19250505080156118bf57506040513d601f19601f820116820180604052508101906118bc9190611fdd565b60015b611942573d80600081146118ef576040519150601f19603f3d011682016040523d82523d6000602084013e6118f4565b606091505b5060008151141561193a576040517f08c379a000000000000000000000000000000000000000000000000000000000815260040161193190612466565b60405180910390fd5b805181602001fd5b63150b7a0260e01b7bffffffffffffffffffffffffffffffffffffffffffffffffffffffff1916817bffffffffffffffffffffffffffffffffffffffffffffffffffffffff191614915050611997565b600190505b949350505050565b606060008214156119e7576040518060400160405280600181526020017f30000000000000000000000000000000000000000000000000000000000000008152509050611b47565b600082905060005b60008214611a19578080611a029061295f565b915050600a82611a1291906127e1565b91506119ef565b60008167ffffffffffffffff811115611a5b577f4e487b7100000000000000000000000000000000000000000000000000000000600052604160045260246000fd5b6040519080825280601f01601f191660200182016040528015611a8d5781602001600182028036833780820191505090505b5090505b60008514611b4057600182611aa69190612812565b9150600a85611ab591906129a8565b6030611ac1919061278b565b60f81b818381518110611afd577f4e487b7100000000000000000000000000000000000000000000000000000000600052603260045260246000fd5b60200101907effffffffffffffffffffffffffffffffffffffffffffffffffffffffffffff1916908160001a905350600a85611b3991906127e1565b9450611a91565b8093505050505b919050565b600080823b905060008111915050919050565b828054611b6b906128fc565b90600052602060002090601f016020900481019282611b8d5760008555611bd4565b82601f10611ba657805160ff1916838001178555611bd4565b82800160010185558215611bd4579182015b82811115611bd3578251825591602001919060010190611bb8565b5b509050611be19190611c25565b5090565b508054611bf1906128fc565b6000825580601f10611c035750611c22565b601f016020900490600052602060002090810190611c219190611c25565b5b50565b5b80821115611c3e576000816000905550600101611c26565b5090565b6000611c55611c50846126e6565b6126c1565b905082815260208101848484011115611c6d57600080fd5b611c788482856128ba565b509392505050565b6000611c93611c8e84612717565b6126c1565b905082815260208101848484011115611cab57600080fd5b611cb68482856128ba565b509392505050565b600081359050611ccd81612f2a565b92915050565b600081359050611ce281612f41565b92915050565b600081519050611cf781612f41565b92915050565b600081359050611d0c81612f58565b92915050565b600081519050611d2181612f58565b92915050565b600082601f830112611d3857600080fd5b8135611d48848260208601611c42565b91505092915050565b600082601f830112611d6257600080fd5b8135611d72848260208601611c80565b91505092915050565b600081359050611d8a81612f6f565b92915050565b600060208284031215611da257600080fd5b6000611db084828501611cbe565b91505092915050565b60008060408385031215611dcc57600080fd5b6000611dda85828601611cbe565b9250506020611deb85828601611cbe565b9150509250929050565b600080600060608486031215611e0a57600080fd5b6000611e1886828701611cbe565b9350506020611e2986828701611cbe565b9250506040611e3a86828701611d7b565b9150509250925092565b60008060008060808587031215611e5a57600080fd5b6000611e6887828801611cbe565b9450506020611e7987828801611cbe565b9350506040611e8a87828801611d7b565b925050606085013567ffffffffffffffff811115611ea757600080fd5b611eb387828801611d27565b91505092959194509250565b60008060408385031215611ed257600080fd5b6000611ee085828601611cbe565b9250506020611ef185828601611cd3565b9150509250929050565b60008060408385031215611f0e57600080fd5b6000611f1c85828601611cbe565b925050602083013567ffffffffffffffff811115611f3957600080fd5b611f4585828601611d51565b9150509250929050565b60008060408385031215611f6257600080fd5b6000611f7085828601611cbe565b9250506020611f8185828601611d7b565b9150509250929050565b600060208284031215611f9d57600080fd5b6000611fab84828501611ce8565b91505092915050565b600060208284031215611fc657600080fd5b6000611fd484828501611cfd565b91505092915050565b600060208284031215611fef57600080fd5b6000611ffd84828501611d12565b91505092915050565b60006020828403121561201857600080fd5b600061202684828501611d7b565b91505092915050565b61203881612846565b82525050565b61204781612858565b82525050565b600061205882612748565b612062818561275e565b93506120728185602086016128c9565b61207b81612a95565b840191505092915050565b600061209182612753565b61209b818561276f565b93506120ab8185602086016128c9565b6120b481612a95565b840191505092915050565b60006120ca82612753565b6120d48185612780565b93506120e48185602086016128c9565b80840191505092915050565b60006120fd60328361276f565b915061210882612aa6565b604082019050919050565b6000612120601c8361276f565b915061212b82612af5565b602082019050919050565b600061214360198361276f565b915061214e82612b1e565b602082019050919050565b6000612166602c8361276f565b915061217182612b47565b604082019050919050565b600061218960388361276f565b915061219482612b96565b604082019050919050565b60006121ac602a8361276f565b91506121b782612be5565b604082019050919050565b60006121cf60298361276f565b91506121da82612c34565b604082019050919050565b60006121f2602e8361276f565b91506121fd82612c83565b604082019050919050565b600061221560148361276f565b915061222082612cd2565b602082019050919050565b600061223860208361276f565b915061224382612cfb565b602082019050919050565b600061225b60318361276f565b915061226682612d24565b604082019050919050565b600061227e602c8361276f565b915061228982612d73565b604082019050919050565b60006122a1602f8361276f565b91506122ac82612dc2565b604082019050919050565b60006122c460218361276f565b91506122cf82612e11565b604082019050919050565b60006122e760188361276f565b91506122f282612e60565b602082019050919050565b600061230a60318361276f565b915061231582612e89565b604082019050919050565b600061232d60198361276f565b915061233882612ed8565b602082019050919050565b600061235060188361276f565b915061235b82612f01565b602082019050919050565b61236f816128b0565b82525050565b600061238182856120bf565b915061238d82846120bf565b91508190509392505050565b60006020820190506123ae600083018461202f565b92915050565b60006080820190506123c9600083018761202f565b6123d6602083018661202f565b6123e36040830185612366565b81810360608301526123f5818461204d565b905095945050505050565b6000604082019050612415600083018561202f565b612422602083018461203e565b9392505050565b600060208201905061243e600083018461203e565b92915050565b6000602082019050818103600083015261245e8184612086565b905092915050565b6000602082019050818103600083015261247f816120f0565b9050919050565b6000602082019050818103600083015261249f81612113565b9050919050565b600060208201905081810360008301526124bf81612136565b9050919050565b600060208201905081810360008301526124df81612159565b9050919050565b600060208201905081810360008301526124ff8161217c565b9050919050565b6000602082019050818103600083015261251f8161219f565b9050919050565b6000602082019050818103600083015261253f816121c2565b9050919050565b6000602082019050818103600083015261255f816121e5565b9050919050565b6000602082019050818103600083015261257f81612208565b9050919050565b6000602082019050818103600083015261259f8161222b565b9050919050565b600060208201905081810360008301526125bf8161224e565b9050919050565b600060208201905081810360008301526125df81612271565b9050919050565b600060208201905081810360008301526125ff81612294565b9050919050565b6000602082019050818103600083015261261f816122b7565b9050919050565b6000602082019050818103600083015261263f816122da565b9050919050565b6000602082019050818103600083015261265f816122fd565b9050919050565b6000602082019050818103600083015261267f81612320565b9050919050565b6000602082019050818103600083015261269f81612343565b9050919050565b60006020820190506126bb6000830184612366565b92915050565b60006126cb6126dc565b90506126d7828261292e565b919050565b6000604051905090565b600067ffffffffffffffff82111561270157612700612a66565b5b61270a82612a95565b9050602081019050919050565b600067ffffffffffffffff82111561273257612731612a66565b5b61273b82612a95565b9050602081019050919050565b600081519050919050565b600081519050919050565b600082825260208201905092915050565b600082825260208201905092915050565b600081905092915050565b6000612796826128b0565b91506127a1836128b0565b9250827fffffffffffffffffffffffffffffffffffffffffffffffffffffffffffffffff038211156127d6576127d56129d9565b5b828201905092915050565b60006127ec826128b0565b91506127f7836128b0565b92508261280757612806612a08565b5b828204905092915050565b600061281d826128b0565b9150612828836128b0565b92508282101561283b5761283a6129d9565b5b828203905092915050565b600061285182612890565b9050919050565b60008115159050919050565b60007fffffffff0000000000000000000000000000000000000000000000000000000082169050919050565b600073ffffffffffffffffffffffffffffffffffffffff82169050919050565b6000819050919050565b82818337600083830152505050565b60005b838110156128e75780820151818401526020810190506128cc565b838111156128f6576000848401525b50505050565b6000600282049050600182168061291457607f821691505b6020821081141561292857612927612a37565b5b50919050565b61293782612a95565b810181811067ffffffffffffffff8211171561295657612955612a66565b5b80604052505050565b600061296a826128b0565b91507fffffffffffffffffffffffffffffffffffffffffffffffffffffffffffffffff82141561299d5761299c6129d9565b5b600182019050919050565b60006129b3826128b0565b91506129be836128b0565b9250826129ce576129cd612a08565b5b828206905092915050565b7f4e487b7100000000000000000000000000000000000000000000000000000000600052601160045260246000fd5b7f4e487b7100000000000000000000000000000000000000000000000000000000600052601260045260246000fd5b7f4e487b7100000000000000000000000000000000000000000000000000000000600052602260045260246000fd5b7f4e487b7100000000000000000000000000000000000000000000000000000000600052604160045260246000fd5b6000601f19601f8301169050919050565b7f4552433732313a207472616e7366657220746f206e6f6e20455243373231526560008201527f63656976657220696d706c656d656e7465720000000000000000000000000000602082015250565b7f4552433732313a20746f6b656e20616c7265616479206d696e74656400000000600082015250565b7f4552433732313a20617070726f766520746f2063616c6c657200000000000000600082015250565b7f4552433732313a206f70657261746f7220717565727920666f72206e6f6e657860008201527f697374656e7420746f6b656e0000000000000000000000000000000000000000602082015250565b7f4552433732313a20617070726f76652063616c6c6572206973206e6f74206f7760008201527f6e6572206e6f7220617070726f76656420666f7220616c6c0000000000000000602082015250565b7f4552433732313a2062616c616e636520717565727920666f7220746865207a6560008201527f726f206164647265737300000000000000000000000000000000000000000000602082015250565b7f4552433732313a206f776e657220717565727920666f72206e6f6e657869737460008201527f656e7420746f6b656e0000000000000000000000000000000000000000000000602082015250565b7f45524337323155524953746f726167653a2055524920736574206f66206e6f6e60008201527f6578697374656e7420746f6b656e000000000000000000000000000000000000602082015250565b7f5472616e73666572206e6f7420616c6c6f776564000000000000000000000000600082015250565b7f4552433732313a206d696e7420746f20746865207a65726f2061646472657373600082015250565b7f45524337323155524953746f726167653a2055524920717565727920666f722060008201527f6e6f6e6578697374656e7420746f6b656e000000000000000000000000000000602082015250565b7f4552433732313a20617070726f76656420717565727920666f72206e6f6e657860008201527f697374656e7420746f6b656e0000000000000000000000000000000000000000602082015250565b7f4552433732314d657461646174613a2055524920717565727920666f72206e6f60008201527f6e6578697374656e7420746f6b656e0000000000000000000000000000000000602082015250565b7f4552433732313a20617070726f76616c20746f2063757272656e74206f776e6560008201527f7200000000000000000000000000000000000000000000000000000000000000602082015250565b7f456e74697479206973206e6f7420726567697374657265640000000000000000600082015250565b7f4552433732313a207472616e736665722063616c6c6572206973206e6f74206f60008201527f776e6572206e6f7220617070726f766564000000000000000000000000000000602082015250565b7f4f6e6c79206f776e65722063616e206275726e20626164676500000000000000600082015250565b7f4e6f7420616c6c6f776564206166746572203720646179730000000000000000600082015250565b612f3381612846565b8114612f3e57600080fd5b50565b612f4a81612858565b8114612f5557600080fd5b50565b612f6181612864565b8114612f6c57600080fd5b50565b612f78816128b0565b8114612f8357600080fd5b5056fea2646970667358221220a3de02d6e2c5a4782d20fae02b816e11e65026430292fd51d978a2b2ba2789ff64736f6c63430008040033",
  "linkReferences": {},
  "deployedLinkReferences": {}
}