{
  "_format": "hh-sol-artifact-1",
  "contractName": "EntityFactory",
  "sourceName": "contracts/EntityFactory.sol",
  "abi": [
    {
      "inputs": [
        {
          "internalType": "address",
          "name": "_badgeRegistry",
          "type": "address"
        }
      ],
      "stateMutability": "nonpayable",
      "type": "constructor"
    },
    {
      "inputs": [],
      "name": "badgeRegistry",
      "outputs": [
        {
          "internalType": "address",
          "name": "",
          "type": "address"
        }
      ],
      "stateMutability": "view",
      "type": "function"
    },
    {
      "inputs": [
        {
          "internalType": "string",
          "name": "_entityName",
          "type": "string"
        },
        {
          "internalType": "address",
          "name": "genesisUser",
          "type": "address"
        },
        {
          "internalType": "string",
          "name": "genesisTokenURI",
          "type": "string"
        }
      ],
      "name": "createEntity",
      "outputs": [
        {
          "internalType": "address",
          "name": "",
          "type": "address"
        }
      ],
      "stateMutability": "nonpayable",
      "type": "function"
    }
  ],
  "bytecode": "0x608060405234801561001057600080fd5b50604051611ee6380380611ee68339818101604052810190610032919061008d565b806000806101000a81548173ffffffffffffffffffffffffffffffffffffffff021916908373ffffffffffffffffffffffffffffffffffffffff160217905550506100ff565b600081519050610087816100e8565b92915050565b60006020828403121561009f57600080fd5b60006100ad84828501610078565b91505092915050565b60006100c1826100c8565b9050919050565b600073ffffffffffffffffffffffffffffffffffffffff82169050919050565b6100f1816100b6565b81146100fc57600080fd5b50565b611dd88061010e6000396000f3fe60806040523480156200001157600080fd5b50600436106200003a5760003560e01c8063d08f5b36146200003f578063ea3e7cef1462000075575b600080fd5b6200005d600480360381019062000057919062000229565b62000097565b6040516200006c919062000326565b60405180910390f35b6200007f62000193565b6040516200008e919062000326565b60405180910390f35b60008060009054906101000a900473ffffffffffffffffffffffffffffffffffffffff1673ffffffffffffffffffffffffffffffffffffffff163373ffffffffffffffffffffffffffffffffffffffff16146200012b576040517f08c379a0000000000000000000000000000000000000000000000000000000008152600401620001229062000379565b60405180910390fd5b858560008054906101000a900473ffffffffffffffffffffffffffffffffffffffff166040516200015c90620001b7565b6200016a9392919062000343565b604051809103906000f08015801562000187573d6000803e3d6000fd5b50905095945050505050565b60008054906101000a900473ffffffffffffffffffffffffffffffffffffffff1681565b611939806200046a83390190565b600081359050620001d6816200044f565b92915050565b60008083601f840112620001ef57600080fd5b8235905067ffffffffffffffff8111156200020957600080fd5b6020830191508360018202830111156200022257600080fd5b9250929050565b6000806000806000606086880312156200024257600080fd5b600086013567ffffffffffffffff8111156200025d57600080fd5b6200026b88828901620001dc565b955095505060206200028088828901620001c5565b935050604086013567ffffffffffffffff8111156200029e57600080fd5b620002ac88828901620001dc565b92509250509295509295909350565b620002c681620003ac565b82525050565b6000620002da83856200039b565b9350620002e9838584620003e0565b620002f483620003ef565b840190509392505050565b60006200030e6021836200039b565b91506200031b8262000400565b604082019050919050565b60006020820190506200033d6000830184620002bb565b92915050565b6000604082019050818103600083015262000360818587620002cc565b9050620003716020830184620002bb565b949350505050565b600060208201905081810360008301526200039481620002ff565b9050919050565b600082825260208201905092915050565b6000620003b982620003c0565b9050919050565b600073ffffffffffffffffffffffffffffffffffffffff82169050919050565b82818337600083830152505050565b6000601f19601f8301169050919050565b7f4f6e6c792062616467652072656769737472792063616e2063616c6c2074686960008201527f7300000000000000000000000000000000000000000000000000000000000000602082015250565b6200045a81620003ac565b81146200046657600080fd5b5056fe60806040523480156200001157600080fd5b506040516200193938038062001939833981810160405281019062000037919062000500565b620000836040518060400160405280601481526020017f4465706c6f796564206e657720656e746974793a000000000000000000000000815250836200037c60201b6200082e1760201c565b80600160006101000a81548173ffffffffffffffffffffffffffffffffffffffff021916908373ffffffffffffffffffffffffffffffffffffffff16021790555060008173ffffffffffffffffffffffffffffffffffffffff16631e93e3976040518163ffffffff1660e01b815260040160206040518083038186803b1580156200010d57600080fd5b505afa15801562000122573d6000803e3d6000fd5b505050506040513d601f19601f82011682018060405250810190620001489190620004d4565b90508073ffffffffffffffffffffffffffffffffffffffff16637c744971846040518263ffffffff1660e01b81526004016200018591906200059b565b602060405180830381600087803b158015620001a057600080fd5b505af1158015620001b5573d6000803e3d6000fd5b505050506040513d601f19601f82011682018060405250810190620001db9190620004d4565b600260006101000a81548173ffffffffffffffffffffffffffffffffffffffff021916908373ffffffffffffffffffffffffffffffffffffffff16021790555060008273ffffffffffffffffffffffffffffffffffffffff166327a462fe6040518163ffffffff1660e01b815260040160206040518083038186803b1580156200026457600080fd5b505afa15801562000279573d6000803e3d6000fd5b505050506040513d601f19601f820116820180604052508101906200029f9190620004d4565b90508073ffffffffffffffffffffffffffffffffffffffff16634bad7fe7856040518263ffffffff1660e01b8152600401620002dc91906200059b565b602060405180830381600087803b158015620002f757600080fd5b505af11580156200030c573d6000803e3d6000fd5b505050506040513d601f19601f82011682018060405250810190620003329190620004d4565b600460006101000a81548173ffffffffffffffffffffffffffffffffffffffff021916908373ffffffffffffffffffffffffffffffffffffffff160217905550505050506200076f565b6200041e828260405160240162000395929190620005bf565b6040516020818303038152906040527f4b5c4277000000000000000000000000000000000000000000000000000000007bffffffffffffffffffffffffffffffffffffffffffffffffffffffff19166020820180517bffffffffffffffffffffffffffffffffffffffffffffffffffffffff83818316178352505050506200042260201b60201c565b5050565b60008151905060006a636f6e736f6c652e6c6f679050602083016000808483855afa5050505050565b6000620004626200045c8462000623565b620005fa565b9050828152602081018484840111156200047b57600080fd5b62000488848285620006a9565b509392505050565b600081519050620004a18162000755565b92915050565b600082601f830112620004b957600080fd5b8151620004cb8482602086016200044b565b91505092915050565b600060208284031215620004e757600080fd5b6000620004f78482850162000490565b91505092915050565b600080604083850312156200051457600080fd5b600083015167ffffffffffffffff8111156200052f57600080fd5b6200053d85828601620004a7565b9250506020620005508582860162000490565b9150509250929050565b6000620005678262000659565b62000573818562000664565b935062000585818560208601620006a9565b620005908162000744565b840191505092915050565b60006020820190508181036000830152620005b781846200055a565b905092915050565b60006040820190508181036000830152620005db81856200055a565b90508181036020830152620005f181846200055a565b90509392505050565b60006200060662000619565b9050620006148282620006df565b919050565b6000604051905090565b600067ffffffffffffffff82111562000641576200064062000715565b5b6200064c8262000744565b9050602081019050919050565b600081519050919050565b600082825260208201905092915050565b6000620006828262000689565b9050919050565b600073ffffffffffffffffffffffffffffffffffffffff82169050919050565b60005b83811015620006c9578082015181840152602081019050620006ac565b83811115620006d9576000848401525b50505050565b620006ea8262000744565b810181811067ffffffffffffffff821117156200070c576200070b62000715565b5b80604052505050565b7f4e487b7100000000000000000000000000000000000000000000000000000000600052604160045260246000fd5b6000601f19601f8301169050919050565b620007608162000675565b81146200076c57600080fd5b50565b6111ba806200077f6000396000f3fe6080604052600436106100865760003560e01c8063a64e73a211610059578063a64e73a214610138578063cbc3b15914610163578063deccb0911461018e578063ea3e7cef146101a5578063fea4a76f146101d057610086565b80633c0514f11461008b5780634dfb5c81146100c85780636b2bafc8146100f157806394047ad41461010d575b600080fd5b34801561009757600080fd5b506100b260048036038101906100ad9190610ba0565b6101fb565b6040516100bf9190610e8a565b60405180910390f35b3480156100d457600080fd5b506100ef60048036038101906100ea9190610bf2565b61021b565b005b61010b60048036038101906101069190610c5e565b61036f565b005b34801561011957600080fd5b50610122610703565b60405161012f9190610f65565b60405180910390f35b34801561014457600080fd5b5061014d610714565b60405161015a9190610f65565b60405180910390f35b34801561016f57600080fd5b50610178610720565b6040516101859190610dea565b60405180910390f35b34801561019a57600080fd5b506101a3610746565b005b3480156101b157600080fd5b506101ba6107e2565b6040516101c79190610dea565b60405180910390f35b3480156101dc57600080fd5b506101e5610808565b6040516101f29190610dea565b60405180910390f35b60006020528060005260406000206000915054906101000a900460ff1681565b60008060003373ffffffffffffffffffffffffffffffffffffffff1673ffffffffffffffffffffffffffffffffffffffff16815260200190815260200160002060009054906101000a900460ff1690508360028111156102a4577f4e487b7100000000000000000000000000000000000000000000000000000000600052602160045260246000fd5b8160028111156102dd577f4e487b7100000000000000000000000000000000000000000000000000000000600052602160045260246000fd5b1161031d576040517f08c379a000000000000000000000000000000000000000000000000000000000815260040161031490610f05565b60405180910390fd5b610329858585856108ca565b7fcc2456bddba4f26e55cd6e849428c370420610a5032aaef28f1bd9cec47100193033838888604051610360959493929190610e05565b60405180910390a15050505050565b600060028111156103a9577f4e487b7100000000000000000000000000000000000000000000000000000000600052602160045260246000fd5b6000803373ffffffffffffffffffffffffffffffffffffffff1673ffffffffffffffffffffffffffffffffffffffff16815260200190815260200160002060009054906101000a900460ff16600281111561042d577f4e487b7100000000000000000000000000000000000000000000000000000000600052602160045260246000fd5b14806104f457506001600281111561046e577f4e487b7100000000000000000000000000000000000000000000000000000000600052602160045260246000fd5b6000803373ffffffffffffffffffffffffffffffffffffffff1673ffffffffffffffffffffffffffffffffffffffff16815260200190815260200160002060009054906101000a900460ff1660028111156104f2577f4e487b7100000000000000000000000000000000000000000000000000000000600052602160045260246000fd5b145b806105b95750600280811115610533577f4e487b7100000000000000000000000000000000000000000000000000000000600052602160045260246000fd5b6000803373ffffffffffffffffffffffffffffffffffffffff1673ffffffffffffffffffffffffffffffffffffffff16815260200190815260200160002060009054906101000a900460ff1660028111156105b7577f4e487b7100000000000000000000000000000000000000000000000000000000600052602160045260246000fd5b145b6105f8576040517f08c379a00000000000000000000000000000000000000000000000000000000081526004016105ef90610f25565b60405180910390fd5b600260009054906101000a900473ffffffffffffffffffffffffffffffffffffffff1673ffffffffffffffffffffffffffffffffffffffff16636b2bafc88484846040518463ffffffff1660e01b815260040161065793929190610e58565b600060405180830381600087803b15801561067157600080fd5b505af1158015610685573d6000803e3d6000fd5b50505050610691610a0e565b73ffffffffffffffffffffffffffffffffffffffff166394bf804d600a856040518363ffffffff1660e01b81526004016106cc929190610ea5565b600060405180830381600087803b1580156106e657600080fd5b505af11580156106fa573d6000803e3d6000fd5b50505050505050565b600061070f6003610ab5565b905090565b60038060000154905081565b600460009054906101000a900473ffffffffffffffffffffffffffffffffffffffff1681565b600260009054906101000a900473ffffffffffffffffffffffffffffffffffffffff1673ffffffffffffffffffffffffffffffffffffffff163373ffffffffffffffffffffffffffffffffffffffff16146107d6576040517f08c379a00000000000000000000000000000000000000000000000000000000081526004016107cd90610f45565b60405180910390fd5b6107e06003610ac3565b565b600160009054906101000a900473ffffffffffffffffffffffffffffffffffffffff1681565b600260009054906101000a900473ffffffffffffffffffffffffffffffffffffffff1681565b6108c68282604051602401610844929190610ece565b6040516020818303038152906040527f4b5c4277000000000000000000000000000000000000000000000000000000007bffffffffffffffffffffffffffffffffffffffffffffffffffffffff19166020820180517bffffffffffffffffffffffffffffffffffffffffffffffffffffffff8381831617835250505050610ad9565b5050565b826000808673ffffffffffffffffffffffffffffffffffffffff1673ffffffffffffffffffffffffffffffffffffffff16815260200190815260200160002060006101000a81548160ff02191690836002811115610951577f4e487b7100000000000000000000000000000000000000000000000000000000600052602160045260246000fd5b0217905550600460009054906101000a900473ffffffffffffffffffffffffffffffffffffffff1673ffffffffffffffffffffffffffffffffffffffff16639ad98cd68584846040518463ffffffff1660e01b81526004016109b593929190610e58565b602060405180830381600087803b1580156109cf57600080fd5b505af11580156109e3573d6000803e3d6000fd5b505050506040513d601f19601f82011682018060405250810190610a079190610cb6565b5050505050565b6000600160009054906101000a900473ffffffffffffffffffffffffffffffffffffffff1673ffffffffffffffffffffffffffffffffffffffff1663a59cf7e16040518163ffffffff1660e01b815260040160206040518083038186803b158015610a7857600080fd5b505afa158015610a8c573d6000803e3d6000fd5b505050506040513d601f19601f82011682018060405250810190610ab09190610bc9565b905090565b600081600001549050919050565b6001816000016000828254019250508190555050565b60008151905060006a636f6e736f6c652e6c6f679050602083016000808483855afa5050505050565b600081359050610b1181611146565b92915050565b600081519050610b2681611146565b92915050565b600081359050610b3b8161115d565b92915050565b60008083601f840112610b5357600080fd5b8235905067ffffffffffffffff811115610b6c57600080fd5b602083019150836001820283011115610b8457600080fd5b9250929050565b600081519050610b9a8161116d565b92915050565b600060208284031215610bb257600080fd5b6000610bc084828501610b02565b91505092915050565b600060208284031215610bdb57600080fd5b6000610be984828501610b17565b91505092915050565b60008060008060608587031215610c0857600080fd5b6000610c1687828801610b02565b9450506020610c2787828801610b2c565b935050604085013567ffffffffffffffff811115610c4457600080fd5b610c5087828801610b41565b925092505092959194509250565b600080600060408486031215610c7357600080fd5b6000610c8186828701610b02565b935050602084013567ffffffffffffffff811115610c9e57600080fd5b610caa86828701610b41565b92509250509250925092565b600060208284031215610cc857600080fd5b6000610cd684828501610b8b565b91505092915050565b610ce881610f9c565b82525050565b610cf781610feb565b82525050565b610d0681610ffd565b82525050565b6000610d188385610f8b565b9350610d2583858461100f565b610d2e83611080565b840190509392505050565b6000610d4482610f80565b610d4e8185610f8b565b9350610d5e81856020860161101e565b610d6781611080565b840191505092915050565b6000610d7f601a83610f8b565b9150610d8a82611091565b602082019050919050565b6000610da2601d83610f8b565b9150610dad826110ba565b602082019050919050565b6000610dc5602d83610f8b565b9150610dd0826110e3565b604082019050919050565b610de481610fe1565b82525050565b6000602082019050610dff6000830184610cdf565b92915050565b600060a082019050610e1a6000830188610cdf565b610e276020830187610cdf565b610e346040830186610cee565b610e416060830185610cdf565b610e4e6080830184610cee565b9695505050505050565b6000604082019050610e6d6000830186610cdf565b8181036020830152610e80818486610d0c565b9050949350505050565b6000602082019050610e9f6000830184610cee565b92915050565b6000604082019050610eba6000830185610cfd565b610ec76020830184610cdf565b9392505050565b60006040820190508181036000830152610ee88185610d39565b90508181036020830152610efc8184610d39565b90509392505050565b60006020820190508181036000830152610f1e81610d72565b9050919050565b60006020820190508181036000830152610f3e81610d95565b9050919050565b60006020820190508181036000830152610f5e81610db8565b9050919050565b6000602082019050610f7a6000830184610ddb565b92915050565b600081519050919050565b600082825260208201905092915050565b6000610fa782610fc1565b9050919050565b6000819050610fbc82611132565b919050565b600073ffffffffffffffffffffffffffffffffffffffff82169050919050565b6000819050919050565b6000610ff682610fae565b9050919050565b600061100882610fe1565b9050919050565b82818337600083830152505050565b60005b8381101561103c578082015181840152602081019050611021565b8381111561104b576000848401525b50505050565b7f4e487b7100000000000000000000000000000000000000000000000000000000600052602160045260246000fd5b6000601f19601f8301169050919050565b7f41737369676e657220686173206e6f207065726d697373696f6e000000000000600082015250565b7f53656e64657220686173206e6f2061646d696e2070726976696c656765000000600082015250565b7f4f6e6c7920626164676520746f6b656e2063616e20696e6372656d656e74206460008201527f656d6572697420706f696e747300000000000000000000000000000000000000602082015250565b6003811061114357611142611051565b5b50565b61114f81610f9c565b811461115a57600080fd5b50565b6003811061116a57600080fd5b50565b61117681610fe1565b811461118157600080fd5b5056fea26469706673582212205dd9c07dc7aa7402c70f56206ca22bbceb685f14a3e17dfc3abc7b7d3771a92964736f6c63430008040033a264697066735822122047eb334a9ae6d4a919082272d9a22c668da110256e7964b05f0717491458313064736f6c63430008040033",
  "linkReferences": {},
  "deployedLinkReferences": {}
}