{
  "_format": "hh-sol-artifact-1",
  "contractName": "Entity",
  "sourceName": "contracts/Entity.sol",
  "abi": [
    {
      "inputs": [
        {
          "internalType": "string",
          "name": "_entityName",
          "type": "string"
        },
        {
          "internalType": "address",
          "name": "_badgeRegistry",
          "type": "address"
        }
      ],
      "stateMutability": "nonpayable",
      "type": "constructor"
    },
    {
      "anonymous": false,
      "inputs": [
        {
          "indexed": false,
          "internalType": "address",
          "name": "entityAddress",
          "type": "address"
        },
        {
          "indexed": false,
          "internalType": "address",
          "name": "assigner",
          "type": "address"
        },
        {
          "indexed": false,
          "internalType": "enum IEntity.PermLevel",
          "name": "assignerLevel",
          "type": "uint8"
        },
        {
          "indexed": false,
          "internalType": "address",
          "name": "assignee",
          "type": "address"
        },
        {
          "indexed": false,
          "internalType": "enum IEntity.PermLevel",
          "name": "assigneeLevel",
          "type": "uint8"
        }
      ],
      "name": "PermissionTokenAssigned",
      "type": "event"
    },
    {
      "inputs": [
        {
          "internalType": "address",
          "name": "assignee",
          "type": "address"
        },
        {
          "internalType": "enum IEntity.PermLevel",
          "name": "level",
          "type": "uint8"
        },
        {
          "internalType": "string",
          "name": "tokenURI",
          "type": "string"
        }
      ],
      "name": "assignPermissionToken",
      "outputs": [],
      "stateMutability": "nonpayable",
      "type": "function"
    },
    {
      "inputs": [],
      "name": "badgeRegistry",
      "outputs": [
        {
          "internalType": "address",
          "name": "",
          "type": "address"
        }
      ],
      "stateMutability": "view",
      "type": "function"
    },
    {
      "inputs": [],
      "name": "badgeToken",
      "outputs": [
        {
          "internalType": "address",
          "name": "",
          "type": "address"
        }
      ],
      "stateMutability": "view",
      "type": "function"
    },
    {
      "inputs": [],
      "name": "demeritPoints",
      "outputs": [
        {
          "internalType": "uint256",
          "name": "_value",
          "type": "uint256"
        }
      ],
      "stateMutability": "view",
      "type": "function"
    },
    {
      "inputs": [],
      "name": "getBadgeRegistry",
      "outputs": [
        {
          "internalType": "address",
          "name": "",
          "type": "address"
        }
      ],
      "stateMutability": "view",
      "type": "function"
    },
    {
      "inputs": [],
      "name": "getDemeritPoints",
      "outputs": [
        {
          "internalType": "uint256",
          "name": "",
          "type": "uint256"
        }
      ],
      "stateMutability": "view",
      "type": "function"
    },
    {
      "inputs": [],
      "name": "incrementDemeritPoints",
      "outputs": [],
      "stateMutability": "nonpayable",
      "type": "function"
    },
    {
      "inputs": [
        {
          "internalType": "address",
          "name": "to",
          "type": "address"
        },
        {
          "internalType": "uint256",
          "name": "level",
          "type": "uint256"
        },
        {
          "internalType": "string",
          "name": "_tokenURI",
          "type": "string"
        }
      ],
      "name": "mintBadge",
      "outputs": [],
      "stateMutability": "payable",
      "type": "function"
    },
    {
      "inputs": [],
      "name": "permissionToken",
      "outputs": [
        {
          "internalType": "address",
          "name": "",
          "type": "address"
        }
      ],
      "stateMutability": "view",
      "type": "function"
    },
    {
      "inputs": [
        {
          "internalType": "address",
          "name": "",
          "type": "address"
        }
      ],
      "name": "permissionTokenHolders",
      "outputs": [
        {
          "internalType": "enum IEntity.PermLevel",
          "name": "",
          "type": "uint8"
        }
      ],
      "stateMutability": "view",
      "type": "function"
    }
  ],
  "bytecode": "0x60806040523480156200001157600080fd5b5060405162001df538038062001df5833981810160405281019062000037919062000500565b620000836040518060400160405280601481526020017f4465706c6f796564206e657720656e746974793a000000000000000000000000815250836200037c60201b62000b181760201c565b80600160006101000a81548173ffffffffffffffffffffffffffffffffffffffff021916908373ffffffffffffffffffffffffffffffffffffffff16021790555060008173ffffffffffffffffffffffffffffffffffffffff16631e93e3976040518163ffffffff1660e01b815260040160206040518083038186803b1580156200010d57600080fd5b505afa15801562000122573d6000803e3d6000fd5b505050506040513d601f19601f82011682018060405250810190620001489190620004d4565b90508073ffffffffffffffffffffffffffffffffffffffff16637c744971846040518263ffffffff1660e01b81526004016200018591906200059b565b602060405180830381600087803b158015620001a057600080fd5b505af1158015620001b5573d6000803e3d6000fd5b505050506040513d601f19601f82011682018060405250810190620001db9190620004d4565b600260006101000a81548173ffffffffffffffffffffffffffffffffffffffff021916908373ffffffffffffffffffffffffffffffffffffffff16021790555060008273ffffffffffffffffffffffffffffffffffffffff166327a462fe6040518163ffffffff1660e01b815260040160206040518083038186803b1580156200026457600080fd5b505afa15801562000279573d6000803e3d6000fd5b505050506040513d601f19601f820116820180604052508101906200029f9190620004d4565b90508073ffffffffffffffffffffffffffffffffffffffff16634bad7fe7856040518263ffffffff1660e01b8152600401620002dc91906200059b565b602060405180830381600087803b158015620002f757600080fd5b505af11580156200030c573d6000803e3d6000fd5b505050506040513d601f19601f82011682018060405250810190620003329190620004d4565b600460006101000a81548173ffffffffffffffffffffffffffffffffffffffff021916908373ffffffffffffffffffffffffffffffffffffffff160217905550505050506200076f565b6200041e828260405160240162000395929190620005bf565b6040516020818303038152906040527f4b5c4277000000000000000000000000000000000000000000000000000000007bffffffffffffffffffffffffffffffffffffffffffffffffffffffff19166020820180517bffffffffffffffffffffffffffffffffffffffffffffffffffffffff83818316178352505050506200042260201b60201c565b5050565b60008151905060006a636f6e736f6c652e6c6f679050602083016000808483855afa5050505050565b6000620004626200045c8462000623565b620005fa565b9050828152602081018484840111156200047b57600080fd5b62000488848285620006a9565b509392505050565b600081519050620004a18162000755565b92915050565b600082601f830112620004b957600080fd5b8151620004cb8482602086016200044b565b91505092915050565b600060208284031215620004e757600080fd5b6000620004f78482850162000490565b91505092915050565b600080604083850312156200051457600080fd5b600083015167ffffffffffffffff8111156200052f57600080fd5b6200053d85828601620004a7565b9250506020620005508582860162000490565b9150509250929050565b6000620005678262000659565b62000573818562000664565b935062000585818560208601620006a9565b620005908162000744565b840191505092915050565b60006020820190508181036000830152620005b781846200055a565b905092915050565b60006040820190508181036000830152620005db81856200055a565b90508181036020830152620005f181846200055a565b90509392505050565b60006200060662000619565b9050620006148282620006df565b919050565b6000604051905090565b600067ffffffffffffffff82111562000641576200064062000715565b5b6200064c8262000744565b9050602081019050919050565b600081519050919050565b600082825260208201905092915050565b6000620006828262000689565b9050919050565b600073ffffffffffffffffffffffffffffffffffffffff82169050919050565b60005b83811015620006c9578082015181840152602081019050620006ac565b83811115620006d9576000848401525b50505050565b620006ea8262000744565b810181811067ffffffffffffffff821117156200070c576200070b62000715565b5b80604052505050565b7f4e487b7100000000000000000000000000000000000000000000000000000000600052604160045260246000fd5b6000601f19601f8301169050919050565b620007608162000675565b81146200076c57600080fd5b50565b611676806200077f6000396000f3fe6080604052600436106100915760003560e01c8063a64e73a211610059578063a64e73a21461016e578063cbc3b15914610199578063deccb091146101c4578063ea3e7cef146101db578063fea4a76f1461020657610091565b80630a7d5e67146100965780633c0514f1146100c15780634dfb5c81146100fe57806374afd8021461012757806394047ad414610143575b600080fd5b3480156100a257600080fd5b506100ab610231565b6040516100b8919061118f565b60405180910390f35b3480156100cd57600080fd5b506100e860048036038101906100e39190610e9f565b61025b565b6040516100f5919061126f565b60405180910390f35b34801561010a57600080fd5b5061012560048036038101906101209190610ef1565b61027b565b005b610141600480360381019061013c9190610f5d565b6103cf565b005b34801561014f57600080fd5b506101586109ed565b6040516101659190611381565b60405180910390f35b34801561017a57600080fd5b506101836109fe565b6040516101909190611381565b60405180910390f35b3480156101a557600080fd5b506101ae610a0a565b6040516101bb919061118f565b60405180910390f35b3480156101d057600080fd5b506101d9610a30565b005b3480156101e757600080fd5b506101f0610acc565b6040516101fd919061118f565b60405180910390f35b34801561021257600080fd5b5061021b610af2565b604051610228919061118f565b60405180910390f35b6000600160009054906101000a900473ffffffffffffffffffffffffffffffffffffffff16905090565b60006020528060005260406000206000915054906101000a900460ff1681565b60008060003373ffffffffffffffffffffffffffffffffffffffff1673ffffffffffffffffffffffffffffffffffffffff16815260200190815260200160002060009054906101000a900460ff169050836002811115610304577f4e487b7100000000000000000000000000000000000000000000000000000000600052602160045260246000fd5b81600281111561033d577f4e487b7100000000000000000000000000000000000000000000000000000000600052602160045260246000fd5b1161037d576040517f08c379a0000000000000000000000000000000000000000000000000000000008152600401610374906112c1565b60405180910390fd5b61038985858585610bb4565b7fcc2456bddba4f26e55cd6e849428c370420610a5032aaef28f1bd9cec471001930338388886040516103c09594939291906111aa565b60405180910390a15050505050565b60006002811115610409577f4e487b7100000000000000000000000000000000000000000000000000000000600052602160045260246000fd5b6000803373ffffffffffffffffffffffffffffffffffffffff1673ffffffffffffffffffffffffffffffffffffffff16815260200190815260200160002060009054906101000a900460ff16600281111561048d577f4e487b7100000000000000000000000000000000000000000000000000000000600052602160045260246000fd5b14806105545750600160028111156104ce577f4e487b7100000000000000000000000000000000000000000000000000000000600052602160045260246000fd5b6000803373ffffffffffffffffffffffffffffffffffffffff1673ffffffffffffffffffffffffffffffffffffffff16815260200190815260200160002060009054906101000a900460ff166002811115610552577f4e487b7100000000000000000000000000000000000000000000000000000000600052602160045260246000fd5b145b806106195750600280811115610593577f4e487b7100000000000000000000000000000000000000000000000000000000600052602160045260246000fd5b6000803373ffffffffffffffffffffffffffffffffffffffff1673ffffffffffffffffffffffffffffffffffffffff16815260200190815260200160002060009054906101000a900460ff166002811115610617577f4e487b7100000000000000000000000000000000000000000000000000000000600052602160045260246000fd5b145b610658576040517f08c379a000000000000000000000000000000000000000000000000000000000815260040161064f906112e1565b60405180910390fd5b6000831161069b576040517f08c379a000000000000000000000000000000000000000000000000000000000815260040161069290611341565b60405180910390fd5b6000600160009054906101000a900473ffffffffffffffffffffffffffffffffffffffff1673ffffffffffffffffffffffffffffffffffffffff1663cb6e390c856040518263ffffffff1660e01b81526004016106f89190611381565b60206040518083038186803b15801561071057600080fd5b505afa158015610724573d6000803e3d6000fd5b505050506040513d601f19601f820116820180604052508101906107489190610fc9565b90508034101561078d576040517f08c379a000000000000000000000000000000000000000000000000000000000815260040161078490611301565b60405180910390fd5b6000600160009054906101000a900473ffffffffffffffffffffffffffffffffffffffff1673ffffffffffffffffffffffffffffffffffffffff166368bc573e6040518163ffffffff1660e01b815260040160206040518083038186803b1580156107f757600080fd5b505afa15801561080b573d6000803e3d6000fd5b505050506040513d601f19601f8201168201806040525081019061082f9190610ec8565b905060008173ffffffffffffffffffffffffffffffffffffffff16836040516108579061117a565b60006040518083038185875af1925050503d8060008114610894576040519150601f19603f3d011682016040523d82523d6000602084013e610899565b606091505b50509050806108dd576040517f08c379a00000000000000000000000000000000000000000000000000000000081526004016108d490611321565b60405180910390fd5b600260009054906101000a900473ffffffffffffffffffffffffffffffffffffffff1673ffffffffffffffffffffffffffffffffffffffff166374afd802888888886040518563ffffffff1660e01b815260040161093e949392919061122f565b600060405180830381600087803b15801561095857600080fd5b505af115801561096c573d6000803e3d6000fd5b50505050610978610cf8565b73ffffffffffffffffffffffffffffffffffffffff166394bf804d87896040518363ffffffff1660e01b81526004016109b292919061139c565b600060405180830381600087803b1580156109cc57600080fd5b505af11580156109e0573d6000803e3d6000fd5b5050505050505050505050565b60006109f96003610d9f565b905090565b60038060000154905081565b600460009054906101000a900473ffffffffffffffffffffffffffffffffffffffff1681565b600260009054906101000a900473ffffffffffffffffffffffffffffffffffffffff1673ffffffffffffffffffffffffffffffffffffffff163373ffffffffffffffffffffffffffffffffffffffff1614610ac0576040517f08c379a0000000000000000000000000000000000000000000000000000000008152600401610ab790611361565b60405180910390fd5b610aca6003610dad565b565b600160009054906101000a900473ffffffffffffffffffffffffffffffffffffffff1681565b600260009054906101000a900473ffffffffffffffffffffffffffffffffffffffff1681565b610bb08282604051602401610b2e92919061128a565b6040516020818303038152906040527f4b5c4277000000000000000000000000000000000000000000000000000000007bffffffffffffffffffffffffffffffffffffffffffffffffffffffff19166020820180517bffffffffffffffffffffffffffffffffffffffffffffffffffffffff8381831617835250505050610dc3565b5050565b826000808673ffffffffffffffffffffffffffffffffffffffff1673ffffffffffffffffffffffffffffffffffffffff16815260200190815260200160002060006101000a81548160ff02191690836002811115610c3b577f4e487b7100000000000000000000000000000000000000000000000000000000600052602160045260246000fd5b0217905550600460009054906101000a900473ffffffffffffffffffffffffffffffffffffffff1673ffffffffffffffffffffffffffffffffffffffff16639ad98cd68584846040518463ffffffff1660e01b8152600401610c9f939291906111fd565b602060405180830381600087803b158015610cb957600080fd5b505af1158015610ccd573d6000803e3d6000fd5b505050506040513d601f19601f82011682018060405250810190610cf19190610fc9565b5050505050565b6000600160009054906101000a900473ffffffffffffffffffffffffffffffffffffffff1673ffffffffffffffffffffffffffffffffffffffff1663a59cf7e16040518163ffffffff1660e01b815260040160206040518083038186803b158015610d6257600080fd5b505afa158015610d76573d6000803e3d6000fd5b505050506040513d601f19601f82011682018060405250810190610d9a9190610ec8565b905090565b600081600001549050919050565b6001816000016000828254019250508190555050565b60008151905060006a636f6e736f6c652e6c6f679050602083016000808483855afa5050505050565b600081359050610dfb81611602565b92915050565b600081519050610e1081611602565b92915050565b600081359050610e2581611619565b92915050565b60008083601f840112610e3d57600080fd5b8235905067ffffffffffffffff811115610e5657600080fd5b602083019150836001820283011115610e6e57600080fd5b9250929050565b600081359050610e8481611629565b92915050565b600081519050610e9981611629565b92915050565b600060208284031215610eb157600080fd5b6000610ebf84828501610dec565b91505092915050565b600060208284031215610eda57600080fd5b6000610ee884828501610e01565b91505092915050565b60008060008060608587031215610f0757600080fd5b6000610f1587828801610dec565b9450506020610f2687828801610e16565b935050604085013567ffffffffffffffff811115610f4357600080fd5b610f4f87828801610e2b565b925092505092959194509250565b60008060008060608587031215610f7357600080fd5b6000610f8187828801610dec565b9450506020610f9287828801610e75565b935050604085013567ffffffffffffffff811115610faf57600080fd5b610fbb87828801610e2b565b925092505092959194509250565b600060208284031215610fdb57600080fd5b6000610fe984828501610e8a565b91505092915050565b610ffb816113ec565b82525050565b61100a8161143b565b82525050565b600061101c83856113db565b935061102983858461144d565b611032836114be565b840190509392505050565b6000611048826113c5565b61105281856113db565b935061106281856020860161145c565b61106b816114be565b840191505092915050565b6000611083601a836113db565b915061108e826114cf565b602082019050919050565b60006110a6601d836113db565b91506110b1826114f8565b602082019050919050565b60006110c9600e836113db565b91506110d482611521565b602082019050919050565b60006110ec6013836113db565b91506110f78261154a565b602082019050919050565b600061110f6011836113db565b915061111a82611573565b602082019050919050565b60006111326000836113d0565b915061113d8261159c565b600082019050919050565b6000611155602d836113db565b91506111608261159f565b604082019050919050565b61117481611431565b82525050565b600061118582611125565b9150819050919050565b60006020820190506111a46000830184610ff2565b92915050565b600060a0820190506111bf6000830188610ff2565b6111cc6020830187610ff2565b6111d96040830186611001565b6111e66060830185610ff2565b6111f36080830184611001565b9695505050505050565b60006040820190506112126000830186610ff2565b8181036020830152611225818486611010565b9050949350505050565b60006060820190506112446000830187610ff2565b611251602083018661116b565b8181036040830152611264818486611010565b905095945050505050565b60006020820190506112846000830184611001565b92915050565b600060408201905081810360008301526112a4818561103d565b905081810360208301526112b8818461103d565b90509392505050565b600060208201905081810360008301526112da81611076565b9050919050565b600060208201905081810360008301526112fa81611099565b9050919050565b6000602082019050818103600083015261131a816110bc565b9050919050565b6000602082019050818103600083015261133a816110df565b9050919050565b6000602082019050818103600083015261135a81611102565b9050919050565b6000602082019050818103600083015261137a81611148565b9050919050565b6000602082019050611396600083018461116b565b92915050565b60006040820190506113b1600083018561116b565b6113be6020830184610ff2565b9392505050565b600081519050919050565b600081905092915050565b600082825260208201905092915050565b60006113f782611411565b9050919050565b600081905061140c826115ee565b919050565b600073ffffffffffffffffffffffffffffffffffffffff82169050919050565b6000819050919050565b6000611446826113fe565b9050919050565b82818337600083830152505050565b60005b8381101561147a57808201518184015260208101905061145f565b83811115611489576000848401525b50505050565b7f4e487b7100000000000000000000000000000000000000000000000000000000600052602160045260246000fd5b6000601f19601f8301169050919050565b7f41737369676e657220686173206e6f207065726d697373696f6e000000000000600082015250565b7f53656e64657220686173206e6f2061646d696e2070726976696c656765000000600082015250565b7f4e6f7420656e6f75676820455448000000000000000000000000000000000000600082015250565b7f43616c6c20746f2073616665206661696c656400000000000000000000000000600082015250565b7f4c6576656c2063616e6e6f742062652030000000000000000000000000000000600082015250565b50565b7f4f6e6c7920626164676520746f6b656e2063616e20696e6372656d656e74206460008201527f656d6572697420706f696e747300000000000000000000000000000000000000602082015250565b600381106115ff576115fe61148f565b5b50565b61160b816113ec565b811461161657600080fd5b50565b6003811061162657600080fd5b50565b61163281611431565b811461163d57600080fd5b5056fea26469706673582212205bb0ee5f09ade36c623e68bb4ec97b070c07d57411c16a5f53f9bcb4f2ba72f864736f6c63430008040033",
  "linkReferences": {},
  "deployedLinkReferences": {}
}