{
  "_format": "hh-sol-artifact-1",
  "contractName": "BadgeToken",
  "sourceName": "contracts/BadgeToken.sol",
  "abi": [
    {
      "inputs": [
        {
          "internalType": "address",
          "name": "_entity",
          "type": "address"
        },
        {
          "internalType": "string",
          "name": "_name",
          "type": "string"
        }
      ],
      "stateMutability": "nonpayable",
      "type": "constructor"
    },
    {
      "anonymous": false,
      "inputs": [
        {
          "indexed": true,
          "internalType": "address",
          "name": "owner",
          "type": "address"
        },
        {
          "indexed": true,
          "internalType": "address",
          "name": "approved",
          "type": "address"
        },
        {
          "indexed": true,
          "internalType": "uint256",
          "name": "tokenId",
          "type": "uint256"
        }
      ],
      "name": "Approval",
      "type": "event"
    },
    {
      "anonymous": false,
      "inputs": [
        {
          "indexed": true,
          "internalType": "address",
          "name": "owner",
          "type": "address"
        },
        {
          "indexed": true,
          "internalType": "address",
          "name": "operator",
          "type": "address"
        },
        {
          "indexed": false,
          "internalType": "bool",
          "name": "approved",
          "type": "bool"
        }
      ],
      "name": "ApprovalForAll",
      "type": "event"
    },
    {
      "anonymous": false,
      "inputs": [
        {
          "indexed": false,
          "internalType": "address",
          "name": "entityAddress",
          "type": "address"
        },
        {
          "indexed": false,
          "internalType": "bool",
          "name": "withPrejudice",
          "type": "bool"
        }
      ],
      "name": "BadgeBurned",
      "type": "event"
    },
    {
      "anonymous": false,
      "inputs": [
        {
          "indexed": true,
          "internalType": "address",
          "name": "from",
          "type": "address"
        },
        {
          "indexed": true,
          "internalType": "address",
          "name": "to",
          "type": "address"
        },
        {
          "indexed": true,
          "internalType": "uint256",
          "name": "tokenId",
          "type": "uint256"
        }
      ],
      "name": "Transfer",
      "type": "event"
    },
    {
      "inputs": [
        {
          "internalType": "address",
          "name": "to",
          "type": "address"
        },
        {
          "internalType": "uint256",
          "name": "tokenId",
          "type": "uint256"
        }
      ],
      "name": "approve",
      "outputs": [],
      "stateMutability": "nonpayable",
      "type": "function"
    },
    {
      "inputs": [
        {
          "internalType": "address",
          "name": "owner",
          "type": "address"
        }
      ],
      "name": "balanceOf",
      "outputs": [
        {
          "internalType": "uint256",
          "name": "",
          "type": "uint256"
        }
      ],
      "stateMutability": "view",
      "type": "function"
    },
    {
      "inputs": [
        {
          "internalType": "uint256",
          "name": "tokenId",
          "type": "uint256"
        }
      ],
      "name": "burnWithPrejudice",
      "outputs": [],
      "stateMutability": "payable",
      "type": "function"
    },
    {
      "inputs": [],
      "name": "entity",
      "outputs": [
        {
          "internalType": "address",
          "name": "",
          "type": "address"
        }
      ],
      "stateMutability": "view",
      "type": "function"
    },
    {
      "inputs": [
        {
          "internalType": "uint256",
          "name": "tokenId",
          "type": "uint256"
        }
      ],
      "name": "getApproved",
      "outputs": [
        {
          "internalType": "address",
          "name": "",
          "type": "address"
        }
      ],
      "stateMutability": "view",
      "type": "function"
    },
    {
      "inputs": [
        {
          "internalType": "address",
          "name": "owner",
          "type": "address"
        },
        {
          "internalType": "address",
          "name": "operator",
          "type": "address"
        }
      ],
      "name": "isApprovedForAll",
      "outputs": [
        {
          "internalType": "bool",
          "name": "",
          "type": "bool"
        }
      ],
      "stateMutability": "view",
      "type": "function"
    },
    {
      "inputs": [
        {
          "internalType": "address",
          "name": "_to",
          "type": "address"
        },
        {
          "internalType": "string",
          "name": "_tokenURI",
          "type": "string"
        }
      ],
      "name": "mintBadge",
      "outputs": [],
      "stateMutability": "payable",
      "type": "function"
    },
    {
      "inputs": [],
      "name": "name",
      "outputs": [
        {
          "internalType": "string",
          "name": "",
          "type": "string"
        }
      ],
      "stateMutability": "view",
      "type": "function"
    },
    {
      "inputs": [
        {
          "internalType": "uint256",
          "name": "tokenId",
          "type": "uint256"
        }
      ],
      "name": "ownerOf",
      "outputs": [
        {
          "internalType": "address",
          "name": "",
          "type": "address"
        }
      ],
      "stateMutability": "view",
      "type": "function"
    },
    {
      "inputs": [
        {
          "internalType": "address",
          "name": "from",
          "type": "address"
        },
        {
          "internalType": "address",
          "name": "to",
          "type": "address"
        },
        {
          "internalType": "uint256",
          "name": "tokenId",
          "type": "uint256"
        }
      ],
      "name": "safeTransferFrom",
      "outputs": [],
      "stateMutability": "nonpayable",
      "type": "function"
    },
    {
      "inputs": [
        {
          "internalType": "address",
          "name": "from",
          "type": "address"
        },
        {
          "internalType": "address",
          "name": "to",
          "type": "address"
        },
        {
          "internalType": "uint256",
          "name": "tokenId",
          "type": "uint256"
        },
        {
          "internalType": "bytes",
          "name": "_data",
          "type": "bytes"
        }
      ],
      "name": "safeTransferFrom",
      "outputs": [],
      "stateMutability": "nonpayable",
      "type": "function"
    },
    {
      "inputs": [
        {
          "internalType": "address",
          "name": "operator",
          "type": "address"
        },
        {
          "internalType": "bool",
          "name": "approved",
          "type": "bool"
        }
      ],
      "name": "setApprovalForAll",
      "outputs": [],
      "stateMutability": "nonpayable",
      "type": "function"
    },
    {
      "inputs": [
        {
          "internalType": "bytes4",
          "name": "interfaceId",
          "type": "bytes4"
        }
      ],
      "name": "supportsInterface",
      "outputs": [
        {
          "internalType": "bool",
          "name": "",
          "type": "bool"
        }
      ],
      "stateMutability": "view",
      "type": "function"
    },
    {
      "inputs": [],
      "name": "symbol",
      "outputs": [
        {
          "internalType": "string",
          "name": "",
          "type": "string"
        }
      ],
      "stateMutability": "view",
      "type": "function"
    },
    {
      "inputs": [
        {
          "internalType": "uint256",
          "name": "tokenId",
          "type": "uint256"
        }
      ],
      "name": "tokenURI",
      "outputs": [
        {
          "internalType": "string",
          "name": "",
          "type": "string"
        }
      ],
      "stateMutability": "view",
      "type": "function"
    },
    {
      "inputs": [
        {
          "internalType": "address",
          "name": "from",
          "type": "address"
        },
        {
          "internalType": "address",
          "name": "to",
          "type": "address"
        },
        {
          "internalType": "uint256",
          "name": "tokenId",
          "type": "uint256"
        }
      ],
      "name": "transferFrom",
      "outputs": [],
      "stateMutability": "nonpayable",
      "type": "function"
    }
  ],
  "bytecode": "0x60806040523480156200001157600080fd5b506040516200343a3803806200343a833981810160405281019062000037919062000298565b6200007e816040518060400160405280600981526020017f202d2042616467657300000000000000000000000000000000000000000000008152506200013160201b60201c565b6040518060400160405280600581526020017f42414447450000000000000000000000000000000000000000000000000000008152508160009080519060200190620000cc9291906200015f565b508060019080519060200190620000e59291906200015f565b50505081600960006101000a81548173ffffffffffffffffffffffffffffffffffffffff021916908373ffffffffffffffffffffffffffffffffffffffff160217905550505062000525565b606082826040516020016200014892919062000329565b604051602081830303815290604052905092915050565b8280546200016d9062000430565b90600052602060002090601f016020900481019282620001915760008555620001dd565b82601f10620001ac57805160ff1916838001178555620001dd565b82800160010185558215620001dd579182015b82811115620001dc578251825591602001919060010190620001bf565b5b509050620001ec9190620001f0565b5090565b5b808211156200020b576000816000905550600101620001f1565b5090565b60006200022662000220846200037a565b62000351565b9050828152602081018484840111156200023f57600080fd5b6200024c848285620003fa565b509392505050565b60008151905062000265816200050b565b92915050565b600082601f8301126200027d57600080fd5b81516200028f8482602086016200020f565b91505092915050565b60008060408385031215620002ac57600080fd5b6000620002bc8582860162000254565b925050602083015167ffffffffffffffff811115620002da57600080fd5b620002e8858286016200026b565b9150509250929050565b6000620002ff82620003b0565b6200030b8185620003bb565b93506200031d818560208601620003fa565b80840191505092915050565b6000620003378285620002f2565b9150620003458284620002f2565b91508190509392505050565b60006200035d62000370565b90506200036b828262000466565b919050565b6000604051905090565b600067ffffffffffffffff821115620003985762000397620004cb565b5b620003a382620004fa565b9050602081019050919050565b600081519050919050565b600081905092915050565b6000620003d382620003da565b9050919050565b600073ffffffffffffffffffffffffffffffffffffffff82169050919050565b60005b838110156200041a578082015181840152602081019050620003fd565b838111156200042a576000848401525b50505050565b600060028204905060018216806200044957607f821691505b6020821081141562000460576200045f6200049c565b5b50919050565b6200047182620004fa565b810181811067ffffffffffffffff82111715620004935762000492620004cb565b5b80604052505050565b7f4e487b7100000000000000000000000000000000000000000000000000000000600052602260045260246000fd5b7f4e487b7100000000000000000000000000000000000000000000000000000000600052604160045260246000fd5b6000601f19601f8301169050919050565b6200051681620003c6565b81146200052257600080fd5b50565b612f0580620005356000396000f3fe6080604052600436106100f35760003560e01c80636cdbbc661161008a578063a22cb46511610059578063a22cb46514610320578063b88d4fde14610349578063c87b56dd14610372578063e985e9c5146103af576100f3565b80636cdbbc661461027157806370a082311461029c57806395d89b41146102d9578063a116960514610304576100f3565b806323b872dd116100c657806323b872dd146101c657806342842e0e146101ef5780636352211e146102185780636b2bafc814610255576100f3565b806301ffc9a7146100f857806306fdde0314610135578063081812fc14610160578063095ea7b31461019d575b600080fd5b34801561010457600080fd5b5061011f600480360381019061011a9190611f08565b6103ec565b60405161012c919061237d565b60405180910390f35b34801561014157600080fd5b5061014a6104ce565b6040516101579190612398565b60405180910390f35b34801561016c57600080fd5b5061018760048036038101906101829190611f5a565b610560565b60405161019491906122ed565b60405180910390f35b3480156101a957600080fd5b506101c460048036038101906101bf9190611ecc565b6105e5565b005b3480156101d257600080fd5b506101ed60048036038101906101e89190611d6e565b6106fd565b005b3480156101fb57600080fd5b5061021660048036038101906102119190611d6e565b61075d565b005b34801561022457600080fd5b5061023f600480360381019061023a9190611f5a565b61077d565b60405161024c91906122ed565b60405180910390f35b61026f600480360381019061026a9190611e74565b61082f565b005b34801561027d57600080fd5b50610286610935565b60405161029391906122ed565b60405180910390f35b3480156102a857600080fd5b506102c360048036038101906102be9190611d09565b61095b565b6040516102d091906125fa565b60405180910390f35b3480156102e557600080fd5b506102ee610a13565b6040516102fb9190612398565b60405180910390f35b61031e60048036038101906103199190611f5a565b610aa5565b005b34801561032c57600080fd5b5061034760048036038101906103429190611e38565b610c47565b005b34801561035557600080fd5b50610370600480360381019061036b9190611dbd565b610dc8565b005b34801561037e57600080fd5b5061039960048036038101906103949190611f5a565b610e2a565b6040516103a69190612398565b60405180910390f35b3480156103bb57600080fd5b506103d660048036038101906103d19190611d32565b610f7c565b6040516103e3919061237d565b60405180910390f35b60007f80ac58cd000000000000000000000000000000000000000000000000000000007bffffffffffffffffffffffffffffffffffffffffffffffffffffffff1916827bffffffffffffffffffffffffffffffffffffffffffffffffffffffff191614806104b757507f5b5e139f000000000000000000000000000000000000000000000000000000007bffffffffffffffffffffffffffffffffffffffffffffffffffffffff1916827bffffffffffffffffffffffffffffffffffffffffffffffffffffffff1916145b806104c757506104c682611010565b5b9050919050565b6060600080546104dd9061281f565b80601f01602080910402602001604051908101604052809291908181526020018280546105099061281f565b80156105565780601f1061052b57610100808354040283529160200191610556565b820191906000526020600020905b81548152906001019060200180831161053957829003601f168201915b5050505050905090565b600061056b8261107a565b6105aa576040517f08c379a00000000000000000000000000000000000000000000000000000000081526004016105a19061251a565b60405180910390fd5b6004600083815260200190815260200160002060009054906101000a900473ffffffffffffffffffffffffffffffffffffffff169050919050565b60006105f08261077d565b90508073ffffffffffffffffffffffffffffffffffffffff168373ffffffffffffffffffffffffffffffffffffffff161415610661576040517f08c379a00000000000000000000000000000000000000000000000000000000081526004016106589061255a565b60405180910390fd5b8073ffffffffffffffffffffffffffffffffffffffff166106806110e6565b73ffffffffffffffffffffffffffffffffffffffff1614806106af57506106ae816106a96110e6565b610f7c565b5b6106ee576040517f08c379a00000000000000000000000000000000000000000000000000000000081526004016106e59061245a565b60405180910390fd5b6106f883836110ee565b505050565b61070e6107086110e6565b826111a7565b61074d576040517f08c379a00000000000000000000000000000000000000000000000000000000081526004016107449061257a565b60405180910390fd5b610758838383611285565b505050565b61077883838360405180602001604052806000815250610dc8565b505050565b6000806002600084815260200190815260200160002060009054906101000a900473ffffffffffffffffffffffffffffffffffffffff169050600073ffffffffffffffffffffffffffffffffffffffff168173ffffffffffffffffffffffffffffffffffffffff161415610826576040517f08c379a000000000000000000000000000000000000000000000000000000000815260040161081d9061249a565b60405180910390fd5b80915050919050565b600960009054906101000a900473ffffffffffffffffffffffffffffffffffffffff1673ffffffffffffffffffffffffffffffffffffffff163373ffffffffffffffffffffffffffffffffffffffff16146108bf576040517f08c379a00000000000000000000000000000000000000000000000000000000081526004016108b6906125da565b60405180910390fd5b6108c960076112cb565b60006108d560076112e1565b90506108e184826112ef565b61092f8184848080601f016020809104026020016040519081016040528093929190818152602001838380828437600081840152601f19601f820116905080830192505050505050506114bd565b50505050565b600960009054906101000a900473ffffffffffffffffffffffffffffffffffffffff1681565b60008073ffffffffffffffffffffffffffffffffffffffff168273ffffffffffffffffffffffffffffffffffffffff1614156109cc576040517f08c379a00000000000000000000000000000000000000000000000000000000081526004016109c39061247a565b60405180910390fd5b600360008373ffffffffffffffffffffffffffffffffffffffff1673ffffffffffffffffffffffffffffffffffffffff168152602001908152602001600020549050919050565b606060018054610a229061281f565b80601f0160208091040260200160405190810160405280929190818152602001828054610a4e9061281f565b8015610a9b5780601f10610a7057610100808354040283529160200191610a9b565b820191906000526020600020905b815481529060010190602001808311610a7e57829003601f168201915b5050505050905090565b610aae8161077d565b73ffffffffffffffffffffffffffffffffffffffff163373ffffffffffffffffffffffffffffffffffffffff1614610b1b576040517f08c379a0000000000000000000000000000000000000000000000000000000008152600401610b129061259a565b60405180910390fd5b62093a80600860008381526020019081526020016000205442610b3e9190612735565b1115610b7f576040517f08c379a0000000000000000000000000000000000000000000000000000000008152600401610b76906125ba565b60405180910390fd5b610b8881611531565b600960009054906101000a900473ffffffffffffffffffffffffffffffffffffffff1673ffffffffffffffffffffffffffffffffffffffff1663deccb0916040518163ffffffff1660e01b8152600401600060405180830381600087803b158015610bf257600080fd5b505af1158015610c06573d6000803e3d6000fd5b505050507f74b876a3976ec73d04754387c8e4a73c432b83d4ee32a082f0767d877c4e8bf2336001604051610c3c929190612354565b60405180910390a150565b610c4f6110e6565b73ffffffffffffffffffffffffffffffffffffffff168273ffffffffffffffffffffffffffffffffffffffff161415610cbd576040517f08c379a0000000000000000000000000000000000000000000000000000000008152600401610cb49061241a565b60405180910390fd5b8060056000610cca6110e6565b73ffffffffffffffffffffffffffffffffffffffff1673ffffffffffffffffffffffffffffffffffffffff16815260200190815260200160002060008473ffffffffffffffffffffffffffffffffffffffff1673ffffffffffffffffffffffffffffffffffffffff16815260200190815260200160002060006101000a81548160ff0219169083151502179055508173ffffffffffffffffffffffffffffffffffffffff16610d776110e6565b73ffffffffffffffffffffffffffffffffffffffff167f17307eab39ab6107e8899845ad3d59bd9653f200f220920489ca2b5937696c3183604051610dbc919061237d565b60405180910390a35050565b610dd9610dd36110e6565b836111a7565b610e18576040517f08c379a0000000000000000000000000000000000000000000000000000000008152600401610e0f9061257a565b60405180910390fd5b610e2484848484611584565b50505050565b6060610e358261107a565b610e74576040517f08c379a0000000000000000000000000000000000000000000000000000000008152600401610e6b906124fa565b60405180910390fd5b6000600660008481526020019081526020016000208054610e949061281f565b80601f0160208091040260200160405190810160405280929190818152602001828054610ec09061281f565b8015610f0d5780601f10610ee257610100808354040283529160200191610f0d565b820191906000526020600020905b815481529060010190602001808311610ef057829003601f168201915b505050505090506000610f1e6115e0565b9050600081511415610f34578192505050610f77565b600082511115610f69578082604051602001610f519291906122c9565b60405160208183030381529060405292505050610f77565b610f72846115f7565b925050505b919050565b6000600560008473ffffffffffffffffffffffffffffffffffffffff1673ffffffffffffffffffffffffffffffffffffffff16815260200190815260200160002060008373ffffffffffffffffffffffffffffffffffffffff1673ffffffffffffffffffffffffffffffffffffffff16815260200190815260200160002060009054906101000a900460ff16905092915050565b60007f01ffc9a7000000000000000000000000000000000000000000000000000000007bffffffffffffffffffffffffffffffffffffffffffffffffffffffff1916827bffffffffffffffffffffffffffffffffffffffffffffffffffffffff1916149050919050565b60008073ffffffffffffffffffffffffffffffffffffffff166002600084815260200190815260200160002060009054906101000a900473ffffffffffffffffffffffffffffffffffffffff1673ffffffffffffffffffffffffffffffffffffffff1614159050919050565b600033905090565b816004600083815260200190815260200160002060006101000a81548173ffffffffffffffffffffffffffffffffffffffff021916908373ffffffffffffffffffffffffffffffffffffffff160217905550808273ffffffffffffffffffffffffffffffffffffffff166111618361077d565b73ffffffffffffffffffffffffffffffffffffffff167f8c5be1e5ebec7d5bd14f71427d1e84f3dd0314c0f7b2291e5b200ac8c7c3b92560405160405180910390a45050565b60006111b28261107a565b6111f1576040517f08c379a00000000000000000000000000000000000000000000000000000000081526004016111e89061243a565b60405180910390fd5b60006111fc8361077d565b90508073ffffffffffffffffffffffffffffffffffffffff168473ffffffffffffffffffffffffffffffffffffffff16148061126b57508373ffffffffffffffffffffffffffffffffffffffff1661125384610560565b73ffffffffffffffffffffffffffffffffffffffff16145b8061127c575061127b8185610f7c565b5b91505092915050565b60006112c6576040517f08c379a00000000000000000000000000000000000000000000000000000000081526004016112bd906123fa565b60405180910390fd5b505050565b6001816000016000828254019250508190555050565b600081600001549050919050565b600073ffffffffffffffffffffffffffffffffffffffff168273ffffffffffffffffffffffffffffffffffffffff16141561135f576040517f08c379a0000000000000000000000000000000000000000000000000000000008152600401611356906124da565b60405180910390fd5b6113688161107a565b156113a8576040517f08c379a000000000000000000000000000000000000000000000000000000000815260040161139f906123da565b60405180910390fd5b6113b46000838361169e565b6001600360008473ffffffffffffffffffffffffffffffffffffffff1673ffffffffffffffffffffffffffffffffffffffff168152602001908152602001600020600082825461140491906126ae565b92505081905550816002600083815260200190815260200160002060006101000a81548173ffffffffffffffffffffffffffffffffffffffff021916908373ffffffffffffffffffffffffffffffffffffffff160217905550808273ffffffffffffffffffffffffffffffffffffffff16600073ffffffffffffffffffffffffffffffffffffffff167fddf252ad1be2c89b69c2b068fc378daa952ba7f163c4a11628f55a4df523b3ef60405160405180910390a45050565b6114c68261107a565b611505576040517f08c379a00000000000000000000000000000000000000000000000000000000081526004016114fc906124ba565b60405180910390fd5b8060066000848152602001908152602001600020908051906020019061152c929190611b0b565b505050565b61153a816116a3565b600060066000838152602001908152602001600020805461155a9061281f565b905014611581576006600082815260200190815260200160002060006115809190611b91565b5b50565b61158f848484611285565b61159b848484846117b4565b6115da576040517f08c379a00000000000000000000000000000000000000000000000000000000081526004016115d1906123ba565b60405180910390fd5b50505050565b606060405180602001604052806000815250905090565b60606116028261107a565b611641576040517f08c379a00000000000000000000000000000000000000000000000000000000081526004016116389061253a565b60405180910390fd5b600061164b6115e0565b9050600081511161166b5760405180602001604052806000815250611696565b806116758461194b565b6040516020016116869291906122c9565b6040516020818303038152906040525b915050919050565b505050565b60006116ae8261077d565b90506116bc8160008461169e565b6116c76000836110ee565b6001600360008373ffffffffffffffffffffffffffffffffffffffff1673ffffffffffffffffffffffffffffffffffffffff16815260200190815260200160002060008282546117179190612735565b925050819055506002600083815260200190815260200160002060006101000a81549073ffffffffffffffffffffffffffffffffffffffff021916905581600073ffffffffffffffffffffffffffffffffffffffff168273ffffffffffffffffffffffffffffffffffffffff167fddf252ad1be2c89b69c2b068fc378daa952ba7f163c4a11628f55a4df523b3ef60405160405180910390a45050565b60006117d58473ffffffffffffffffffffffffffffffffffffffff16611af8565b1561193e578373ffffffffffffffffffffffffffffffffffffffff1663150b7a026117fe6110e6565b8786866040518563ffffffff1660e01b81526004016118209493929190612308565b602060405180830381600087803b15801561183a57600080fd5b505af192505050801561186b57506040513d601f19601f820116820180604052508101906118689190611f31565b60015b6118ee573d806000811461189b576040519150601f19603f3d011682016040523d82523d6000602084013e6118a0565b606091505b506000815114156118e6576040517f08c379a00000000000000000000000000000000000000000000000000000000081526004016118dd906123ba565b60405180910390fd5b805181602001fd5b63150b7a0260e01b7bffffffffffffffffffffffffffffffffffffffffffffffffffffffff1916817bffffffffffffffffffffffffffffffffffffffffffffffffffffffff191614915050611943565b600190505b949350505050565b60606000821415611993576040518060400160405280600181526020017f30000000000000000000000000000000000000000000000000000000000000008152509050611af3565b600082905060005b600082146119c55780806119ae90612882565b915050600a826119be9190612704565b915061199b565b60008167ffffffffffffffff811115611a07577f4e487b7100000000000000000000000000000000000000000000000000000000600052604160045260246000fd5b6040519080825280601f01601f191660200182016040528015611a395781602001600182028036833780820191505090505b5090505b60008514611aec57600182611a529190612735565b9150600a85611a6191906128cb565b6030611a6d91906126ae565b60f81b818381518110611aa9577f4e487b7100000000000000000000000000000000000000000000000000000000600052603260045260246000fd5b60200101907effffffffffffffffffffffffffffffffffffffffffffffffffffffffffffff1916908160001a905350600a85611ae59190612704565b9450611a3d565b8093505050505b919050565b600080823b905060008111915050919050565b828054611b179061281f565b90600052602060002090601f016020900481019282611b395760008555611b80565b82601f10611b5257805160ff1916838001178555611b80565b82800160010185558215611b80579182015b82811115611b7f578251825591602001919060010190611b64565b5b509050611b8d9190611bd1565b5090565b508054611b9d9061281f565b6000825580601f10611baf5750611bce565b601f016020900490600052602060002090810190611bcd9190611bd1565b5b50565b5b80821115611bea576000816000905550600101611bd2565b5090565b6000611c01611bfc8461263a565b612615565b905082815260208101848484011115611c1957600080fd5b611c248482856127dd565b509392505050565b600081359050611c3b81612e73565b92915050565b600081359050611c5081612e8a565b92915050565b600081359050611c6581612ea1565b92915050565b600081519050611c7a81612ea1565b92915050565b600082601f830112611c9157600080fd5b8135611ca1848260208601611bee565b91505092915050565b60008083601f840112611cbc57600080fd5b8235905067ffffffffffffffff811115611cd557600080fd5b602083019150836001820283011115611ced57600080fd5b9250929050565b600081359050611d0381612eb8565b92915050565b600060208284031215611d1b57600080fd5b6000611d2984828501611c2c565b91505092915050565b60008060408385031215611d4557600080fd5b6000611d5385828601611c2c565b9250506020611d6485828601611c2c565b9150509250929050565b600080600060608486031215611d8357600080fd5b6000611d9186828701611c2c565b9350506020611da286828701611c2c565b9250506040611db386828701611cf4565b9150509250925092565b60008060008060808587031215611dd357600080fd5b6000611de187828801611c2c565b9450506020611df287828801611c2c565b9350506040611e0387828801611cf4565b925050606085013567ffffffffffffffff811115611e2057600080fd5b611e2c87828801611c80565b91505092959194509250565b60008060408385031215611e4b57600080fd5b6000611e5985828601611c2c565b9250506020611e6a85828601611c41565b9150509250929050565b600080600060408486031215611e8957600080fd5b6000611e9786828701611c2c565b935050602084013567ffffffffffffffff811115611eb457600080fd5b611ec086828701611caa565b92509250509250925092565b60008060408385031215611edf57600080fd5b6000611eed85828601611c2c565b9250506020611efe85828601611cf4565b9150509250929050565b600060208284031215611f1a57600080fd5b6000611f2884828501611c56565b91505092915050565b600060208284031215611f4357600080fd5b6000611f5184828501611c6b565b91505092915050565b600060208284031215611f6c57600080fd5b6000611f7a84828501611cf4565b91505092915050565b611f8c81612769565b82525050565b611f9b8161277b565b82525050565b6000611fac8261266b565b611fb68185612681565b9350611fc68185602086016127ec565b611fcf816129b8565b840191505092915050565b6000611fe582612676565b611fef8185612692565b9350611fff8185602086016127ec565b612008816129b8565b840191505092915050565b600061201e82612676565b61202881856126a3565b93506120388185602086016127ec565b80840191505092915050565b6000612051603283612692565b915061205c826129c9565b604082019050919050565b6000612074601c83612692565b915061207f82612a18565b602082019050919050565b6000612097601c83612692565b91506120a282612a41565b602082019050919050565b60006120ba601983612692565b91506120c582612a6a565b602082019050919050565b60006120dd602c83612692565b91506120e882612a93565b604082019050919050565b6000612100603883612692565b915061210b82612ae2565b604082019050919050565b6000612123602a83612692565b915061212e82612b31565b604082019050919050565b6000612146602983612692565b915061215182612b80565b604082019050919050565b6000612169602e83612692565b915061217482612bcf565b604082019050919050565b600061218c602083612692565b915061219782612c1e565b602082019050919050565b60006121af603183612692565b91506121ba82612c47565b604082019050919050565b60006121d2602c83612692565b91506121dd82612c96565b604082019050919050565b60006121f5602f83612692565b915061220082612ce5565b604082019050919050565b6000612218602183612692565b915061222382612d34565b604082019050919050565b600061223b603183612692565b915061224682612d83565b604082019050919050565b600061225e601983612692565b915061226982612dd2565b602082019050919050565b6000612281601883612692565b915061228c82612dfb565b602082019050919050565b60006122a4602283612692565b91506122af82612e24565b604082019050919050565b6122c3816127d3565b82525050565b60006122d58285612013565b91506122e18284612013565b91508190509392505050565b60006020820190506123026000830184611f83565b92915050565b600060808201905061231d6000830187611f83565b61232a6020830186611f83565b61233760408301856122ba565b81810360608301526123498184611fa1565b905095945050505050565b60006040820190506123696000830185611f83565b6123766020830184611f92565b9392505050565b60006020820190506123926000830184611f92565b92915050565b600060208201905081810360008301526123b28184611fda565b905092915050565b600060208201905081810360008301526123d381612044565b9050919050565b600060208201905081810360008301526123f381612067565b9050919050565b600060208201905081810360008301526124138161208a565b9050919050565b60006020820190508181036000830152612433816120ad565b9050919050565b60006020820190508181036000830152612453816120d0565b9050919050565b60006020820190508181036000830152612473816120f3565b9050919050565b6000602082019050818103600083015261249381612116565b9050919050565b600060208201905081810360008301526124b381612139565b9050919050565b600060208201905081810360008301526124d38161215c565b9050919050565b600060208201905081810360008301526124f38161217f565b9050919050565b60006020820190508181036000830152612513816121a2565b9050919050565b60006020820190508181036000830152612533816121c5565b9050919050565b60006020820190508181036000830152612553816121e8565b9050919050565b600060208201905081810360008301526125738161220b565b9050919050565b600060208201905081810360008301526125938161222e565b9050919050565b600060208201905081810360008301526125b381612251565b9050919050565b600060208201905081810360008301526125d381612274565b9050919050565b600060208201905081810360008301526125f381612297565b9050919050565b600060208201905061260f60008301846122ba565b92915050565b600061261f612630565b905061262b8282612851565b919050565b6000604051905090565b600067ffffffffffffffff82111561265557612654612989565b5b61265e826129b8565b9050602081019050919050565b600081519050919050565b600081519050919050565b600082825260208201905092915050565b600082825260208201905092915050565b600081905092915050565b60006126b9826127d3565b91506126c4836127d3565b9250827fffffffffffffffffffffffffffffffffffffffffffffffffffffffffffffffff038211156126f9576126f86128fc565b5b828201905092915050565b600061270f826127d3565b915061271a836127d3565b92508261272a5761272961292b565b5b828204905092915050565b6000612740826127d3565b915061274b836127d3565b92508282101561275e5761275d6128fc565b5b828203905092915050565b6000612774826127b3565b9050919050565b60008115159050919050565b60007fffffffff0000000000000000000000000000000000000000000000000000000082169050919050565b600073ffffffffffffffffffffffffffffffffffffffff82169050919050565b6000819050919050565b82818337600083830152505050565b60005b8381101561280a5780820151818401526020810190506127ef565b83811115612819576000848401525b50505050565b6000600282049050600182168061283757607f821691505b6020821081141561284b5761284a61295a565b5b50919050565b61285a826129b8565b810181811067ffffffffffffffff8211171561287957612878612989565b5b80604052505050565b600061288d826127d3565b91507fffffffffffffffffffffffffffffffffffffffffffffffffffffffffffffffff8214156128c0576128bf6128fc565b5b600182019050919050565b60006128d6826127d3565b91506128e1836127d3565b9250826128f1576128f061292b565b5b828206905092915050565b7f4e487b7100000000000000000000000000000000000000000000000000000000600052601160045260246000fd5b7f4e487b7100000000000000000000000000000000000000000000000000000000600052601260045260246000fd5b7f4e487b7100000000000000000000000000000000000000000000000000000000600052602260045260246000fd5b7f4e487b7100000000000000000000000000000000000000000000000000000000600052604160045260246000fd5b6000601f19601f8301169050919050565b7f4552433732313a207472616e7366657220746f206e6f6e20455243373231526560008201527f63656976657220696d706c656d656e7465720000000000000000000000000000602082015250565b7f4552433732313a20746f6b656e20616c7265616479206d696e74656400000000600082015250565b7f42616467657320617265206e6f6e2d7472616e736665727261626c6500000000600082015250565b7f4552433732313a20617070726f766520746f2063616c6c657200000000000000600082015250565b7f4552433732313a206f70657261746f7220717565727920666f72206e6f6e657860008201527f697374656e7420746f6b656e0000000000000000000000000000000000000000602082015250565b7f4552433732313a20617070726f76652063616c6c6572206973206e6f74206f7760008201527f6e6572206e6f7220617070726f76656420666f7220616c6c0000000000000000602082015250565b7f4552433732313a2062616c616e636520717565727920666f7220746865207a6560008201527f726f206164647265737300000000000000000000000000000000000000000000602082015250565b7f4552433732313a206f776e657220717565727920666f72206e6f6e657869737460008201527f656e7420746f6b656e0000000000000000000000000000000000000000000000602082015250565b7f45524337323155524953746f726167653a2055524920736574206f66206e6f6e60008201527f6578697374656e7420746f6b656e000000000000000000000000000000000000602082015250565b7f4552433732313a206d696e7420746f20746865207a65726f2061646472657373600082015250565b7f45524337323155524953746f726167653a2055524920717565727920666f722060008201527f6e6f6e6578697374656e7420746f6b656e000000000000000000000000000000602082015250565b7f4552433732313a20617070726f76656420717565727920666f72206e6f6e657860008201527f697374656e7420746f6b656e0000000000000000000000000000000000000000602082015250565b7f4552433732314d657461646174613a2055524920717565727920666f72206e6f60008201527f6e6578697374656e7420746f6b656e0000000000000000000000000000000000602082015250565b7f4552433732313a20617070726f76616c20746f2063757272656e74206f776e6560008201527f7200000000000000000000000000000000000000000000000000000000000000602082015250565b7f4552433732313a207472616e736665722063616c6c6572206973206e6f74206f60008201527f776e6572206e6f7220617070726f766564000000000000000000000000000000602082015250565b7f4f6e6c79206f776e65722063616e206275726e20626164676500000000000000600082015250565b7f4e6f7420616c6c6f776564206166746572203720646179730000000000000000600082015250565b7f4f6e6c7920656e746974792063616e206163636573732074686973206d65746860008201527f6f64000000000000000000000000000000000000000000000000000000000000602082015250565b612e7c81612769565b8114612e8757600080fd5b50565b612e938161277b565b8114612e9e57600080fd5b50565b612eaa81612787565b8114612eb557600080fd5b50565b612ec1816127d3565b8114612ecc57600080fd5b5056fea2646970667358221220a0addbed5ab86a0dae32b9e36703065916a94e9a89525f793ba634649f48b27f64736f6c63430008040033",
  "linkReferences": {},
  "deployedLinkReferences": {}
}