{
  "_format": "hh-sol-artifact-1",
  "contractName": "GenesisToken",
  "sourceName": "contracts/GenesisToken.sol",
  "abi": [
    {
      "inputs": [],
      "stateMutability": "nonpayable",
      "type": "constructor"
    },
    {
      "anonymous": false,
      "inputs": [
        {
          "indexed": true,
          "internalType": "address",
          "name": "owner",
          "type": "address"
        },
        {
          "indexed": true,
          "internalType": "address",
          "name": "approved",
          "type": "address"
        },
        {
          "indexed": true,
          "internalType": "uint256",
          "name": "tokenId",
          "type": "uint256"
        }
      ],
      "name": "Approval",
      "type": "event"
    },
    {
      "anonymous": false,
      "inputs": [
        {
          "indexed": true,
          "internalType": "address",
          "name": "owner",
          "type": "address"
        },
        {
          "indexed": true,
          "internalType": "address",
          "name": "operator",
          "type": "address"
        },
        {
          "indexed": false,
          "internalType": "bool",
          "name": "approved",
          "type": "bool"
        }
      ],
      "name": "ApprovalForAll",
      "type": "event"
    },
    {
      "anonymous": false,
      "inputs": [
        {
          "indexed": true,
          "internalType": "address",
          "name": "from",
          "type": "address"
        },
        {
          "indexed": true,
          "internalType": "address",
          "name": "to",
          "type": "address"
        },
        {
          "indexed": true,
          "internalType": "uint256",
          "name": "tokenId",
          "type": "uint256"
        }
      ],
      "name": "Transfer",
      "type": "event"
    },
    {
      "inputs": [
        {
          "internalType": "address",
          "name": "to",
          "type": "address"
        },
        {
          "internalType": "uint256",
          "name": "tokenId",
          "type": "uint256"
        }
      ],
      "name": "approve",
      "outputs": [],
      "stateMutability": "nonpayable",
      "type": "function"
    },
    {
      "inputs": [
        {
          "internalType": "address",
          "name": "owner",
          "type": "address"
        }
      ],
      "name": "balanceOf",
      "outputs": [
        {
          "internalType": "uint256",
          "name": "",
          "type": "uint256"
        }
      ],
      "stateMutability": "view",
      "type": "function"
    },
    {
      "inputs": [
        {
          "internalType": "uint256",
          "name": "tokenId",
          "type": "uint256"
        }
      ],
      "name": "getApproved",
      "outputs": [
        {
          "internalType": "address",
          "name": "",
          "type": "address"
        }
      ],
      "stateMutability": "view",
      "type": "function"
    },
    {
      "inputs": [
        {
          "internalType": "address",
          "name": "owner",
          "type": "address"
        },
        {
          "internalType": "address",
          "name": "operator",
          "type": "address"
        }
      ],
      "name": "isApprovedForAll",
      "outputs": [
        {
          "internalType": "bool",
          "name": "",
          "type": "bool"
        }
      ],
      "stateMutability": "view",
      "type": "function"
    },
    {
      "inputs": [
        {
          "internalType": "string",
          "name": "tokenURI",
          "type": "string"
        },
        {
          "internalType": "string",
          "name": "entityName",
          "type": "string"
        },
        {
          "internalType": "address",
          "name": "badgeAddress",
          "type": "address"
        }
      ],
      "name": "mintGenToken",
      "outputs": [
        {
          "internalType": "address",
          "name": "",
          "type": "address"
        }
      ],
      "stateMutability": "payable",
      "type": "function"
    },
    {
      "inputs": [],
      "name": "name",
      "outputs": [
        {
          "internalType": "string",
          "name": "",
          "type": "string"
        }
      ],
      "stateMutability": "view",
      "type": "function"
    },
    {
      "inputs": [
        {
          "internalType": "address",
          "name": "",
          "type": "address"
        }
      ],
      "name": "orgToOwner",
      "outputs": [
        {
          "internalType": "address",
          "name": "userAddress",
          "type": "address"
        },
        {
          "internalType": "bool",
          "name": "exists",
          "type": "bool"
        }
      ],
      "stateMutability": "view",
      "type": "function"
    },
    {
      "inputs": [
        {
          "internalType": "uint256",
          "name": "tokenId",
          "type": "uint256"
        }
      ],
      "name": "ownerOf",
      "outputs": [
        {
          "internalType": "address",
          "name": "",
          "type": "address"
        }
      ],
      "stateMutability": "view",
      "type": "function"
    },
    {
      "inputs": [
        {
          "internalType": "address",
          "name": "from",
          "type": "address"
        },
        {
          "internalType": "address",
          "name": "to",
          "type": "address"
        },
        {
          "internalType": "uint256",
          "name": "tokenId",
          "type": "uint256"
        }
      ],
      "name": "safeTransferFrom",
      "outputs": [],
      "stateMutability": "nonpayable",
      "type": "function"
    },
    {
      "inputs": [
        {
          "internalType": "address",
          "name": "from",
          "type": "address"
        },
        {
          "internalType": "address",
          "name": "to",
          "type": "address"
        },
        {
          "internalType": "uint256",
          "name": "tokenId",
          "type": "uint256"
        },
        {
          "internalType": "bytes",
          "name": "_data",
          "type": "bytes"
        }
      ],
      "name": "safeTransferFrom",
      "outputs": [],
      "stateMutability": "nonpayable",
      "type": "function"
    },
    {
      "inputs": [
        {
          "internalType": "address",
          "name": "operator",
          "type": "address"
        },
        {
          "internalType": "bool",
          "name": "approved",
          "type": "bool"
        }
      ],
      "name": "setApprovalForAll",
      "outputs": [],
      "stateMutability": "nonpayable",
      "type": "function"
    },
    {
      "inputs": [
        {
          "internalType": "bytes4",
          "name": "interfaceId",
          "type": "bytes4"
        }
      ],
      "name": "supportsInterface",
      "outputs": [
        {
          "internalType": "bool",
          "name": "",
          "type": "bool"
        }
      ],
      "stateMutability": "view",
      "type": "function"
    },
    {
      "inputs": [],
      "name": "symbol",
      "outputs": [
        {
          "internalType": "string",
          "name": "",
          "type": "string"
        }
      ],
      "stateMutability": "view",
      "type": "function"
    },
    {
      "inputs": [
        {
          "internalType": "uint256",
          "name": "tokenId",
          "type": "uint256"
        }
      ],
      "name": "tokenURI",
      "outputs": [
        {
          "internalType": "string",
          "name": "",
          "type": "string"
        }
      ],
      "stateMutability": "view",
      "type": "function"
    },
    {
      "inputs": [
        {
          "internalType": "address",
          "name": "from",
          "type": "address"
        },
        {
          "internalType": "address",
          "name": "to",
          "type": "address"
        },
        {
          "internalType": "uint256",
          "name": "tokenId",
          "type": "uint256"
        }
      ],
      "name": "transferFrom",
      "outputs": [],
      "stateMutability": "nonpayable",
      "type": "function"
    }
  ],
  "bytecode": "0x60806040523480156200001157600080fd5b506040518060400160405280601581526020017f4261646765202d2047656e6573697320746f6b656e00000000000000000000008152506040518060400160405280600d81526020017f42414447455f47454e4553495300000000000000000000000000000000000000815250816000908051906020019062000096929190620000b8565b508060019080519060200190620000af929190620000b8565b505050620001cd565b828054620000c69062000168565b90600052602060002090601f016020900481019282620000ea576000855562000136565b82601f106200010557805160ff191683800117855562000136565b8280016001018555821562000136579182015b828111156200013557825182559160200191906001019062000118565b5b50905062000145919062000149565b5090565b5b80821115620001645760008160009055506001016200014a565b5090565b600060028204905060018216806200018157607f821691505b602082108114156200019857620001976200019e565b5b50919050565b7f4e487b7100000000000000000000000000000000000000000000000000000000600052602260045260246000fd5b61308280620001dd6000396000f3fe6080604052600436106100e85760003560e01c80636352211e1161008a578063af43344a11610059578063af43344a1461030b578063b88d4fde14610349578063c87b56dd14610372578063e985e9c5146103af576100e8565b80636352211e1461023d57806370a082311461027a57806395d89b41146102b7578063a22cb465146102e2576100e8565b8063095ea7b3116100c6578063095ea7b314610192578063215a2e78146101bb57806323b872dd146101eb57806342842e0e14610214576100e8565b806301ffc9a7146100ed57806306fdde031461012a578063081812fc14610155575b600080fd5b3480156100f957600080fd5b50610114600480360381019061010f9190612035565b6103ec565b604051610121919061250c565b60405180910390f35b34801561013657600080fd5b5061013f6104ce565b60405161014c9190612527565b60405180910390f35b34801561016157600080fd5b5061017c6004803603810190610177919061212f565b610560565b604051610189919061247c565b60405180910390f35b34801561019e57600080fd5b506101b960048036038101906101b49190611ff9565b6105e5565b005b6101d560048036038101906101d091906120b0565b6106fd565b6040516101e2919061247c565b60405180910390f35b3480156101f757600080fd5b50610212600480360381019061020d9190611ef3565b610880565b005b34801561022057600080fd5b5061023b60048036038101906102369190611ef3565b6108e0565b005b34801561024957600080fd5b50610264600480360381019061025f919061212f565b610900565b604051610271919061247c565b60405180910390f35b34801561028657600080fd5b506102a1600480360381019061029c9190611e8e565b6109b2565b6040516102ae9190612749565b60405180910390f35b3480156102c357600080fd5b506102cc610a6a565b6040516102d99190612527565b60405180910390f35b3480156102ee57600080fd5b5061030960048036038101906103049190611fbd565b610afc565b005b34801561031757600080fd5b50610332600480360381019061032d9190611e8e565b610c7d565b6040516103409291906124e3565b60405180910390f35b34801561035557600080fd5b50610370600480360381019061036b9190611f42565b610cce565b005b34801561037e57600080fd5b506103996004803603810190610394919061212f565b610d30565b6040516103a69190612527565b60405180910390f35b3480156103bb57600080fd5b506103d660048036038101906103d19190611eb7565b610e82565b6040516103e3919061250c565b60405180910390f35b60007f80ac58cd000000000000000000000000000000000000000000000000000000007bffffffffffffffffffffffffffffffffffffffffffffffffffffffff1916827bffffffffffffffffffffffffffffffffffffffffffffffffffffffff191614806104b757507f5b5e139f000000000000000000000000000000000000000000000000000000007bffffffffffffffffffffffffffffffffffffffffffffffffffffffff1916827bffffffffffffffffffffffffffffffffffffffffffffffffffffffff1916145b806104c757506104c682610f16565b5b9050919050565b6060600080546104dd906129b1565b80601f0160208091040260200160405190810160405280929190818152602001828054610509906129b1565b80156105565780601f1061052b57610100808354040283529160200191610556565b820191906000526020600020905b81548152906001019060200180831161053957829003601f168201915b5050505050905090565b600061056b82610f80565b6105aa576040517f08c379a00000000000000000000000000000000000000000000000000000000081526004016105a1906126a9565b60405180910390fd5b6004600083815260200190815260200160002060009054906101000a900473ffffffffffffffffffffffffffffffffffffffff169050919050565b60006105f082610900565b90508073ffffffffffffffffffffffffffffffffffffffff168373ffffffffffffffffffffffffffffffffffffffff161415610661576040517f08c379a000000000000000000000000000000000000000000000000000000000815260040161065890612709565b60405180910390fd5b8073ffffffffffffffffffffffffffffffffffffffff16610680610fec565b73ffffffffffffffffffffffffffffffffffffffff1614806106af57506106ae816106a9610fec565b610e82565b5b6106ee576040517f08c379a00000000000000000000000000000000000000000000000000000000081526004016106e5906125e9565b60405180910390fd5b6106f88383610ff4565b505050565b60008082905060008173ffffffffffffffffffffffffffffffffffffffff166373693075866040518263ffffffff1660e01b815260040161073e9190612527565b602060405180830381600087803b15801561075857600080fd5b505af115801561076c573d6000803e3d6000fd5b505050506040513d601f19601f820116820180604052508101906107909190612087565b905060405180604001604052803373ffffffffffffffffffffffffffffffffffffffff16815260200160011515815250600860008373ffffffffffffffffffffffffffffffffffffffff1673ffffffffffffffffffffffffffffffffffffffff16815260200190815260200160002060008201518160000160006101000a81548173ffffffffffffffffffffffffffffffffffffffff021916908373ffffffffffffffffffffffffffffffffffffffff16021790555060208201518160000160146101000a81548160ff02191690831515021790555090505061087386336110ad565b5080925050509392505050565b61089161088b610fec565b8261112c565b6108d0576040517f08c379a00000000000000000000000000000000000000000000000000000000081526004016108c790612729565b60405180910390fd5b6108db83838361120a565b505050565b6108fb83838360405180602001604052806000815250610cce565b505050565b6000806002600084815260200190815260200160002060009054906101000a900473ffffffffffffffffffffffffffffffffffffffff169050600073ffffffffffffffffffffffffffffffffffffffff168173ffffffffffffffffffffffffffffffffffffffff1614156109a9576040517f08c379a00000000000000000000000000000000000000000000000000000000081526004016109a090612629565b60405180910390fd5b80915050919050565b60008073ffffffffffffffffffffffffffffffffffffffff168273ffffffffffffffffffffffffffffffffffffffff161415610a23576040517f08c379a0000000000000000000000000000000000000000000000000000000008152600401610a1a90612609565b60405180910390fd5b600360008373ffffffffffffffffffffffffffffffffffffffff1673ffffffffffffffffffffffffffffffffffffffff168152602001908152602001600020549050919050565b606060018054610a79906129b1565b80601f0160208091040260200160405190810160405280929190818152602001828054610aa5906129b1565b8015610af25780601f10610ac757610100808354040283529160200191610af2565b820191906000526020600020905b815481529060010190602001808311610ad557829003601f168201915b5050505050905090565b610b04610fec565b73ffffffffffffffffffffffffffffffffffffffff168273ffffffffffffffffffffffffffffffffffffffff161415610b72576040517f08c379a0000000000000000000000000000000000000000000000000000000008152600401610b69906125a9565b60405180910390fd5b8060056000610b7f610fec565b73ffffffffffffffffffffffffffffffffffffffff1673ffffffffffffffffffffffffffffffffffffffff16815260200190815260200160002060008473ffffffffffffffffffffffffffffffffffffffff1673ffffffffffffffffffffffffffffffffffffffff16815260200190815260200160002060006101000a81548160ff0219169083151502179055508173ffffffffffffffffffffffffffffffffffffffff16610c2c610fec565b73ffffffffffffffffffffffffffffffffffffffff167f17307eab39ab6107e8899845ad3d59bd9653f200f220920489ca2b5937696c3183604051610c71919061250c565b60405180910390a35050565b60086020528060005260406000206000915090508060000160009054906101000a900473ffffffffffffffffffffffffffffffffffffffff16908060000160149054906101000a900460ff16905082565b610cdf610cd9610fec565b8361112c565b610d1e576040517f08c379a0000000000000000000000000000000000000000000000000000000008152600401610d1590612729565b60405180910390fd5b610d2a84848484611466565b50505050565b6060610d3b82610f80565b610d7a576040517f08c379a0000000000000000000000000000000000000000000000000000000008152600401610d7190612689565b60405180910390fd5b6000600660008481526020019081526020016000208054610d9a906129b1565b80601f0160208091040260200160405190810160405280929190818152602001828054610dc6906129b1565b8015610e135780601f10610de857610100808354040283529160200191610e13565b820191906000526020600020905b815481529060010190602001808311610df657829003601f168201915b505050505090506000610e246114c2565b9050600081511415610e3a578192505050610e7d565b600082511115610e6f578082604051602001610e57929190612458565b60405160208183030381529060405292505050610e7d565b610e78846114d9565b925050505b919050565b6000600560008473ffffffffffffffffffffffffffffffffffffffff1673ffffffffffffffffffffffffffffffffffffffff16815260200190815260200160002060008373ffffffffffffffffffffffffffffffffffffffff1673ffffffffffffffffffffffffffffffffffffffff16815260200190815260200160002060009054906101000a900460ff16905092915050565b60007f01ffc9a7000000000000000000000000000000000000000000000000000000007bffffffffffffffffffffffffffffffffffffffffffffffffffffffff1916827bffffffffffffffffffffffffffffffffffffffffffffffffffffffff1916149050919050565b60008073ffffffffffffffffffffffffffffffffffffffff166002600084815260200190815260200160002060009054906101000a900473ffffffffffffffffffffffffffffffffffffffff1673ffffffffffffffffffffffffffffffffffffffff1614159050919050565b600033905090565b816004600083815260200190815260200160002060006101000a81548173ffffffffffffffffffffffffffffffffffffffff021916908373ffffffffffffffffffffffffffffffffffffffff160217905550808273ffffffffffffffffffffffffffffffffffffffff1661106783610900565b73ffffffffffffffffffffffffffffffffffffffff167f8c5be1e5ebec7d5bd14f71427d1e84f3dd0314c0f7b2291e5b200ac8c7c3b92560405160405180910390a45050565b60006110b96007611580565b60006110c56007611596565b90506110d183826115a4565b6110db8185611772565b6111196040518060400160405280600981526020017f53656e64657249443a00000000000000000000000000000000000000000000008152506117e6565b6111223361187f565b8091505092915050565b600061113782610f80565b611176576040517f08c379a000000000000000000000000000000000000000000000000000000000815260040161116d906125c9565b60405180910390fd5b600061118183610900565b90508073ffffffffffffffffffffffffffffffffffffffff168473ffffffffffffffffffffffffffffffffffffffff1614806111f057508373ffffffffffffffffffffffffffffffffffffffff166111d884610560565b73ffffffffffffffffffffffffffffffffffffffff16145b8061120157506112008185610e82565b5b91505092915050565b8273ffffffffffffffffffffffffffffffffffffffff1661122a82610900565b73ffffffffffffffffffffffffffffffffffffffff1614611280576040517f08c379a0000000000000000000000000000000000000000000000000000000008152600401611277906126c9565b60405180910390fd5b600073ffffffffffffffffffffffffffffffffffffffff168273ffffffffffffffffffffffffffffffffffffffff1614156112f0576040517f08c379a00000000000000000000000000000000000000000000000000000000081526004016112e790612589565b60405180910390fd5b6112fb838383611918565b611306600082610ff4565b6001600360008573ffffffffffffffffffffffffffffffffffffffff1673ffffffffffffffffffffffffffffffffffffffff168152602001908152602001600020600082825461135691906128b5565b925050819055506001600360008473ffffffffffffffffffffffffffffffffffffffff1673ffffffffffffffffffffffffffffffffffffffff16815260200190815260200160002060008282546113ad919061282e565b92505081905550816002600083815260200190815260200160002060006101000a81548173ffffffffffffffffffffffffffffffffffffffff021916908373ffffffffffffffffffffffffffffffffffffffff160217905550808273ffffffffffffffffffffffffffffffffffffffff168473ffffffffffffffffffffffffffffffffffffffff167fddf252ad1be2c89b69c2b068fc378daa952ba7f163c4a11628f55a4df523b3ef60405160405180910390a4505050565b61147184848461120a565b61147d8484848461191d565b6114bc576040517f08c379a00000000000000000000000000000000000000000000000000000000081526004016114b390612549565b60405180910390fd5b50505050565b606060405180602001604052806000815250905090565b60606114e482610f80565b611523576040517f08c379a000000000000000000000000000000000000000000000000000000000815260040161151a906126e9565b60405180910390fd5b600061152d6114c2565b9050600081511161154d5760405180602001604052806000815250611578565b8061155784611ab4565b604051602001611568929190612458565b6040516020818303038152906040525b915050919050565b6001816000016000828254019250508190555050565b600081600001549050919050565b600073ffffffffffffffffffffffffffffffffffffffff168273ffffffffffffffffffffffffffffffffffffffff161415611614576040517f08c379a000000000000000000000000000000000000000000000000000000000815260040161160b90612669565b60405180910390fd5b61161d81610f80565b1561165d576040517f08c379a000000000000000000000000000000000000000000000000000000000815260040161165490612569565b60405180910390fd5b61166960008383611918565b6001600360008473ffffffffffffffffffffffffffffffffffffffff1673ffffffffffffffffffffffffffffffffffffffff16815260200190815260200160002060008282546116b9919061282e565b92505081905550816002600083815260200190815260200160002060006101000a81548173ffffffffffffffffffffffffffffffffffffffff021916908373ffffffffffffffffffffffffffffffffffffffff160217905550808273ffffffffffffffffffffffffffffffffffffffff16600073ffffffffffffffffffffffffffffffffffffffff167fddf252ad1be2c89b69c2b068fc378daa952ba7f163c4a11628f55a4df523b3ef60405160405180910390a45050565b61177b82610f80565b6117ba576040517f08c379a00000000000000000000000000000000000000000000000000000000081526004016117b190612649565b60405180910390fd5b806006600084815260200190815260200160002090805190602001906117e1929190611c9d565b505050565b61187c816040516024016117fa9190612527565b6040516020818303038152906040527f41304fac000000000000000000000000000000000000000000000000000000007bffffffffffffffffffffffffffffffffffffffffffffffffffffffff19166020820180517bffffffffffffffffffffffffffffffffffffffffffffffffffffffff8381831617835250505050611c61565b50565b61191581604051602401611893919061247c565b6040516020818303038152906040527f2c2ecbc2000000000000000000000000000000000000000000000000000000007bffffffffffffffffffffffffffffffffffffffffffffffffffffffff19166020820180517bffffffffffffffffffffffffffffffffffffffffffffffffffffffff8381831617835250505050611c61565b50565b505050565b600061193e8473ffffffffffffffffffffffffffffffffffffffff16611c8a565b15611aa7578373ffffffffffffffffffffffffffffffffffffffff1663150b7a02611967610fec565b8786866040518563ffffffff1660e01b81526004016119899493929190612497565b602060405180830381600087803b1580156119a357600080fd5b505af19250505080156119d457506040513d601f19601f820116820180604052508101906119d1919061205e565b60015b611a57573d8060008114611a04576040519150601f19603f3d011682016040523d82523d6000602084013e611a09565b606091505b50600081511415611a4f576040517f08c379a0000000000000000000000000000000000000000000000000000000008152600401611a4690612549565b60405180910390fd5b805181602001fd5b63150b7a0260e01b7bffffffffffffffffffffffffffffffffffffffffffffffffffffffff1916817bffffffffffffffffffffffffffffffffffffffffffffffffffffffff191614915050611aac565b600190505b949350505050565b60606000821415611afc576040518060400160405280600181526020017f30000000000000000000000000000000000000000000000000000000000000008152509050611c5c565b600082905060005b60008214611b2e578080611b1790612a14565b915050600a82611b279190612884565b9150611b04565b60008167ffffffffffffffff811115611b70577f4e487b7100000000000000000000000000000000000000000000000000000000600052604160045260246000fd5b6040519080825280601f01601f191660200182016040528015611ba25781602001600182028036833780820191505090505b5090505b60008514611c5557600182611bbb91906128b5565b9150600a85611bca9190612a5d565b6030611bd6919061282e565b60f81b818381518110611c12577f4e487b7100000000000000000000000000000000000000000000000000000000600052603260045260246000fd5b60200101907effffffffffffffffffffffffffffffffffffffffffffffffffffffffffffff1916908160001a905350600a85611c4e9190612884565b9450611ba6565b8093505050505b919050565b60008151905060006a636f6e736f6c652e6c6f679050602083016000808483855afa5050505050565b600080823b905060008111915050919050565b828054611ca9906129b1565b90600052602060002090601f016020900481019282611ccb5760008555611d12565b82601f10611ce457805160ff1916838001178555611d12565b82800160010185558215611d12579182015b82811115611d11578251825591602001919060010190611cf6565b5b509050611d1f9190611d23565b5090565b5b80821115611d3c576000816000905550600101611d24565b5090565b6000611d53611d4e84612789565b612764565b905082815260208101848484011115611d6b57600080fd5b611d7684828561296f565b509392505050565b6000611d91611d8c846127ba565b612764565b905082815260208101848484011115611da957600080fd5b611db484828561296f565b509392505050565b600081359050611dcb81612fd9565b92915050565b600081359050611de081612ff0565b92915050565b600081359050611df581613007565b92915050565b600081519050611e0a81613007565b92915050565b600082601f830112611e2157600080fd5b8135611e31848260208601611d40565b91505092915050565b600081519050611e498161301e565b92915050565b600082601f830112611e6057600080fd5b8135611e70848260208601611d7e565b91505092915050565b600081359050611e8881613035565b92915050565b600060208284031215611ea057600080fd5b6000611eae84828501611dbc565b91505092915050565b60008060408385031215611eca57600080fd5b6000611ed885828601611dbc565b9250506020611ee985828601611dbc565b9150509250929050565b600080600060608486031215611f0857600080fd5b6000611f1686828701611dbc565b9350506020611f2786828701611dbc565b9250506040611f3886828701611e79565b9150509250925092565b60008060008060808587031215611f5857600080fd5b6000611f6687828801611dbc565b9450506020611f7787828801611dbc565b9350506040611f8887828801611e79565b925050606085013567ffffffffffffffff811115611fa557600080fd5b611fb187828801611e10565b91505092959194509250565b60008060408385031215611fd057600080fd5b6000611fde85828601611dbc565b9250506020611fef85828601611dd1565b9150509250929050565b6000806040838503121561200c57600080fd5b600061201a85828601611dbc565b925050602061202b85828601611e79565b9150509250929050565b60006020828403121561204757600080fd5b600061205584828501611de6565b91505092915050565b60006020828403121561207057600080fd5b600061207e84828501611dfb565b91505092915050565b60006020828403121561209957600080fd5b60006120a784828501611e3a565b91505092915050565b6000806000606084860312156120c557600080fd5b600084013567ffffffffffffffff8111156120df57600080fd5b6120eb86828701611e4f565b935050602084013567ffffffffffffffff81111561210857600080fd5b61211486828701611e4f565b925050604061212586828701611dbc565b9150509250925092565b60006020828403121561214157600080fd5b600061214f84828501611e79565b91505092915050565b612161816128e9565b82525050565b612170816128fb565b82525050565b6000612181826127eb565b61218b8185612801565b935061219b81856020860161297e565b6121a481612b4a565b840191505092915050565b60006121ba826127f6565b6121c48185612812565b93506121d481856020860161297e565b6121dd81612b4a565b840191505092915050565b60006121f3826127f6565b6121fd8185612823565b935061220d81856020860161297e565b80840191505092915050565b6000612226603283612812565b915061223182612b5b565b604082019050919050565b6000612249601c83612812565b915061225482612baa565b602082019050919050565b600061226c602483612812565b915061227782612bd3565b604082019050919050565b600061228f601983612812565b915061229a82612c22565b602082019050919050565b60006122b2602c83612812565b91506122bd82612c4b565b604082019050919050565b60006122d5603883612812565b91506122e082612c9a565b604082019050919050565b60006122f8602a83612812565b915061230382612ce9565b604082019050919050565b600061231b602983612812565b915061232682612d38565b604082019050919050565b600061233e602e83612812565b915061234982612d87565b604082019050919050565b6000612361602083612812565b915061236c82612dd6565b602082019050919050565b6000612384603183612812565b915061238f82612dff565b604082019050919050565b60006123a7602c83612812565b91506123b282612e4e565b604082019050919050565b60006123ca602983612812565b91506123d582612e9d565b604082019050919050565b60006123ed602f83612812565b91506123f882612eec565b604082019050919050565b6000612410602183612812565b915061241b82612f3b565b604082019050919050565b6000612433603183612812565b915061243e82612f8a565b604082019050919050565b61245281612965565b82525050565b600061246482856121e8565b915061247082846121e8565b91508190509392505050565b60006020820190506124916000830184612158565b92915050565b60006080820190506124ac6000830187612158565b6124b96020830186612158565b6124c66040830185612449565b81810360608301526124d88184612176565b905095945050505050565b60006040820190506124f86000830185612158565b6125056020830184612167565b9392505050565b60006020820190506125216000830184612167565b92915050565b6000602082019050818103600083015261254181846121af565b905092915050565b6000602082019050818103600083015261256281612219565b9050919050565b600060208201905081810360008301526125828161223c565b9050919050565b600060208201905081810360008301526125a28161225f565b9050919050565b600060208201905081810360008301526125c281612282565b9050919050565b600060208201905081810360008301526125e2816122a5565b9050919050565b60006020820190508181036000830152612602816122c8565b9050919050565b60006020820190508181036000830152612622816122eb565b9050919050565b600060208201905081810360008301526126428161230e565b9050919050565b6000602082019050818103600083015261266281612331565b9050919050565b6000602082019050818103600083015261268281612354565b9050919050565b600060208201905081810360008301526126a281612377565b9050919050565b600060208201905081810360008301526126c28161239a565b9050919050565b600060208201905081810360008301526126e2816123bd565b9050919050565b60006020820190508181036000830152612702816123e0565b9050919050565b6000602082019050818103600083015261272281612403565b9050919050565b6000602082019050818103600083015261274281612426565b9050919050565b600060208201905061275e6000830184612449565b92915050565b600061276e61277f565b905061277a82826129e3565b919050565b6000604051905090565b600067ffffffffffffffff8211156127a4576127a3612b1b565b5b6127ad82612b4a565b9050602081019050919050565b600067ffffffffffffffff8211156127d5576127d4612b1b565b5b6127de82612b4a565b9050602081019050919050565b600081519050919050565b600081519050919050565b600082825260208201905092915050565b600082825260208201905092915050565b600081905092915050565b600061283982612965565b915061284483612965565b9250827fffffffffffffffffffffffffffffffffffffffffffffffffffffffffffffffff0382111561287957612878612a8e565b5b828201905092915050565b600061288f82612965565b915061289a83612965565b9250826128aa576128a9612abd565b5b828204905092915050565b60006128c082612965565b91506128cb83612965565b9250828210156128de576128dd612a8e565b5b828203905092915050565b60006128f482612945565b9050919050565b60008115159050919050565b60007fffffffff0000000000000000000000000000000000000000000000000000000082169050919050565b600061293e826128e9565b9050919050565b600073ffffffffffffffffffffffffffffffffffffffff82169050919050565b6000819050919050565b82818337600083830152505050565b60005b8381101561299c578082015181840152602081019050612981565b838111156129ab576000848401525b50505050565b600060028204905060018216806129c957607f821691505b602082108114156129dd576129dc612aec565b5b50919050565b6129ec82612b4a565b810181811067ffffffffffffffff82111715612a0b57612a0a612b1b565b5b80604052505050565b6000612a1f82612965565b91507fffffffffffffffffffffffffffffffffffffffffffffffffffffffffffffffff821415612a5257612a51612a8e565b5b600182019050919050565b6000612a6882612965565b9150612a7383612965565b925082612a8357612a82612abd565b5b828206905092915050565b7f4e487b7100000000000000000000000000000000000000000000000000000000600052601160045260246000fd5b7f4e487b7100000000000000000000000000000000000000000000000000000000600052601260045260246000fd5b7f4e487b7100000000000000000000000000000000000000000000000000000000600052602260045260246000fd5b7f4e487b7100000000000000000000000000000000000000000000000000000000600052604160045260246000fd5b6000601f19601f8301169050919050565b7f4552433732313a207472616e7366657220746f206e6f6e20455243373231526560008201527f63656976657220696d706c656d656e7465720000000000000000000000000000602082015250565b7f4552433732313a20746f6b656e20616c7265616479206d696e74656400000000600082015250565b7f4552433732313a207472616e7366657220746f20746865207a65726f2061646460008201527f7265737300000000000000000000000000000000000000000000000000000000602082015250565b7f4552433732313a20617070726f766520746f2063616c6c657200000000000000600082015250565b7f4552433732313a206f70657261746f7220717565727920666f72206e6f6e657860008201527f697374656e7420746f6b656e0000000000000000000000000000000000000000602082015250565b7f4552433732313a20617070726f76652063616c6c6572206973206e6f74206f7760008201527f6e6572206e6f7220617070726f76656420666f7220616c6c0000000000000000602082015250565b7f4552433732313a2062616c616e636520717565727920666f7220746865207a6560008201527f726f206164647265737300000000000000000000000000000000000000000000602082015250565b7f4552433732313a206f776e657220717565727920666f72206e6f6e657869737460008201527f656e7420746f6b656e0000000000000000000000000000000000000000000000602082015250565b7f45524337323155524953746f726167653a2055524920736574206f66206e6f6e60008201527f6578697374656e7420746f6b656e000000000000000000000000000000000000602082015250565b7f4552433732313a206d696e7420746f20746865207a65726f2061646472657373600082015250565b7f45524337323155524953746f726167653a2055524920717565727920666f722060008201527f6e6f6e6578697374656e7420746f6b656e000000000000000000000000000000602082015250565b7f4552433732313a20617070726f76656420717565727920666f72206e6f6e657860008201527f697374656e7420746f6b656e0000000000000000000000000000000000000000602082015250565b7f4552433732313a207472616e73666572206f6620746f6b656e2074686174206960008201527f73206e6f74206f776e0000000000000000000000000000000000000000000000602082015250565b7f4552433732314d657461646174613a2055524920717565727920666f72206e6f60008201527f6e6578697374656e7420746f6b656e0000000000000000000000000000000000602082015250565b7f4552433732313a20617070726f76616c20746f2063757272656e74206f776e6560008201527f7200000000000000000000000000000000000000000000000000000000000000602082015250565b7f4552433732313a207472616e736665722063616c6c6572206973206e6f74206f60008201527f776e6572206e6f7220617070726f766564000000000000000000000000000000602082015250565b612fe2816128e9565b8114612fed57600080fd5b50565b612ff9816128fb565b811461300457600080fd5b50565b61301081612907565b811461301b57600080fd5b50565b61302781612933565b811461303257600080fd5b50565b61303e81612965565b811461304957600080fd5b5056fea2646970667358221220ae70a3c2b8e28998b09d67269fa55947f14034eb5d5c7503b4a50eb5f4ff7b0064736f6c63430008040033",
  "linkReferences": {},
  "deployedLinkReferences": {}
}