{
  "_format": "hh-sol-artifact-1",
  "contractName": "GenesisToken",
  "sourceName": "contracts/GenesisToken.sol",
  "abi": [
    {
      "inputs": [],
      "stateMutability": "nonpayable",
      "type": "constructor"
    },
    {
      "anonymous": false,
      "inputs": [
        {
          "indexed": true,
          "internalType": "address",
          "name": "owner",
          "type": "address"
        },
        {
          "indexed": true,
          "internalType": "address",
          "name": "approved",
          "type": "address"
        },
        {
          "indexed": true,
          "internalType": "uint256",
          "name": "tokenId",
          "type": "uint256"
        }
      ],
      "name": "Approval",
      "type": "event"
    },
    {
      "anonymous": false,
      "inputs": [
        {
          "indexed": true,
          "internalType": "address",
          "name": "owner",
          "type": "address"
        },
        {
          "indexed": true,
          "internalType": "address",
          "name": "operator",
          "type": "address"
        },
        {
          "indexed": false,
          "internalType": "bool",
          "name": "approved",
          "type": "bool"
        }
      ],
      "name": "ApprovalForAll",
      "type": "event"
    },
    {
      "anonymous": false,
      "inputs": [
        {
          "indexed": false,
          "internalType": "address",
          "name": "entityAddress",
          "type": "address"
        },
        {
          "indexed": false,
          "internalType": "string",
          "name": "entityName",
          "type": "string"
        },
        {
          "indexed": false,
          "internalType": "address",
          "name": "genesisTokenHolder",
          "type": "address"
        }
      ],
      "name": "EntityDeployed",
      "type": "event"
    },
    {
      "anonymous": false,
      "inputs": [
        {
          "indexed": true,
          "internalType": "address",
          "name": "from",
          "type": "address"
        },
        {
          "indexed": true,
          "internalType": "address",
          "name": "to",
          "type": "address"
        },
        {
          "indexed": true,
          "internalType": "uint256",
          "name": "tokenId",
          "type": "uint256"
        }
      ],
      "name": "Transfer",
      "type": "event"
    },
    {
      "inputs": [
        {
          "internalType": "address",
          "name": "to",
          "type": "address"
        },
        {
          "internalType": "uint256",
          "name": "tokenId",
          "type": "uint256"
        }
      ],
      "name": "approve",
      "outputs": [],
      "stateMutability": "nonpayable",
      "type": "function"
    },
    {
      "inputs": [
        {
          "internalType": "address",
          "name": "owner",
          "type": "address"
        }
      ],
      "name": "balanceOf",
      "outputs": [
        {
          "internalType": "uint256",
          "name": "",
          "type": "uint256"
        }
      ],
      "stateMutability": "view",
      "type": "function"
    },
    {
      "inputs": [
        {
          "internalType": "uint256",
          "name": "tokenId",
          "type": "uint256"
        }
      ],
      "name": "getApproved",
      "outputs": [
        {
          "internalType": "address",
          "name": "",
          "type": "address"
        }
      ],
      "stateMutability": "view",
      "type": "function"
    },
    {
      "inputs": [
        {
          "internalType": "address",
          "name": "owner",
          "type": "address"
        },
        {
          "internalType": "address",
          "name": "operator",
          "type": "address"
        }
      ],
      "name": "isApprovedForAll",
      "outputs": [
        {
          "internalType": "bool",
          "name": "",
          "type": "bool"
        }
      ],
      "stateMutability": "view",
      "type": "function"
    },
    {
      "inputs": [
        {
          "internalType": "string",
          "name": "tokenURI",
          "type": "string"
        },
        {
          "internalType": "string",
          "name": "entityName",
          "type": "string"
        },
        {
          "internalType": "address",
          "name": "badgeAddress",
          "type": "address"
        }
      ],
      "name": "mintGenToken",
      "outputs": [
        {
          "internalType": "address",
          "name": "",
          "type": "address"
        }
      ],
      "stateMutability": "payable",
      "type": "function"
    },
    {
      "inputs": [],
      "name": "name",
      "outputs": [
        {
          "internalType": "string",
          "name": "",
          "type": "string"
        }
      ],
      "stateMutability": "view",
      "type": "function"
    },
    {
      "inputs": [
        {
          "internalType": "address",
          "name": "",
          "type": "address"
        }
      ],
      "name": "orgToOwner",
      "outputs": [
        {
          "internalType": "address",
          "name": "userAddress",
          "type": "address"
        },
        {
          "internalType": "bool",
          "name": "exists",
          "type": "bool"
        }
      ],
      "stateMutability": "view",
      "type": "function"
    },
    {
      "inputs": [
        {
          "internalType": "uint256",
          "name": "tokenId",
          "type": "uint256"
        }
      ],
      "name": "ownerOf",
      "outputs": [
        {
          "internalType": "address",
          "name": "",
          "type": "address"
        }
      ],
      "stateMutability": "view",
      "type": "function"
    },
    {
      "inputs": [
        {
          "internalType": "address",
          "name": "from",
          "type": "address"
        },
        {
          "internalType": "address",
          "name": "to",
          "type": "address"
        },
        {
          "internalType": "uint256",
          "name": "tokenId",
          "type": "uint256"
        }
      ],
      "name": "safeTransferFrom",
      "outputs": [],
      "stateMutability": "nonpayable",
      "type": "function"
    },
    {
      "inputs": [
        {
          "internalType": "address",
          "name": "from",
          "type": "address"
        },
        {
          "internalType": "address",
          "name": "to",
          "type": "address"
        },
        {
          "internalType": "uint256",
          "name": "tokenId",
          "type": "uint256"
        },
        {
          "internalType": "bytes",
          "name": "_data",
          "type": "bytes"
        }
      ],
      "name": "safeTransferFrom",
      "outputs": [],
      "stateMutability": "nonpayable",
      "type": "function"
    },
    {
      "inputs": [
        {
          "internalType": "address",
          "name": "operator",
          "type": "address"
        },
        {
          "internalType": "bool",
          "name": "approved",
          "type": "bool"
        }
      ],
      "name": "setApprovalForAll",
      "outputs": [],
      "stateMutability": "nonpayable",
      "type": "function"
    },
    {
      "inputs": [
        {
          "internalType": "bytes4",
          "name": "interfaceId",
          "type": "bytes4"
        }
      ],
      "name": "supportsInterface",
      "outputs": [
        {
          "internalType": "bool",
          "name": "",
          "type": "bool"
        }
      ],
      "stateMutability": "view",
      "type": "function"
    },
    {
      "inputs": [],
      "name": "symbol",
      "outputs": [
        {
          "internalType": "string",
          "name": "",
          "type": "string"
        }
      ],
      "stateMutability": "view",
      "type": "function"
    },
    {
      "inputs": [
        {
          "internalType": "uint256",
          "name": "tokenId",
          "type": "uint256"
        }
      ],
      "name": "tokenURI",
      "outputs": [
        {
          "internalType": "string",
          "name": "",
          "type": "string"
        }
      ],
      "stateMutability": "view",
      "type": "function"
    },
    {
      "inputs": [
        {
          "internalType": "address",
          "name": "from",
          "type": "address"
        },
        {
          "internalType": "address",
          "name": "to",
          "type": "address"
        },
        {
          "internalType": "uint256",
          "name": "tokenId",
          "type": "uint256"
        }
      ],
      "name": "transferFrom",
      "outputs": [],
      "stateMutability": "nonpayable",
      "type": "function"
    }
  ],
  "bytecode": "0x60806040523480156200001157600080fd5b506040518060400160405280601581526020017f4261646765202d2047656e6573697320746f6b656e00000000000000000000008152506040518060400160405280600d81526020017f42414447455f47454e4553495300000000000000000000000000000000000000815250816000908051906020019062000096929190620000b8565b508060019080519060200190620000af929190620000b8565b505050620001cd565b828054620000c69062000168565b90600052602060002090601f016020900481019282620000ea576000855562000136565b82601f106200010557805160ff191683800117855562000136565b8280016001018555821562000136579182015b828111156200013557825182559160200191906001019062000118565b5b50905062000145919062000149565b5090565b5b80821115620001645760008160009055506001016200014a565b5090565b600060028204905060018216806200018157607f821691505b602082108114156200019857620001976200019e565b5b50919050565b7f4e487b7100000000000000000000000000000000000000000000000000000000600052602260045260246000fd5b61320680620001dd6000396000f3fe6080604052600436106100e85760003560e01c80636352211e1161008a578063af43344a11610059578063af43344a1461030b578063b88d4fde14610349578063c87b56dd14610372578063e985e9c5146103af576100e8565b80636352211e1461023d57806370a082311461027a57806395d89b41146102b7578063a22cb465146102e2576100e8565b8063095ea7b3116100c6578063095ea7b314610192578063215a2e78146101bb57806323b872dd146101eb57806342842e0e14610214576100e8565b806301ffc9a7146100ed57806306fdde031461012a578063081812fc14610155575b600080fd5b3480156100f957600080fd5b50610114600480360381019061010f919061214b565b6103ec565b6040516101219190612660565b60405180910390f35b34801561013657600080fd5b5061013f6104ce565b60405161014c919061267b565b60405180910390f35b34801561016157600080fd5b5061017c60048036038101906101779190612245565b610560565b6040516101899190612592565b60405180910390f35b34801561019e57600080fd5b506101b960048036038101906101b4919061210f565b6105e5565b005b6101d560048036038101906101d091906121c6565b6106fd565b6040516101e29190612592565b60405180910390f35b3480156101f757600080fd5b50610212600480360381019061020d9190612009565b6108fa565b005b34801561022057600080fd5b5061023b60048036038101906102369190612009565b61095a565b005b34801561024957600080fd5b50610264600480360381019061025f9190612245565b61097a565b6040516102719190612592565b60405180910390f35b34801561028657600080fd5b506102a1600480360381019061029c9190611fa4565b610a2c565b6040516102ae91906128cd565b60405180910390f35b3480156102c357600080fd5b506102cc610ae4565b6040516102d9919061267b565b60405180910390f35b3480156102ee57600080fd5b50610309600480360381019061030491906120d3565b610b76565b005b34801561031757600080fd5b50610332600480360381019061032d9190611fa4565b610cf7565b6040516103409291906125f9565b60405180910390f35b34801561035557600080fd5b50610370600480360381019061036b9190612058565b610d48565b005b34801561037e57600080fd5b5061039960048036038101906103949190612245565b610daa565b6040516103a6919061267b565b60405180910390f35b3480156103bb57600080fd5b506103d660048036038101906103d19190611fcd565b610efc565b6040516103e39190612660565b60405180910390f35b60007f80ac58cd000000000000000000000000000000000000000000000000000000007bffffffffffffffffffffffffffffffffffffffffffffffffffffffff1916827bffffffffffffffffffffffffffffffffffffffffffffffffffffffff191614806104b757507f5b5e139f000000000000000000000000000000000000000000000000000000007bffffffffffffffffffffffffffffffffffffffffffffffffffffffff1916827bffffffffffffffffffffffffffffffffffffffffffffffffffffffff1916145b806104c757506104c682610f90565b5b9050919050565b6060600080546104dd90612b35565b80601f016020809104026020016040519081016040528092919081815260200182805461050990612b35565b80156105565780601f1061052b57610100808354040283529160200191610556565b820191906000526020600020905b81548152906001019060200180831161053957829003601f168201915b5050505050905090565b600061056b82610ffa565b6105aa576040517f08c379a00000000000000000000000000000000000000000000000000000000081526004016105a19061282d565b60405180910390fd5b6004600083815260200190815260200160002060009054906101000a900473ffffffffffffffffffffffffffffffffffffffff169050919050565b60006105f08261097a565b90508073ffffffffffffffffffffffffffffffffffffffff168373ffffffffffffffffffffffffffffffffffffffff161415610661576040517f08c379a00000000000000000000000000000000000000000000000000000000081526004016106589061288d565b60405180910390fd5b8073ffffffffffffffffffffffffffffffffffffffff16610680611066565b73ffffffffffffffffffffffffffffffffffffffff1614806106af57506106ae816106a9611066565b610efc565b5b6106ee576040517f08c379a00000000000000000000000000000000000000000000000000000000081526004016106e59061276d565b60405180910390fd5b6106f8838361106e565b505050565b60008082905060008173ffffffffffffffffffffffffffffffffffffffff166373693075866040518263ffffffff1660e01b815260040161073e919061267b565b602060405180830381600087803b15801561075857600080fd5b505af115801561076c573d6000803e3d6000fd5b505050506040513d601f19601f82011682018060405250810190610790919061219d565b905060405180604001604052803373ffffffffffffffffffffffffffffffffffffffff16815260200160011515815250600860008373ffffffffffffffffffffffffffffffffffffffff1673ffffffffffffffffffffffffffffffffffffffff16815260200190815260200160002060008201518160000160006101000a81548173ffffffffffffffffffffffffffffffffffffffff021916908373ffffffffffffffffffffffffffffffffffffffff16021790555060208201518160000160146101000a81548160ff0219169083151502179055509050506108738633611127565b506108b36040518060400160405280601081526020017f456e7469747920616464726573733a2000000000000000000000000000000000815250826111a6565b7fcf2cb25dfc1dfff1e34e799b424a6b365a57020ef199ebb3ad06a7c7779e461b8186336040516108e693929190612622565b60405180910390a180925050509392505050565b61090b610905611066565b82611242565b61094a576040517f08c379a0000000000000000000000000000000000000000000000000000000008152600401610941906128ad565b60405180910390fd5b610955838383611320565b505050565b61097583838360405180602001604052806000815250610d48565b505050565b6000806002600084815260200190815260200160002060009054906101000a900473ffffffffffffffffffffffffffffffffffffffff169050600073ffffffffffffffffffffffffffffffffffffffff168173ffffffffffffffffffffffffffffffffffffffff161415610a23576040517f08c379a0000000000000000000000000000000000000000000000000000000008152600401610a1a906127ad565b60405180910390fd5b80915050919050565b60008073ffffffffffffffffffffffffffffffffffffffff168273ffffffffffffffffffffffffffffffffffffffff161415610a9d576040517f08c379a0000000000000000000000000000000000000000000000000000000008152600401610a949061278d565b60405180910390fd5b600360008373ffffffffffffffffffffffffffffffffffffffff1673ffffffffffffffffffffffffffffffffffffffff168152602001908152602001600020549050919050565b606060018054610af390612b35565b80601f0160208091040260200160405190810160405280929190818152602001828054610b1f90612b35565b8015610b6c5780601f10610b4157610100808354040283529160200191610b6c565b820191906000526020600020905b815481529060010190602001808311610b4f57829003601f168201915b5050505050905090565b610b7e611066565b73ffffffffffffffffffffffffffffffffffffffff168273ffffffffffffffffffffffffffffffffffffffff161415610bec576040517f08c379a0000000000000000000000000000000000000000000000000000000008152600401610be39061272d565b60405180910390fd5b8060056000610bf9611066565b73ffffffffffffffffffffffffffffffffffffffff1673ffffffffffffffffffffffffffffffffffffffff16815260200190815260200160002060008473ffffffffffffffffffffffffffffffffffffffff1673ffffffffffffffffffffffffffffffffffffffff16815260200190815260200160002060006101000a81548160ff0219169083151502179055508173ffffffffffffffffffffffffffffffffffffffff16610ca6611066565b73ffffffffffffffffffffffffffffffffffffffff167f17307eab39ab6107e8899845ad3d59bd9653f200f220920489ca2b5937696c3183604051610ceb9190612660565b60405180910390a35050565b60086020528060005260406000206000915090508060000160009054906101000a900473ffffffffffffffffffffffffffffffffffffffff16908060000160149054906101000a900460ff16905082565b610d59610d53611066565b83611242565b610d98576040517f08c379a0000000000000000000000000000000000000000000000000000000008152600401610d8f906128ad565b60405180910390fd5b610da48484848461157c565b50505050565b6060610db582610ffa565b610df4576040517f08c379a0000000000000000000000000000000000000000000000000000000008152600401610deb9061280d565b60405180910390fd5b6000600660008481526020019081526020016000208054610e1490612b35565b80601f0160208091040260200160405190810160405280929190818152602001828054610e4090612b35565b8015610e8d5780601f10610e6257610100808354040283529160200191610e8d565b820191906000526020600020905b815481529060010190602001808311610e7057829003601f168201915b505050505090506000610e9e6115d8565b9050600081511415610eb4578192505050610ef7565b600082511115610ee9578082604051602001610ed192919061256e565b60405160208183030381529060405292505050610ef7565b610ef2846115ef565b925050505b919050565b6000600560008473ffffffffffffffffffffffffffffffffffffffff1673ffffffffffffffffffffffffffffffffffffffff16815260200190815260200160002060008373ffffffffffffffffffffffffffffffffffffffff1673ffffffffffffffffffffffffffffffffffffffff16815260200190815260200160002060009054906101000a900460ff16905092915050565b60007f01ffc9a7000000000000000000000000000000000000000000000000000000007bffffffffffffffffffffffffffffffffffffffffffffffffffffffff1916827bffffffffffffffffffffffffffffffffffffffffffffffffffffffff1916149050919050565b60008073ffffffffffffffffffffffffffffffffffffffff166002600084815260200190815260200160002060009054906101000a900473ffffffffffffffffffffffffffffffffffffffff1673ffffffffffffffffffffffffffffffffffffffff1614159050919050565b600033905090565b816004600083815260200190815260200160002060006101000a81548173ffffffffffffffffffffffffffffffffffffffff021916908373ffffffffffffffffffffffffffffffffffffffff160217905550808273ffffffffffffffffffffffffffffffffffffffff166110e18361097a565b73ffffffffffffffffffffffffffffffffffffffff167f8c5be1e5ebec7d5bd14f71427d1e84f3dd0314c0f7b2291e5b200ac8c7c3b92560405160405180910390a45050565b60006111336007611696565b600061113f60076116ac565b905061114b83826116ba565b6111558185611888565b6111936040518060400160405280600981526020017f53656e64657249443a00000000000000000000000000000000000000000000008152506118fc565b61119c33611995565b8091505092915050565b61123e82826040516024016111bc92919061269d565b6040516020818303038152906040527f319af333000000000000000000000000000000000000000000000000000000007bffffffffffffffffffffffffffffffffffffffffffffffffffffffff19166020820180517bffffffffffffffffffffffffffffffffffffffffffffffffffffffff8381831617835250505050611a2e565b5050565b600061124d82610ffa565b61128c576040517f08c379a00000000000000000000000000000000000000000000000000000000081526004016112839061274d565b60405180910390fd5b60006112978361097a565b90508073ffffffffffffffffffffffffffffffffffffffff168473ffffffffffffffffffffffffffffffffffffffff16148061130657508373ffffffffffffffffffffffffffffffffffffffff166112ee84610560565b73ffffffffffffffffffffffffffffffffffffffff16145b8061131757506113168185610efc565b5b91505092915050565b8273ffffffffffffffffffffffffffffffffffffffff166113408261097a565b73ffffffffffffffffffffffffffffffffffffffff1614611396576040517f08c379a000000000000000000000000000000000000000000000000000000000815260040161138d9061284d565b60405180910390fd5b600073ffffffffffffffffffffffffffffffffffffffff168273ffffffffffffffffffffffffffffffffffffffff161415611406576040517f08c379a00000000000000000000000000000000000000000000000000000000081526004016113fd9061270d565b60405180910390fd5b611411838383611a57565b61141c60008261106e565b6001600360008573ffffffffffffffffffffffffffffffffffffffff1673ffffffffffffffffffffffffffffffffffffffff168152602001908152602001600020600082825461146c9190612a39565b925050819055506001600360008473ffffffffffffffffffffffffffffffffffffffff1673ffffffffffffffffffffffffffffffffffffffff16815260200190815260200160002060008282546114c391906129b2565b92505081905550816002600083815260200190815260200160002060006101000a81548173ffffffffffffffffffffffffffffffffffffffff021916908373ffffffffffffffffffffffffffffffffffffffff160217905550808273ffffffffffffffffffffffffffffffffffffffff168473ffffffffffffffffffffffffffffffffffffffff167fddf252ad1be2c89b69c2b068fc378daa952ba7f163c4a11628f55a4df523b3ef60405160405180910390a4505050565b611587848484611320565b61159384848484611a5c565b6115d2576040517f08c379a00000000000000000000000000000000000000000000000000000000081526004016115c9906126cd565b60405180910390fd5b50505050565b606060405180602001604052806000815250905090565b60606115fa82610ffa565b611639576040517f08c379a00000000000000000000000000000000000000000000000000000000081526004016116309061286d565b60405180910390fd5b60006116436115d8565b90506000815111611663576040518060200160405280600081525061168e565b8061166d84611bf3565b60405160200161167e92919061256e565b6040516020818303038152906040525b915050919050565b6001816000016000828254019250508190555050565b600081600001549050919050565b600073ffffffffffffffffffffffffffffffffffffffff168273ffffffffffffffffffffffffffffffffffffffff16141561172a576040517f08c379a0000000000000000000000000000000000000000000000000000000008152600401611721906127ed565b60405180910390fd5b61173381610ffa565b15611773576040517f08c379a000000000000000000000000000000000000000000000000000000000815260040161176a906126ed565b60405180910390fd5b61177f60008383611a57565b6001600360008473ffffffffffffffffffffffffffffffffffffffff1673ffffffffffffffffffffffffffffffffffffffff16815260200190815260200160002060008282546117cf91906129b2565b92505081905550816002600083815260200190815260200160002060006101000a81548173ffffffffffffffffffffffffffffffffffffffff021916908373ffffffffffffffffffffffffffffffffffffffff160217905550808273ffffffffffffffffffffffffffffffffffffffff16600073ffffffffffffffffffffffffffffffffffffffff167fddf252ad1be2c89b69c2b068fc378daa952ba7f163c4a11628f55a4df523b3ef60405160405180910390a45050565b61189182610ffa565b6118d0576040517f08c379a00000000000000000000000000000000000000000000000000000000081526004016118c7906127cd565b60405180910390fd5b806006600084815260200190815260200160002090805190602001906118f7929190611db3565b505050565b61199281604051602401611910919061267b565b6040516020818303038152906040527f41304fac000000000000000000000000000000000000000000000000000000007bffffffffffffffffffffffffffffffffffffffffffffffffffffffff19166020820180517bffffffffffffffffffffffffffffffffffffffffffffffffffffffff8381831617835250505050611a2e565b50565b611a2b816040516024016119a99190612592565b6040516020818303038152906040527f2c2ecbc2000000000000000000000000000000000000000000000000000000007bffffffffffffffffffffffffffffffffffffffffffffffffffffffff19166020820180517bffffffffffffffffffffffffffffffffffffffffffffffffffffffff8381831617835250505050611a2e565b50565b60008151905060006a636f6e736f6c652e6c6f679050602083016000808483855afa5050505050565b505050565b6000611a7d8473ffffffffffffffffffffffffffffffffffffffff16611da0565b15611be6578373ffffffffffffffffffffffffffffffffffffffff1663150b7a02611aa6611066565b8786866040518563ffffffff1660e01b8152600401611ac894939291906125ad565b602060405180830381600087803b158015611ae257600080fd5b505af1925050508015611b1357506040513d601f19601f82011682018060405250810190611b109190612174565b60015b611b96573d8060008114611b43576040519150601f19603f3d011682016040523d82523d6000602084013e611b48565b606091505b50600081511415611b8e576040517f08c379a0000000000000000000000000000000000000000000000000000000008152600401611b85906126cd565b60405180910390fd5b805181602001fd5b63150b7a0260e01b7bffffffffffffffffffffffffffffffffffffffffffffffffffffffff1916817bffffffffffffffffffffffffffffffffffffffffffffffffffffffff191614915050611beb565b600190505b949350505050565b60606000821415611c3b576040518060400160405280600181526020017f30000000000000000000000000000000000000000000000000000000000000008152509050611d9b565b600082905060005b60008214611c6d578080611c5690612b98565b915050600a82611c669190612a08565b9150611c43565b60008167ffffffffffffffff811115611caf577f4e487b7100000000000000000000000000000000000000000000000000000000600052604160045260246000fd5b6040519080825280601f01601f191660200182016040528015611ce15781602001600182028036833780820191505090505b5090505b60008514611d9457600182611cfa9190612a39565b9150600a85611d099190612be1565b6030611d1591906129b2565b60f81b818381518110611d51577f4e487b7100000000000000000000000000000000000000000000000000000000600052603260045260246000fd5b60200101907effffffffffffffffffffffffffffffffffffffffffffffffffffffffffffff1916908160001a905350600a85611d8d9190612a08565b9450611ce5565b8093505050505b919050565b600080823b905060008111915050919050565b828054611dbf90612b35565b90600052602060002090601f016020900481019282611de15760008555611e28565b82601f10611dfa57805160ff1916838001178555611e28565b82800160010185558215611e28579182015b82811115611e27578251825591602001919060010190611e0c565b5b509050611e359190611e39565b5090565b5b80821115611e52576000816000905550600101611e3a565b5090565b6000611e69611e648461290d565b6128e8565b905082815260208101848484011115611e8157600080fd5b611e8c848285612af3565b509392505050565b6000611ea7611ea28461293e565b6128e8565b905082815260208101848484011115611ebf57600080fd5b611eca848285612af3565b509392505050565b600081359050611ee18161315d565b92915050565b600081359050611ef681613174565b92915050565b600081359050611f0b8161318b565b92915050565b600081519050611f208161318b565b92915050565b600082601f830112611f3757600080fd5b8135611f47848260208601611e56565b91505092915050565b600081519050611f5f816131a2565b92915050565b600082601f830112611f7657600080fd5b8135611f86848260208601611e94565b91505092915050565b600081359050611f9e816131b9565b92915050565b600060208284031215611fb657600080fd5b6000611fc484828501611ed2565b91505092915050565b60008060408385031215611fe057600080fd5b6000611fee85828601611ed2565b9250506020611fff85828601611ed2565b9150509250929050565b60008060006060848603121561201e57600080fd5b600061202c86828701611ed2565b935050602061203d86828701611ed2565b925050604061204e86828701611f8f565b9150509250925092565b6000806000806080858703121561206e57600080fd5b600061207c87828801611ed2565b945050602061208d87828801611ed2565b935050604061209e87828801611f8f565b925050606085013567ffffffffffffffff8111156120bb57600080fd5b6120c787828801611f26565b91505092959194509250565b600080604083850312156120e657600080fd5b60006120f485828601611ed2565b925050602061210585828601611ee7565b9150509250929050565b6000806040838503121561212257600080fd5b600061213085828601611ed2565b925050602061214185828601611f8f565b9150509250929050565b60006020828403121561215d57600080fd5b600061216b84828501611efc565b91505092915050565b60006020828403121561218657600080fd5b600061219484828501611f11565b91505092915050565b6000602082840312156121af57600080fd5b60006121bd84828501611f50565b91505092915050565b6000806000606084860312156121db57600080fd5b600084013567ffffffffffffffff8111156121f557600080fd5b61220186828701611f65565b935050602084013567ffffffffffffffff81111561221e57600080fd5b61222a86828701611f65565b925050604061223b86828701611ed2565b9150509250925092565b60006020828403121561225757600080fd5b600061226584828501611f8f565b91505092915050565b61227781612a6d565b82525050565b61228681612a7f565b82525050565b60006122978261296f565b6122a18185612985565b93506122b1818560208601612b02565b6122ba81612cce565b840191505092915050565b60006122d08261297a565b6122da8185612996565b93506122ea818560208601612b02565b6122f381612cce565b840191505092915050565b60006123098261297a565b61231381856129a7565b9350612323818560208601612b02565b80840191505092915050565b600061233c603283612996565b915061234782612cdf565b604082019050919050565b600061235f601c83612996565b915061236a82612d2e565b602082019050919050565b6000612382602483612996565b915061238d82612d57565b604082019050919050565b60006123a5601983612996565b91506123b082612da6565b602082019050919050565b60006123c8602c83612996565b91506123d382612dcf565b604082019050919050565b60006123eb603883612996565b91506123f682612e1e565b604082019050919050565b600061240e602a83612996565b915061241982612e6d565b604082019050919050565b6000612431602983612996565b915061243c82612ebc565b604082019050919050565b6000612454602e83612996565b915061245f82612f0b565b604082019050919050565b6000612477602083612996565b915061248282612f5a565b602082019050919050565b600061249a603183612996565b91506124a582612f83565b604082019050919050565b60006124bd602c83612996565b91506124c882612fd2565b604082019050919050565b60006124e0602983612996565b91506124eb82613021565b604082019050919050565b6000612503602f83612996565b915061250e82613070565b604082019050919050565b6000612526602183612996565b9150612531826130bf565b604082019050919050565b6000612549603183612996565b91506125548261310e565b604082019050919050565b61256881612ae9565b82525050565b600061257a82856122fe565b915061258682846122fe565b91508190509392505050565b60006020820190506125a7600083018461226e565b92915050565b60006080820190506125c2600083018761226e565b6125cf602083018661226e565b6125dc604083018561255f565b81810360608301526125ee818461228c565b905095945050505050565b600060408201905061260e600083018561226e565b61261b602083018461227d565b9392505050565b6000606082019050612637600083018661226e565b818103602083015261264981856122c5565b9050612658604083018461226e565b949350505050565b6000602082019050612675600083018461227d565b92915050565b6000602082019050818103600083015261269581846122c5565b905092915050565b600060408201905081810360008301526126b781856122c5565b90506126c6602083018461226e565b9392505050565b600060208201905081810360008301526126e68161232f565b9050919050565b6000602082019050818103600083015261270681612352565b9050919050565b6000602082019050818103600083015261272681612375565b9050919050565b6000602082019050818103600083015261274681612398565b9050919050565b60006020820190508181036000830152612766816123bb565b9050919050565b60006020820190508181036000830152612786816123de565b9050919050565b600060208201905081810360008301526127a681612401565b9050919050565b600060208201905081810360008301526127c681612424565b9050919050565b600060208201905081810360008301526127e681612447565b9050919050565b600060208201905081810360008301526128068161246a565b9050919050565b600060208201905081810360008301526128268161248d565b9050919050565b60006020820190508181036000830152612846816124b0565b9050919050565b60006020820190508181036000830152612866816124d3565b9050919050565b60006020820190508181036000830152612886816124f6565b9050919050565b600060208201905081810360008301526128a681612519565b9050919050565b600060208201905081810360008301526128c68161253c565b9050919050565b60006020820190506128e2600083018461255f565b92915050565b60006128f2612903565b90506128fe8282612b67565b919050565b6000604051905090565b600067ffffffffffffffff82111561292857612927612c9f565b5b61293182612cce565b9050602081019050919050565b600067ffffffffffffffff82111561295957612958612c9f565b5b61296282612cce565b9050602081019050919050565b600081519050919050565b600081519050919050565b600082825260208201905092915050565b600082825260208201905092915050565b600081905092915050565b60006129bd82612ae9565b91506129c883612ae9565b9250827fffffffffffffffffffffffffffffffffffffffffffffffffffffffffffffffff038211156129fd576129fc612c12565b5b828201905092915050565b6000612a1382612ae9565b9150612a1e83612ae9565b925082612a2e57612a2d612c41565b5b828204905092915050565b6000612a4482612ae9565b9150612a4f83612ae9565b925082821015612a6257612a61612c12565b5b828203905092915050565b6000612a7882612ac9565b9050919050565b60008115159050919050565b60007fffffffff0000000000000000000000000000000000000000000000000000000082169050919050565b6000612ac282612a6d565b9050919050565b600073ffffffffffffffffffffffffffffffffffffffff82169050919050565b6000819050919050565b82818337600083830152505050565b60005b83811015612b20578082015181840152602081019050612b05565b83811115612b2f576000848401525b50505050565b60006002820490506001821680612b4d57607f821691505b60208210811415612b6157612b60612c70565b5b50919050565b612b7082612cce565b810181811067ffffffffffffffff82111715612b8f57612b8e612c9f565b5b80604052505050565b6000612ba382612ae9565b91507fffffffffffffffffffffffffffffffffffffffffffffffffffffffffffffffff821415612bd657612bd5612c12565b5b600182019050919050565b6000612bec82612ae9565b9150612bf783612ae9565b925082612c0757612c06612c41565b5b828206905092915050565b7f4e487b7100000000000000000000000000000000000000000000000000000000600052601160045260246000fd5b7f4e487b7100000000000000000000000000000000000000000000000000000000600052601260045260246000fd5b7f4e487b7100000000000000000000000000000000000000000000000000000000600052602260045260246000fd5b7f4e487b7100000000000000000000000000000000000000000000000000000000600052604160045260246000fd5b6000601f19601f8301169050919050565b7f4552433732313a207472616e7366657220746f206e6f6e20455243373231526560008201527f63656976657220696d706c656d656e7465720000000000000000000000000000602082015250565b7f4552433732313a20746f6b656e20616c7265616479206d696e74656400000000600082015250565b7f4552433732313a207472616e7366657220746f20746865207a65726f2061646460008201527f7265737300000000000000000000000000000000000000000000000000000000602082015250565b7f4552433732313a20617070726f766520746f2063616c6c657200000000000000600082015250565b7f4552433732313a206f70657261746f7220717565727920666f72206e6f6e657860008201527f697374656e7420746f6b656e0000000000000000000000000000000000000000602082015250565b7f4552433732313a20617070726f76652063616c6c6572206973206e6f74206f7760008201527f6e6572206e6f7220617070726f76656420666f7220616c6c0000000000000000602082015250565b7f4552433732313a2062616c616e636520717565727920666f7220746865207a6560008201527f726f206164647265737300000000000000000000000000000000000000000000602082015250565b7f4552433732313a206f776e657220717565727920666f72206e6f6e657869737460008201527f656e7420746f6b656e0000000000000000000000000000000000000000000000602082015250565b7f45524337323155524953746f726167653a2055524920736574206f66206e6f6e60008201527f6578697374656e7420746f6b656e000000000000000000000000000000000000602082015250565b7f4552433732313a206d696e7420746f20746865207a65726f2061646472657373600082015250565b7f45524337323155524953746f726167653a2055524920717565727920666f722060008201527f6e6f6e6578697374656e7420746f6b656e000000000000000000000000000000602082015250565b7f4552433732313a20617070726f76656420717565727920666f72206e6f6e657860008201527f697374656e7420746f6b656e0000000000000000000000000000000000000000602082015250565b7f4552433732313a207472616e73666572206f6620746f6b656e2074686174206960008201527f73206e6f74206f776e0000000000000000000000000000000000000000000000602082015250565b7f4552433732314d657461646174613a2055524920717565727920666f72206e6f60008201527f6e6578697374656e7420746f6b656e0000000000000000000000000000000000602082015250565b7f4552433732313a20617070726f76616c20746f2063757272656e74206f776e6560008201527f7200000000000000000000000000000000000000000000000000000000000000602082015250565b7f4552433732313a207472616e736665722063616c6c6572206973206e6f74206f60008201527f776e6572206e6f7220617070726f766564000000000000000000000000000000602082015250565b61316681612a6d565b811461317157600080fd5b50565b61317d81612a7f565b811461318857600080fd5b50565b61319481612a8b565b811461319f57600080fd5b50565b6131ab81612ab7565b81146131b657600080fd5b50565b6131c281612ae9565b81146131cd57600080fd5b5056fea2646970667358221220381795c1c82c8a2f705997ade12da91a8bcec5ef25a4fc162f24146778750dfe64736f6c63430008040033",
  "linkReferences": {},
  "deployedLinkReferences": {}
}