{
  "_format": "hh-sol-artifact-1",
  "contractName": "BadgeRegistry",
  "sourceName": "contracts/BadgeRegistry.sol",
  "abi": [
    {
      "inputs": [],
      "stateMutability": "nonpayable",
      "type": "constructor"
    },
    {
      "anonymous": false,
      "inputs": [
        {
          "indexed": false,
          "internalType": "address",
          "name": "entityAddress",
          "type": "address"
        },
        {
          "indexed": false,
          "internalType": "string",
          "name": "entityName",
          "type": "string"
        },
        {
          "indexed": false,
          "internalType": "address",
          "name": "genesisTokenHolder",
          "type": "address"
        }
      ],
      "name": "EntityRegistered",
      "type": "event"
    },
    {
      "inputs": [],
      "name": "badgeGnosisSafe",
      "outputs": [
        {
          "internalType": "address",
          "name": "",
          "type": "address"
        }
      ],
      "stateMutability": "view",
      "type": "function"
    },
    {
      "inputs": [],
      "name": "badgeTokenFactory",
      "outputs": [
        {
          "internalType": "address",
          "name": "",
          "type": "address"
        }
      ],
      "stateMutability": "view",
      "type": "function"
    },
    {
      "inputs": [],
      "name": "badgeXPToken",
      "outputs": [
        {
          "internalType": "address",
          "name": "",
          "type": "address"
        }
      ],
      "stateMutability": "view",
      "type": "function"
    },
    {
      "inputs": [],
      "name": "baseBadgePrice",
      "outputs": [
        {
          "internalType": "uint256",
          "name": "",
          "type": "uint256"
        }
      ],
      "stateMutability": "view",
      "type": "function"
    },
    {
      "inputs": [
        {
          "internalType": "address",
          "name": "",
          "type": "address"
        }
      ],
      "name": "entities",
      "outputs": [
        {
          "internalType": "bool",
          "name": "",
          "type": "bool"
        }
      ],
      "stateMutability": "view",
      "type": "function"
    },
    {
      "inputs": [],
      "name": "entityFactory",
      "outputs": [
        {
          "internalType": "address",
          "name": "",
          "type": "address"
        }
      ],
      "stateMutability": "view",
      "type": "function"
    },
    {
      "inputs": [
        {
          "internalType": "uint256",
          "name": "level",
          "type": "uint256"
        }
      ],
      "name": "getBadgePrice",
      "outputs": [
        {
          "internalType": "uint256",
          "name": "",
          "type": "uint256"
        }
      ],
      "stateMutability": "view",
      "type": "function"
    },
    {
      "inputs": [],
      "name": "getBadgeTokenFactory",
      "outputs": [
        {
          "internalType": "address",
          "name": "",
          "type": "address"
        }
      ],
      "stateMutability": "view",
      "type": "function"
    },
    {
      "inputs": [],
      "name": "getBadgeXPToken",
      "outputs": [
        {
          "internalType": "address",
          "name": "",
          "type": "address"
        }
      ],
      "stateMutability": "view",
      "type": "function"
    },
    {
      "inputs": [],
      "name": "getEntityFactory",
      "outputs": [
        {
          "internalType": "address",
          "name": "",
          "type": "address"
        }
      ],
      "stateMutability": "view",
      "type": "function"
    },
    {
      "inputs": [],
      "name": "getLevelMultiplierX1000",
      "outputs": [
        {
          "internalType": "uint256",
          "name": "",
          "type": "uint256"
        }
      ],
      "stateMutability": "view",
      "type": "function"
    },
    {
      "inputs": [],
      "name": "getPermissionTokenFactory",
      "outputs": [
        {
          "internalType": "address",
          "name": "",
          "type": "address"
        }
      ],
      "stateMutability": "view",
      "type": "function"
    },
    {
      "inputs": [],
      "name": "getSafe",
      "outputs": [
        {
          "internalType": "address",
          "name": "",
          "type": "address"
        }
      ],
      "stateMutability": "view",
      "type": "function"
    },
    {
      "inputs": [
        {
          "internalType": "address",
          "name": "addr",
          "type": "address"
        }
      ],
      "name": "isRegistered",
      "outputs": [
        {
          "internalType": "bool",
          "name": "",
          "type": "bool"
        }
      ],
      "stateMutability": "view",
      "type": "function"
    },
    {
      "inputs": [],
      "name": "levelMultiplierX1000",
      "outputs": [
        {
          "internalType": "uint256",
          "name": "",
          "type": "uint256"
        }
      ],
      "stateMutability": "view",
      "type": "function"
    },
    {
      "inputs": [],
      "name": "owner",
      "outputs": [
        {
          "internalType": "address",
          "name": "",
          "type": "address"
        }
      ],
      "stateMutability": "view",
      "type": "function"
    },
    {
      "inputs": [],
      "name": "permissionContract",
      "outputs": [
        {
          "internalType": "address",
          "name": "",
          "type": "address"
        }
      ],
      "stateMutability": "view",
      "type": "function"
    },
    {
      "inputs": [],
      "name": "permissionTokenFactory",
      "outputs": [
        {
          "internalType": "address",
          "name": "",
          "type": "address"
        }
      ],
      "stateMutability": "view",
      "type": "function"
    },
    {
      "inputs": [
        {
          "internalType": "string",
          "name": "entityName",
          "type": "string"
        },
        {
          "internalType": "string",
          "name": "genesisTokenURI",
          "type": "string"
        }
      ],
      "name": "registerEntity",
      "outputs": [],
      "stateMutability": "nonpayable",
      "type": "function"
    },
    {
      "inputs": [
        {
          "internalType": "uint256",
          "name": "_price",
          "type": "uint256"
        }
      ],
      "name": "setBadgePrice",
      "outputs": [],
      "stateMutability": "nonpayable",
      "type": "function"
    },
    {
      "inputs": [
        {
          "internalType": "address",
          "name": "_badgeTokenFactory",
          "type": "address"
        }
      ],
      "name": "setBadgeTokenFactory",
      "outputs": [],
      "stateMutability": "nonpayable",
      "type": "function"
    },
    {
      "inputs": [
        {
          "internalType": "address",
          "name": "_badgeXPToken",
          "type": "address"
        }
      ],
      "name": "setBadgeXPToken",
      "outputs": [],
      "stateMutability": "nonpayable",
      "type": "function"
    },
    {
      "inputs": [
        {
          "internalType": "address",
          "name": "_entityFactory",
          "type": "address"
        }
      ],
      "name": "setEntityFactory",
      "outputs": [],
      "stateMutability": "nonpayable",
      "type": "function"
    },
    {
      "inputs": [
        {
          "internalType": "address",
          "name": "_permissionTokenFactory",
          "type": "address"
        }
      ],
      "name": "setPermissionTokenFactory",
      "outputs": [],
      "stateMutability": "nonpayable",
      "type": "function"
    }
  ],
  "bytecode": "0x608060405266096940600290006002556109c46003556000600960006101000a81548173ffffffffffffffffffffffffffffffffffffffff021916908373ffffffffffffffffffffffffffffffffffffffff16021790555034801561006357600080fd5b5033600460006101000a81548173ffffffffffffffffffffffffffffffffffffffff021916908373ffffffffffffffffffffffffffffffffffffffff160217905550611105806100b46000396000f3fe608060405234801561001057600080fd5b50600436106101585760003560e01c80639d1c1b82116100c3578063cb6e390c1161007c578063cb6e390c14610393578063d53cb718146103c3578063d6b66c58146103e1578063df194208146103fd578063eab150671461041b578063ec7001901461043957610158565b80639d1c1b82146102d1578063a4714b9a146102ef578063a59cf7e11461030b578063acd8404814610329578063bd8cdfd514610345578063c3c5a5471461036357610158565b80632ff19780116101155780632ff197801461021f5780633a439fa11461023b57806350ed05221461025957806368bc573e146102775780638da5cb5b146102955780639b2e5e4f146102b357610158565b806309c336191461015d5780631d8ee48a1461017b5780631e93e397146101ab57806327a462fe146101c95780632e7fdc94146101e75780632e86031514610203575b600080fd5b610165610457565b6040516101729190610e1c565b60405180910390f35b61019560048036038101906101909190610caf565b61047d565b6040516101a29190610e77565b60405180910390f35b6101b361049d565b6040516101c09190610e1c565b60405180910390f35b6101d16104c7565b6040516101de9190610e1c565b60405180910390f35b61020160048036038101906101fc9190610caf565b6104f1565b005b61021d60048036038101906102189190610caf565b6105c5565b005b61023960048036038101906102349190610d01565b610699565b005b6102436107ed565b6040516102509190610e1c565b60405180910390f35b610261610813565b60405161026e9190610e1c565b60405180910390f35b61027f610839565b60405161028c9190610e1c565b60405180910390f35b61029d610863565b6040516102aa9190610e1c565b60405180910390f35b6102bb610889565b6040516102c89190610efb565b60405180910390f35b6102d961088f565b6040516102e69190610e1c565b60405180910390f35b61030960048036038101906103049190610caf565b6108b5565b005b610313610989565b6040516103209190610e1c565b60405180910390f35b610343600480360381019061033e9190610d76565b6109b3565b005b61034d610a4d565b60405161035a9190610efb565b60405180910390f35b61037d60048036038101906103789190610caf565b610a53565b60405161038a9190610e77565b60405180910390f35b6103ad60048036038101906103a89190610d76565b610aa8565b6040516103ba9190610efb565b60405180910390f35b6103cb610ad2565b6040516103d89190610e1c565b60405180910390f35b6103fb60048036038101906103f69190610caf565b610af8565b005b610405610bcc565b6040516104129190610efb565b60405180910390f35b610423610bd6565b6040516104309190610e1c565b60405180910390f35b610441610c00565b60405161044e9190610e1c565b60405180910390f35b600760009054906101000a900473ffffffffffffffffffffffffffffffffffffffff1681565b60006020528060005260406000206000915054906101000a900460ff1681565b6000600660009054906101000a900473ffffffffffffffffffffffffffffffffffffffff16905090565b6000600760009054906101000a900473ffffffffffffffffffffffffffffffffffffffff16905090565b600460009054906101000a900473ffffffffffffffffffffffffffffffffffffffff1673ffffffffffffffffffffffffffffffffffffffff163373ffffffffffffffffffffffffffffffffffffffff1614610581576040517f08c379a000000000000000000000000000000000000000000000000000000000815260040161057890610edb565b60405180910390fd5b80600860006101000a81548173ffffffffffffffffffffffffffffffffffffffff021916908373ffffffffffffffffffffffffffffffffffffffff16021790555050565b600460009054906101000a900473ffffffffffffffffffffffffffffffffffffffff1673ffffffffffffffffffffffffffffffffffffffff163373ffffffffffffffffffffffffffffffffffffffff1614610655576040517f08c379a000000000000000000000000000000000000000000000000000000000815260040161064c90610edb565b60405180910390fd5b80600760006101000a81548173ffffffffffffffffffffffffffffffffffffffff021916908373ffffffffffffffffffffffffffffffffffffffff16021790555050565b6000600560009054906101000a900473ffffffffffffffffffffffffffffffffffffffff1673ffffffffffffffffffffffffffffffffffffffff1663d08f5b3686863387876040518663ffffffff1660e01b81526004016106fe959493929190610e92565b602060405180830381600087803b15801561071857600080fd5b505af115801561072c573d6000803e3d6000fd5b505050506040513d601f19601f820116820180604052508101906107509190610cd8565b905060016000808373ffffffffffffffffffffffffffffffffffffffff1673ffffffffffffffffffffffffffffffffffffffff16815260200190815260200160002060006101000a81548160ff0219169083151502179055507f4a8632d3207d7cb50cfb7d972f4e76473b113c1801fab878aed2ee496ab0f5af818686336040516107de9493929190610e37565b60405180910390a15050505050565b600960009054906101000a900473ffffffffffffffffffffffffffffffffffffffff1681565b600860009054906101000a900473ffffffffffffffffffffffffffffffffffffffff1681565b6000600960009054906101000a900473ffffffffffffffffffffffffffffffffffffffff16905090565b600460009054906101000a900473ffffffffffffffffffffffffffffffffffffffff1681565b60025481565b600560009054906101000a900473ffffffffffffffffffffffffffffffffffffffff1681565b600460009054906101000a900473ffffffffffffffffffffffffffffffffffffffff1673ffffffffffffffffffffffffffffffffffffffff163373ffffffffffffffffffffffffffffffffffffffff1614610945576040517f08c379a000000000000000000000000000000000000000000000000000000000815260040161093c90610edb565b60405180910390fd5b80600660006101000a81548173ffffffffffffffffffffffffffffffffffffffff021916908373ffffffffffffffffffffffffffffffffffffffff16021790555050565b6000600860009054906101000a900473ffffffffffffffffffffffffffffffffffffffff16905090565b600460009054906101000a900473ffffffffffffffffffffffffffffffffffffffff1673ffffffffffffffffffffffffffffffffffffffff163373ffffffffffffffffffffffffffffffffffffffff1614610a43576040517f08c379a0000000000000000000000000000000000000000000000000000000008152600401610a3a90610edb565b60405180910390fd5b8060028190555050565b60035481565b60008060008373ffffffffffffffffffffffffffffffffffffffff1673ffffffffffffffffffffffffffffffffffffffff16815260200190815260200160002060009054906101000a900460ff169050919050565b6000816103e8188260035418610abe9190610f27565b600254610acb9190610f58565b9050919050565b600160009054906101000a900473ffffffffffffffffffffffffffffffffffffffff1681565b600460009054906101000a900473ffffffffffffffffffffffffffffffffffffffff1673ffffffffffffffffffffffffffffffffffffffff163373ffffffffffffffffffffffffffffffffffffffff1614610b88576040517f08c379a0000000000000000000000000000000000000000000000000000000008152600401610b7f90610edb565b60405180910390fd5b80600560006101000a81548173ffffffffffffffffffffffffffffffffffffffff021916908373ffffffffffffffffffffffffffffffffffffffff16021790555050565b6000600354905090565b6000600560009054906101000a900473ffffffffffffffffffffffffffffffffffffffff16905090565b600660009054906101000a900473ffffffffffffffffffffffffffffffffffffffff1681565b600081359050610c35816110a1565b92915050565b600081519050610c4a816110a1565b92915050565b60008083601f840112610c6257600080fd5b8235905067ffffffffffffffff811115610c7b57600080fd5b602083019150836001820283011115610c9357600080fd5b9250929050565b600081359050610ca9816110b8565b92915050565b600060208284031215610cc157600080fd5b6000610ccf84828501610c26565b91505092915050565b600060208284031215610cea57600080fd5b6000610cf884828501610c3b565b91505092915050565b60008060008060408587031215610d1757600080fd5b600085013567ffffffffffffffff811115610d3157600080fd5b610d3d87828801610c50565b9450945050602085013567ffffffffffffffff811115610d5c57600080fd5b610d6887828801610c50565b925092505092959194509250565b600060208284031215610d8857600080fd5b6000610d9684828501610c9a565b91505092915050565b610da881610fb2565b82525050565b610db781610fc4565b82525050565b6000610dc98385610f16565b9350610dd6838584610ffa565b610ddf83611067565b840190509392505050565b6000610df7601883610f16565b9150610e0282611078565b602082019050919050565b610e1681610ff0565b82525050565b6000602082019050610e316000830184610d9f565b92915050565b6000606082019050610e4c6000830187610d9f565b8181036020830152610e5f818587610dbd565b9050610e6e6040830184610d9f565b95945050505050565b6000602082019050610e8c6000830184610dae565b92915050565b60006060820190508181036000830152610ead818789610dbd565b9050610ebc6020830186610d9f565b8181036040830152610ecf818486610dbd565b90509695505050505050565b60006020820190508181036000830152610ef481610dea565b9050919050565b6000602082019050610f106000830184610e0d565b92915050565b600082825260208201905092915050565b6000610f3282610ff0565b9150610f3d83610ff0565b925082610f4d57610f4c611038565b5b828204905092915050565b6000610f6382610ff0565b9150610f6e83610ff0565b9250817fffffffffffffffffffffffffffffffffffffffffffffffffffffffffffffffff0483118215151615610fa757610fa6611009565b5b828202905092915050565b6000610fbd82610fd0565b9050919050565b60008115159050919050565b600073ffffffffffffffffffffffffffffffffffffffff82169050919050565b6000819050919050565b82818337600083830152505050565b7f4e487b7100000000000000000000000000000000000000000000000000000000600052601160045260246000fd5b7f4e487b7100000000000000000000000000000000000000000000000000000000600052601260045260246000fd5b6000601f19601f8301169050919050565b7f4f6e6c79206f776e65722063616e2063616c6c20746869730000000000000000600082015250565b6110aa81610fb2565b81146110b557600080fd5b50565b6110c181610ff0565b81146110cc57600080fd5b5056fea2646970667358221220b790e3cad99cffa02d2697735ba39dfb98dfc8e72f87776ca8039166901b0b5664736f6c63430008040033",
  "linkReferences": {},
  "deployedLinkReferences": {}
}