{
  "_format": "hh-sol-artifact-1",
  "contractName": "BadgeRegistry",
  "sourceName": "contracts/BadgeRegistry.sol",
  "abi": [
    {
      "inputs": [],
      "stateMutability": "nonpayable",
      "type": "constructor"
    },
    {
      "anonymous": false,
      "inputs": [
        {
          "indexed": false,
          "internalType": "address",
          "name": "badgePriceCalculator",
          "type": "address"
        }
      ],
      "name": "BadgePriceCalculatorSet",
      "type": "event"
    },
    {
      "anonymous": false,
      "inputs": [
        {
          "indexed": false,
          "internalType": "address",
          "name": "badgeTokenFactory",
          "type": "address"
        }
      ],
      "name": "BadgeTokenFactorySet",
      "type": "event"
    },
    {
      "anonymous": false,
      "inputs": [
        {
          "indexed": false,
          "internalType": "address",
          "name": "badgeXPToken",
          "type": "address"
        }
      ],
      "name": "BadgeXPTokenSet",
      "type": "event"
    },
    {
      "anonymous": false,
      "inputs": [
        {
          "indexed": false,
          "internalType": "address",
          "name": "entityFactory",
          "type": "address"
        }
      ],
      "name": "EntityFactorySet",
      "type": "event"
    },
    {
      "anonymous": false,
      "inputs": [
        {
          "indexed": false,
          "internalType": "address",
          "name": "entityAddress",
          "type": "address"
        },
        {
          "indexed": false,
          "internalType": "string",
          "name": "entityName",
          "type": "string"
        },
        {
          "indexed": false,
          "internalType": "address",
          "name": "genesisTokenHolder",
          "type": "address"
        }
      ],
      "name": "EntityRegistered",
      "type": "event"
    },
    {
      "anonymous": false,
      "inputs": [
        {
          "indexed": false,
          "internalType": "address",
          "name": "permissionTokenFactory",
          "type": "address"
        }
      ],
      "name": "PermissionTokenFactorySet",
      "type": "event"
    },
    {
      "inputs": [],
      "name": "badgeGnosisSafe",
      "outputs": [
        {
          "internalType": "address",
          "name": "",
          "type": "address"
        }
      ],
      "stateMutability": "view",
      "type": "function"
    },
    {
      "inputs": [],
      "name": "badgePriceCalculator",
      "outputs": [
        {
          "internalType": "address",
          "name": "",
          "type": "address"
        }
      ],
      "stateMutability": "view",
      "type": "function"
    },
    {
      "inputs": [],
      "name": "badgeTokenFactory",
      "outputs": [
        {
          "internalType": "address",
          "name": "",
          "type": "address"
        }
      ],
      "stateMutability": "view",
      "type": "function"
    },
    {
      "inputs": [],
      "name": "badgeXPToken",
      "outputs": [
        {
          "internalType": "address",
          "name": "",
          "type": "address"
        }
      ],
      "stateMutability": "view",
      "type": "function"
    },
    {
      "inputs": [],
      "name": "baseBadgePrice",
      "outputs": [
        {
          "internalType": "uint256",
          "name": "",
          "type": "uint256"
        }
      ],
      "stateMutability": "view",
      "type": "function"
    },
    {
      "inputs": [
        {
          "internalType": "address",
          "name": "",
          "type": "address"
        }
      ],
      "name": "entities",
      "outputs": [
        {
          "internalType": "bool",
          "name": "",
          "type": "bool"
        }
      ],
      "stateMutability": "view",
      "type": "function"
    },
    {
      "inputs": [],
      "name": "entityFactory",
      "outputs": [
        {
          "internalType": "address",
          "name": "",
          "type": "address"
        }
      ],
      "stateMutability": "view",
      "type": "function"
    },
    {
      "inputs": [
        {
          "internalType": "uint256",
          "name": "level",
          "type": "uint256"
        }
      ],
      "name": "getBadgePrice",
      "outputs": [
        {
          "internalType": "uint256",
          "name": "",
          "type": "uint256"
        }
      ],
      "stateMutability": "view",
      "type": "function"
    },
    {
      "inputs": [],
      "name": "getBadgeTokenFactory",
      "outputs": [
        {
          "internalType": "address",
          "name": "",
          "type": "address"
        }
      ],
      "stateMutability": "view",
      "type": "function"
    },
    {
      "inputs": [],
      "name": "getBadgeXPToken",
      "outputs": [
        {
          "internalType": "address",
          "name": "",
          "type": "address"
        }
      ],
      "stateMutability": "view",
      "type": "function"
    },
    {
      "inputs": [],
      "name": "getEntityFactory",
      "outputs": [
        {
          "internalType": "address",
          "name": "",
          "type": "address"
        }
      ],
      "stateMutability": "view",
      "type": "function"
    },
    {
      "inputs": [],
      "name": "getLevelMultiplierX1000",
      "outputs": [
        {
          "internalType": "uint256",
          "name": "",
          "type": "uint256"
        }
      ],
      "stateMutability": "view",
      "type": "function"
    },
    {
      "inputs": [],
      "name": "getPermissionTokenFactory",
      "outputs": [
        {
          "internalType": "address",
          "name": "",
          "type": "address"
        }
      ],
      "stateMutability": "view",
      "type": "function"
    },
    {
      "inputs": [],
      "name": "getSafe",
      "outputs": [
        {
          "internalType": "address",
          "name": "",
          "type": "address"
        }
      ],
      "stateMutability": "view",
      "type": "function"
    },
    {
      "inputs": [
        {
          "internalType": "address",
          "name": "addr",
          "type": "address"
        }
      ],
      "name": "isRegistered",
      "outputs": [
        {
          "internalType": "bool",
          "name": "",
          "type": "bool"
        }
      ],
      "stateMutability": "view",
      "type": "function"
    },
    {
      "inputs": [],
      "name": "levelMultiplierX1000",
      "outputs": [
        {
          "internalType": "uint256",
          "name": "",
          "type": "uint256"
        }
      ],
      "stateMutability": "view",
      "type": "function"
    },
    {
      "inputs": [],
      "name": "owner",
      "outputs": [
        {
          "internalType": "address",
          "name": "",
          "type": "address"
        }
      ],
      "stateMutability": "view",
      "type": "function"
    },
    {
      "inputs": [],
      "name": "permissionContract",
      "outputs": [
        {
          "internalType": "address",
          "name": "",
          "type": "address"
        }
      ],
      "stateMutability": "view",
      "type": "function"
    },
    {
      "inputs": [],
      "name": "permissionTokenFactory",
      "outputs": [
        {
          "internalType": "address",
          "name": "",
          "type": "address"
        }
      ],
      "stateMutability": "view",
      "type": "function"
    },
    {
      "inputs": [
        {
          "internalType": "string",
          "name": "entityName",
          "type": "string"
        },
        {
          "internalType": "string",
          "name": "genesisTokenURI",
          "type": "string"
        }
      ],
      "name": "registerEntity",
      "outputs": [],
      "stateMutability": "nonpayable",
      "type": "function"
    },
    {
      "inputs": [
        {
          "internalType": "address",
          "name": "_badgePriceCalculator",
          "type": "address"
        }
      ],
      "name": "setBadgePriceCalculator",
      "outputs": [],
      "stateMutability": "nonpayable",
      "type": "function"
    },
    {
      "inputs": [
        {
          "internalType": "address",
          "name": "_badgeTokenFactory",
          "type": "address"
        }
      ],
      "name": "setBadgeTokenFactory",
      "outputs": [],
      "stateMutability": "nonpayable",
      "type": "function"
    },
    {
      "inputs": [
        {
          "internalType": "address",
          "name": "_badgeXPToken",
          "type": "address"
        }
      ],
      "name": "setBadgeXPToken",
      "outputs": [],
      "stateMutability": "nonpayable",
      "type": "function"
    },
    {
      "inputs": [
        {
          "internalType": "address",
          "name": "_entityFactory",
          "type": "address"
        }
      ],
      "name": "setEntityFactory",
      "outputs": [],
      "stateMutability": "nonpayable",
      "type": "function"
    },
    {
      "inputs": [
        {
          "internalType": "address",
          "name": "_permissionTokenFactory",
          "type": "address"
        }
      ],
      "name": "setPermissionTokenFactory",
      "outputs": [],
      "stateMutability": "nonpayable",
      "type": "function"
    }
  ],
  "bytecode": "0x608060405266096940600290006002556109c46003556000600960006101000a81548173ffffffffffffffffffffffffffffffffffffffff021916908373ffffffffffffffffffffffffffffffffffffffff16021790555034801561006357600080fd5b5033600460006101000a81548173ffffffffffffffffffffffffffffffffffffffff021916908373ffffffffffffffffffffffffffffffffffffffff1602179055506112b2806100b46000396000f3fe608060405234801561001057600080fd5b50600436106101735760003560e01c80639d1c1b82116100de578063cb6e390c11610097578063df19420811610071578063df19420814610418578063eab1506714610436578063ec70019014610454578063eeccbda81461047257610173565b8063cb6e390c146103ae578063d53cb718146103de578063d6b66c58146103fc57610173565b80639d1c1b82146102ec578063a1311ae71461030a578063a4714b9a14610326578063a59cf7e114610342578063bd8cdfd514610360578063c3c5a5471461037e57610173565b80632ff19780116101305780632ff197801461023a5780633a439fa11461025657806350ed05221461027457806368bc573e146102925780638da5cb5b146102b05780639b2e5e4f146102ce57610173565b806309c33619146101785780631d8ee48a146101965780631e93e397146101c657806327a462fe146101e45780632e7fdc94146102025780632e8603151461021e575b600080fd5b610180610490565b60405161018d91906110b2565b60405180910390f35b6101b060048036038101906101ab9190610f1c565b6104b6565b6040516101bd919061110d565b60405180910390f35b6101ce6104d6565b6040516101db91906110b2565b60405180910390f35b6101ec610500565b6040516101f991906110b2565b60405180910390f35b61021c60048036038101906102179190610f1c565b61052a565b005b61023860048036038101906102339190610f1c565b610635565b005b610254600480360381019061024f9190610f6e565b610740565b005b61025e610894565b60405161026b91906110b2565b60405180910390f35b61027c6108ba565b60405161028991906110b2565b60405180910390f35b61029a6108e0565b6040516102a791906110b2565b60405180910390f35b6102b861090a565b6040516102c591906110b2565b60405180910390f35b6102d6610930565b6040516102e39190611191565b60405180910390f35b6102f4610936565b60405161030191906110b2565b60405180910390f35b610324600480360381019061031f9190610f1c565b61095c565b005b610340600480360381019061033b9190610f1c565b610a89565b005b61034a610b94565b60405161035791906110b2565b60405180910390f35b610368610bbe565b6040516103759190611191565b60405180910390f35b61039860048036038101906103939190610f1c565b610bc4565b6040516103a5919061110d565b60405180910390f35b6103c860048036038101906103c39190610fe3565b610c19565b6040516103d59190611191565b60405180910390f35b6103e6610ccd565b6040516103f391906110b2565b60405180910390f35b61041660048036038101906104119190610f1c565b610cf3565b005b610420610dfe565b60405161042d9190611191565b60405180910390f35b61043e610e08565b60405161044b91906110b2565b60405180910390f35b61045c610e32565b60405161046991906110b2565b60405180910390f35b61047a610e58565b60405161048791906110b2565b60405180910390f35b600760009054906101000a900473ffffffffffffffffffffffffffffffffffffffff1681565b60006020528060005260406000206000915054906101000a900460ff1681565b6000600660009054906101000a900473ffffffffffffffffffffffffffffffffffffffff16905090565b6000600760009054906101000a900473ffffffffffffffffffffffffffffffffffffffff16905090565b600460009054906101000a900473ffffffffffffffffffffffffffffffffffffffff1673ffffffffffffffffffffffffffffffffffffffff163373ffffffffffffffffffffffffffffffffffffffff16146105ba576040517f08c379a00000000000000000000000000000000000000000000000000000000081526004016105b190611171565b60405180910390fd5b80600860006101000a81548173ffffffffffffffffffffffffffffffffffffffff021916908373ffffffffffffffffffffffffffffffffffffffff1602179055507fd75b0d57b8863424158f54997697446e271b782771a480bb68d5c07e4e621b0a8160405161062a91906110b2565b60405180910390a150565b600460009054906101000a900473ffffffffffffffffffffffffffffffffffffffff1673ffffffffffffffffffffffffffffffffffffffff163373ffffffffffffffffffffffffffffffffffffffff16146106c5576040517f08c379a00000000000000000000000000000000000000000000000000000000081526004016106bc90611171565b60405180910390fd5b80600760006101000a81548173ffffffffffffffffffffffffffffffffffffffff021916908373ffffffffffffffffffffffffffffffffffffffff1602179055507f427cc3b09f2f87091b4a69494cf8a431c71358f02fd5e92d3e4cf2a2600a7e368160405161073591906110b2565b60405180910390a150565b6000600560009054906101000a900473ffffffffffffffffffffffffffffffffffffffff1673ffffffffffffffffffffffffffffffffffffffff1663d08f5b3686863387876040518663ffffffff1660e01b81526004016107a5959493929190611128565b602060405180830381600087803b1580156107bf57600080fd5b505af11580156107d3573d6000803e3d6000fd5b505050506040513d601f19601f820116820180604052508101906107f79190610f45565b905060016000808373ffffffffffffffffffffffffffffffffffffffff1673ffffffffffffffffffffffffffffffffffffffff16815260200190815260200160002060006101000a81548160ff0219169083151502179055507f4a8632d3207d7cb50cfb7d972f4e76473b113c1801fab878aed2ee496ab0f5af8186863360405161088594939291906110cd565b60405180910390a15050505050565b600960009054906101000a900473ffffffffffffffffffffffffffffffffffffffff1681565b600860009054906101000a900473ffffffffffffffffffffffffffffffffffffffff1681565b6000600960009054906101000a900473ffffffffffffffffffffffffffffffffffffffff16905090565b600460009054906101000a900473ffffffffffffffffffffffffffffffffffffffff1681565b60025481565b600560009054906101000a900473ffffffffffffffffffffffffffffffffffffffff1681565b600460009054906101000a900473ffffffffffffffffffffffffffffffffffffffff1673ffffffffffffffffffffffffffffffffffffffff163373ffffffffffffffffffffffffffffffffffffffff16146109ec576040517f08c379a00000000000000000000000000000000000000000000000000000000081526004016109e390611171565b60405180910390fd5b80600a60006101000a81548173ffffffffffffffffffffffffffffffffffffffff021916908373ffffffffffffffffffffffffffffffffffffffff1602179055507f6fc6641b494073f8486f645d2fc7fe5fd68dfb8179518a8007e37bf1efaca972600a60009054906101000a900473ffffffffffffffffffffffffffffffffffffffff16604051610a7e91906110b2565b60405180910390a150565b600460009054906101000a900473ffffffffffffffffffffffffffffffffffffffff1673ffffffffffffffffffffffffffffffffffffffff163373ffffffffffffffffffffffffffffffffffffffff1614610b19576040517f08c379a0000000000000000000000000000000000000000000000000000000008152600401610b1090611171565b60405180910390fd5b80600660006101000a81548173ffffffffffffffffffffffffffffffffffffffff021916908373ffffffffffffffffffffffffffffffffffffffff1602179055507fb2d56f4b4eea93889fa4525a42644fcfddf8ad3b2f542e09ae44265209c32c1981604051610b8991906110b2565b60405180910390a150565b6000600860009054906101000a900473ffffffffffffffffffffffffffffffffffffffff16905090565b60035481565b60008060008373ffffffffffffffffffffffffffffffffffffffff1673ffffffffffffffffffffffffffffffffffffffff16815260200190815260200160002060009054906101000a900460ff169050919050565b6000600a60009054906101000a900473ffffffffffffffffffffffffffffffffffffffff1673ffffffffffffffffffffffffffffffffffffffff1663e85b6125836040518263ffffffff1660e01b8152600401610c769190611191565b60206040518083038186803b158015610c8e57600080fd5b505afa158015610ca2573d6000803e3d6000fd5b505050506040513d601f19601f82011682018060405250810190610cc6919061100c565b9050919050565b600160009054906101000a900473ffffffffffffffffffffffffffffffffffffffff1681565b600460009054906101000a900473ffffffffffffffffffffffffffffffffffffffff1673ffffffffffffffffffffffffffffffffffffffff163373ffffffffffffffffffffffffffffffffffffffff1614610d83576040517f08c379a0000000000000000000000000000000000000000000000000000000008152600401610d7a90611171565b60405180910390fd5b80600560006101000a81548173ffffffffffffffffffffffffffffffffffffffff021916908373ffffffffffffffffffffffffffffffffffffffff1602179055507ff561f468c3daae4b32557967fe0c9a47259b806b9419c8c056d3f129194976d681604051610df391906110b2565b60405180910390a150565b6000600354905090565b6000600560009054906101000a900473ffffffffffffffffffffffffffffffffffffffff16905090565b600660009054906101000a900473ffffffffffffffffffffffffffffffffffffffff1681565b600a60009054906101000a900473ffffffffffffffffffffffffffffffffffffffff1681565b600081359050610e8d8161124e565b92915050565b600081519050610ea28161124e565b92915050565b60008083601f840112610eba57600080fd5b8235905067ffffffffffffffff811115610ed357600080fd5b602083019150836001820283011115610eeb57600080fd5b9250929050565b600081359050610f0181611265565b92915050565b600081519050610f1681611265565b92915050565b600060208284031215610f2e57600080fd5b6000610f3c84828501610e7e565b91505092915050565b600060208284031215610f5757600080fd5b6000610f6584828501610e93565b91505092915050565b60008060008060408587031215610f8457600080fd5b600085013567ffffffffffffffff811115610f9e57600080fd5b610faa87828801610ea8565b9450945050602085013567ffffffffffffffff811115610fc957600080fd5b610fd587828801610ea8565b925092505092959194509250565b600060208284031215610ff557600080fd5b600061100384828501610ef2565b91505092915050565b60006020828403121561101e57600080fd5b600061102c84828501610f07565b91505092915050565b61103e816111bd565b82525050565b61104d816111cf565b82525050565b600061105f83856111ac565b935061106c838584611205565b61107583611214565b840190509392505050565b600061108d6018836111ac565b915061109882611225565b602082019050919050565b6110ac816111fb565b82525050565b60006020820190506110c76000830184611035565b92915050565b60006060820190506110e26000830187611035565b81810360208301526110f5818587611053565b90506111046040830184611035565b95945050505050565b60006020820190506111226000830184611044565b92915050565b60006060820190508181036000830152611143818789611053565b90506111526020830186611035565b8181036040830152611165818486611053565b90509695505050505050565b6000602082019050818103600083015261118a81611080565b9050919050565b60006020820190506111a660008301846110a3565b92915050565b600082825260208201905092915050565b60006111c8826111db565b9050919050565b60008115159050919050565b600073ffffffffffffffffffffffffffffffffffffffff82169050919050565b6000819050919050565b82818337600083830152505050565b6000601f19601f8301169050919050565b7f4f6e6c79206f776e65722063616e2063616c6c20746869730000000000000000600082015250565b611257816111bd565b811461126257600080fd5b50565b61126e816111fb565b811461127957600080fd5b5056fea2646970667358221220842c4aee4ea0e92cd0ffbbb54ecd1628fbb5c1ff3b4ebbba023c32893216948664736f6c63430008040033",
  "linkReferences": {},
  "deployedLinkReferences": {}
}