{
  "_format": "hh-sol-artifact-1",
  "contractName": "BadgeRegistry",
  "sourceName": "contracts/BadgeRegistry.sol",
  "abi": [
    {
      "inputs": [],
      "stateMutability": "nonpayable",
      "type": "constructor"
    },
    {
      "anonymous": false,
      "inputs": [
        {
          "indexed": false,
          "internalType": "address",
          "name": "entityAddress",
          "type": "address"
        },
        {
          "indexed": false,
          "internalType": "string",
          "name": "entityName",
          "type": "string"
        },
        {
          "indexed": false,
          "internalType": "address",
          "name": "genesisTokenHolder",
          "type": "address"
        }
      ],
      "name": "EntityRegistered",
      "type": "event"
    },
    {
      "inputs": [],
      "name": "badgePrice",
      "outputs": [
        {
          "internalType": "uint256",
          "name": "",
          "type": "uint256"
        }
      ],
      "stateMutability": "view",
      "type": "function"
    },
    {
      "inputs": [],
      "name": "badgeTokenFactory",
      "outputs": [
        {
          "internalType": "address",
          "name": "",
          "type": "address"
        }
      ],
      "stateMutability": "view",
      "type": "function"
    },
    {
      "inputs": [],
      "name": "badgeXPToken",
      "outputs": [
        {
          "internalType": "address",
          "name": "",
          "type": "address"
        }
      ],
      "stateMutability": "view",
      "type": "function"
    },
    {
      "inputs": [
        {
          "internalType": "address",
          "name": "",
          "type": "address"
        }
      ],
      "name": "entities",
      "outputs": [
        {
          "internalType": "bool",
          "name": "",
          "type": "bool"
        }
      ],
      "stateMutability": "view",
      "type": "function"
    },
    {
      "inputs": [],
      "name": "entityFactory",
      "outputs": [
        {
          "internalType": "address",
          "name": "",
          "type": "address"
        }
      ],
      "stateMutability": "view",
      "type": "function"
    },
    {
      "inputs": [
        {
          "internalType": "uint256",
          "name": "level",
          "type": "uint256"
        }
      ],
      "name": "getBadgePrice",
      "outputs": [
        {
          "internalType": "uint256",
          "name": "",
          "type": "uint256"
        }
      ],
      "stateMutability": "view",
      "type": "function"
    },
    {
      "inputs": [],
      "name": "getBadgeTokenFactory",
      "outputs": [
        {
          "internalType": "address",
          "name": "",
          "type": "address"
        }
      ],
      "stateMutability": "view",
      "type": "function"
    },
    {
      "inputs": [],
      "name": "getBadgeXPToken",
      "outputs": [
        {
          "internalType": "address",
          "name": "",
          "type": "address"
        }
      ],
      "stateMutability": "view",
      "type": "function"
    },
    {
      "inputs": [],
      "name": "getEntityFactory",
      "outputs": [
        {
          "internalType": "address",
          "name": "",
          "type": "address"
        }
      ],
      "stateMutability": "view",
      "type": "function"
    },
    {
      "inputs": [],
      "name": "getPermissionTokenFactory",
      "outputs": [
        {
          "internalType": "address",
          "name": "",
          "type": "address"
        }
      ],
      "stateMutability": "view",
      "type": "function"
    },
    {
      "inputs": [
        {
          "internalType": "address",
          "name": "addr",
          "type": "address"
        }
      ],
      "name": "isRegistered",
      "outputs": [
        {
          "internalType": "bool",
          "name": "",
          "type": "bool"
        }
      ],
      "stateMutability": "view",
      "type": "function"
    },
    {
      "inputs": [],
      "name": "levelMultiplier",
      "outputs": [
        {
          "internalType": "uint256",
          "name": "",
          "type": "uint256"
        }
      ],
      "stateMutability": "view",
      "type": "function"
    },
    {
      "inputs": [],
      "name": "owner",
      "outputs": [
        {
          "internalType": "address",
          "name": "",
          "type": "address"
        }
      ],
      "stateMutability": "view",
      "type": "function"
    },
    {
      "inputs": [],
      "name": "permissionContract",
      "outputs": [
        {
          "internalType": "address",
          "name": "",
          "type": "address"
        }
      ],
      "stateMutability": "view",
      "type": "function"
    },
    {
      "inputs": [],
      "name": "permissionTokenFactory",
      "outputs": [
        {
          "internalType": "address",
          "name": "",
          "type": "address"
        }
      ],
      "stateMutability": "view",
      "type": "function"
    },
    {
      "inputs": [
        {
          "internalType": "string",
          "name": "entityName",
          "type": "string"
        },
        {
          "internalType": "string",
          "name": "genesisTokenURI",
          "type": "string"
        }
      ],
      "name": "registerEntity",
      "outputs": [],
      "stateMutability": "nonpayable",
      "type": "function"
    },
    {
      "inputs": [
        {
          "internalType": "uint256",
          "name": "_price",
          "type": "uint256"
        }
      ],
      "name": "setBadgePrice",
      "outputs": [],
      "stateMutability": "nonpayable",
      "type": "function"
    },
    {
      "inputs": [
        {
          "internalType": "address",
          "name": "_badgeTokenFactory",
          "type": "address"
        }
      ],
      "name": "setBadgeTokenFactory",
      "outputs": [],
      "stateMutability": "nonpayable",
      "type": "function"
    },
    {
      "inputs": [
        {
          "internalType": "address",
          "name": "_badgeXPToken",
          "type": "address"
        }
      ],
      "name": "setBadgeXPToken",
      "outputs": [],
      "stateMutability": "nonpayable",
      "type": "function"
    },
    {
      "inputs": [
        {
          "internalType": "address",
          "name": "_entityFactory",
          "type": "address"
        }
      ],
      "name": "setEntityFactory",
      "outputs": [],
      "stateMutability": "nonpayable",
      "type": "function"
    },
    {
      "inputs": [
        {
          "internalType": "address",
          "name": "_permissionTokenFactory",
          "type": "address"
        }
      ],
      "name": "setPermissionTokenFactory",
      "outputs": [],
      "stateMutability": "nonpayable",
      "type": "function"
    }
  ],
  "bytecode": "0x60806040526005600255600260035534801561001a57600080fd5b5033600460006101000a81548173ffffffffffffffffffffffffffffffffffffffff021916908373ffffffffffffffffffffffffffffffffffffffff160217905550610fc18061006b6000396000f3fe608060405234801561001057600080fd5b50600436106101375760003560e01c80638da5cb5b116100b8578063c3c5a5471161007c578063c3c5a54714610306578063cb6e390c14610336578063d53cb71814610366578063d6b66c5814610384578063eab15067146103a0578063ec700190146103be57610137565b80638da5cb5b146102745780639d1c1b8214610292578063a4714b9a146102b0578063a59cf7e1146102cc578063acd84048146102ea57610137565b80632e7fdc94116100ff5780632e7fdc94146101e45780632e860315146102005780632ff197801461021c57806350ed05221461023857806376e8e6c11461025657610137565b806309c336191461013c5780630b7fea961461015a5780631d8ee48a146101785780631e93e397146101a857806327a462fe146101c6575b600080fd5b6101446103dc565b6040516101519190610d38565b60405180910390f35b610162610402565b60405161016f9190610e17565b60405180910390f35b610192600480360381019061018d9190610bcb565b610408565b60405161019f9190610d93565b60405180910390f35b6101b0610428565b6040516101bd9190610d38565b60405180910390f35b6101ce610452565b6040516101db9190610d38565b60405180910390f35b6101fe60048036038101906101f99190610bcb565b61047c565b005b61021a60048036038101906102159190610bcb565b610550565b005b61023660048036038101906102319190610c1d565b610624565b005b610240610778565b60405161024d9190610d38565b60405180910390f35b61025e61079e565b60405161026b9190610e17565b60405180910390f35b61027c6107a4565b6040516102899190610d38565b60405180910390f35b61029a6107ca565b6040516102a79190610d38565b60405180910390f35b6102ca60048036038101906102c59190610bcb565b6107f0565b005b6102d46108c4565b6040516102e19190610d38565b60405180910390f35b61030460048036038101906102ff9190610c92565b6108ee565b005b610320600480360381019061031b9190610bcb565b610988565b60405161032d9190610d93565b60405180910390f35b610350600480360381019061034b9190610c92565b6109dd565b60405161035d9190610e17565b60405180910390f35b61036e6109f8565b60405161037b9190610d38565b60405180910390f35b61039e60048036038101906103999190610bcb565b610a1e565b005b6103a8610af2565b6040516103b59190610d38565b60405180910390f35b6103c6610b1c565b6040516103d39190610d38565b60405180910390f35b600760009054906101000a900473ffffffffffffffffffffffffffffffffffffffff1681565b60025481565b60006020528060005260406000206000915054906101000a900460ff1681565b6000600660009054906101000a900473ffffffffffffffffffffffffffffffffffffffff16905090565b6000600760009054906101000a900473ffffffffffffffffffffffffffffffffffffffff16905090565b600460009054906101000a900473ffffffffffffffffffffffffffffffffffffffff1673ffffffffffffffffffffffffffffffffffffffff163373ffffffffffffffffffffffffffffffffffffffff161461050c576040517f08c379a000000000000000000000000000000000000000000000000000000000815260040161050390610df7565b60405180910390fd5b80600860006101000a81548173ffffffffffffffffffffffffffffffffffffffff021916908373ffffffffffffffffffffffffffffffffffffffff16021790555050565b600460009054906101000a900473ffffffffffffffffffffffffffffffffffffffff1673ffffffffffffffffffffffffffffffffffffffff163373ffffffffffffffffffffffffffffffffffffffff16146105e0576040517f08c379a00000000000000000000000000000000000000000000000000000000081526004016105d790610df7565b60405180910390fd5b80600760006101000a81548173ffffffffffffffffffffffffffffffffffffffff021916908373ffffffffffffffffffffffffffffffffffffffff16021790555050565b6000600560009054906101000a900473ffffffffffffffffffffffffffffffffffffffff1673ffffffffffffffffffffffffffffffffffffffff1663d08f5b3686863387876040518663ffffffff1660e01b8152600401610689959493929190610dae565b602060405180830381600087803b1580156106a357600080fd5b505af11580156106b7573d6000803e3d6000fd5b505050506040513d601f19601f820116820180604052508101906106db9190610bf4565b905060016000808373ffffffffffffffffffffffffffffffffffffffff1673ffffffffffffffffffffffffffffffffffffffff16815260200190815260200160002060006101000a81548160ff0219169083151502179055507f4a8632d3207d7cb50cfb7d972f4e76473b113c1801fab878aed2ee496ab0f5af818686336040516107699493929190610d53565b60405180910390a15050505050565b600860009054906101000a900473ffffffffffffffffffffffffffffffffffffffff1681565b60035481565b600460009054906101000a900473ffffffffffffffffffffffffffffffffffffffff1681565b600560009054906101000a900473ffffffffffffffffffffffffffffffffffffffff1681565b600460009054906101000a900473ffffffffffffffffffffffffffffffffffffffff1673ffffffffffffffffffffffffffffffffffffffff163373ffffffffffffffffffffffffffffffffffffffff1614610880576040517f08c379a000000000000000000000000000000000000000000000000000000000815260040161087790610df7565b60405180910390fd5b80600660006101000a81548173ffffffffffffffffffffffffffffffffffffffff021916908373ffffffffffffffffffffffffffffffffffffffff16021790555050565b6000600860009054906101000a900473ffffffffffffffffffffffffffffffffffffffff16905090565b600460009054906101000a900473ffffffffffffffffffffffffffffffffffffffff1673ffffffffffffffffffffffffffffffffffffffff163373ffffffffffffffffffffffffffffffffffffffff161461097e576040517f08c379a000000000000000000000000000000000000000000000000000000000815260040161097590610df7565b60405180910390fd5b8060028190555050565b60008060008373ffffffffffffffffffffffffffffffffffffffff1673ffffffffffffffffffffffffffffffffffffffff16815260200190815260200160002060009054906101000a900460ff169050919050565b600081600354186002546109f19190610e43565b9050919050565b600160009054906101000a900473ffffffffffffffffffffffffffffffffffffffff1681565b600460009054906101000a900473ffffffffffffffffffffffffffffffffffffffff1673ffffffffffffffffffffffffffffffffffffffff163373ffffffffffffffffffffffffffffffffffffffff1614610aae576040517f08c379a0000000000000000000000000000000000000000000000000000000008152600401610aa590610df7565b60405180910390fd5b80600560006101000a81548173ffffffffffffffffffffffffffffffffffffffff021916908373ffffffffffffffffffffffffffffffffffffffff16021790555050565b6000600560009054906101000a900473ffffffffffffffffffffffffffffffffffffffff16905090565b600660009054906101000a900473ffffffffffffffffffffffffffffffffffffffff1681565b600081359050610b5181610f5d565b92915050565b600081519050610b6681610f5d565b92915050565b60008083601f840112610b7e57600080fd5b8235905067ffffffffffffffff811115610b9757600080fd5b602083019150836001820283011115610baf57600080fd5b9250929050565b600081359050610bc581610f74565b92915050565b600060208284031215610bdd57600080fd5b6000610beb84828501610b42565b91505092915050565b600060208284031215610c0657600080fd5b6000610c1484828501610b57565b91505092915050565b60008060008060408587031215610c3357600080fd5b600085013567ffffffffffffffff811115610c4d57600080fd5b610c5987828801610b6c565b9450945050602085013567ffffffffffffffff811115610c7857600080fd5b610c8487828801610b6c565b925092505092959194509250565b600060208284031215610ca457600080fd5b6000610cb284828501610bb6565b91505092915050565b610cc481610e9d565b82525050565b610cd381610eaf565b82525050565b6000610ce58385610e32565b9350610cf2838584610ee5565b610cfb83610f23565b840190509392505050565b6000610d13601883610e32565b9150610d1e82610f34565b602082019050919050565b610d3281610edb565b82525050565b6000602082019050610d4d6000830184610cbb565b92915050565b6000606082019050610d686000830187610cbb565b8181036020830152610d7b818587610cd9565b9050610d8a6040830184610cbb565b95945050505050565b6000602082019050610da86000830184610cca565b92915050565b60006060820190508181036000830152610dc9818789610cd9565b9050610dd86020830186610cbb565b8181036040830152610deb818486610cd9565b90509695505050505050565b60006020820190508181036000830152610e1081610d06565b9050919050565b6000602082019050610e2c6000830184610d29565b92915050565b600082825260208201905092915050565b6000610e4e82610edb565b9150610e5983610edb565b9250817fffffffffffffffffffffffffffffffffffffffffffffffffffffffffffffffff0483118215151615610e9257610e91610ef4565b5b828202905092915050565b6000610ea882610ebb565b9050919050565b60008115159050919050565b600073ffffffffffffffffffffffffffffffffffffffff82169050919050565b6000819050919050565b82818337600083830152505050565b7f4e487b7100000000000000000000000000000000000000000000000000000000600052601160045260246000fd5b6000601f19601f8301169050919050565b7f4f6e6c79206f776e65722063616e2063616c6c20746869730000000000000000600082015250565b610f6681610e9d565b8114610f7157600080fd5b50565b610f7d81610edb565b8114610f8857600080fd5b5056fea2646970667358221220a61985e1faa5d2847bc1d509c1b75a15319943d5cb58694c14d104dd301d199f64736f6c63430008040033",
  "linkReferences": {},
  "deployedLinkReferences": {}
}