{
  "_format": "hh-sol-artifact-1",
  "contractName": "BadgeXP",
  "sourceName": "contracts/BadgeXP.sol",
  "abi": [
    {
      "inputs": [
        {
          "internalType": "address",
          "name": "_badgeRegistry",
          "type": "address"
        }
      ],
      "stateMutability": "nonpayable",
      "type": "constructor"
    },
    {
      "anonymous": false,
      "inputs": [
        {
          "indexed": true,
          "internalType": "address",
          "name": "owner",
          "type": "address"
        },
        {
          "indexed": true,
          "internalType": "address",
          "name": "spender",
          "type": "address"
        },
        {
          "indexed": false,
          "internalType": "uint256",
          "name": "value",
          "type": "uint256"
        }
      ],
      "name": "Approval",
      "type": "event"
    },
    {
      "anonymous": false,
      "inputs": [
        {
          "indexed": true,
          "internalType": "address",
          "name": "from",
          "type": "address"
        },
        {
          "indexed": true,
          "internalType": "address",
          "name": "to",
          "type": "address"
        },
        {
          "indexed": false,
          "internalType": "uint256",
          "name": "value",
          "type": "uint256"
        }
      ],
      "name": "Transfer",
      "type": "event"
    },
    {
      "inputs": [
        {
          "internalType": "address",
          "name": "owner",
          "type": "address"
        },
        {
          "internalType": "address",
          "name": "spender",
          "type": "address"
        }
      ],
      "name": "allowance",
      "outputs": [
        {
          "internalType": "uint256",
          "name": "",
          "type": "uint256"
        }
      ],
      "stateMutability": "view",
      "type": "function"
    },
    {
      "inputs": [
        {
          "internalType": "address",
          "name": "spender",
          "type": "address"
        },
        {
          "internalType": "uint256",
          "name": "amount",
          "type": "uint256"
        }
      ],
      "name": "approve",
      "outputs": [
        {
          "internalType": "bool",
          "name": "",
          "type": "bool"
        }
      ],
      "stateMutability": "nonpayable",
      "type": "function"
    },
    {
      "inputs": [],
      "name": "badgeRegistry",
      "outputs": [
        {
          "internalType": "address",
          "name": "",
          "type": "address"
        }
      ],
      "stateMutability": "view",
      "type": "function"
    },
    {
      "inputs": [
        {
          "internalType": "address",
          "name": "",
          "type": "address"
        }
      ],
      "name": "balance",
      "outputs": [
        {
          "internalType": "uint256",
          "name": "",
          "type": "uint256"
        }
      ],
      "stateMutability": "view",
      "type": "function"
    },
    {
      "inputs": [
        {
          "internalType": "address",
          "name": "account",
          "type": "address"
        }
      ],
      "name": "balanceOf",
      "outputs": [
        {
          "internalType": "uint256",
          "name": "",
          "type": "uint256"
        }
      ],
      "stateMutability": "view",
      "type": "function"
    },
    {
      "inputs": [],
      "name": "baseXP",
      "outputs": [
        {
          "internalType": "uint256",
          "name": "",
          "type": "uint256"
        }
      ],
      "stateMutability": "view",
      "type": "function"
    },
    {
      "inputs": [
        {
          "internalType": "uint256",
          "name": "amount",
          "type": "uint256"
        },
        {
          "internalType": "address",
          "name": "recipient",
          "type": "address"
        }
      ],
      "name": "burn",
      "outputs": [],
      "stateMutability": "nonpayable",
      "type": "function"
    },
    {
      "inputs": [],
      "name": "decimals",
      "outputs": [
        {
          "internalType": "uint8",
          "name": "",
          "type": "uint8"
        }
      ],
      "stateMutability": "view",
      "type": "function"
    },
    {
      "inputs": [
        {
          "internalType": "uint256",
          "name": "level",
          "type": "uint256"
        },
        {
          "internalType": "address",
          "name": "recipient",
          "type": "address"
        }
      ],
      "name": "mint",
      "outputs": [],
      "stateMutability": "nonpayable",
      "type": "function"
    },
    {
      "inputs": [],
      "name": "name",
      "outputs": [
        {
          "internalType": "string",
          "name": "",
          "type": "string"
        }
      ],
      "stateMutability": "view",
      "type": "function"
    },
    {
      "inputs": [],
      "name": "symbol",
      "outputs": [
        {
          "internalType": "string",
          "name": "",
          "type": "string"
        }
      ],
      "stateMutability": "view",
      "type": "function"
    },
    {
      "inputs": [],
      "name": "totalSupply",
      "outputs": [
        {
          "internalType": "uint256",
          "name": "",
          "type": "uint256"
        }
      ],
      "stateMutability": "view",
      "type": "function"
    },
    {
      "inputs": [],
      "name": "totalXP",
      "outputs": [
        {
          "internalType": "uint256",
          "name": "",
          "type": "uint256"
        }
      ],
      "stateMutability": "view",
      "type": "function"
    },
    {
      "inputs": [
        {
          "internalType": "address",
          "name": "recipient",
          "type": "address"
        },
        {
          "internalType": "uint256",
          "name": "amount",
          "type": "uint256"
        }
      ],
      "name": "transfer",
      "outputs": [
        {
          "internalType": "bool",
          "name": "",
          "type": "bool"
        }
      ],
      "stateMutability": "nonpayable",
      "type": "function"
    },
    {
      "inputs": [
        {
          "internalType": "address",
          "name": "sender",
          "type": "address"
        },
        {
          "internalType": "address",
          "name": "recipient",
          "type": "address"
        },
        {
          "internalType": "uint256",
          "name": "amount",
          "type": "uint256"
        }
      ],
      "name": "transferFrom",
      "outputs": [
        {
          "internalType": "bool",
          "name": "",
          "type": "bool"
        }
      ],
      "stateMutability": "nonpayable",
      "type": "function"
    }
  ],
  "bytecode": "0x60806040526103e860035534801561001657600080fd5b50604051610f4e380380610f4e83398181016040528101906100389190610094565b80600260006101000a81548173ffffffffffffffffffffffffffffffffffffffff021916908373ffffffffffffffffffffffffffffffffffffffff16021790555050610106565b60008151905061008e816100ef565b92915050565b6000602082840312156100a657600080fd5b60006100b48482850161007f565b91505092915050565b60006100c8826100cf565b9050919050565b600073ffffffffffffffffffffffffffffffffffffffff82169050919050565b6100f8816100bd565b811461010357600080fd5b50565b610e39806101156000396000f3fe608060405234801561001057600080fd5b50600436106100f55760003560e01c806394bf804d11610097578063dd62ed3e11610066578063dd62ed3e1461028a578063e3d670d7146102ba578063ea3e7cef146102ea578063fcd3533c14610308576100f5565b806394bf804d1461020257806395d89b411461021e578063a9059cbb1461023c578063aa93bfa81461026c576100f5565b806323b872dd116100d357806323b872dd14610166578063313ce5671461019657806368130fd1146101b457806370a08231146101d2576100f5565b806306fdde03146100fa578063095ea7b31461011857806318160ddd14610148575b600080fd5b610102610324565b60405161010f9190610acb565b60405180910390f35b610132600480360381019061012d919061095c565b610361565b60405161013f9190610ab0565b60405180910390f35b610150610369565b60405161015d9190610b0d565b60405180910390f35b610180600480360381019061017b919061090d565b610372565b60405161018d9190610ab0565b60405180910390f35b61019e61037b565b6040516101ab9190610b28565b60405180910390f35b6101bc610384565b6040516101c99190610b0d565b60405180910390f35b6101ec60048036038101906101e791906108a8565b61038a565b6040516101f99190610b0d565b60405180910390f35b61021c600480360381019061021791906109c1565b6103d3565b005b6102266105a2565b6040516102339190610acb565b60405180910390f35b6102566004803603810190610251919061095c565b6105df565b6040516102639190610ab0565b60405180910390f35b6102746105e7565b6040516102819190610b0d565b60405180910390f35b6102a4600480360381019061029f91906108d1565b6105ed565b6040516102b19190610b0d565b60405180910390f35b6102d460048036038101906102cf91906108a8565b6105f5565b6040516102e19190610b0d565b60405180910390f35b6102f261060d565b6040516102ff9190610a95565b60405180910390f35b610322600480360381019061031d91906109c1565b610633565b005b60606040518060400160405280600f81526020017f426164676520585020706f696e74730000000000000000000000000000000000815250905090565b600092915050565b60008054905090565b60009392505050565b60006002905090565b60035481565b6000600160008373ffffffffffffffffffffffffffffffffffffffff1673ffffffffffffffffffffffffffffffffffffffff168152602001908152602001600020549050919050565b600260009054906101000a900473ffffffffffffffffffffffffffffffffffffffff1673ffffffffffffffffffffffffffffffffffffffff1663c3c5a547336040518263ffffffff1660e01b815260040161042e9190610a95565b60206040518083038186803b15801561044657600080fd5b505afa15801561045a573d6000803e3d6000fd5b505050506040513d601f19601f8201168201806040525081019061047e9190610998565b6104bd576040517f08c379a00000000000000000000000000000000000000000000000000000000081526004016104b490610aed565b60405180910390fd5b60006104c8836107f5565b905080600160008473ffffffffffffffffffffffffffffffffffffffff1673ffffffffffffffffffffffffffffffffffffffff16815260200190815260200160002060008282546105199190610b5f565b92505081905550806000808282546105319190610b5f565b925050819055508173ffffffffffffffffffffffffffffffffffffffff163373ffffffffffffffffffffffffffffffffffffffff167fddf252ad1be2c89b69c2b068fc378daa952ba7f163c4a11628f55a4df523b3ef836040516105959190610b0d565b60405180910390a3505050565b60606040518060400160405280600381526020017f4258500000000000000000000000000000000000000000000000000000000000815250905090565b600092915050565b60005481565b600092915050565b60016020528060005260406000206000915090505481565b600260009054906101000a900473ffffffffffffffffffffffffffffffffffffffff1681565b600260009054906101000a900473ffffffffffffffffffffffffffffffffffffffff1673ffffffffffffffffffffffffffffffffffffffff1663c3c5a547336040518263ffffffff1660e01b815260040161068e9190610a95565b60206040518083038186803b1580156106a657600080fd5b505afa1580156106ba573d6000803e3d6000fd5b505050506040513d601f19601f820116820180604052508101906106de9190610998565b61071d576040517f08c379a000000000000000000000000000000000000000000000000000000000815260040161071490610aed565b60405180910390fd5b81600160008373ffffffffffffffffffffffffffffffffffffffff1673ffffffffffffffffffffffffffffffffffffffff168152602001908152602001600020600082825461076c9190610c40565b92505081905550816000808282546107849190610c40565b92505081905550600073ffffffffffffffffffffffffffffffffffffffff168173ffffffffffffffffffffffffffffffffffffffff167fddf252ad1be2c89b69c2b068fc378daa952ba7f163c4a11628f55a4df523b3ef846040516107e99190610b0d565b60405180910390a35050565b60008082111561085f576000808390505b600081111561085557606482601961081e9190610be6565b6108289190610bb5565b6003546108359190610b5f565b826108409190610b5f565b9150808061084d90610cfc565b915050610806565b5080915050610864565b600090505b919050565b60008135905061087881610dbe565b92915050565b60008151905061088d81610dd5565b92915050565b6000813590506108a281610dec565b92915050565b6000602082840312156108ba57600080fd5b60006108c884828501610869565b91505092915050565b600080604083850312156108e457600080fd5b60006108f285828601610869565b925050602061090385828601610869565b9150509250929050565b60008060006060848603121561092257600080fd5b600061093086828701610869565b935050602061094186828701610869565b925050604061095286828701610893565b9150509250925092565b6000806040838503121561096f57600080fd5b600061097d85828601610869565b925050602061098e85828601610893565b9150509250929050565b6000602082840312156109aa57600080fd5b60006109b88482850161087e565b91505092915050565b600080604083850312156109d457600080fd5b60006109e285828601610893565b92505060206109f385828601610869565b9150509250929050565b610a0681610c74565b82525050565b610a1581610c86565b82525050565b6000610a2682610b43565b610a308185610b4e565b9350610a40818560208601610cc9565b610a4981610d84565b840191505092915050565b6000610a61601883610b4e565b9150610a6c82610d95565b602082019050919050565b610a8081610cb2565b82525050565b610a8f81610cbc565b82525050565b6000602082019050610aaa60008301846109fd565b92915050565b6000602082019050610ac56000830184610a0c565b92915050565b60006020820190508181036000830152610ae58184610a1b565b905092915050565b60006020820190508181036000830152610b0681610a54565b9050919050565b6000602082019050610b226000830184610a77565b92915050565b6000602082019050610b3d6000830184610a86565b92915050565b600081519050919050565b600082825260208201905092915050565b6000610b6a82610cb2565b9150610b7583610cb2565b9250827fffffffffffffffffffffffffffffffffffffffffffffffffffffffffffffffff03821115610baa57610ba9610d26565b5b828201905092915050565b6000610bc082610cb2565b9150610bcb83610cb2565b925082610bdb57610bda610d55565b5b828204905092915050565b6000610bf182610cb2565b9150610bfc83610cb2565b9250817fffffffffffffffffffffffffffffffffffffffffffffffffffffffffffffffff0483118215151615610c3557610c34610d26565b5b828202905092915050565b6000610c4b82610cb2565b9150610c5683610cb2565b925082821015610c6957610c68610d26565b5b828203905092915050565b6000610c7f82610c92565b9050919050565b60008115159050919050565b600073ffffffffffffffffffffffffffffffffffffffff82169050919050565b6000819050919050565b600060ff82169050919050565b60005b83811015610ce7578082015181840152602081019050610ccc565b83811115610cf6576000848401525b50505050565b6000610d0782610cb2565b91506000821415610d1b57610d1a610d26565b5b600182039050919050565b7f4e487b7100000000000000000000000000000000000000000000000000000000600052601160045260246000fd5b7f4e487b7100000000000000000000000000000000000000000000000000000000600052601260045260246000fd5b6000601f19601f8301169050919050565b7f5265676973746572656420656e746974696573206f6e6c790000000000000000600082015250565b610dc781610c74565b8114610dd257600080fd5b50565b610dde81610c86565b8114610de957600080fd5b50565b610df581610cb2565b8114610e0057600080fd5b5056fea2646970667358221220d6321a5e0966287ff55c0939f2d2de49f1e4c92a47adf3cb1d73e6660514313e64736f6c63430008040033",
  "linkReferences": {},
  "deployedLinkReferences": {}
}