{
  "_format": "hh-sol-artifact-1",
  "contractName": "BadgeXP",
  "sourceName": "contracts/BadgeXP.sol",
  "abi": [
    {
      "inputs": [
        {
          "internalType": "address",
          "name": "_badgeRegistry",
          "type": "address"
        }
      ],
      "stateMutability": "nonpayable",
      "type": "constructor"
    },
    {
      "anonymous": false,
      "inputs": [
        {
          "indexed": true,
          "internalType": "address",
          "name": "owner",
          "type": "address"
        },
        {
          "indexed": true,
          "internalType": "address",
          "name": "spender",
          "type": "address"
        },
        {
          "indexed": false,
          "internalType": "uint256",
          "name": "value",
          "type": "uint256"
        }
      ],
      "name": "Approval",
      "type": "event"
    },
    {
      "anonymous": false,
      "inputs": [
        {
          "indexed": true,
          "internalType": "address",
          "name": "from",
          "type": "address"
        },
        {
          "indexed": true,
          "internalType": "address",
          "name": "to",
          "type": "address"
        },
        {
          "indexed": false,
          "internalType": "uint256",
          "name": "value",
          "type": "uint256"
        }
      ],
      "name": "Transfer",
      "type": "event"
    },
    {
      "inputs": [
        {
          "internalType": "address",
          "name": "owner",
          "type": "address"
        },
        {
          "internalType": "address",
          "name": "spender",
          "type": "address"
        }
      ],
      "name": "allowance",
      "outputs": [
        {
          "internalType": "uint256",
          "name": "",
          "type": "uint256"
        }
      ],
      "stateMutability": "view",
      "type": "function"
    },
    {
      "inputs": [
        {
          "internalType": "address",
          "name": "spender",
          "type": "address"
        },
        {
          "internalType": "uint256",
          "name": "amount",
          "type": "uint256"
        }
      ],
      "name": "approve",
      "outputs": [
        {
          "internalType": "bool",
          "name": "",
          "type": "bool"
        }
      ],
      "stateMutability": "nonpayable",
      "type": "function"
    },
    {
      "inputs": [],
      "name": "badgeRegistry",
      "outputs": [
        {
          "internalType": "address",
          "name": "",
          "type": "address"
        }
      ],
      "stateMutability": "view",
      "type": "function"
    },
    {
      "inputs": [
        {
          "internalType": "address",
          "name": "",
          "type": "address"
        }
      ],
      "name": "balance",
      "outputs": [
        {
          "internalType": "uint256",
          "name": "",
          "type": "uint256"
        }
      ],
      "stateMutability": "view",
      "type": "function"
    },
    {
      "inputs": [
        {
          "internalType": "address",
          "name": "account",
          "type": "address"
        }
      ],
      "name": "balanceOf",
      "outputs": [
        {
          "internalType": "uint256",
          "name": "",
          "type": "uint256"
        }
      ],
      "stateMutability": "view",
      "type": "function"
    },
    {
      "inputs": [
        {
          "internalType": "uint256",
          "name": "amount",
          "type": "uint256"
        },
        {
          "internalType": "address",
          "name": "recipient",
          "type": "address"
        }
      ],
      "name": "burn",
      "outputs": [],
      "stateMutability": "nonpayable",
      "type": "function"
    },
    {
      "inputs": [],
      "name": "decimals",
      "outputs": [
        {
          "internalType": "uint8",
          "name": "",
          "type": "uint8"
        }
      ],
      "stateMutability": "view",
      "type": "function"
    },
    {
      "inputs": [
        {
          "internalType": "uint256",
          "name": "amount",
          "type": "uint256"
        },
        {
          "internalType": "address",
          "name": "recipient",
          "type": "address"
        }
      ],
      "name": "mint",
      "outputs": [],
      "stateMutability": "nonpayable",
      "type": "function"
    },
    {
      "inputs": [],
      "name": "name",
      "outputs": [
        {
          "internalType": "string",
          "name": "",
          "type": "string"
        }
      ],
      "stateMutability": "view",
      "type": "function"
    },
    {
      "inputs": [],
      "name": "symbol",
      "outputs": [
        {
          "internalType": "string",
          "name": "",
          "type": "string"
        }
      ],
      "stateMutability": "view",
      "type": "function"
    },
    {
      "inputs": [],
      "name": "totalSupply",
      "outputs": [
        {
          "internalType": "uint256",
          "name": "",
          "type": "uint256"
        }
      ],
      "stateMutability": "view",
      "type": "function"
    },
    {
      "inputs": [],
      "name": "totalXP",
      "outputs": [
        {
          "internalType": "uint256",
          "name": "",
          "type": "uint256"
        }
      ],
      "stateMutability": "view",
      "type": "function"
    },
    {
      "inputs": [
        {
          "internalType": "address",
          "name": "recipient",
          "type": "address"
        },
        {
          "internalType": "uint256",
          "name": "amount",
          "type": "uint256"
        }
      ],
      "name": "transfer",
      "outputs": [
        {
          "internalType": "bool",
          "name": "",
          "type": "bool"
        }
      ],
      "stateMutability": "nonpayable",
      "type": "function"
    },
    {
      "inputs": [
        {
          "internalType": "address",
          "name": "sender",
          "type": "address"
        },
        {
          "internalType": "address",
          "name": "recipient",
          "type": "address"
        },
        {
          "internalType": "uint256",
          "name": "amount",
          "type": "uint256"
        }
      ],
      "name": "transferFrom",
      "outputs": [
        {
          "internalType": "bool",
          "name": "",
          "type": "bool"
        }
      ],
      "stateMutability": "nonpayable",
      "type": "function"
    }
  ],
  "bytecode": "0x608060405234801561001057600080fd5b50604051610db4380380610db48339818101604052810190610032919061008e565b80600260006101000a81548173ffffffffffffffffffffffffffffffffffffffff021916908373ffffffffffffffffffffffffffffffffffffffff16021790555050610100565b600081519050610088816100e9565b92915050565b6000602082840312156100a057600080fd5b60006100ae84828501610079565b91505092915050565b60006100c2826100c9565b9050919050565b600073ffffffffffffffffffffffffffffffffffffffff82169050919050565b6100f2816100b7565b81146100fd57600080fd5b50565b610ca58061010f6000396000f3fe608060405234801561001057600080fd5b50600436106100ea5760003560e01c806395d89b411161008c578063dd62ed3e11610066578063dd62ed3e14610261578063e3d670d714610291578063ea3e7cef146102c1578063fcd3533c146102df576100ea565b806395d89b41146101f5578063a9059cbb14610213578063aa93bfa814610243576100ea565b806323b872dd116100c857806323b872dd1461015b578063313ce5671461018b57806370a08231146101a957806394bf804d146101d9576100ea565b806306fdde03146100ef578063095ea7b31461010d57806318160ddd1461013d575b600080fd5b6100f76102fb565b6040516101049190610a1b565b60405180910390f35b610127600480360381019061012291906108ac565b610338565b6040516101349190610a00565b60405180910390f35b610145610340565b6040516101529190610a5d565b60405180910390f35b6101756004803603810190610170919061085d565b610349565b6040516101829190610a00565b60405180910390f35b610193610352565b6040516101a09190610a78565b60405180910390f35b6101c360048036038101906101be91906107f8565b61035b565b6040516101d09190610a5d565b60405180910390f35b6101f360048036038101906101ee9190610911565b6103a4565b005b6101fd610566565b60405161020a9190610a1b565b60405180910390f35b61022d600480360381019061022891906108ac565b6105a3565b60405161023a9190610a00565b60405180910390f35b61024b6105ab565b6040516102589190610a5d565b60405180910390f35b61027b60048036038101906102769190610821565b6105b1565b6040516102889190610a5d565b60405180910390f35b6102ab60048036038101906102a691906107f8565b6105b9565b6040516102b89190610a5d565b60405180910390f35b6102c96105d1565b6040516102d691906109e5565b60405180910390f35b6102f960048036038101906102f49190610911565b6105f7565b005b60606040518060400160405280600f81526020017f426164676520585020706f696e74730000000000000000000000000000000000815250905090565b600092915050565b60008054905090565b60009392505050565b60006012905090565b6000600160008373ffffffffffffffffffffffffffffffffffffffff1673ffffffffffffffffffffffffffffffffffffffff168152602001908152602001600020549050919050565b600260009054906101000a900473ffffffffffffffffffffffffffffffffffffffff1673ffffffffffffffffffffffffffffffffffffffff1663c3c5a547336040518263ffffffff1660e01b81526004016103ff91906109e5565b60206040518083038186803b15801561041757600080fd5b505afa15801561042b573d6000803e3d6000fd5b505050506040513d601f19601f8201168201806040525081019061044f91906108e8565b61048e576040517f08c379a000000000000000000000000000000000000000000000000000000000815260040161048590610a3d565b60405180910390fd5b81600160008373ffffffffffffffffffffffffffffffffffffffff1673ffffffffffffffffffffffffffffffffffffffff16815260200190815260200160002060008282546104dd9190610aaf565b92505081905550816000808282546104f59190610aaf565b925050819055508073ffffffffffffffffffffffffffffffffffffffff16600073ffffffffffffffffffffffffffffffffffffffff167fddf252ad1be2c89b69c2b068fc378daa952ba7f163c4a11628f55a4df523b3ef8460405161055a9190610a5d565b60405180910390a35050565b60606040518060400160405280600381526020017f4258500000000000000000000000000000000000000000000000000000000000815250905090565b600092915050565b60005481565b600092915050565b60016020528060005260406000206000915090505481565b600260009054906101000a900473ffffffffffffffffffffffffffffffffffffffff1681565b600260009054906101000a900473ffffffffffffffffffffffffffffffffffffffff1673ffffffffffffffffffffffffffffffffffffffff1663c3c5a547336040518263ffffffff1660e01b815260040161065291906109e5565b60206040518083038186803b15801561066a57600080fd5b505afa15801561067e573d6000803e3d6000fd5b505050506040513d601f19601f820116820180604052508101906106a291906108e8565b6106e1576040517f08c379a00000000000000000000000000000000000000000000000000000000081526004016106d890610a3d565b60405180910390fd5b81600160008373ffffffffffffffffffffffffffffffffffffffff1673ffffffffffffffffffffffffffffffffffffffff16815260200190815260200160002060008282546107309190610b05565b92505081905550816000808282546107489190610b05565b92505081905550600073ffffffffffffffffffffffffffffffffffffffff168173ffffffffffffffffffffffffffffffffffffffff167fddf252ad1be2c89b69c2b068fc378daa952ba7f163c4a11628f55a4df523b3ef846040516107ad9190610a5d565b60405180910390a35050565b6000813590506107c881610c2a565b92915050565b6000815190506107dd81610c41565b92915050565b6000813590506107f281610c58565b92915050565b60006020828403121561080a57600080fd5b6000610818848285016107b9565b91505092915050565b6000806040838503121561083457600080fd5b6000610842858286016107b9565b9250506020610853858286016107b9565b9150509250929050565b60008060006060848603121561087257600080fd5b6000610880868287016107b9565b9350506020610891868287016107b9565b92505060406108a2868287016107e3565b9150509250925092565b600080604083850312156108bf57600080fd5b60006108cd858286016107b9565b92505060206108de858286016107e3565b9150509250929050565b6000602082840312156108fa57600080fd5b6000610908848285016107ce565b91505092915050565b6000806040838503121561092457600080fd5b6000610932858286016107e3565b9250506020610943858286016107b9565b9150509250929050565b61095681610b39565b82525050565b61096581610b4b565b82525050565b600061097682610a93565b6109808185610a9e565b9350610990818560208601610b8e565b61099981610bf0565b840191505092915050565b60006109b1601883610a9e565b91506109bc82610c01565b602082019050919050565b6109d081610b77565b82525050565b6109df81610b81565b82525050565b60006020820190506109fa600083018461094d565b92915050565b6000602082019050610a15600083018461095c565b92915050565b60006020820190508181036000830152610a35818461096b565b905092915050565b60006020820190508181036000830152610a56816109a4565b9050919050565b6000602082019050610a7260008301846109c7565b92915050565b6000602082019050610a8d60008301846109d6565b92915050565b600081519050919050565b600082825260208201905092915050565b6000610aba82610b77565b9150610ac583610b77565b9250827fffffffffffffffffffffffffffffffffffffffffffffffffffffffffffffffff03821115610afa57610af9610bc1565b5b828201905092915050565b6000610b1082610b77565b9150610b1b83610b77565b925082821015610b2e57610b2d610bc1565b5b828203905092915050565b6000610b4482610b57565b9050919050565b60008115159050919050565b600073ffffffffffffffffffffffffffffffffffffffff82169050919050565b6000819050919050565b600060ff82169050919050565b60005b83811015610bac578082015181840152602081019050610b91565b83811115610bbb576000848401525b50505050565b7f4e487b7100000000000000000000000000000000000000000000000000000000600052601160045260246000fd5b6000601f19601f8301169050919050565b7f5265676973746572656420656e746974696573206f6e6c790000000000000000600082015250565b610c3381610b39565b8114610c3e57600080fd5b50565b610c4a81610b4b565b8114610c5557600080fd5b50565b610c6181610b77565b8114610c6c57600080fd5b5056fea26469706673582212206e9d5dfa99fdaee41772f79f6ae14f4ffaae274dc824d31145b7e632563a49a364736f6c63430008040033",
  "linkReferences": {},
  "deployedLinkReferences": {}
}