{
  "_format": "hh-sol-artifact-1",
  "contractName": "BadgeXP",
  "sourceName": "contracts/BadgeXP.sol",
  "abi": [
    {
      "inputs": [
        {
          "internalType": "address",
          "name": "_badgeRegistry",
          "type": "address"
        }
      ],
      "stateMutability": "nonpayable",
      "type": "constructor"
    },
    {
      "anonymous": false,
      "inputs": [
        {
          "indexed": true,
          "internalType": "address",
          "name": "owner",
          "type": "address"
        },
        {
          "indexed": true,
          "internalType": "address",
          "name": "spender",
          "type": "address"
        },
        {
          "indexed": false,
          "internalType": "uint256",
          "name": "value",
          "type": "uint256"
        }
      ],
      "name": "Approval",
      "type": "event"
    },
    {
      "anonymous": false,
      "inputs": [
        {
          "indexed": true,
          "internalType": "address",
          "name": "from",
          "type": "address"
        },
        {
          "indexed": true,
          "internalType": "address",
          "name": "to",
          "type": "address"
        },
        {
          "indexed": false,
          "internalType": "uint256",
          "name": "value",
          "type": "uint256"
        }
      ],
      "name": "Transfer",
      "type": "event"
    },
    {
      "inputs": [
        {
          "internalType": "address",
          "name": "owner",
          "type": "address"
        },
        {
          "internalType": "address",
          "name": "spender",
          "type": "address"
        }
      ],
      "name": "allowance",
      "outputs": [
        {
          "internalType": "uint256",
          "name": "",
          "type": "uint256"
        }
      ],
      "stateMutability": "view",
      "type": "function"
    },
    {
      "inputs": [
        {
          "internalType": "address",
          "name": "spender",
          "type": "address"
        },
        {
          "internalType": "uint256",
          "name": "amount",
          "type": "uint256"
        }
      ],
      "name": "approve",
      "outputs": [
        {
          "internalType": "bool",
          "name": "",
          "type": "bool"
        }
      ],
      "stateMutability": "nonpayable",
      "type": "function"
    },
    {
      "inputs": [],
      "name": "badgeRegistry",
      "outputs": [
        {
          "internalType": "address",
          "name": "",
          "type": "address"
        }
      ],
      "stateMutability": "view",
      "type": "function"
    },
    {
      "inputs": [
        {
          "internalType": "address",
          "name": "",
          "type": "address"
        }
      ],
      "name": "balance",
      "outputs": [
        {
          "internalType": "uint256",
          "name": "",
          "type": "uint256"
        }
      ],
      "stateMutability": "view",
      "type": "function"
    },
    {
      "inputs": [
        {
          "internalType": "address",
          "name": "account",
          "type": "address"
        }
      ],
      "name": "balanceOf",
      "outputs": [
        {
          "internalType": "uint256",
          "name": "",
          "type": "uint256"
        }
      ],
      "stateMutability": "view",
      "type": "function"
    },
    {
      "inputs": [],
      "name": "baseXP",
      "outputs": [
        {
          "internalType": "uint256",
          "name": "",
          "type": "uint256"
        }
      ],
      "stateMutability": "view",
      "type": "function"
    },
    {
      "inputs": [
        {
          "internalType": "uint256",
          "name": "amount",
          "type": "uint256"
        },
        {
          "internalType": "address",
          "name": "recipient",
          "type": "address"
        }
      ],
      "name": "burn",
      "outputs": [],
      "stateMutability": "nonpayable",
      "type": "function"
    },
    {
      "inputs": [],
      "name": "decimals",
      "outputs": [
        {
          "internalType": "uint8",
          "name": "",
          "type": "uint8"
        }
      ],
      "stateMutability": "view",
      "type": "function"
    },
    {
      "inputs": [
        {
          "internalType": "uint256",
          "name": "level",
          "type": "uint256"
        },
        {
          "internalType": "address",
          "name": "recipient",
          "type": "address"
        }
      ],
      "name": "mint",
      "outputs": [],
      "stateMutability": "nonpayable",
      "type": "function"
    },
    {
      "inputs": [],
      "name": "name",
      "outputs": [
        {
          "internalType": "string",
          "name": "",
          "type": "string"
        }
      ],
      "stateMutability": "view",
      "type": "function"
    },
    {
      "inputs": [],
      "name": "symbol",
      "outputs": [
        {
          "internalType": "string",
          "name": "",
          "type": "string"
        }
      ],
      "stateMutability": "view",
      "type": "function"
    },
    {
      "inputs": [],
      "name": "totalSupply",
      "outputs": [
        {
          "internalType": "uint256",
          "name": "",
          "type": "uint256"
        }
      ],
      "stateMutability": "view",
      "type": "function"
    },
    {
      "inputs": [],
      "name": "totalXP",
      "outputs": [
        {
          "internalType": "uint256",
          "name": "",
          "type": "uint256"
        }
      ],
      "stateMutability": "view",
      "type": "function"
    },
    {
      "inputs": [
        {
          "internalType": "address",
          "name": "recipient",
          "type": "address"
        },
        {
          "internalType": "uint256",
          "name": "amount",
          "type": "uint256"
        }
      ],
      "name": "transfer",
      "outputs": [
        {
          "internalType": "bool",
          "name": "",
          "type": "bool"
        }
      ],
      "stateMutability": "nonpayable",
      "type": "function"
    },
    {
      "inputs": [
        {
          "internalType": "address",
          "name": "sender",
          "type": "address"
        },
        {
          "internalType": "address",
          "name": "recipient",
          "type": "address"
        },
        {
          "internalType": "uint256",
          "name": "amount",
          "type": "uint256"
        }
      ],
      "name": "transferFrom",
      "outputs": [
        {
          "internalType": "bool",
          "name": "",
          "type": "bool"
        }
      ],
      "stateMutability": "nonpayable",
      "type": "function"
    }
  ],
  "bytecode": "0x60806040526103e860035534801561001657600080fd5b50604051610e68380380610e6883398181016040528101906100389190610094565b80600260006101000a81548173ffffffffffffffffffffffffffffffffffffffff021916908373ffffffffffffffffffffffffffffffffffffffff16021790555050610106565b60008151905061008e816100ef565b92915050565b6000602082840312156100a657600080fd5b60006100b48482850161007f565b91505092915050565b60006100c8826100cf565b9050919050565b600073ffffffffffffffffffffffffffffffffffffffff82169050919050565b6100f8816100bd565b811461010357600080fd5b50565b610d53806101156000396000f3fe608060405234801561001057600080fd5b50600436106100f55760003560e01c806394bf804d11610097578063dd62ed3e11610066578063dd62ed3e1461028a578063e3d670d7146102ba578063ea3e7cef146102ea578063fcd3533c14610308576100f5565b806394bf804d1461020257806395d89b411461021e578063a9059cbb1461023c578063aa93bfa81461026c576100f5565b806323b872dd116100d357806323b872dd14610166578063313ce5671461019657806368130fd1146101b457806370a08231146101d2576100f5565b806306fdde03146100fa578063095ea7b31461011857806318160ddd14610148575b600080fd5b610102610324565b60405161010f9190610a6f565b60405180910390f35b610132600480360381019061012d9190610900565b610361565b60405161013f9190610a54565b60405180910390f35b610150610369565b60405161015d9190610ab1565b60405180910390f35b610180600480360381019061017b91906108b1565b610372565b60405161018d9190610a54565b60405180910390f35b61019e61037b565b6040516101ab9190610acc565b60405180910390f35b6101bc610384565b6040516101c99190610ab1565b60405180910390f35b6101ec60048036038101906101e7919061084c565b61038a565b6040516101f99190610ab1565b60405180910390f35b61021c60048036038101906102179190610965565b6103d3565b005b6102266105a3565b6040516102339190610a6f565b60405180910390f35b61025660048036038101906102519190610900565b6105e0565b6040516102639190610a54565b60405180910390f35b6102746105e8565b6040516102819190610ab1565b60405180910390f35b6102a4600480360381019061029f9190610875565b6105ee565b6040516102b19190610ab1565b60405180910390f35b6102d460048036038101906102cf919061084c565b6105f6565b6040516102e19190610ab1565b60405180910390f35b6102f261060e565b6040516102ff9190610a39565b60405180910390f35b610322600480360381019061031d9190610965565b610634565b005b60606040518060400160405280600f81526020017f426164676520585020706f696e74730000000000000000000000000000000000815250905090565b600092915050565b60008054905090565b60009392505050565b60006002905090565b60035481565b6000600160008373ffffffffffffffffffffffffffffffffffffffff1673ffffffffffffffffffffffffffffffffffffffff168152602001908152602001600020549050919050565b600260009054906101000a900473ffffffffffffffffffffffffffffffffffffffff1673ffffffffffffffffffffffffffffffffffffffff1663c3c5a547336040518263ffffffff1660e01b815260040161042e9190610a39565b60206040518083038186803b15801561044657600080fd5b505afa15801561045a573d6000803e3d6000fd5b505050506040513d601f19601f8201168201806040525081019061047e919061093c565b6104bd576040517f08c379a00000000000000000000000000000000000000000000000000000000081526004016104b490610a91565b60405180910390fd5b60006104c8836107f6565b905080600160008473ffffffffffffffffffffffffffffffffffffffff1673ffffffffffffffffffffffffffffffffffffffff16815260200190815260200160002060008282546105199190610b03565b92505081905550806000808282546105319190610b03565b925050819055508173ffffffffffffffffffffffffffffffffffffffff16600073ffffffffffffffffffffffffffffffffffffffff167fddf252ad1be2c89b69c2b068fc378daa952ba7f163c4a11628f55a4df523b3ef836040516105969190610ab1565b60405180910390a3505050565b60606040518060400160405280600381526020017f4258500000000000000000000000000000000000000000000000000000000000815250905090565b600092915050565b60005481565b600092915050565b60016020528060005260406000206000915090505481565b600260009054906101000a900473ffffffffffffffffffffffffffffffffffffffff1681565b600260009054906101000a900473ffffffffffffffffffffffffffffffffffffffff1673ffffffffffffffffffffffffffffffffffffffff1663c3c5a547336040518263ffffffff1660e01b815260040161068f9190610a39565b60206040518083038186803b1580156106a757600080fd5b505afa1580156106bb573d6000803e3d6000fd5b505050506040513d601f19601f820116820180604052508101906106df919061093c565b61071e576040517f08c379a000000000000000000000000000000000000000000000000000000000815260040161071590610a91565b60405180910390fd5b81600160008373ffffffffffffffffffffffffffffffffffffffff1673ffffffffffffffffffffffffffffffffffffffff168152602001908152602001600020600082825461076d9190610bb3565b92505081905550816000808282546107859190610bb3565b92505081905550600073ffffffffffffffffffffffffffffffffffffffff168173ffffffffffffffffffffffffffffffffffffffff167fddf252ad1be2c89b69c2b068fc378daa952ba7f163c4a11628f55a4df523b3ef846040516107ea9190610ab1565b60405180910390a35050565b6000816003546108069190610b59565b9050919050565b60008135905061081c81610cd8565b92915050565b60008151905061083181610cef565b92915050565b60008135905061084681610d06565b92915050565b60006020828403121561085e57600080fd5b600061086c8482850161080d565b91505092915050565b6000806040838503121561088857600080fd5b60006108968582860161080d565b92505060206108a78582860161080d565b9150509250929050565b6000806000606084860312156108c657600080fd5b60006108d48682870161080d565b93505060206108e58682870161080d565b92505060406108f686828701610837565b9150509250925092565b6000806040838503121561091357600080fd5b60006109218582860161080d565b925050602061093285828601610837565b9150509250929050565b60006020828403121561094e57600080fd5b600061095c84828501610822565b91505092915050565b6000806040838503121561097857600080fd5b600061098685828601610837565b92505060206109978582860161080d565b9150509250929050565b6109aa81610be7565b82525050565b6109b981610bf9565b82525050565b60006109ca82610ae7565b6109d48185610af2565b93506109e4818560208601610c3c565b6109ed81610c9e565b840191505092915050565b6000610a05601883610af2565b9150610a1082610caf565b602082019050919050565b610a2481610c25565b82525050565b610a3381610c2f565b82525050565b6000602082019050610a4e60008301846109a1565b92915050565b6000602082019050610a6960008301846109b0565b92915050565b60006020820190508181036000830152610a8981846109bf565b905092915050565b60006020820190508181036000830152610aaa816109f8565b9050919050565b6000602082019050610ac66000830184610a1b565b92915050565b6000602082019050610ae16000830184610a2a565b92915050565b600081519050919050565b600082825260208201905092915050565b6000610b0e82610c25565b9150610b1983610c25565b9250827fffffffffffffffffffffffffffffffffffffffffffffffffffffffffffffffff03821115610b4e57610b4d610c6f565b5b828201905092915050565b6000610b6482610c25565b9150610b6f83610c25565b9250817fffffffffffffffffffffffffffffffffffffffffffffffffffffffffffffffff0483118215151615610ba857610ba7610c6f565b5b828202905092915050565b6000610bbe82610c25565b9150610bc983610c25565b925082821015610bdc57610bdb610c6f565b5b828203905092915050565b6000610bf282610c05565b9050919050565b60008115159050919050565b600073ffffffffffffffffffffffffffffffffffffffff82169050919050565b6000819050919050565b600060ff82169050919050565b60005b83811015610c5a578082015181840152602081019050610c3f565b83811115610c69576000848401525b50505050565b7f4e487b7100000000000000000000000000000000000000000000000000000000600052601160045260246000fd5b6000601f19601f8301169050919050565b7f5265676973746572656420656e746974696573206f6e6c790000000000000000600082015250565b610ce181610be7565b8114610cec57600080fd5b50565b610cf881610bf9565b8114610d0357600080fd5b50565b610d0f81610c25565b8114610d1a57600080fd5b5056fea26469706673582212202b9ec987274f7ce70dff9fe565f83dd4718a094cde36c338ea2a38fe653b9cce64736f6c63430008040033",
  "linkReferences": {},
  "deployedLinkReferences": {}
}