{
  "_format": "hh-sol-artifact-1",
  "contractName": "BadgeRegistry",
  "sourceName": "contracts/BadgeRegistry.sol",
  "abi": [
    {
      "inputs": [],
      "stateMutability": "nonpayable",
      "type": "constructor"
    },
    {
      "anonymous": false,
      "inputs": [
        {
          "indexed": false,
          "internalType": "address",
          "name": "entityAddress",
          "type": "address"
        },
        {
          "indexed": false,
          "internalType": "string",
          "name": "entityName",
          "type": "string"
        },
        {
          "indexed": false,
          "internalType": "address",
          "name": "genesisTokenHolder",
          "type": "address"
        }
      ],
      "name": "EntityDeployed",
      "type": "event"
    },
    {
      "inputs": [],
      "name": "badgeContract",
      "outputs": [
        {
          "internalType": "address",
          "name": "",
          "type": "address"
        }
      ],
      "stateMutability": "view",
      "type": "function"
    },
    {
      "inputs": [
        {
          "internalType": "string",
          "name": "name",
          "type": "string"
        },
        {
          "internalType": "string",
          "name": "genesisTokenURI",
          "type": "string"
        }
      ],
      "name": "deployEntity",
      "outputs": [],
      "stateMutability": "payable",
      "type": "function"
    },
    {
      "inputs": [
        {
          "internalType": "address",
          "name": "",
          "type": "address"
        }
      ],
      "name": "entities",
      "outputs": [
        {
          "internalType": "bool",
          "name": "",
          "type": "bool"
        }
      ],
      "stateMutability": "view",
      "type": "function"
    },
    {
      "inputs": [
        {
          "internalType": "address",
          "name": "addr",
          "type": "address"
        }
      ],
      "name": "isRegistered",
      "outputs": [
        {
          "internalType": "bool",
          "name": "",
          "type": "bool"
        }
      ],
      "stateMutability": "view",
      "type": "function"
    },
    {
      "inputs": [],
      "name": "permissionContract",
      "outputs": [
        {
          "internalType": "address",
          "name": "",
          "type": "address"
        }
      ],
      "stateMutability": "view",
      "type": "function"
    }
  ],
  "bytecode": "0x608060405234801561001057600080fd5b503060405161001e906100fe565b6100289190610129565b604051809103906000f080158015610044573d6000803e3d6000fd5b50600160006101000a81548173ffffffffffffffffffffffffffffffffffffffff021916908373ffffffffffffffffffffffffffffffffffffffff160217905550306040516100929061010c565b61009c9190610129565b604051809103906000f0801580156100b8573d6000803e3d6000fd5b50600260006101000a81548173ffffffffffffffffffffffffffffffffffffffff021916908373ffffffffffffffffffffffffffffffffffffffff160217905550610176565b6132918062001e4183390190565b61302980620050d283390190565b61012381610144565b82525050565b600060208201905061013e600083018461011a565b92915050565b600061014f82610156565b9050919050565b600073ffffffffffffffffffffffffffffffffffffffff82169050919050565b611cbb80620001866000396000f3fe608060405260043610620000505760003560e01c80631d8ee48a14620000555780638d6d49251462000099578063c3c5a54714620000c9578063cc2b49e8146200010d578063d53cb718146200012d575b600080fd5b3480156200006257600080fd5b506200008160048036038101906200007b919062000429565b6200015d565b604051620000909190620005bf565b60405180910390f35b348015620000a657600080fd5b50620000b16200017d565b604051620000c0919062000526565b60405180910390f35b348015620000d657600080fd5b50620000f56004803603810190620000ef919062000429565b620001a3565b604051620001049190620005bf565b60405180910390f35b6200012b600480360381019062000125919062000455565b620001f8565b005b3480156200013a57600080fd5b506200014562000391565b60405162000154919062000526565b60405180910390f35b60006020528060005260406000206000915054906101000a900460ff1681565b600160009054906101000a900473ffffffffffffffffffffffffffffffffffffffff1681565b60008060008373ffffffffffffffffffffffffffffffffffffffff1673ffffffffffffffffffffffffffffffffffffffff16815260200190815260200160002060009054906101000a900460ff169050919050565b6000848430600160009054906101000a900473ffffffffffffffffffffffffffffffffffffffff16600260009054906101000a900473ffffffffffffffffffffffffffffffffffffffff166040516200025190620003b7565b62000261959493929190620005dc565b604051809103906000f0801580156200027e573d6000803e3d6000fd5b50905060016000808373ffffffffffffffffffffffffffffffffffffffff1673ffffffffffffffffffffffffffffffffffffffff16815260200190815260200160002060006101000a81548160ff0219169083151502179055508073ffffffffffffffffffffffffffffffffffffffff1663cf9238c83385856040518463ffffffff1660e01b8152600401620003179392919062000543565b600060405180830381600087803b1580156200033257600080fd5b505af115801562000347573d6000803e3d6000fd5b505050507fcf2cb25dfc1dfff1e34e799b424a6b365a57020ef199ebb3ad06a7c7779e461b8186863360405162000382949392919062000579565b60405180910390a15050505050565b600260009054906101000a900473ffffffffffffffffffffffffffffffffffffffff1681565b6115c880620006be83390190565b600081359050620003d681620006a3565b92915050565b60008083601f840112620003ef57600080fd5b8235905067ffffffffffffffff8111156200040957600080fd5b6020830191508360018202830111156200042257600080fd5b9250929050565b6000602082840312156200043c57600080fd5b60006200044c84828501620003c5565b91505092915050565b600080600080604085870312156200046c57600080fd5b600085013567ffffffffffffffff8111156200048757600080fd5b6200049587828801620003dc565b9450945050602085013567ffffffffffffffff811115620004b557600080fd5b620004c387828801620003dc565b925092505092959194509250565b620004dc8162000643565b82525050565b620004ed8162000657565b82525050565b600062000501838562000632565b93506200051083858462000683565b6200051b8362000692565b840190509392505050565b60006020820190506200053d6000830184620004d1565b92915050565b60006040820190506200055a6000830186620004d1565b81810360208301526200056f818486620004f3565b9050949350505050565b6000606082019050620005906000830187620004d1565b8181036020830152620005a5818587620004f3565b9050620005b66040830184620004d1565b95945050505050565b6000602082019050620005d66000830184620004e2565b92915050565b60006080820190508181036000830152620005f9818789620004f3565b90506200060a6020830186620004d1565b620006196040830185620004d1565b620006286060830184620004d1565b9695505050505050565b600082825260208201905092915050565b6000620006508262000663565b9050919050565b60008115159050919050565b600073ffffffffffffffffffffffffffffffffffffffff82169050919050565b82818337600083830152505050565b6000601f19601f8301169050919050565b620006ae8162000643565b8114620006ba57600080fd5b5056fe60806040523480156200001157600080fd5b50604051620015c8380380620015c8833981810160405281019062000037919062000371565b620000836040518060400160405280601481526020017f4465706c6f796564206e657720656e746974793a000000000000000000000000815250856200016960201b6200065d1760201c565b83600090805190602001906200009b92919062000238565b5082600260006101000a81548173ffffffffffffffffffffffffffffffffffffffff021916908373ffffffffffffffffffffffffffffffffffffffff16021790555081600360006101000a81548173ffffffffffffffffffffffffffffffffffffffff021916908373ffffffffffffffffffffffffffffffffffffffff16021790555080600460006101000a81548173ffffffffffffffffffffffffffffffffffffffff021916908373ffffffffffffffffffffffffffffffffffffffff160217905550505050506200064c565b6200020b82826040516024016200018292919062000437565b6040516020818303038152906040527f4b5c4277000000000000000000000000000000000000000000000000000000007bffffffffffffffffffffffffffffffffffffffffffffffffffffffff19166020820180517bffffffffffffffffffffffffffffffffffffffffffffffffffffffff83818316178352505050506200020f60201b60201c565b5050565b60008151905060006a636f6e736f6c652e6c6f679050602083016000808483855afa5050505050565b828054620002469062000557565b90600052602060002090601f0160209004810192826200026a5760008555620002b6565b82601f106200028557805160ff1916838001178555620002b6565b82800160010185558215620002b6579182015b82811115620002b557825182559160200191906001019062000298565b5b509050620002c59190620002c9565b5090565b5b80821115620002e4576000816000905550600101620002ca565b5090565b6000620002ff620002f9846200049b565b62000472565b9050828152602081018484840111156200031857600080fd5b6200032584828562000521565b509392505050565b6000815190506200033e8162000632565b92915050565b600082601f8301126200035657600080fd5b815162000368848260208601620002e8565b91505092915050565b600080600080608085870312156200038857600080fd5b600085015167ffffffffffffffff811115620003a357600080fd5b620003b18782880162000344565b9450506020620003c4878288016200032d565b9350506040620003d7878288016200032d565b9250506060620003ea878288016200032d565b91505092959194509250565b60006200040382620004d1565b6200040f8185620004dc565b93506200042181856020860162000521565b6200042c8162000621565b840191505092915050565b60006040820190508181036000830152620004538185620003f6565b90508181036020830152620004698184620003f6565b90509392505050565b60006200047e62000491565b90506200048c82826200058d565b919050565b6000604051905090565b600067ffffffffffffffff821115620004b957620004b8620005f2565b5b620004c48262000621565b9050602081019050919050565b600081519050919050565b600082825260208201905092915050565b6000620004fa8262000501565b9050919050565b600073ffffffffffffffffffffffffffffffffffffffff82169050919050565b60005b838110156200054157808201518184015260208101905062000524565b8381111562000551576000848401525b50505050565b600060028204905060018216806200057057607f821691505b60208210811415620005875762000586620005c3565b5b50919050565b620005988262000621565b810181811067ffffffffffffffff82111715620005ba57620005b9620005f2565b5b80604052505050565b7f4e487b7100000000000000000000000000000000000000000000000000000000600052602260045260246000fd5b7f4e487b7100000000000000000000000000000000000000000000000000000000600052604160045260246000fd5b6000601f19601f8301169050919050565b6200063d81620004ed565b81146200064957600080fd5b50565b610f6c806200065c6000396000f3fe60806040526004361061009c5760003560e01c806394047ad41161006457806394047ad414610189578063a64e73a2146101b4578063cf9238c8146101df578063d53cb71814610208578063deccb09114610233578063ea3e7cef1461023d5761009c565b8063131af500146100a15780633c0514f1146100cc57806353b8e2781461010a578063841a49b3146101355780638d6d49251461015e575b600080fd5b3480156100ad57600080fd5b506100b6610268565b6040516100c39190610b69565b60405180910390f35b3480156100d857600080fd5b506100f360048036038101906100ee9190610980565b6102f6565b604051610101929190610b40565b60405180910390f35b34801561011657600080fd5b5061011f610327565b60405161012c9190610af5565b60405180910390f35b34801561014157600080fd5b5061015c60048036038101906101579190610980565b61034d565b005b34801561016a57600080fd5b50610173610492565b6040516101809190610af5565b60405180910390f35b34801561019557600080fd5b5061019e6104b8565b6040516101ab9190610c22565b60405180910390f35b3480156101c057600080fd5b506101c96104c9565b6040516101d69190610c22565b60405180910390f35b3480156101eb57600080fd5b50610206600480360381019061020191906109a9565b6104d5565b005b34801561021457600080fd5b5061021d610575565b60405161022a9190610af5565b60405180910390f35b61023b61059b565b005b34801561024957600080fd5b50610252610637565b60405161025f9190610af5565b60405180910390f35b6000805461027590610d52565b80601f01602080910402602001604051908101604052809291908181526020018280546102a190610d52565b80156102ee5780601f106102c3576101008083540402835291602001916102ee565b820191906000526020600020905b8154815290600101906020018083116102d157829003601f168201915b505050505081565b60016020528060005260406000206000915090508060000160009054906101000a900460ff16908060010154905082565b600560009054906101000a900473ffffffffffffffffffffffffffffffffffffffff1681565b600280811115610386577f4e487b7100000000000000000000000000000000000000000000000000000000600052602160045260246000fd5b600160003373ffffffffffffffffffffffffffffffffffffffff1673ffffffffffffffffffffffffffffffffffffffff16815260200190815260200160002060000160009054906101000a900460ff16600281111561040e577f4e487b7100000000000000000000000000000000000000000000000000000000600052602160045260246000fd5b1461044e576040517f08c379a000000000000000000000000000000000000000000000000000000000815260040161044590610bc2565b60405180910390fd5b80600560006101000a81548173ffffffffffffffffffffffffffffffffffffffff021916908373ffffffffffffffffffffffffffffffffffffffff16021790555050565b600360009054906101000a900473ffffffffffffffffffffffffffffffffffffffff1681565b60006104c460066106f9565b905090565b60068060000154905081565b600260009054906101000a900473ffffffffffffffffffffffffffffffffffffffff1673ffffffffffffffffffffffffffffffffffffffff163373ffffffffffffffffffffffffffffffffffffffff1614610565576040517f08c379a000000000000000000000000000000000000000000000000000000000815260040161055c90610be2565b60405180910390fd5b61057182600283610707565b5050565b600460009054906101000a900473ffffffffffffffffffffffffffffffffffffffff1681565b600360009054906101000a900473ffffffffffffffffffffffffffffffffffffffff1673ffffffffffffffffffffffffffffffffffffffff163373ffffffffffffffffffffffffffffffffffffffff161461062b576040517f08c379a000000000000000000000000000000000000000000000000000000000815260040161062290610c02565b60405180910390fd5b61063560066108af565b565b600260009054906101000a900473ffffffffffffffffffffffffffffffffffffffff1681565b6106f58282604051602401610673929190610b8b565b6040516020818303038152906040527f4b5c4277000000000000000000000000000000000000000000000000000000007bffffffffffffffffffffffffffffffffffffffffffffffffffffffff19166020820180517bffffffffffffffffffffffffffffffffffffffffffffffffffffffff83818316178352505050506108c5565b5050565b600081600001549050919050565b6000600460009054906101000a900473ffffffffffffffffffffffffffffffffffffffff1673ffffffffffffffffffffffffffffffffffffffff16633d02d0c985846040518363ffffffff1660e01b8152600401610766929190610b10565b602060405180830381600087803b15801561078057600080fd5b505af1158015610794573d6000803e3d6000fd5b505050506040513d601f19601f820116820180604052508101906107b891906109fd565b905060405180604001604052808460028111156107fe577f4e487b7100000000000000000000000000000000000000000000000000000000600052602160045260246000fd5b815260200182815250600160008673ffffffffffffffffffffffffffffffffffffffff1673ffffffffffffffffffffffffffffffffffffffff16815260200190815260200160002060008201518160000160006101000a81548160ff02191690836002811115610897577f4e487b7100000000000000000000000000000000000000000000000000000000600052602160045260246000fd5b02179055506020820151816001015590505050505050565b6001816000016000828254019250508190555050565b60008151905060006a636f6e736f6c652e6c6f679050602083016000808483855afa5050505050565b60006109016108fc84610c62565b610c3d565b90508281526020810184848401111561091957600080fd5b610924848285610d10565b509392505050565b60008135905061093b81610f08565b92915050565b600082601f83011261095257600080fd5b81356109628482602086016108ee565b91505092915050565b60008151905061097a81610f1f565b92915050565b60006020828403121561099257600080fd5b60006109a08482850161092c565b91505092915050565b600080604083850312156109bc57600080fd5b60006109ca8582860161092c565b925050602083013567ffffffffffffffff8111156109e757600080fd5b6109f385828601610941565b9150509250929050565b600060208284031215610a0f57600080fd5b6000610a1d8482850161096b565b91505092915050565b610a2f81610caf565b82525050565b610a3e81610cfe565b82525050565b6000610a4f82610c93565b610a598185610c9e565b9350610a69818560208601610d1f565b610a7281610e42565b840191505092915050565b6000610a8a601783610c9e565b9150610a9582610e53565b602082019050919050565b6000610aad601b83610c9e565b9150610ab882610e7c565b602082019050919050565b6000610ad0602d83610c9e565b9150610adb82610ea5565b604082019050919050565b610aef81610cf4565b82525050565b6000602082019050610b0a6000830184610a26565b92915050565b6000604082019050610b256000830185610a26565b8181036020830152610b378184610a44565b90509392505050565b6000604082019050610b556000830185610a35565b610b626020830184610ae6565b9392505050565b60006020820190508181036000830152610b838184610a44565b905092915050565b60006040820190508181036000830152610ba58185610a44565b90508181036020830152610bb98184610a44565b90509392505050565b60006020820190508181036000830152610bdb81610a7d565b9050919050565b60006020820190508181036000830152610bfb81610aa0565b9050919050565b60006020820190508181036000830152610c1b81610ac3565b9050919050565b6000602082019050610c376000830184610ae6565b92915050565b6000610c47610c58565b9050610c538282610d84565b919050565b6000604051905090565b600067ffffffffffffffff821115610c7d57610c7c610e13565b5b610c8682610e42565b9050602081019050919050565b600081519050919050565b600082825260208201905092915050565b6000610cba82610cd4565b9050919050565b6000819050610ccf82610ef4565b919050565b600073ffffffffffffffffffffffffffffffffffffffff82169050919050565b6000819050919050565b6000610d0982610cc1565b9050919050565b82818337600083830152505050565b60005b83811015610d3d578082015181840152602081019050610d22565b83811115610d4c576000848401525b50505050565b60006002820490506001821680610d6a57607f821691505b60208210811415610d7e57610d7d610de4565b5b50919050565b610d8d82610e42565b810181811067ffffffffffffffff82111715610dac57610dab610e13565b5b80604052505050565b7f4e487b7100000000000000000000000000000000000000000000000000000000600052602160045260246000fd5b7f4e487b7100000000000000000000000000000000000000000000000000000000600052602260045260246000fd5b7f4e487b7100000000000000000000000000000000000000000000000000000000600052604160045260246000fd5b6000601f19601f8301169050919050565b7f47656e2070726976696c65676573207265717569726564000000000000000000600082015250565b7f4f6e6c792072656769737472792063616e2063616c6c20746869730000000000600082015250565b7f4f6e6c7920626164676520746f6b656e2063616e20696e6372656d656e74206460008201527f656d6572697420706f696e747300000000000000000000000000000000000000602082015250565b60038110610f0557610f04610db5565b5b50565b610f1181610caf565b8114610f1c57600080fd5b50565b610f2881610cf4565b8114610f3357600080fd5b5056fea264697066735822122015660b961835ac8f045eed851fdbbaee9941b0a8cf8893e4d5287af7e8e74d6164736f6c63430008040033a2646970667358221220ee545507cafce3d4dcde9decd88c9c93f4b1df104a0ad27bc71043da36b1f2c964736f6c6343000804003360806040523480156200001157600080fd5b5060405162003291380380620032918339818101604052810190620000379190620001e6565b6040518060400160405280600681526020017f42616467652e00000000000000000000000000000000000000000000000000008152506040518060400160405280600581526020017f42414447450000000000000000000000000000000000000000000000000000008152508160009080519060200190620000bb9291906200011f565b508060019080519060200190620000d49291906200011f565b50505080600960006101000a81548173ffffffffffffffffffffffffffffffffffffffff021916908373ffffffffffffffffffffffffffffffffffffffff16021790555050620002c5565b8280546200012d9062000246565b90600052602060002090601f0160209004810192826200015157600085556200019d565b82601f106200016c57805160ff19168380011785556200019d565b828001600101855582156200019d579182015b828111156200019c5782518255916020019190600101906200017f565b5b509050620001ac9190620001b0565b5090565b5b80821115620001cb576000816000905550600101620001b1565b5090565b600081519050620001e081620002ab565b92915050565b600060208284031215620001f957600080fd5b60006200020984828501620001cf565b91505092915050565b60006200021f8262000226565b9050919050565b600073ffffffffffffffffffffffffffffffffffffffff82169050919050565b600060028204905060018216806200025f57607f821691505b602082108114156200027657620002756200027c565b5b50919050565b7f4e487b7100000000000000000000000000000000000000000000000000000000600052602260045260246000fd5b620002b68162000212565b8114620002c257600080fd5b50565b612fbc80620002d56000396000f3fe6080604052600436106100f35760003560e01c806370a082311161008a578063b88d4fde11610059578063b88d4fde1461031e578063c87b56dd14610347578063e985e9c514610384578063ea3e7cef146103c1576100f3565b806370a082311461027157806395d89b41146102ae578063a1169605146102d9578063a22cb465146102f5576100f3565b806323b872dd116100c657806323b872dd146101c657806342842e0e146101ef5780636352211e146102185780636b2bafc814610255576100f3565b806301ffc9a7146100f857806306fdde0314610135578063081812fc14610160578063095ea7b31461019d575b600080fd5b34801561010457600080fd5b5061011f600480360381019061011a9190611fb4565b6103ec565b60405161012c9190612429565b60405180910390f35b34801561014157600080fd5b5061014a6104ce565b6040516101579190612444565b60405180910390f35b34801561016c57600080fd5b5061018760048036038101906101829190612006565b610560565b6040516101949190612399565b60405180910390f35b3480156101a957600080fd5b506101c460048036038101906101bf9190611f4f565b6105e5565b005b3480156101d257600080fd5b506101ed60048036038101906101e89190611df5565b6106fd565b005b3480156101fb57600080fd5b5061021660048036038101906102119190611df5565b61075d565b005b34801561022457600080fd5b5061023f600480360381019061023a9190612006565b61077d565b60405161024c9190612399565b60405180910390f35b61026f600480360381019061026a9190611efb565b61082f565b005b34801561027d57600080fd5b5061029860048036038101906102939190611d90565b6109ab565b6040516102a591906126a6565b60405180910390f35b3480156102ba57600080fd5b506102c3610a63565b6040516102d09190612444565b60405180910390f35b6102f360048036038101906102ee9190612006565b610af5565b005b34801561030157600080fd5b5061031c60048036038101906103179190611ebf565b610c75565b005b34801561032a57600080fd5b5061034560048036038101906103409190611e44565b610df6565b005b34801561035357600080fd5b5061036e60048036038101906103699190612006565b610e58565b60405161037b9190612444565b60405180910390f35b34801561039057600080fd5b506103ab60048036038101906103a69190611db9565b610faa565b6040516103b89190612429565b60405180910390f35b3480156103cd57600080fd5b506103d661103e565b6040516103e39190612399565b60405180910390f35b60007f80ac58cd000000000000000000000000000000000000000000000000000000007bffffffffffffffffffffffffffffffffffffffffffffffffffffffff1916827bffffffffffffffffffffffffffffffffffffffffffffffffffffffff191614806104b757507f5b5e139f000000000000000000000000000000000000000000000000000000007bffffffffffffffffffffffffffffffffffffffffffffffffffffffff1916827bffffffffffffffffffffffffffffffffffffffffffffffffffffffff1916145b806104c757506104c682611064565b5b9050919050565b6060600080546104dd906128fc565b80601f0160208091040260200160405190810160405280929190818152602001828054610509906128fc565b80156105565780601f1061052b57610100808354040283529160200191610556565b820191906000526020600020905b81548152906001019060200180831161053957829003601f168201915b5050505050905090565b600061056b826110ce565b6105aa576040517f08c379a00000000000000000000000000000000000000000000000000000000081526004016105a1906125c6565b60405180910390fd5b6004600083815260200190815260200160002060009054906101000a900473ffffffffffffffffffffffffffffffffffffffff169050919050565b60006105f08261077d565b90508073ffffffffffffffffffffffffffffffffffffffff168373ffffffffffffffffffffffffffffffffffffffff161415610661576040517f08c379a000000000000000000000000000000000000000000000000000000000815260040161065890612606565b60405180910390fd5b8073ffffffffffffffffffffffffffffffffffffffff1661068061113a565b73ffffffffffffffffffffffffffffffffffffffff1614806106af57506106ae816106a961113a565b610faa565b5b6106ee576040517f08c379a00000000000000000000000000000000000000000000000000000000081526004016106e5906124e6565b60405180910390fd5b6106f88383611142565b505050565b61070e61070861113a565b826111fb565b61074d576040517f08c379a000000000000000000000000000000000000000000000000000000000815260040161074490612646565b60405180910390fd5b6107588383836112d9565b505050565b61077883838360405180602001604052806000815250610df6565b505050565b6000806002600084815260200190815260200160002060009054906101000a900473ffffffffffffffffffffffffffffffffffffffff169050600073ffffffffffffffffffffffffffffffffffffffff168173ffffffffffffffffffffffffffffffffffffffff161415610826576040517f08c379a000000000000000000000000000000000000000000000000000000000815260040161081d90612526565b60405180910390fd5b80915050919050565b6000600960009054906101000a900473ffffffffffffffffffffffffffffffffffffffff1673ffffffffffffffffffffffffffffffffffffffff1663c3c5a547336040518263ffffffff1660e01b815260040161088c9190612399565b60206040518083038186803b1580156108a457600080fd5b505afa1580156108b8573d6000803e3d6000fd5b505050506040513d601f19601f820116820180604052508101906108dc9190611f8b565b90508061091e576040517f08c379a000000000000000000000000000000000000000000000000000000000815260040161091590612626565b60405180910390fd5b610928600761131f565b60006109346007611335565b90506109408482611343565b61094a8184611511565b808473ffffffffffffffffffffffffffffffffffffffff163373ffffffffffffffffffffffffffffffffffffffff167fddf252ad1be2c89b69c2b068fc378daa952ba7f163c4a11628f55a4df523b3ef60405160405180910390a450505050565b60008073ffffffffffffffffffffffffffffffffffffffff168273ffffffffffffffffffffffffffffffffffffffff161415610a1c576040517f08c379a0000000000000000000000000000000000000000000000000000000008152600401610a1390612506565b60405180910390fd5b600360008373ffffffffffffffffffffffffffffffffffffffff1673ffffffffffffffffffffffffffffffffffffffff168152602001908152602001600020549050919050565b606060018054610a72906128fc565b80601f0160208091040260200160405190810160405280929190818152602001828054610a9e906128fc565b8015610aeb5780601f10610ac057610100808354040283529160200191610aeb565b820191906000526020600020905b815481529060010190602001808311610ace57829003601f168201915b5050505050905090565b610afe8161077d565b73ffffffffffffffffffffffffffffffffffffffff163373ffffffffffffffffffffffffffffffffffffffff1614610b6b576040517f08c379a0000000000000000000000000000000000000000000000000000000008152600401610b6290612666565b60405180910390fd5b62093a80600860008381526020019081526020016000205442610b8e9190612812565b1115610bcf576040517f08c379a0000000000000000000000000000000000000000000000000000000008152600401610bc690612686565b60405180910390fd5b610bd881611585565b3373ffffffffffffffffffffffffffffffffffffffff1663deccb0916040518163ffffffff1660e01b8152600401600060405180830381600087803b158015610c2057600080fd5b505af1158015610c34573d6000803e3d6000fd5b505050507f74b876a3976ec73d04754387c8e4a73c432b83d4ee32a082f0767d877c4e8bf2336001604051610c6a929190612400565b60405180910390a150565b610c7d61113a565b73ffffffffffffffffffffffffffffffffffffffff168273ffffffffffffffffffffffffffffffffffffffff161415610ceb576040517f08c379a0000000000000000000000000000000000000000000000000000000008152600401610ce2906124a6565b60405180910390fd5b8060056000610cf861113a565b73ffffffffffffffffffffffffffffffffffffffff1673ffffffffffffffffffffffffffffffffffffffff16815260200190815260200160002060008473ffffffffffffffffffffffffffffffffffffffff1673ffffffffffffffffffffffffffffffffffffffff16815260200190815260200160002060006101000a81548160ff0219169083151502179055508173ffffffffffffffffffffffffffffffffffffffff16610da561113a565b73ffffffffffffffffffffffffffffffffffffffff167f17307eab39ab6107e8899845ad3d59bd9653f200f220920489ca2b5937696c3183604051610dea9190612429565b60405180910390a35050565b610e07610e0161113a565b836111fb565b610e46576040517f08c379a0000000000000000000000000000000000000000000000000000000008152600401610e3d90612646565b60405180910390fd5b610e52848484846115d8565b50505050565b6060610e63826110ce565b610ea2576040517f08c379a0000000000000000000000000000000000000000000000000000000008152600401610e99906125a6565b60405180910390fd5b6000600660008481526020019081526020016000208054610ec2906128fc565b80601f0160208091040260200160405190810160405280929190818152602001828054610eee906128fc565b8015610f3b5780601f10610f1057610100808354040283529160200191610f3b565b820191906000526020600020905b815481529060010190602001808311610f1e57829003601f168201915b505050505090506000610f4c611634565b9050600081511415610f62578192505050610fa5565b600082511115610f97578082604051602001610f7f929190612375565b60405160208183030381529060405292505050610fa5565b610fa08461164b565b925050505b919050565b6000600560008473ffffffffffffffffffffffffffffffffffffffff1673ffffffffffffffffffffffffffffffffffffffff16815260200190815260200160002060008373ffffffffffffffffffffffffffffffffffffffff1673ffffffffffffffffffffffffffffffffffffffff16815260200190815260200160002060009054906101000a900460ff16905092915050565b600960009054906101000a900473ffffffffffffffffffffffffffffffffffffffff1681565b60007f01ffc9a7000000000000000000000000000000000000000000000000000000007bffffffffffffffffffffffffffffffffffffffffffffffffffffffff1916827bffffffffffffffffffffffffffffffffffffffffffffffffffffffff1916149050919050565b60008073ffffffffffffffffffffffffffffffffffffffff166002600084815260200190815260200160002060009054906101000a900473ffffffffffffffffffffffffffffffffffffffff1673ffffffffffffffffffffffffffffffffffffffff1614159050919050565b600033905090565b816004600083815260200190815260200160002060006101000a81548173ffffffffffffffffffffffffffffffffffffffff021916908373ffffffffffffffffffffffffffffffffffffffff160217905550808273ffffffffffffffffffffffffffffffffffffffff166111b58361077d565b73ffffffffffffffffffffffffffffffffffffffff167f8c5be1e5ebec7d5bd14f71427d1e84f3dd0314c0f7b2291e5b200ac8c7c3b92560405160405180910390a45050565b6000611206826110ce565b611245576040517f08c379a000000000000000000000000000000000000000000000000000000000815260040161123c906124c6565b60405180910390fd5b60006112508361077d565b90508073ffffffffffffffffffffffffffffffffffffffff168473ffffffffffffffffffffffffffffffffffffffff1614806112bf57508373ffffffffffffffffffffffffffffffffffffffff166112a784610560565b73ffffffffffffffffffffffffffffffffffffffff16145b806112d057506112cf8185610faa565b5b91505092915050565b600061131a576040517f08c379a000000000000000000000000000000000000000000000000000000000815260040161131190612566565b60405180910390fd5b505050565b6001816000016000828254019250508190555050565b600081600001549050919050565b600073ffffffffffffffffffffffffffffffffffffffff168273ffffffffffffffffffffffffffffffffffffffff1614156113b3576040517f08c379a00000000000000000000000000000000000000000000000000000000081526004016113aa90612586565b60405180910390fd5b6113bc816110ce565b156113fc576040517f08c379a00000000000000000000000000000000000000000000000000000000081526004016113f390612486565b60405180910390fd5b611408600083836116f2565b6001600360008473ffffffffffffffffffffffffffffffffffffffff1673ffffffffffffffffffffffffffffffffffffffff1681526020019081526020016000206000828254611458919061278b565b92505081905550816002600083815260200190815260200160002060006101000a81548173ffffffffffffffffffffffffffffffffffffffff021916908373ffffffffffffffffffffffffffffffffffffffff160217905550808273ffffffffffffffffffffffffffffffffffffffff16600073ffffffffffffffffffffffffffffffffffffffff167fddf252ad1be2c89b69c2b068fc378daa952ba7f163c4a11628f55a4df523b3ef60405160405180910390a45050565b61151a826110ce565b611559576040517f08c379a000000000000000000000000000000000000000000000000000000000815260040161155090612546565b60405180910390fd5b80600660008481526020019081526020016000209080519060200190611580929190611b5f565b505050565b61158e816116f7565b60006006600083815260200190815260200160002080546115ae906128fc565b9050146115d5576006600082815260200190815260200160002060006115d49190611be5565b5b50565b6115e38484846112d9565b6115ef84848484611808565b61162e576040517f08c379a000000000000000000000000000000000000000000000000000000000815260040161162590612466565b60405180910390fd5b50505050565b606060405180602001604052806000815250905090565b6060611656826110ce565b611695576040517f08c379a000000000000000000000000000000000000000000000000000000000815260040161168c906125e6565b60405180910390fd5b600061169f611634565b905060008151116116bf57604051806020016040528060008152506116ea565b806116c98461199f565b6040516020016116da929190612375565b6040516020818303038152906040525b915050919050565b505050565b60006117028261077d565b9050611710816000846116f2565b61171b600083611142565b6001600360008373ffffffffffffffffffffffffffffffffffffffff1673ffffffffffffffffffffffffffffffffffffffff168152602001908152602001600020600082825461176b9190612812565b925050819055506002600083815260200190815260200160002060006101000a81549073ffffffffffffffffffffffffffffffffffffffff021916905581600073ffffffffffffffffffffffffffffffffffffffff168273ffffffffffffffffffffffffffffffffffffffff167fddf252ad1be2c89b69c2b068fc378daa952ba7f163c4a11628f55a4df523b3ef60405160405180910390a45050565b60006118298473ffffffffffffffffffffffffffffffffffffffff16611b4c565b15611992578373ffffffffffffffffffffffffffffffffffffffff1663150b7a0261185261113a565b8786866040518563ffffffff1660e01b815260040161187494939291906123b4565b602060405180830381600087803b15801561188e57600080fd5b505af19250505080156118bf57506040513d601f19601f820116820180604052508101906118bc9190611fdd565b60015b611942573d80600081146118ef576040519150601f19603f3d011682016040523d82523d6000602084013e6118f4565b606091505b5060008151141561193a576040517f08c379a000000000000000000000000000000000000000000000000000000000815260040161193190612466565b60405180910390fd5b805181602001fd5b63150b7a0260e01b7bffffffffffffffffffffffffffffffffffffffffffffffffffffffff1916817bffffffffffffffffffffffffffffffffffffffffffffffffffffffff191614915050611997565b600190505b949350505050565b606060008214156119e7576040518060400160405280600181526020017f30000000000000000000000000000000000000000000000000000000000000008152509050611b47565b600082905060005b60008214611a19578080611a029061295f565b915050600a82611a1291906127e1565b91506119ef565b60008167ffffffffffffffff811115611a5b577f4e487b7100000000000000000000000000000000000000000000000000000000600052604160045260246000fd5b6040519080825280601f01601f191660200182016040528015611a8d5781602001600182028036833780820191505090505b5090505b60008514611b4057600182611aa69190612812565b9150600a85611ab591906129a8565b6030611ac1919061278b565b60f81b818381518110611afd577f4e487b7100000000000000000000000000000000000000000000000000000000600052603260045260246000fd5b60200101907effffffffffffffffffffffffffffffffffffffffffffffffffffffffffffff1916908160001a905350600a85611b3991906127e1565b9450611a91565b8093505050505b919050565b600080823b905060008111915050919050565b828054611b6b906128fc565b90600052602060002090601f016020900481019282611b8d5760008555611bd4565b82601f10611ba657805160ff1916838001178555611bd4565b82800160010185558215611bd4579182015b82811115611bd3578251825591602001919060010190611bb8565b5b509050611be19190611c25565b5090565b508054611bf1906128fc565b6000825580601f10611c035750611c22565b601f016020900490600052602060002090810190611c219190611c25565b5b50565b5b80821115611c3e576000816000905550600101611c26565b5090565b6000611c55611c50846126e6565b6126c1565b905082815260208101848484011115611c6d57600080fd5b611c788482856128ba565b509392505050565b6000611c93611c8e84612717565b6126c1565b905082815260208101848484011115611cab57600080fd5b611cb68482856128ba565b509392505050565b600081359050611ccd81612f2a565b92915050565b600081359050611ce281612f41565b92915050565b600081519050611cf781612f41565b92915050565b600081359050611d0c81612f58565b92915050565b600081519050611d2181612f58565b92915050565b600082601f830112611d3857600080fd5b8135611d48848260208601611c42565b91505092915050565b600082601f830112611d6257600080fd5b8135611d72848260208601611c80565b91505092915050565b600081359050611d8a81612f6f565b92915050565b600060208284031215611da257600080fd5b6000611db084828501611cbe565b91505092915050565b60008060408385031215611dcc57600080fd5b6000611dda85828601611cbe565b9250506020611deb85828601611cbe565b9150509250929050565b600080600060608486031215611e0a57600080fd5b6000611e1886828701611cbe565b9350506020611e2986828701611cbe565b9250506040611e3a86828701611d7b565b9150509250925092565b60008060008060808587031215611e5a57600080fd5b6000611e6887828801611cbe565b9450506020611e7987828801611cbe565b9350506040611e8a87828801611d7b565b925050606085013567ffffffffffffffff811115611ea757600080fd5b611eb387828801611d27565b91505092959194509250565b60008060408385031215611ed257600080fd5b6000611ee085828601611cbe565b9250506020611ef185828601611cd3565b9150509250929050565b60008060408385031215611f0e57600080fd5b6000611f1c85828601611cbe565b925050602083013567ffffffffffffffff811115611f3957600080fd5b611f4585828601611d51565b9150509250929050565b60008060408385031215611f6257600080fd5b6000611f7085828601611cbe565b9250506020611f8185828601611d7b565b9150509250929050565b600060208284031215611f9d57600080fd5b6000611fab84828501611ce8565b91505092915050565b600060208284031215611fc657600080fd5b6000611fd484828501611cfd565b91505092915050565b600060208284031215611fef57600080fd5b6000611ffd84828501611d12565b91505092915050565b60006020828403121561201857600080fd5b600061202684828501611d7b565b91505092915050565b61203881612846565b82525050565b61204781612858565b82525050565b600061205882612748565b612062818561275e565b93506120728185602086016128c9565b61207b81612a95565b840191505092915050565b600061209182612753565b61209b818561276f565b93506120ab8185602086016128c9565b6120b481612a95565b840191505092915050565b60006120ca82612753565b6120d48185612780565b93506120e48185602086016128c9565b80840191505092915050565b60006120fd60328361276f565b915061210882612aa6565b604082019050919050565b6000612120601c8361276f565b915061212b82612af5565b602082019050919050565b600061214360198361276f565b915061214e82612b1e565b602082019050919050565b6000612166602c8361276f565b915061217182612b47565b604082019050919050565b600061218960388361276f565b915061219482612b96565b604082019050919050565b60006121ac602a8361276f565b91506121b782612be5565b604082019050919050565b60006121cf60298361276f565b91506121da82612c34565b604082019050919050565b60006121f2602e8361276f565b91506121fd82612c83565b604082019050919050565b600061221560148361276f565b915061222082612cd2565b602082019050919050565b600061223860208361276f565b915061224382612cfb565b602082019050919050565b600061225b60318361276f565b915061226682612d24565b604082019050919050565b600061227e602c8361276f565b915061228982612d73565b604082019050919050565b60006122a1602f8361276f565b91506122ac82612dc2565b604082019050919050565b60006122c460218361276f565b91506122cf82612e11565b604082019050919050565b60006122e760188361276f565b91506122f282612e60565b602082019050919050565b600061230a60318361276f565b915061231582612e89565b604082019050919050565b600061232d60198361276f565b915061233882612ed8565b602082019050919050565b600061235060188361276f565b915061235b82612f01565b602082019050919050565b61236f816128b0565b82525050565b600061238182856120bf565b915061238d82846120bf565b91508190509392505050565b60006020820190506123ae600083018461202f565b92915050565b60006080820190506123c9600083018761202f565b6123d6602083018661202f565b6123e36040830185612366565b81810360608301526123f5818461204d565b905095945050505050565b6000604082019050612415600083018561202f565b612422602083018461203e565b9392505050565b600060208201905061243e600083018461203e565b92915050565b6000602082019050818103600083015261245e8184612086565b905092915050565b6000602082019050818103600083015261247f816120f0565b9050919050565b6000602082019050818103600083015261249f81612113565b9050919050565b600060208201905081810360008301526124bf81612136565b9050919050565b600060208201905081810360008301526124df81612159565b9050919050565b600060208201905081810360008301526124ff8161217c565b9050919050565b6000602082019050818103600083015261251f8161219f565b9050919050565b6000602082019050818103600083015261253f816121c2565b9050919050565b6000602082019050818103600083015261255f816121e5565b9050919050565b6000602082019050818103600083015261257f81612208565b9050919050565b6000602082019050818103600083015261259f8161222b565b9050919050565b600060208201905081810360008301526125bf8161224e565b9050919050565b600060208201905081810360008301526125df81612271565b9050919050565b600060208201905081810360008301526125ff81612294565b9050919050565b6000602082019050818103600083015261261f816122b7565b9050919050565b6000602082019050818103600083015261263f816122da565b9050919050565b6000602082019050818103600083015261265f816122fd565b9050919050565b6000602082019050818103600083015261267f81612320565b9050919050565b6000602082019050818103600083015261269f81612343565b9050919050565b60006020820190506126bb6000830184612366565b92915050565b60006126cb6126dc565b90506126d7828261292e565b919050565b6000604051905090565b600067ffffffffffffffff82111561270157612700612a66565b5b61270a82612a95565b9050602081019050919050565b600067ffffffffffffffff82111561273257612731612a66565b5b61273b82612a95565b9050602081019050919050565b600081519050919050565b600081519050919050565b600082825260208201905092915050565b600082825260208201905092915050565b600081905092915050565b6000612796826128b0565b91506127a1836128b0565b9250827fffffffffffffffffffffffffffffffffffffffffffffffffffffffffffffffff038211156127d6576127d56129d9565b5b828201905092915050565b60006127ec826128b0565b91506127f7836128b0565b92508261280757612806612a08565b5b828204905092915050565b600061281d826128b0565b9150612828836128b0565b92508282101561283b5761283a6129d9565b5b828203905092915050565b600061285182612890565b9050919050565b60008115159050919050565b60007fffffffff0000000000000000000000000000000000000000000000000000000082169050919050565b600073ffffffffffffffffffffffffffffffffffffffff82169050919050565b6000819050919050565b82818337600083830152505050565b60005b838110156128e75780820151818401526020810190506128cc565b838111156128f6576000848401525b50505050565b6000600282049050600182168061291457607f821691505b6020821081141561292857612927612a37565b5b50919050565b61293782612a95565b810181811067ffffffffffffffff8211171561295657612955612a66565b5b80604052505050565b600061296a826128b0565b91507fffffffffffffffffffffffffffffffffffffffffffffffffffffffffffffffff82141561299d5761299c6129d9565b5b600182019050919050565b60006129b3826128b0565b91506129be836128b0565b9250826129ce576129cd612a08565b5b828206905092915050565b7f4e487b7100000000000000000000000000000000000000000000000000000000600052601160045260246000fd5b7f4e487b7100000000000000000000000000000000000000000000000000000000600052601260045260246000fd5b7f4e487b7100000000000000000000000000000000000000000000000000000000600052602260045260246000fd5b7f4e487b7100000000000000000000000000000000000000000000000000000000600052604160045260246000fd5b6000601f19601f8301169050919050565b7f4552433732313a207472616e7366657220746f206e6f6e20455243373231526560008201527f63656976657220696d706c656d656e7465720000000000000000000000000000602082015250565b7f4552433732313a20746f6b656e20616c7265616479206d696e74656400000000600082015250565b7f4552433732313a20617070726f766520746f2063616c6c657200000000000000600082015250565b7f4552433732313a206f70657261746f7220717565727920666f72206e6f6e657860008201527f697374656e7420746f6b656e0000000000000000000000000000000000000000602082015250565b7f4552433732313a20617070726f76652063616c6c6572206973206e6f74206f7760008201527f6e6572206e6f7220617070726f76656420666f7220616c6c0000000000000000602082015250565b7f4552433732313a2062616c616e636520717565727920666f7220746865207a6560008201527f726f206164647265737300000000000000000000000000000000000000000000602082015250565b7f4552433732313a206f776e657220717565727920666f72206e6f6e657869737460008201527f656e7420746f6b656e0000000000000000000000000000000000000000000000602082015250565b7f45524337323155524953746f726167653a2055524920736574206f66206e6f6e60008201527f6578697374656e7420746f6b656e000000000000000000000000000000000000602082015250565b7f5472616e73666572206e6f7420616c6c6f776564000000000000000000000000600082015250565b7f4552433732313a206d696e7420746f20746865207a65726f2061646472657373600082015250565b7f45524337323155524953746f726167653a2055524920717565727920666f722060008201527f6e6f6e6578697374656e7420746f6b656e000000000000000000000000000000602082015250565b7f4552433732313a20617070726f76656420717565727920666f72206e6f6e657860008201527f697374656e7420746f6b656e0000000000000000000000000000000000000000602082015250565b7f4552433732314d657461646174613a2055524920717565727920666f72206e6f60008201527f6e6578697374656e7420746f6b656e0000000000000000000000000000000000602082015250565b7f4552433732313a20617070726f76616c20746f2063757272656e74206f776e6560008201527f7200000000000000000000000000000000000000000000000000000000000000602082015250565b7f456e74697479206973206e6f7420726567697374657265640000000000000000600082015250565b7f4552433732313a207472616e736665722063616c6c6572206973206e6f74206f60008201527f776e6572206e6f7220617070726f766564000000000000000000000000000000602082015250565b7f4f6e6c79206f776e65722063616e206275726e20626164676500000000000000600082015250565b7f4e6f7420616c6c6f776564206166746572203720646179730000000000000000600082015250565b612f3381612846565b8114612f3e57600080fd5b50565b612f4a81612858565b8114612f5557600080fd5b50565b612f6181612864565b8114612f6c57600080fd5b50565b612f78816128b0565b8114612f8357600080fd5b5056fea2646970667358221220a3de02d6e2c5a4782d20fae02b816e11e65026430292fd51d978a2b2ba2789ff64736f6c6343000804003360806040523480156200001157600080fd5b5060405162003029380380620030298339818101604052810190620000379190620001e6565b6040518060400160405280601681526020017f4261646765205065726d697373696f6e20546f6b656e000000000000000000008152506040518060400160405280600a81526020017f42414447455f5045524d000000000000000000000000000000000000000000008152508160009080519060200190620000bb9291906200011f565b508060019080519060200190620000d49291906200011f565b50505080600860006101000a81548173ffffffffffffffffffffffffffffffffffffffff021916908373ffffffffffffffffffffffffffffffffffffffff16021790555050620002c5565b8280546200012d9062000246565b90600052602060002090601f0160209004810192826200015157600085556200019d565b82601f106200016c57805160ff19168380011785556200019d565b828001600101855582156200019d579182015b828111156200019c5782518255916020019190600101906200017f565b5b509050620001ac9190620001b0565b5090565b5b80821115620001cb576000816000905550600101620001b1565b5090565b600081519050620001e081620002ab565b92915050565b600060208284031215620001f957600080fd5b60006200020984828501620001cf565b91505092915050565b60006200021f8262000226565b9050919050565b600073ffffffffffffffffffffffffffffffffffffffff82169050919050565b600060028204905060018216806200025f57607f821691505b602082108114156200027657620002756200027c565b5b50919050565b7f4e487b7100000000000000000000000000000000000000000000000000000000600052602260045260246000fd5b620002b68162000212565b8114620002c257600080fd5b50565b612d5480620002d56000396000f3fe608060405234801561001057600080fd5b50600436106100f55760003560e01c80636352211e11610097578063b88d4fde11610066578063b88d4fde14610296578063c87b56dd146102b2578063e985e9c5146102e2578063ea3e7cef14610312576100f5565b80636352211e146101fc57806370a082311461022c57806395d89b411461025c578063a22cb4651461027a576100f5565b8063095ea7b3116100d3578063095ea7b31461017857806323b872dd146101945780633d02d0c9146101b057806342842e0e146101e0576100f5565b806301ffc9a7146100fa57806306fdde031461012a578063081812fc14610148575b600080fd5b610114600480360381019061010f9190611d95565b610330565b60405161012191906121be565b60405180910390f35b610132610412565b60405161013f91906121d9565b60405180910390f35b610162600480360381019061015d9190611de7565b6104a4565b60405161016f9190612157565b60405180910390f35b610192600480360381019061018d9190611d30565b610529565b005b6101ae60048036038101906101a99190611bd6565b610641565b005b6101ca60048036038101906101c59190611cdc565b6106a1565b6040516101d7919061241b565b60405180910390f35b6101fa60048036038101906101f59190611bd6565b6107c8565b005b61021660048036038101906102119190611de7565b6107e8565b6040516102239190612157565b60405180910390f35b61024660048036038101906102419190611b71565b61089a565b604051610253919061241b565b60405180910390f35b610264610952565b60405161027191906121d9565b60405180910390f35b610294600480360381019061028f9190611ca0565b6109e4565b005b6102b060048036038101906102ab9190611c25565b610b65565b005b6102cc60048036038101906102c79190611de7565b610bc7565b6040516102d991906121d9565b60405180910390f35b6102fc60048036038101906102f79190611b9a565b610d19565b60405161030991906121be565b60405180910390f35b61031a610dad565b6040516103279190612157565b60405180910390f35b60007f80ac58cd000000000000000000000000000000000000000000000000000000007bffffffffffffffffffffffffffffffffffffffffffffffffffffffff1916827bffffffffffffffffffffffffffffffffffffffffffffffffffffffff191614806103fb57507f5b5e139f000000000000000000000000000000000000000000000000000000007bffffffffffffffffffffffffffffffffffffffffffffffffffffffff1916827bffffffffffffffffffffffffffffffffffffffffffffffffffffffff1916145b8061040b575061040a82610dd3565b5b9050919050565b60606000805461042190612671565b80601f016020809104026020016040519081016040528092919081815260200182805461044d90612671565b801561049a5780601f1061046f5761010080835404028352916020019161049a565b820191906000526020600020905b81548152906001019060200180831161047d57829003601f168201915b5050505050905090565b60006104af82610e3d565b6104ee576040517f08c379a00000000000000000000000000000000000000000000000000000000081526004016104e59061235b565b60405180910390fd5b6004600083815260200190815260200160002060009054906101000a900473ffffffffffffffffffffffffffffffffffffffff169050919050565b6000610534826107e8565b90508073ffffffffffffffffffffffffffffffffffffffff168373ffffffffffffffffffffffffffffffffffffffff1614156105a5576040517f08c379a000000000000000000000000000000000000000000000000000000000815260040161059c906123bb565b60405180910390fd5b8073ffffffffffffffffffffffffffffffffffffffff166105c4610ea9565b73ffffffffffffffffffffffffffffffffffffffff1614806105f357506105f2816105ed610ea9565b610d19565b5b610632576040517f08c379a00000000000000000000000000000000000000000000000000000000081526004016106299061229b565b60405180910390fd5b61063c8383610eb1565b505050565b61065261064c610ea9565b82610f6a565b610691576040517f08c379a0000000000000000000000000000000000000000000000000000000008152600401610688906123fb565b60405180910390fd5b61069c838383611048565b505050565b600080600860009054906101000a900473ffffffffffffffffffffffffffffffffffffffff1673ffffffffffffffffffffffffffffffffffffffff1663c3c5a547336040518263ffffffff1660e01b81526004016106ff9190612157565b60206040518083038186803b15801561071757600080fd5b505afa15801561072b573d6000803e3d6000fd5b505050506040513d601f19601f8201168201806040525081019061074f9190611d6c565b905080610791576040517f08c379a0000000000000000000000000000000000000000000000000000000008152600401610788906123db565b60405180910390fd5b61079b60076112a4565b60006107a760076112ba565b90506107b385826112c8565b6107bd8185611496565b809250505092915050565b6107e383838360405180602001604052806000815250610b65565b505050565b6000806002600084815260200190815260200160002060009054906101000a900473ffffffffffffffffffffffffffffffffffffffff169050600073ffffffffffffffffffffffffffffffffffffffff168173ffffffffffffffffffffffffffffffffffffffff161415610891576040517f08c379a0000000000000000000000000000000000000000000000000000000008152600401610888906122db565b60405180910390fd5b80915050919050565b60008073ffffffffffffffffffffffffffffffffffffffff168273ffffffffffffffffffffffffffffffffffffffff16141561090b576040517f08c379a0000000000000000000000000000000000000000000000000000000008152600401610902906122bb565b60405180910390fd5b600360008373ffffffffffffffffffffffffffffffffffffffff1673ffffffffffffffffffffffffffffffffffffffff168152602001908152602001600020549050919050565b60606001805461096190612671565b80601f016020809104026020016040519081016040528092919081815260200182805461098d90612671565b80156109da5780601f106109af576101008083540402835291602001916109da565b820191906000526020600020905b8154815290600101906020018083116109bd57829003601f168201915b5050505050905090565b6109ec610ea9565b73ffffffffffffffffffffffffffffffffffffffff168273ffffffffffffffffffffffffffffffffffffffff161415610a5a576040517f08c379a0000000000000000000000000000000000000000000000000000000008152600401610a519061225b565b60405180910390fd5b8060056000610a67610ea9565b73ffffffffffffffffffffffffffffffffffffffff1673ffffffffffffffffffffffffffffffffffffffff16815260200190815260200160002060008473ffffffffffffffffffffffffffffffffffffffff1673ffffffffffffffffffffffffffffffffffffffff16815260200190815260200160002060006101000a81548160ff0219169083151502179055508173ffffffffffffffffffffffffffffffffffffffff16610b14610ea9565b73ffffffffffffffffffffffffffffffffffffffff167f17307eab39ab6107e8899845ad3d59bd9653f200f220920489ca2b5937696c3183604051610b5991906121be565b60405180910390a35050565b610b76610b70610ea9565b83610f6a565b610bb5576040517f08c379a0000000000000000000000000000000000000000000000000000000008152600401610bac906123fb565b60405180910390fd5b610bc18484848461150a565b50505050565b6060610bd282610e3d565b610c11576040517f08c379a0000000000000000000000000000000000000000000000000000000008152600401610c089061233b565b60405180910390fd5b6000600660008481526020019081526020016000208054610c3190612671565b80601f0160208091040260200160405190810160405280929190818152602001828054610c5d90612671565b8015610caa5780601f10610c7f57610100808354040283529160200191610caa565b820191906000526020600020905b815481529060010190602001808311610c8d57829003601f168201915b505050505090506000610cbb611566565b9050600081511415610cd1578192505050610d14565b600082511115610d06578082604051602001610cee929190612133565b60405160208183030381529060405292505050610d14565b610d0f8461157d565b925050505b919050565b6000600560008473ffffffffffffffffffffffffffffffffffffffff1673ffffffffffffffffffffffffffffffffffffffff16815260200190815260200160002060008373ffffffffffffffffffffffffffffffffffffffff1673ffffffffffffffffffffffffffffffffffffffff16815260200190815260200160002060009054906101000a900460ff16905092915050565b600860009054906101000a900473ffffffffffffffffffffffffffffffffffffffff1681565b60007f01ffc9a7000000000000000000000000000000000000000000000000000000007bffffffffffffffffffffffffffffffffffffffffffffffffffffffff1916827bffffffffffffffffffffffffffffffffffffffffffffffffffffffff1916149050919050565b60008073ffffffffffffffffffffffffffffffffffffffff166002600084815260200190815260200160002060009054906101000a900473ffffffffffffffffffffffffffffffffffffffff1673ffffffffffffffffffffffffffffffffffffffff1614159050919050565b600033905090565b816004600083815260200190815260200160002060006101000a81548173ffffffffffffffffffffffffffffffffffffffff021916908373ffffffffffffffffffffffffffffffffffffffff160217905550808273ffffffffffffffffffffffffffffffffffffffff16610f24836107e8565b73ffffffffffffffffffffffffffffffffffffffff167f8c5be1e5ebec7d5bd14f71427d1e84f3dd0314c0f7b2291e5b200ac8c7c3b92560405160405180910390a45050565b6000610f7582610e3d565b610fb4576040517f08c379a0000000000000000000000000000000000000000000000000000000008152600401610fab9061227b565b60405180910390fd5b6000610fbf836107e8565b90508073ffffffffffffffffffffffffffffffffffffffff168473ffffffffffffffffffffffffffffffffffffffff16148061102e57508373ffffffffffffffffffffffffffffffffffffffff16611016846104a4565b73ffffffffffffffffffffffffffffffffffffffff16145b8061103f575061103e8185610d19565b5b91505092915050565b8273ffffffffffffffffffffffffffffffffffffffff16611068826107e8565b73ffffffffffffffffffffffffffffffffffffffff16146110be576040517f08c379a00000000000000000000000000000000000000000000000000000000081526004016110b59061237b565b60405180910390fd5b600073ffffffffffffffffffffffffffffffffffffffff168273ffffffffffffffffffffffffffffffffffffffff16141561112e576040517f08c379a00000000000000000000000000000000000000000000000000000000081526004016111259061223b565b60405180910390fd5b611139838383611624565b611144600082610eb1565b6001600360008573ffffffffffffffffffffffffffffffffffffffff1673ffffffffffffffffffffffffffffffffffffffff16815260200190815260200160002060008282546111949190612587565b925050819055506001600360008473ffffffffffffffffffffffffffffffffffffffff1673ffffffffffffffffffffffffffffffffffffffff16815260200190815260200160002060008282546111eb9190612500565b92505081905550816002600083815260200190815260200160002060006101000a81548173ffffffffffffffffffffffffffffffffffffffff021916908373ffffffffffffffffffffffffffffffffffffffff160217905550808273ffffffffffffffffffffffffffffffffffffffff168473ffffffffffffffffffffffffffffffffffffffff167fddf252ad1be2c89b69c2b068fc378daa952ba7f163c4a11628f55a4df523b3ef60405160405180910390a4505050565b6001816000016000828254019250508190555050565b600081600001549050919050565b600073ffffffffffffffffffffffffffffffffffffffff168273ffffffffffffffffffffffffffffffffffffffff161415611338576040517f08c379a000000000000000000000000000000000000000000000000000000000815260040161132f9061231b565b60405180910390fd5b61134181610e3d565b15611381576040517f08c379a00000000000000000000000000000000000000000000000000000000081526004016113789061221b565b60405180910390fd5b61138d60008383611624565b6001600360008473ffffffffffffffffffffffffffffffffffffffff1673ffffffffffffffffffffffffffffffffffffffff16815260200190815260200160002060008282546113dd9190612500565b92505081905550816002600083815260200190815260200160002060006101000a81548173ffffffffffffffffffffffffffffffffffffffff021916908373ffffffffffffffffffffffffffffffffffffffff160217905550808273ffffffffffffffffffffffffffffffffffffffff16600073ffffffffffffffffffffffffffffffffffffffff167fddf252ad1be2c89b69c2b068fc378daa952ba7f163c4a11628f55a4df523b3ef60405160405180910390a45050565b61149f82610e3d565b6114de576040517f08c379a00000000000000000000000000000000000000000000000000000000081526004016114d5906122fb565b60405180910390fd5b80600660008481526020019081526020016000209080519060200190611505929190611980565b505050565b611515848484611048565b61152184848484611629565b611560576040517f08c379a0000000000000000000000000000000000000000000000000000000008152600401611557906121fb565b60405180910390fd5b50505050565b606060405180602001604052806000815250905090565b606061158882610e3d565b6115c7576040517f08c379a00000000000000000000000000000000000000000000000000000000081526004016115be9061239b565b60405180910390fd5b60006115d1611566565b905060008151116115f1576040518060200160405280600081525061161c565b806115fb846117c0565b60405160200161160c929190612133565b6040516020818303038152906040525b915050919050565b505050565b600061164a8473ffffffffffffffffffffffffffffffffffffffff1661196d565b156117b3578373ffffffffffffffffffffffffffffffffffffffff1663150b7a02611673610ea9565b8786866040518563ffffffff1660e01b81526004016116959493929190612172565b602060405180830381600087803b1580156116af57600080fd5b505af19250505080156116e057506040513d601f19601f820116820180604052508101906116dd9190611dbe565b60015b611763573d8060008114611710576040519150601f19603f3d011682016040523d82523d6000602084013e611715565b606091505b5060008151141561175b576040517f08c379a0000000000000000000000000000000000000000000000000000000008152600401611752906121fb565b60405180910390fd5b805181602001fd5b63150b7a0260e01b7bffffffffffffffffffffffffffffffffffffffffffffffffffffffff1916817bffffffffffffffffffffffffffffffffffffffffffffffffffffffff1916149150506117b8565b600190505b949350505050565b60606000821415611808576040518060400160405280600181526020017f30000000000000000000000000000000000000000000000000000000000000008152509050611968565b600082905060005b6000821461183a578080611823906126d4565b915050600a826118339190612556565b9150611810565b60008167ffffffffffffffff81111561187c577f4e487b7100000000000000000000000000000000000000000000000000000000600052604160045260246000fd5b6040519080825280601f01601f1916602001820160405280156118ae5781602001600182028036833780820191505090505b5090505b60008514611961576001826118c79190612587565b9150600a856118d6919061271d565b60306118e29190612500565b60f81b81838151811061191e577f4e487b7100000000000000000000000000000000000000000000000000000000600052603260045260246000fd5b60200101907effffffffffffffffffffffffffffffffffffffffffffffffffffffffffffff1916908160001a905350600a8561195a9190612556565b94506118b2565b8093505050505b919050565b600080823b905060008111915050919050565b82805461198c90612671565b90600052602060002090601f0160209004810192826119ae57600085556119f5565b82601f106119c757805160ff19168380011785556119f5565b828001600101855582156119f5579182015b828111156119f45782518255916020019190600101906119d9565b5b509050611a029190611a06565b5090565b5b80821115611a1f576000816000905550600101611a07565b5090565b6000611a36611a318461245b565b612436565b905082815260208101848484011115611a4e57600080fd5b611a5984828561262f565b509392505050565b6000611a74611a6f8461248c565b612436565b905082815260208101848484011115611a8c57600080fd5b611a9784828561262f565b509392505050565b600081359050611aae81612cc2565b92915050565b600081359050611ac381612cd9565b92915050565b600081519050611ad881612cd9565b92915050565b600081359050611aed81612cf0565b92915050565b600081519050611b0281612cf0565b92915050565b600082601f830112611b1957600080fd5b8135611b29848260208601611a23565b91505092915050565b600082601f830112611b4357600080fd5b8135611b53848260208601611a61565b91505092915050565b600081359050611b6b81612d07565b92915050565b600060208284031215611b8357600080fd5b6000611b9184828501611a9f565b91505092915050565b60008060408385031215611bad57600080fd5b6000611bbb85828601611a9f565b9250506020611bcc85828601611a9f565b9150509250929050565b600080600060608486031215611beb57600080fd5b6000611bf986828701611a9f565b9350506020611c0a86828701611a9f565b9250506040611c1b86828701611b5c565b9150509250925092565b60008060008060808587031215611c3b57600080fd5b6000611c4987828801611a9f565b9450506020611c5a87828801611a9f565b9350506040611c6b87828801611b5c565b925050606085013567ffffffffffffffff811115611c8857600080fd5b611c9487828801611b08565b91505092959194509250565b60008060408385031215611cb357600080fd5b6000611cc185828601611a9f565b9250506020611cd285828601611ab4565b9150509250929050565b60008060408385031215611cef57600080fd5b6000611cfd85828601611a9f565b925050602083013567ffffffffffffffff811115611d1a57600080fd5b611d2685828601611b32565b9150509250929050565b60008060408385031215611d4357600080fd5b6000611d5185828601611a9f565b9250506020611d6285828601611b5c565b9150509250929050565b600060208284031215611d7e57600080fd5b6000611d8c84828501611ac9565b91505092915050565b600060208284031215611da757600080fd5b6000611db584828501611ade565b91505092915050565b600060208284031215611dd057600080fd5b6000611dde84828501611af3565b91505092915050565b600060208284031215611df957600080fd5b6000611e0784828501611b5c565b91505092915050565b611e19816125bb565b82525050565b611e28816125cd565b82525050565b6000611e39826124bd565b611e4381856124d3565b9350611e5381856020860161263e565b611e5c8161280a565b840191505092915050565b6000611e72826124c8565b611e7c81856124e4565b9350611e8c81856020860161263e565b611e958161280a565b840191505092915050565b6000611eab826124c8565b611eb581856124f5565b9350611ec581856020860161263e565b80840191505092915050565b6000611ede6032836124e4565b9150611ee98261281b565b604082019050919050565b6000611f01601c836124e4565b9150611f0c8261286a565b602082019050919050565b6000611f246024836124e4565b9150611f2f82612893565b604082019050919050565b6000611f476019836124e4565b9150611f52826128e2565b602082019050919050565b6000611f6a602c836124e4565b9150611f758261290b565b604082019050919050565b6000611f8d6038836124e4565b9150611f988261295a565b604082019050919050565b6000611fb0602a836124e4565b9150611fbb826129a9565b604082019050919050565b6000611fd36029836124e4565b9150611fde826129f8565b604082019050919050565b6000611ff6602e836124e4565b915061200182612a47565b604082019050919050565b60006120196020836124e4565b915061202482612a96565b602082019050919050565b600061203c6031836124e4565b915061204782612abf565b604082019050919050565b600061205f602c836124e4565b915061206a82612b0e565b604082019050919050565b60006120826029836124e4565b915061208d82612b5d565b604082019050919050565b60006120a5602f836124e4565b91506120b082612bac565b604082019050919050565b60006120c86021836124e4565b91506120d382612bfb565b604082019050919050565b60006120eb6018836124e4565b91506120f682612c4a565b602082019050919050565b600061210e6031836124e4565b915061211982612c73565b604082019050919050565b61212d81612625565b82525050565b600061213f8285611ea0565b915061214b8284611ea0565b91508190509392505050565b600060208201905061216c6000830184611e10565b92915050565b60006080820190506121876000830187611e10565b6121946020830186611e10565b6121a16040830185612124565b81810360608301526121b38184611e2e565b905095945050505050565b60006020820190506121d36000830184611e1f565b92915050565b600060208201905081810360008301526121f38184611e67565b905092915050565b6000602082019050818103600083015261221481611ed1565b9050919050565b6000602082019050818103600083015261223481611ef4565b9050919050565b6000602082019050818103600083015261225481611f17565b9050919050565b6000602082019050818103600083015261227481611f3a565b9050919050565b6000602082019050818103600083015261229481611f5d565b9050919050565b600060208201905081810360008301526122b481611f80565b9050919050565b600060208201905081810360008301526122d481611fa3565b9050919050565b600060208201905081810360008301526122f481611fc6565b9050919050565b6000602082019050818103600083015261231481611fe9565b9050919050565b600060208201905081810360008301526123348161200c565b9050919050565b600060208201905081810360008301526123548161202f565b9050919050565b6000602082019050818103600083015261237481612052565b9050919050565b6000602082019050818103600083015261239481612075565b9050919050565b600060208201905081810360008301526123b481612098565b9050919050565b600060208201905081810360008301526123d4816120bb565b9050919050565b600060208201905081810360008301526123f4816120de565b9050919050565b6000602082019050818103600083015261241481612101565b9050919050565b60006020820190506124306000830184612124565b92915050565b6000612440612451565b905061244c82826126a3565b919050565b6000604051905090565b600067ffffffffffffffff821115612476576124756127db565b5b61247f8261280a565b9050602081019050919050565b600067ffffffffffffffff8211156124a7576124a66127db565b5b6124b08261280a565b9050602081019050919050565b600081519050919050565b600081519050919050565b600082825260208201905092915050565b600082825260208201905092915050565b600081905092915050565b600061250b82612625565b915061251683612625565b9250827fffffffffffffffffffffffffffffffffffffffffffffffffffffffffffffffff0382111561254b5761254a61274e565b5b828201905092915050565b600061256182612625565b915061256c83612625565b92508261257c5761257b61277d565b5b828204905092915050565b600061259282612625565b915061259d83612625565b9250828210156125b0576125af61274e565b5b828203905092915050565b60006125c682612605565b9050919050565b60008115159050919050565b60007fffffffff0000000000000000000000000000000000000000000000000000000082169050919050565b600073ffffffffffffffffffffffffffffffffffffffff82169050919050565b6000819050919050565b82818337600083830152505050565b60005b8381101561265c578082015181840152602081019050612641565b8381111561266b576000848401525b50505050565b6000600282049050600182168061268957607f821691505b6020821081141561269d5761269c6127ac565b5b50919050565b6126ac8261280a565b810181811067ffffffffffffffff821117156126cb576126ca6127db565b5b80604052505050565b60006126df82612625565b91507fffffffffffffffffffffffffffffffffffffffffffffffffffffffffffffffff8214156127125761271161274e565b5b600182019050919050565b600061272882612625565b915061273383612625565b9250826127435761274261277d565b5b828206905092915050565b7f4e487b7100000000000000000000000000000000000000000000000000000000600052601160045260246000fd5b7f4e487b7100000000000000000000000000000000000000000000000000000000600052601260045260246000fd5b7f4e487b7100000000000000000000000000000000000000000000000000000000600052602260045260246000fd5b7f4e487b7100000000000000000000000000000000000000000000000000000000600052604160045260246000fd5b6000601f19601f8301169050919050565b7f4552433732313a207472616e7366657220746f206e6f6e20455243373231526560008201527f63656976657220696d706c656d656e7465720000000000000000000000000000602082015250565b7f4552433732313a20746f6b656e20616c7265616479206d696e74656400000000600082015250565b7f4552433732313a207472616e7366657220746f20746865207a65726f2061646460008201527f7265737300000000000000000000000000000000000000000000000000000000602082015250565b7f4552433732313a20617070726f766520746f2063616c6c657200000000000000600082015250565b7f4552433732313a206f70657261746f7220717565727920666f72206e6f6e657860008201527f697374656e7420746f6b656e0000000000000000000000000000000000000000602082015250565b7f4552433732313a20617070726f76652063616c6c6572206973206e6f74206f7760008201527f6e6572206e6f7220617070726f76656420666f7220616c6c0000000000000000602082015250565b7f4552433732313a2062616c616e636520717565727920666f7220746865207a6560008201527f726f206164647265737300000000000000000000000000000000000000000000602082015250565b7f4552433732313a206f776e657220717565727920666f72206e6f6e657869737460008201527f656e7420746f6b656e0000000000000000000000000000000000000000000000602082015250565b7f45524337323155524953746f726167653a2055524920736574206f66206e6f6e60008201527f6578697374656e7420746f6b656e000000000000000000000000000000000000602082015250565b7f4552433732313a206d696e7420746f20746865207a65726f2061646472657373600082015250565b7f45524337323155524953746f726167653a2055524920717565727920666f722060008201527f6e6f6e6578697374656e7420746f6b656e000000000000000000000000000000602082015250565b7f4552433732313a20617070726f76656420717565727920666f72206e6f6e657860008201527f697374656e7420746f6b656e0000000000000000000000000000000000000000602082015250565b7f4552433732313a207472616e73666572206f6620746f6b656e2074686174206960008201527f73206e6f74206f776e0000000000000000000000000000000000000000000000602082015250565b7f4552433732314d657461646174613a2055524920717565727920666f72206e6f60008201527f6e6578697374656e7420746f6b656e0000000000000000000000000000000000602082015250565b7f4552433732313a20617070726f76616c20746f2063757272656e74206f776e6560008201527f7200000000000000000000000000000000000000000000000000000000000000602082015250565b7f456e74697479206973206e6f7420726567697374657265640000000000000000600082015250565b7f4552433732313a207472616e736665722063616c6c6572206973206e6f74206f60008201527f776e6572206e6f7220617070726f766564000000000000000000000000000000602082015250565b612ccb816125bb565b8114612cd657600080fd5b50565b612ce2816125cd565b8114612ced57600080fd5b50565b612cf9816125d9565b8114612d0457600080fd5b50565b612d1081612625565b8114612d1b57600080fd5b5056fea26469706673582212204ab4ccfab57eabdc9df158aef495907716de23b60a85d4234cd759477d9363bb64736f6c63430008040033",
  "linkReferences": {},
  "deployedLinkReferences": {}
}